:020000040000FA
:10000000020A97AF885388AF758C38758A13758D3F
:10001000E9EF5440FEEF54104E42882275E34175DB
:10002000E10422020086E59154045391FB75933854
:1000300075929E439104429122222202090F90015F
:1000400012120B7343C812E4F5DA43930CC004C0D8
:1000500005C006C00790010E120B3F900117120554
:1000600026D007D006D005D0041209EC900112E08A
:10007000F5A722020CBA200AFDD20AD20BD2C52063
:070080000AFD2202072B32EA
:10008B00020C8DE508240DF582E43401F583E005BF
:10009B00082290010A30080390010DE475F001125B
:1000AB0005BB0205632001E97F2ED2018018EF54B6
:1000BB000F2490D43440D4FF30050BEF24BFB41A77
:1000CB000050032461FFE50960021509050CE50CDE
:1000DB007002050B30080E90010AE475F001120551
:1000EB00BBEF0205A9020C9D7403D2088003E4C286
:1000FB0008F50890010A1205D2E4F509F50BF50C89
:10010B00E50960077F201200D180F5750AFFC20256
:10011B00C201C203C204C206C207C20912009DFF7C
:10012B00700D3008057F001200E2AF0CAE0B22B44D
:10013B00255FC2D5C20512009DFF24D0B40A005022
:10014B001A75F00A780930D50508B6FF0106C6A462
:10015B0026F620D5047002D20480D924CFB41A001D
:10016B00EF5004C2E5D2050202E3D20280C6D201EF
:10017B0080C0D20380BCD2D580BAD20680B47F2097
:10018B001200D12003077401B5090040F112008E53
:10019B00FF1200D102010BD209D207809512008EFB
:1001AB00FB12008EFA12008EF94A4B700679B47A64
:1001BB00037BFF20032EE509602A7E008E82758368
:1001CB000012057C60060EEE650A70F0C2D5EBC01E
:1001DB00E0EAC0E0E9C0E0EE12032AD0E0F9D0E09B
:1001EB00FAD0E0FB120563FF60AAEBC0E0EAC0E0C7
:1001FB00E9C0E01200D1D0E02401F9D0E03400FADC
:10020B00D0E0FBE50A0460DCD50AD980877BFF7A56
:10021B00037926D203809C791080027908C207C229
:10022B00098008D2D5790A8004790AC2D5E50A0477
:10023B007002F50AE4FAFDFEFF12008EFC7B08202B
:10024B00021312008EFD7B1030010A12008EFE127B
:10025B00008EFF7B20EC3382D592D55013C3E43054
:10026B0001069FFFE49EFEE42002039DFDE49CFC3F
:10027B00E4CBF8C202EC700CCFCECDCCE824F8F86E
:10028B0070F38017C3EF33FFEE33FEED33FDEC332A
:10029B00FCEB33FB994002FB0FD8E9EB300205F87E
:1002AB00D0E0C448B202C0E00AEC4D4E4F78207B40
:1002BB000070C2EAB50A0040BCC0E012032CD0F0BB
:1002CB00D0E0200204C4C0E0C4B202C0F01200BAF5
:1002DB00D0F0D5F0EB02010B1205DB01A853022283
:1002EB005801794C01754202264F022E44022E49C9
:1002FB00018E430234550218460218450218470373
:10030B00D450017D2D01812E01A42B01852301A247
:10031B002003BD2A013D480000019C3F3F3F00796F
:10032B000AA2D5200414300609B910020404B90836
:10033B000104A2D52007025001042003689203B5E3
:10034B0009005034C0E07F203004197F30A20372C3
:10035B00077206500F120383C203C207C206C209FB
:10036B007F30800F300603E9C0E01200D130060366
:10037B00D0E0F9D0E0B509CC3006177F30B9100CBE
:10038B001200D17F583005077F788003B90803121C
:10039B0000D13003057F2D0200D17F202009F87F8B
:1003AB002B2007F322920380CF286E756C6C2900EB
:1003BB00D20212008E3002F8C202780930D5010841
:1003CB00F602013D2D5043495812008E2403B4050B
:1003DB00004001E49003CF931200C2743A1200C2A2
:1003EB00D204750904020222A3F8E0C5F025F0F04F
:1003FB00E582158270021583E0C838F0E822E88F99
:10040B00F0A4CC8BF0A42CFCE98EF0A42CFC8AF08D
:10041B00EDA42CFCEA8EF0A4CDA8F08BF0A42DCC8F
:10042B003825F0FDE98FF0A42CCD35F0FCEB8EF0E8
:10043B00A4FEA9F0EB8FF0A4CFC5F02ECD39FEE4CE
:10044B003CFCEAA42DCE35F0FDE43CFC2275F00813
:10045B00758200EF2FFFEE33FECD33CDCC33CCC501
:10046B008233C5829BED9AEC99E58298400CF5821C
:10047B00EE9BFEED9AFDEC99FC0FD5F0D6E4CEFB8E
:10048B00E4CDFAE4CCF9A88222B800C1B90059BA7C
:10049B00002DEC8BF084CFCECDFCE5F0CBF97818AA
:1004AB00EF2FFFEE33FEED33FDEC33FCEB33FB10A4
:1004BB00D703994004EB99FB0FD8E5E4F9FA2278BE
:1004CB0018EF2FFFEE33FEED33FDEC33FCC933C9D0
:1004DB0010D7059BE99A4007EC9BFCE99AF90FD8DA
:1004EB00E0E4C9FAE4CCFB2275F010EF2FFFEE33FA
:1004FB00FEED33FDCC33CCC833C810D7079BEC9A39
:10050B00E899400AED9BFDEC9AFCE899F80FD5F0C1
:10051B00DAE4CDFBE4CCFAE4C8F922ECF0A3EDF07D
:10052B00A3EEF0A3EFF022A8828583F0D083D082D4
:10053B00120549120549120549120549E473E49362
:10054B00A3C583C5F0C583C8C582C8F0A3C583C541
:10055B00F0C583C8C582C822BB010689828A83E0A5
:10056B00225002E722BBFE02E32289828A83E493B4
:10057B0022BB010CE58229F582E5833AF583E02263
:10058B005006E92582F8E622BBFE06E92582F8E251
:10059B0022E58229F582E5833AF583E49322BB01B8
:1005AB000689828A83F0225002F722BBFE01F322D6
:1005BB00F8E0FBA3A3E0F925F0F0E58215827002C9
:1005CB001583E0FA38F022EBF0A3EAF0A3E9F0226E
:1005DB00D083D082F8E4937012740193700DA3A3AF
:1005EB0093F8740193F5828883E4737402936860C3
:1005FB00EFA3A3A380DFC10C410106166100000627
:10060B0011050600000000000000000000000000C3
:10061B0000000000000000000000000000000000CF
:10062B0000000000000000000000000000000000BF
:10063B0000000000000000000000000000000000AF
:10064B00000000000000000000000000000000009F
:10065B00000000000000000000000000000000008F
:10066B000000000000000000000000000000380047
:10067B00000000000000000000000000000000006F
:10068B00110023800070000000000000000000003B
:10069B000000010846495420000000000000000043
:1006AB00000000001F00093A313030323937313148
:1006BB0030312020202020203120426807D00063D9
:1006CB0002000000353238363230373530202020EA
:1006DB0020202020313531303133202000000029FB
:1006EB0000000000000000000000000000000000FF
:1006FB0000000000000000000000000000000000EF
:10070B004200000000410002004801490104080CAE
:10071B0010182030480151030104000506070200A0
:10072B00C0E0C0F0C083C082C0D075D000C000C094
:10073B0004C006C007E5B9540F14602E146043249F
:10074B00FE604924FA601624FE603C1460392404D0
:10075B00703D53B9F6120BC84035E4800853B9F518
:10076B009000027401F0A3F08025E5B930E4055345
:10077B00B9EF8009120BC84004E4F0A3F053B9FEA3
:10078B00800D53B9FD800853B9FB807D53B9FBE550
:10079B00AB20E272900106E5BCF0900003E0B401DF
:1007AB00EE900106E0645060E6900002E014702FBA
:1007BB00900106E0C39480401D900085E075F080A9
:1007CB00A4FF900106E07C002FFEEC35F0900000BA
:1007DB00F0A3CEF08029120BF5F0A3EFF0802012DE
:1007EB000BF575F0011203F3FC740625F0F582741A
:1007FB00003CF583EFF0120BE14004E4F0A3F09022
:10080B000002E4F0808953B9DFD007D006D004D0C2
:10081B0000D0D0D082D083D0F0D0E032120CACC25A
:10082B00A390013674FDF020922D75E340C293E442
:10083B00900109F0900109E004F0E0B4FFF6D293C7
:10084B003093FDE4900109F0900109E004F0E0B46D
:10085B000AF6E4F5E380D0120BFFC2A3C2AF75A773
:10086B002053BAFE43BA44D2AF90010E12053200A8
:10087B0001C2007F207ED77D757C0112003EC2B481
:10088B00D2A2C294C20AE4900107F0900132F0A305
:10089B00F0E4FFFE7BFF7A0B79841200F9E4900100
:1008AB0034F0900109E0900135F0900109F09001CE
:1008BB00467410F0120CFA120076900147E0FEA37A
:1008CB00E0FDEDFF7BFF7A0B799490010DEEF0A329
:1008DB00EFF01200F9D3900133E09400900132E075
:1008EB0094004004D2948002B294900109E0C39426
:1008FB00105005E004F08005E4900109F07FE81248
:10090B000C33808DC0E0C083C082C0D075D000C0D6
:10091B0007C20030C2030209BAE5C054F02480605C
:10092B006624C0602624E060030209B6900146E00D
:10093B0025E0F5C253C2FEA20BE43342C2C2C590FE
:10094B0000057401F0900004F0806630C125200B87
:10095B0060900004E0FFD39402501274332FF582A1
:10096B00E43401F583E0F5C2900004802ED2C4C2BA
:10097B000A803ED2C4D2C5900133E004F0703290AD
:10098B000132E004F0802A900005E0FFC39402746A
:10099B0046500D120BE9D2C1900005E004F0801116
:1009AB00120BE9C20AC2C1D2C48006D2008002D2A5
:1009BB000030002053C17F43C180C2C5C2C4C2C135
:1009CB00C20AC200C294900133E004F07006900199
:1009DB0032E004F0C2C0D007D0D0D082D083D0E0B8
:1009EB003290011312052690011D120B7390011307
:1009FB00E0C313FEA3E013FFE4FCFD120B4B2FFF30
:100A0B00EA3EFEED39FDEC38FC900117A3A3A3E001
:100A1B00FB12049490011CEFF0E490011BF0900189
:100A2B001BE0FFC39408506274492F120B7A90019C
:100A3B001CE0FEEFC39E404AE47F02FEFDFC120B5E
:100A4B004BFB120B6790011BE02449120B7AE4FC61
:100A5B00FDFE120B67900113120B3F120494C3E4BB
:100A6B009FFFE49EF596EFF59590011BE02451F561
:100A7B0082E43401F583E04440429490011DE0F59B
:100A8B00A72290011BE004F0809480FE12003978BD
:100A9B00FFE4F6D8FD758121020AE1020827E493F1
:100AAB00A3F8E493A34003F68001F208DFF4802956
:100ABB00E493A3F85407240CC8C333C4540F442045
:100ACB00C8834004F456800146F6DFE4800B010234
:100ADB00040810204080900601E47E019360BCA3C3
:100AEB00FF543F30E509541FFEE493A360010ECF82
:100AFB0054C025E060A840B8E493A3FAE493A3F8AC
:100B0B00E493A3C8C582C8CAC583CAF0A3C8C5826B
:100B1B00C8CAC583CADFE9DEE780BE75A720E593A7
:100B2B00540C1313543F2405FFC374089FFE74FF2A
:100B3B00A8060822E0FCA3E0FDA3E0FEA3E0FF2251
:100B4B00900117E0F8A3E0F9A3E0FAA3E022AEA727
:100B5B0075A720EFF452C8AF068FA722120409A87D
:100B6B0004A905AA06AB0722E5A7F075A72022F575
:100B7B0082E43401F583E0FF220D0A205374617285
:100B8B007420546573742120000D0A20534D425F6D
:100B9B00444154415F494E3A205B305D5B315D2DE2
:100BAB003E30782530325820000D0A456E74657240
:100BBB00206368617261637465723A200090000073
:100BCB00E475F0011203F3FE740625F0F582740050
:100BDB003EF583E0F5BBC3900000E09401222FF5B6
:100BEB0082E43401F583E5C2F022900106E0FF9028
:100BFB000000E42290010AE5A7F0120D04120D1774
:100C0B00120D1E12001C120D0E12000312002612E2
:100C1B000C57120CD5120D25120C7D120C6D120CEB
:100C2B00E290010AE0F5A7225388CF5389F043895C
:100C3B0001438E04EF6012C28C758CA0758A4CC276
:100C4B008DD28C308DFD1F80EBC28C2275A710E5E9
:100C5B009854045398FB75A33875A29E439804428D
:100C6B00982275AD8875BD5053BAFB43BA1843BA79
:100C7B00022275A7207594437596FF75959643C808
:100C8B00102275A72053BAFD43BA0275A7105398CB
:100C9B007F32AEA775A72030C9FD8F92C2C98EA730
:100CAB0022AFA7120CC812003A120CEF8FA72253D7
:100CBB00C17F43C18053917FC2C5C20A32E4F5A7FD
:100CCB0075A60875A72075CC0822E4F5A7758E09C3
:100CDB0075892043884022E4F5A775E68175F306F4
:100CEB0075A89022E4F5A7F5A9E5A930E7FB22202A
:100CFB000AFDD20AC20BD2C522E4F5A77597DE75A1
:100D0B0097AD22E4F5A9E5A930E7FB2275A4107590
:100D1B00D4FF2275A51075D5032253C1FC43C1DD49
:010D2B0022A5
:00000001FF
