:020000040000FA
:1000000002022F5388CF5389F0438901438E04EFB6
:100010006012C28C758CA0758A4CC28DD28C308DCA
:10002000FD1F80EBC28C22E59154045391FB759324
:100030003875929E4391044291222202007685A750
:100040001812027B1202A41202A812028F1201E4FB
:1000500012002712028512029612029D8518A7220D
:1000600085A7181202591200701202668518A7227D
:01007000226D
:1000730002023EC0E0C0D075D000C000C20220C260
:100083007BE5C054F02480604E24C0601D24E070E2
:1000930067E50F25E0F5C253C2FEA201E43342C275
:1000A300C2C5751A01751901805430C11C20014E57
:1000B300E519D39508500C740A2519F8E6F5C2051D
:1000C30019803BD2C4C2008035D2C4D2C5050AE52B
:1000D3000A702B05098027E51AC39402740F500B8D
:1000E300251AF8A6C2D2C1051A8013251AF8A6C28A
:1000F300C200C2C1D2C48006D2028002D202300240
:100103001A53C17F43C180C2C5C2C4C2C1C200C2A7
:1001130002C294050AE50A70020509C2C0D000D0E4
:10012300D0D0E032120060C2B420923475E340C2F2
:1001330093E4F514F5150515E51570020514F4455A
:100143001470F3D2933093FDE4F514F5150515E51A
:100153001570020514640A451470F2E4F5E380C9CE
:1001630012003ED294E4F512F509F50AE4F514F50C
:1001730015E4FFFE1201C48E168F177DCD7CAB7F75
:10018300117E98120200E4F514F515AE14AF15E4D0
:10019300FCFDFB7A80F9F8D3120219400A0515E534
:1001A3001570E8051480E4B2940515E51570020591
:1001B30014C394FFE514940040B77F321200038008
:1001C300ABAC06750802750F10ECF50BEFF50C12CE
:1001D3000271750F1012024CE510FEE511FDEDFFE3
:1001E30022AF885388AF758C38758A13758D347533
:1001F3008B34EF5440FEEF54104E428822AA06750A
:100203000804750F10EAF50BEFF50CECF50DEDF5A1
:100213000E120271D322EB9FF5F0EA9E42F0E99DA4
:1002230042F0EC6480C864809845F02212003A786A
:100233007FE4F6D8FD75812002012753C17F43C1B6
:100243008053917FC2C5C200322000FDD200D2018B
:10025300D2C52000FD22E4F5A775A60875A7207571
:10026300CC0822E4F5A7F5A9E5A930E7FB22200095
:10027300FDD200C201D2C522E4F5A77597DE7597BA
:10028300AD22758E017589204388402275E3407540
:10029300E1042253C1FC43C1DD2275E68175A880C8
:0902A3002275D4FF2275D5032257
:00000001FF
