:020000040000FA
:100000000233A9900104E5A7F012391C12008612F0
:10001000003412006A12383D12388512386F12000F
:10002000761239261238BA1239041238F7900104C0
:10003000E0F5A72275A55075D50322022F7AE4FDBD
:10004000FC7F0D7E98AB07AA069001B97404F0906E
:1000500001C27410F0EA9001BEF0EFA3F0ECA3F03F
:10006000EDA3F01235EB50FBD32275E34175E104AB
:0200700022224A
:100073000238E9E4F5A7758E01758920438840228B
:07008300022E4C75D4FF2290
:10008B000238CA534D4230434600534D423054431D
:10009B0000534D4230434E3000534D423041445299
:1000AB0000534D423041444D00534D423044415476
:1000BB0000534D423046434E3000534D4230464381
:1000CB004E3100534D423052584C4E00534D42303E
:1000DB004643540050314D41534B0050314D415428
:1000EB000050310050314D44494E0050314D444F7A
:1000FB005554005031534B4950000D0A30B5D8D6EA
:10010B00B7D6B5CEAAA3BA3078253034780D0A000D
:10011B004C6F6164204669726D7761726520537410
:10012B006172742E2E2E2E2E2E004C6F6164204683
:10013B0069726D7761726520456E642E2E2E2E2EA0
:10014B002E004D4355205354415254204F4B2E2ECD
:10015B002E2E2E2E00C2ED0100C7F800000100016B
:10016B000000001A580100000000000FD000000F23
:10017B00D000000FD000000FD000000FD000000FF8
:10018B00D000000FD000000FD000000FD000000FE8
:10019B00D000000FD000000FD000000FD000000FD8
:1001AB00D000000000000000000000000000000074
:1001BB00000100050400000000000000000000002A
:1001CB000000000000000000000000000000000024
:1001DB00000100059C010006440100066C040000B0
:1001EB004001F4010000200004000201F4020000B1
:1001FB00020001FFFC00010006000A0006000500DA
:10020B0005003B001E0001000A000000000000007A
:10021B000001000003004B003201900506000000B6
:10022B000000000000000000981000A989100DCB01
:10023B00AB1000DCBC10065DCD0000065D000000BD
:10024B0076000000000000021000032F01000000E8
:10025B0000000103E80200018000200606001400E4
:10026B000000000000000000001820010000000149
:10027B0073A8211D589C21FFE0B8640082D40110A3
:10028B0004A8409805AC84FFFFD401B014E2C3105E
:10029B00009C400001A4840003E0421802D401A09A
:1002AB0010E2842000B8420008D4017008E29420C8
:1002BB00009DC00000D401900CD401C018D401489B
:1002CB001CD40108009E940004E04410009F000021
:1002DB000AAA4E000007C004E0A8760000E16BA05C
:1002EB0048186000008CB7003EA8632DF0A56B008A
:1002FB0007E16B18008C8B0000E5642800100000F0
:10030B0007A8770000E0A52002E572280010000086
:10031B000315000000AA4500008C63003FE5A418FC
:10032B000010000006E0841802E56E2000100000AB
:10033B000315000000A9C400009F18FFFFBC380084
:10034B000013FFFFE5150000009E52FFFFBC32FFBC
:10035B00FF0C000006A860980407C004D3A8820015
:10036B000003FFFFFB9E52FFFF9C4200049DCEFF4C
:10037B00FFBC2EFFFF0C000006A860980407C0040A
:10038B00CAA882000003FFFFFB9DCEFFFF85210063
:10039B001C842100008441000485C10008864100B3
:1003AB000C8681001086C100148701001844004898
:1003BB00009C2100209C21FFE8D4017008D4014847
:1003CB0014D4010800D4011004D401900CD401A062
:1003DB0010A9C30000946E0000BC2300000C0000A9
:1003EB0016A4430F00BC2208001000000E968E00CE
:1003FB00029E400000A443F0FFA880FFFFE0629044
:10040B0000A8B4000007C0049F9E520100BC320834
:10041B000013FFFFFBA880FFFF03FFFFEF9DCE0044
:10042B0004A880FFFF07C00497A8B4000003FFFFD8
:10043B00EA9DCE0004852100148421000084410034
:10044B000485C100088641000C86810010440048D9
:10045B00009C2100189CA000019C21FFF4E085204A
:10046B0008D4011004A8430000A8609811A8A400A8
:10047B0000D401480807C00483D4010800B46050BD
:10048B0001D40218089C600000DC02181A852100B8
:10049B00088421000084410004440048009C210092
:1004AB000CA4A400079C21FFF0B8A5000BD40110ED
:1004BB00049CC03800A84400009C80004ED40170FE
:1004CB0008D401480CA9C3000007C00783D4010856
:1004DB0000A4A20008A86E0000BC050000100000DC
:1004EB00039C8000DF9CA0002207C0077B9CC00000
:1004FB00E28521000C842100008441000485C100A9
:10050B0008440048009C2100109C21FFECD40110F2
:10051B0004D4017008D4014810D4010800D4019010
:10052B000CA84300008E4300148CA3000CA65200B1
:10053B0007E572280010000004A9C40000000000A9
:10054B00059CA5FFFFE5B22800100000039CA50049
:10055B0001D802280C8CA2000CA4A50007A86E00E1
:10056B0000B8A5000B9C80004E07C0075B9CC038F1
:10057B00008C62000CE42390001000001585210014
:10058B00108C82001407FFFFC7A86E0000A86E0036
:10059B00009CA002009CC03F8007C0074F9C8000BE
:1005AB0001A862000007FFFFACA88E0000B46050EA
:1005BB0001D40218089C60001EA88E0000D80218F7
:1005CB000E07FFFF2DA8620000852100108421007B
:1005DB00008441000485C100088641000C4400489A
:1005EB00009C2100149C21FFF0D401480CD401087D
:1005FB0000D4011004D401700899C3001ABC0E007A
:10060B00000C0000168521000CB440500184A3009F
:10061B0008E042280298B7001CB8420059E482282F
:10062B00001000000E8521000CA84300001860018B
:10063B000007C00806A8631A489C600001DC02187A
:10064B001A8C62000FBC030000100000048521000F
:10065B000CD802700E8521000C842100008441000F
:10066B000485C10008440048009C210010B86300B9
:10067B00849C21FFF4D4011004A443000FD401483F
:10068B0008BC02000210000013D4010800BC0200D9
:10069B000310000009BC0200000C00000A186001E6
:1006AB000007FFFF45A86318649C6000050000006D
:1006BB000FA88200001860010000000008A8631852
:1006CB00FC07C002F19C6000020000000B852100BA
:1006DB000818600100A86319A407FFFF3715000075
:1006EB00009C6000059C80000007C002EA1500001A
:1006FB000085210008842100008441000444004847
:10070B00009C21000C9C21FFF8A48300FFD401481E
:10071B0004BC04000010000006D401080007C0024E
:10072B00DA9C6000020000001F8521000407C00254
:10073B00D99C60000DA860981007C006C89C80006B
:10074B001A07C003C5A8609818B88B008CA56B005E
:10075B000FBC0B00001000000CAC64000DE0A018E7
:10076B0002E0651804BD83000010000008BC040003
:10077B00009C60000D07C002C79C800001000000B8
:10078B000985210004BC04000013FFFFEB150000DA
:10079B000007C002BD9C60000D03FFFFE8A8609836
:1007AB001084210000440048009C2100089C21FF7C
:1007BB00F8A89700009CA00042D401480407C0068B
:1007CB007CD40108008521000484210000440048EA
:1007DB00009C2100089C21FFF4D4011004A44300C9
:1007EB000FD4014808BC2200011000000CD40108F2
:1007FB000018800100A8609819A88400F807C003AE
:10080B008A948400009C60000F07C002A2A882009B
:10081B000000000006852100081860008907C0064B
:10082B004CA8636AAF852100088421000084410035
:10083B0004440048009C21000C9C21FFD41860014B
:10084B000018800100D401100418400100A8631A9D
:10085B0058A8841F98A84200F8D4014828D401084E
:10086B0000D4017008D401900CD401A010D401B0B5
:10087B0014D401C018D401D01CD401E02007C0034C
:10088B00C0D401F02407C003661500000094620079
:10089B0000BC230000100000071860010018800145
:1008AB0000A8630000040003BCA8841A58DC02589B
:1008BB00001AE00100AAF70074A860981407C0039F
:1008CB0066A840FFF0E42B1000100000061840CF84
:1008DB00FF07C0035A9C60000007BFFE8515000090
:1008EB0000A842FFFFC14010009C800000C14020C7
:1008FB0001186001009DC0FFFF07C00754A86317D4
:10090B002C9DCE0001A5CE0007B86E0003B84E009B
:10091B0006E043100018600100A8631D58E0421860
:10092B000007C0079FA86E0000B96B0088BDAB0025
:10093B001F100001CBBD4B0017A64B001FBD520073
:10094B000910000009BD92000BBD720008100000D9
:10095B00D8BC1200021000000C9C80FFFE000003AC
:10096B008A1500000010000388BDB2000C100001B6
:10097B0004BC1200181000016DA880820000000357
:10098B0082150000008C6200429EC00001E06320D3
:10099B0003E2D67008D802184207C0032FA860984C
:1009AB000FA8609816E16B704807C0032BA64B008D
:1009BB0001A8609811D8029010A89600009CA00086
:1009CB000007C00330AA8B00009062000EBC23000E
:1009DB00641000000CA474FFFFE0637088A4630034
:1009EB0001BC03000010000360A8960000A86098EB
:1009FB001607C003249CA000009C600000D80218BE
:100A0B000E07C007AAA86E0000A56B00FFBC120062
:100A1B00001000002CD802580F94B700249CC00083
:100A2B003FA4A5003FA86E000007C0062B9C8000CA
:100A3B007818600100A88E000007C00704A863188F
:100A4B002018600100A88E000007C00700A86317DC
:100A5B00EC9C800008A86E0000D802200E07C00690
:100A6B001A9C80004EB96B00128CA2000FB96B0060
:100A7B005DBC050000A86E00001000000CD80258E9
:100A8B000C9CA000009C80000107C006139CC0407A
:100A9B000094570018BC220000100000039CA0001B
:100AAB0002A8A20000A86E00009C8000DF9CC00082
:100ABB000207C00609150000000000006D949700A6
:100ACB0000BC0B0000100000319CC0003F94B7002D
:100ADB0024A4A5003FA86E00009C80007807C005E9
:100AEB00FEBA94001018600100A88E000007C00623
:100AFB00D7A863182018600100A88E000007C00655
:100B0B00D3A86317EC9C6000059C800008D80218E2
:100B1B000DBD74000010000006D802200E9C600072
:100B2B00079C800001D802180DD80220108CA2005F
:100B3B000DA4A50007A86E0000B8A5000B9C8000B3
:100B4B004E07C005E59CC038008C62000DD802181A
:100B5B000C94570018BC220000100000039CA0004E
:100B6B0002A8A20000A86E00009C8000DF07C00551
:100B7B00DA9CC00002A86E00009C8000019CA000C3
:100B8B000003FFFFCC9CC040008C62000E9C63FFF7
:100B9B00F6BC43000D1000003B18600100B4605020
:100BAB000184A20004E063280294B70010B863002C
:100BBB0050E485180010000032E0B770008CC200C2
:100BCB00139C660012B8630002E077180084630080
:100BDB0000B883005CD40218209C84001AB88400EF
:100BEB0002E097200084840000D8029012D40220E7
:100BFB0024A48300FFB8630004A4E4000FA48400C2
:100C0B0007B8630048D802200CD8023814D4021855
:100C1B002018600100DC029018DC029016D8053019
:100C2B002CA88E000007C00689A86317EC8CA200C5
:100C3B000C98970022E58520001000000915000094
:100C4B000094B70080A4A5007FA86E0000B8A50093
:100C5B00079C80000107C005A09CC03F808C8200D0
:100C6B001407FFFE10A86E00009497000007C00544
:100C7B00A3A86E0000000002C4150000001860015C
:100C8B0000A88E000007C00671A86317889C80001F
:100C9B001F9C600000D802201CD802201D9C8000E5
:100CAB0008D8021812000002B8D802200E8E82005B
:100CBB0012BC340000100000079C600010B46050A0
:100CCB0001D40218049C600009D802180E9C600025
:100CDB0010E283A088BC3400001000000315000054
:100CEB00009E800001A86E000007C005779C800065
:100CFB0074A56BFFFFBC4B0001100000039C600050
:100D0B00019C600000A46300FFBC230000100000E6
:100D1B00058C62001CBC3200091000000815000095
:100D2B0000D802181EBC43003E0C000005E283A055
:100D3B0000000000058CA2001CE283A002D802A0D8
:100D4B001C8CA2001CA86E00009CC0007F9C800025
:100D5B004A07C00561A4A5007FA86E00009C800017
:100D6B004907C0056A9CA00000A8808B8C07C005B2
:100D7B005FA86E000000000284150000008E820048
:100D8B00129C600010E283A088BC340000100000AD
:100D9B0003150000009E800001A86E000007C0052F
:100DAB004A9C800074A56BFFFFBC4B000110000038
:100DBB00048C62001D00000006E283A002BC43000D
:100DCB003E10000004D802181FE283A000D802A036
:100DDB001D8CA2001DA86E00009C80004CA4A500D9
:100DEB007F07C0053D9CC0007F8C620012BC430096
:100DFB0006100000109C800078A8A0FFFFA86E00D2
:100E0B000007C005429C800049A880888907C0055F
:100E1B0037A86E00008C6200129C630001BC32008C
:100E2B000C10000259D80218120000003B18600188
:100E3B000094B70024A86E0000A4A5003F9CC0003E
:100E4B003F07C005259E40000018600100A88E00DA
:100E5B000007C005FEA86318208C62001FE40390F6
:100E6B00001000000F9C80000007C001B18C6200D5
:100E7B001E8C62001F07C001AEAA4B0000A87200B7
:100E8B000007C00182A88B00009C80000707C002EE
:100E9B0056A86B00009E4BFF809C800000A86098BA
:100EAB001607C001EDD4022020A56B8000BC2B00DF
:100EBB0000100000139C600006BDB2004B10000038
:100ECB000EBDB200721000000C9D600001BDB2009F
:100EDB0087100000099D600002BDB200CB1000001E
:100EEB00069D600003BD5200FE100000039D6000D4
:100EFB00059D6000049C600005E0635802D8021851
:100F0B0013E0777000D80390409C60000AD8021859
:100F1B000E18600100A88E000007C005CCA863184E
:100F2B0048000002121860010007C004F0A86E0010
:100F3B00008C620042A8630001D802184207C0056A
:100F4B0065A86E0000A86E000007C0052FAA4B0015
:100F5B00009477001AE48B1800100000059E5200D5
:100F6B0010BCB200201000000915000000A86E0094
:100F7B00009C8000509CA0080007C004D79CC00FA9
:100F8B00FF00000201150000008C620010BC030082
:100F9B00001000002E150000009497000207C004FB
:100FAB00D7A86E0000A8A0E000A8C0F000A86E00B3
:100FBB000007C004C99C80003B8C620010BC03007E
:100FCB00001000000D150000008C62000FBC230008
:100FDB0000100000189C60001A8C82000C9877009F
:100FEB001EE564180010000004A86E000007C00581
:100FFB00F59C8000078C62000FBC230000100000E2
:10100B000D9C60001A8C82000C98770020E5641808
:10101B0000100000069CA00022A86E00009C80001F
:10102B00DF07C004AD9CC000E2000000099C8000FB
:10103B001DA88E0000D802180E07FFFC8FA86200B7
:10104B000000000004150000009C800010D8022056
:10105B000EB4605001000001CCD40218000C00014A
:10106B00C3186001009E4E00809EC00003BA520060
:10107B00089F9200139E52002A07C00177A87C009C
:10108B0000A872000007C00174ABCB00009C80006D
:10109B000DA86E000007C0048CAB0B0000A86E00FF
:1010AB000007C00501AA8B0000A87C0000AB4B0019
:1010BB000007C00169A7DE000FA56B000FE55E58A6
:1010CB0000100000039C8000019C800000A48400A1
:1010DB00FFBC24000010000014BC0B000F1000001C
:1010EB00139ED6FFFFB6C050018C62000E9C63FFAF
:1010FB00F086420000A46300FFE2569002BC43005E
:10110B002110000199BA52005018800100B86300F9
:10111B0002A88416A4E06320008463000044001836
:10112B0000150000009ED6FFFFBC36000013FFFF2A
:10113B00D31500000003FFFFEC15000000947700AF
:10114B0026E49218001000018918600100949700A2
:10115B000207C0046AA86E0000A86E00009C800005
:10116B00089CA0008007C0045C9CC000F08C62004F
:10117B000FBC0300000C00017AD402B00000000188
:10118B002D9C80001294970028E4922000100001FF
:10119B0077186001009497003C94C20018E09820E7
:1011AB0000E5843000100000081500000094770063
:1011BB0026E49218000C00000518600100000001E5
:1011CB006B150000009F00000084620024D402B065
:1011DB0000A483000FB8630044BC24000F0C000074
:1011EB0014D40218249C640014A4B8FFFFE0631805
:1011FB0000E0E22000E0621800DC0328008C6200B3
:10120B0014D807D030D80718348CE20012E5A43874
:10121B000010000003E5B83000D8022012100000C7
:10122B000415000000DC022818DC0218168482006A
:10123B0020BC04000010000013BC3800001000009C
:10124B0009150000008CA2001494620016A4A500DE
:10125B0007A4630007E54518001000000A150000FD
:10126B0000A484000FA86E000007FFFC8ED802209C
:10127B001484620020B86300440000013BD40218C0
:10128B002095A2002890E200308C8200129D020073
:10129B002A9CA20031A8CD00009DE000009C6000BC
:1012AB0001E5A320000C000013A99700009588000E
:1012BB0000E5AC30001000000B150000009165003C
:1012CB0000BD8B000010000004E54B38001000003F
:1012DB000515000000A8EB0000A9E30000A8CC0056
:1012EB00009C6300019D08000203FFFFEE9CA5001C
:1012FB00019CA200289D0200309C600000E4237832
:10130B00000C000013BC24000396250000956C0014
:10131B0038E1715800E58B30001000000815000013
:10132B000091680000BD8B000010000008E5AB3891
:10133B000010000007BC2400039C6300019CA50067
:10134B000203FFFFEF9D080001BC24000310000007
:10135B001A1500000015000000BC2300001000004F
:10136B0016150000009482002EE0846802B8A400D9
:10137B009FE0852005E084280294AC003AE56428C0
:10138B00001000000D1500000090820031BD84009C
:10139B0000100000081500000090820032BD6400B0
:1013AB00001000000515000000000000039C600009
:1013BB00029C600001E06218008C8200148C6300B8
:1013CB0034A4840007D80218149C600019D802209A
:1013DB000C00000007D802180E9477002AE492182C
:1013EB0000100000E115000000D402B000A862005C
:1013FB000007FFFC46A88E0000000000DC1860010F
:10140B0000A862000007FFFC78A88E00008C620029
:10141B000FBC230000100000D5186001009E400196
:10142B0000A860980F07C0008CE2527008E24B9046
:10143B0003BC320000100000CC9C800001A86E00A1
:10144B0000A8B2000007C003A49CC040009C600031
:10145B0001DC029016D8021815DC02901894970044
:10146B0036E06320089C80001FD402B000D802181D
:10147B0011000000BDD802200EA862000007FFFC7F
:10148B005AA88E000007C00074A860980F9C6001DA
:10149B0000E0637008E16B1803BC2B000010000028
:1014AB00B318600100A86E000007C003879C800082
:1014BB0009A56B8000BC2B0000100000AC1860016C
:1014CB000094770034E4921800100000A818600113
:1014DB00008E420011946200169E52FFFFE3181813
:1014EB0000A65200FFD402B000DC02C016BC3200D2
:1014FB00001000009DD8029011A86E000007C003D9
:10150B00729C800080A86E00009C80000107C003C5
:10151B006EAACB00009462001694820018E4641843
:10152B0000100000041500000000000007DC02188A
:10153B00188C6200159C63FFFFDC029018B86300E7
:10154B005FD802181590820015BC04000010000033
:10155B0009A474007FB8B60010B8A50059E583281C
:10156B00000C00000A15000000000000099CA300FD
:10157B0001B8AB0012B8A50059E54328000C0000D8
:10158B0004A4A5FFFF9CA3FFFFA4A5FFFFA86E006B
:10159B00009C80005F07C003509CC0007F9CA01084
:1015AB0000A86E00009C80000A07C0034BA8C50072
:1015BB0000949700369C600001E0632008D8021865
:1015CB00119C60000000000068DC02181694770084
:1015DB0006E4B218001000006415000000A86200B9
:1015EB000007FFFB25A88E00009C80001CD402B0D6
:1015FB0000D802200EA862000007FFFB97A88E0000
:10160B00000000005A1860010094770004E4B2183F
:10161B00001000005515000000000000529C6000F7
:10162B001B9477000EE4B218001000004F9C800052
:10163B001B0000004DD802200EA862000007FFFB24
:10164B0086A88E0000000000479C60001B9477006A
:10165B0008E4921800100000449C8000319C60004C
:10166B0000D802200EDC02181A9C6000019497002F
:10167B000AE0632008D80218119477000CE4921842
:10168B00001000003A186001009462001AE35A1827
:10169B00008C820011BB5A00109C84FFFFD402B057
:1016AB0000BB5A0090A48400FFDC02D01ABC2400BB
:1016BB00001000002DD802201194F7000A98770033
:1016CB0014E0633808E5BA18001000000B8C6200B8
:1016DB000CBC030000100000169E4000018CA20001
:1016EB000DE4851800100000129C63FFFF00000042
:1016FB000FD802180C98B70016E0A53808E57A2821
:10170B00001000000B9E400001BC430005100000C0
:10171B0008150000008CA2000DE445180010000015
:10172B0004E0639000D802180CAA4400008C8200DD
:10173B000C07C00312A86E0000BC120000100000C2
:10174B00089C80001AA8620000D802200E07FFFA3E
:10175B00CAA88E000000000005186001009C600004
:10176B0030D802180E1860010007C0025AA8630097
:10177B0038A860981007C002B99C80001A03FFFCC0
:10178B00629DCE000107C004DCA86E000003FFFFC2
:10179B00F718600100A96BFFFF19000100A90816DB
:1017AB0084E4032000100000109CA0000494C300EC
:1017BB0000E16B3005B8CB004CB96B0004E0C630D0
:1017CB00009CA5FFFFE0C64000BC25000094C600AE
:1017DB0000E166580513FFFFF8A56BFFFF03FFFF42
:1017EB00F19C6300024400480015000000000080DB
:1017FB0005800F000A801B001E001480118033002F
:10180B0036003C80390028802D8027002201000FF4
:10181B00D4010015FC0100101C010015FC01001582
:10182B00FC010015FC010015FC010015FC01001565
:10183B00FC01001270010014D00100129801001479
:10184B00A001001464010014B8010013100100156D
:10185B00FC010015FC010015FC010015FC01001535
:10186B00FC010015FC010015FC010015FC01001525
:10187B00FC010015FC010015FC010015FC01001515
:10188B00FC010015FC010015FC010015FC01001406
:10189B00E4010015109810FFFF0000800B9F9F8242
:1018AB0000810B9F9F8200820B9F9F8200830B9F67
:1018BB009F82009814FFFF5B5B980C200020009820
:1018CB000FFFFF00F09900FFFFFDE09901FFFF21E3
:1018DB00049902FFFF93109903FFFF4A66981EFFBE
:1018EB00FF85389826FFFF95799827FFFF000000AA
:1018FB000000F203F002E000DF00E2000000F9005C
:10190B007E004C00F803800000003BF0000000005C
:10191B0078003F0024000B9F9F8889006500E00042
:10192B00000048FFFFFFFF0049FFFFFFFF004A0FCA
:10193B00FF071F004BFFFFFFFF004C1FFF0E9F0019
:10194B004D80008000004E38003800004FF000F052
:10195B00000000000000500FFF0040003BF00000B3
:10196B0000004D80008000000800F0008000014066
:10197B00004000000A10000000006500E0000000BD
:10198B000B9F9F8298000000000048FFFF00800023
:10199B0049FFFF0002004C1FFF1115004BFFFF001A
:1019AB0080004A0FFF08BD000B9F9F8200000000C4
:1019BB0000008108000800000C80000000000C8073
:1019CB000080000081080000000000000088834EAA
:1019DB00058882D8008875C6FF6002800088FC529B
:1019EB0036780000008850504088A30020854E00B8
:1019FB0000887641828877516688781CBB84760094
:101A0B0084857600848676008487760084847718B4
:101A1B008285771882867718828777188284788CEC
:101A2B003885788C3886788C3887788C38844E005B
:101A3B0000874E0000864E000060328000601280EE
:101A4B0000886300808864808088085ABB880329DB
:101A5B003388024006602280008806A1008805AE0C
:101A6B00820000000088DF0066888130008887CD07
:101A7B007A8886CD7A88854D7A88848D7A88FC53CE
:101A8B006688884D7A88FE80AE88FDB64488FFFD57
:101A9B00C078080C00731AFF00711AFF00721AFF4E
:101AAB0000701AFF0078093A908879886C824E385A
:101ABB0000814E3800834E3800804E3800884D80B0
:101ACB00007806125488EFB6A088FB773678190099
:101ADB0005781681C088F98B5A88F8B7780007000B
:101AEB002088F1B00088F067B488F561E088F7A230
:101AFB0046990293109900FDE09901210488010297
:101B0B000188004D0588074D7A0000000088DF0032
:101B1B0066888130008887CD7A8886CD7A88854D16
:101B2B007A88848D7A7806125488FB773688FEA5DE
:101B3B00A888FD364488FFFDC078080C00731AFF97
:101B4B0000711AFF00701AFF00721AFF0078093A31
:101B5B00908879886C814E3800834E3800824E38DD
:101B6B0000804E3800884D800088EFB6A088884DE5
:101B7B007A78190005781681C088F98BDA88F8B75E
:101B8B00780007002A88F1B00088F067B488F56107
:101B9B00E088F7A246990293109900FDE099012184
:101BAB00048801020188004D0588074D7A0000006A
:101BBB0000008BFC00FC00008BFC00000000000010
:101BCB00000000000080A7140081A7140082A71456
:101BDB000083A7140084A7120085A7120086A71202
:101BEB000087A7120080A83C0081A83C0082A83C7B
:101BFB000083A83C0084A83F0085A83F0086A83F2F
:101C0B000087A83F0084A63C0085A63C0086A63C26
:101C1B000087A63C0080A0008081A0008082A000ED
:101C2B008083A0000084A0000085A0008086A00017
:101C3B008087A00080844E2000854E2000864E2099
:101C4B0000874E200080613C20816134208261340A
:101C5B002083613C2084617C208561342086613443
:101C6B00208761342000000000000000000000000D
:101C7B000000000000000000000000000000000059
:101C8B000000000000000000000000000000000049
:101C9B000000000000000000000000000000000039
:101CAB000000000000000000000000000000000029
:101CBB000000000000000000000000000000000019
:101CCB000000000000000000000000000000000009
:101CDB0000000000000000000000000000000000F9
:101CEB0000000000000000000000000000000000E9
:101CFB0000000000000000000000000000000000D9
:101D0B0000000000000000000000000000000000C8
:101D1B0000000000000000000000000000000000B8
:101D2B0000000000000000000000000000000000A8
:101D3B000000000000000000000000000000000098
:101D4B000000000000000000000000000000000088
:101D5B000000000000000000000000000000000078
:101D6B000000000000000000000000000000000068
:101D7B000000000000000000000000000000000058
:101D8B000000000000000000000000000000000048
:101D9B000000000000000000000000000000000038
:101DAB000000000000000000000000000000000028
:101DBB000000000000000000000000000000000018
:101DCB000000000000000000000000000000000008
:101DDB0000000000000000000000000000000000F8
:101DEB0000000000000000000000000000000000E8
:101DFB0000000000000000000000000000000000D8
:101E0B0000000000000000000041424344454647EB
:101E1B000048494A000000000000000041424344D2
:101E2B00454647009F00980D981474FF900104F0ED
:101E3B00A3F0E490010AF0A3F0A31228180000000D
:101E4B000090011B1228180000000090011F12289F
:101E5B00180000000078317C017D017BFF7A1E7930
:101E6B002F7E007F061226169001371228180000CD
:101E7B00000090013DE4F0A304F0E4900141F0A3D5
:101E8B00F07BFF7A017960900114EBF0A3EAF0A3E9
:101E9B00E9F0240C12331690011012280C90011447
:101EAB00E0FBA3E0FAA3E02408123316900117120B
:101EBB00280C900114E0FBA3E0FAA3E024101233EA
:101ECB0016900123E4F0A3740AF0A312280C9001DE
:101EDB002912281800000000E47B18FAF9F8900189
:101EEB0010E0FCA3E0FDA3E0FEA3E0FF122735EF1B
:101EFB002401FFE43E900143F0A3EFF090012FE4A7
:101F0B00F0A37480F090011BE0F8A3E0F9A3E0FAD2
:101F1B00A3E0FB90012FE0FEA3E02400F582740008
:101F2B003EF583E0FFE4FCFDFEEB2FFFEE3AFEED0A
:101F3B0039FDEC38FC90011B12280C900130E004A9
:101F4B00F0700690012FE004F090012FE07004A3D5
:101F5B00E064BF70B090012FE4F0A374C0F0900167
:101F6B001FE0F8A3E0F9A3E0FAA3E0FB90012FE058
:101F7B00FEA3E02400F58274003EF583E0FFE4FC51
:101F8B00FDFEEB2FFFEE3AFEED39FDEC38FC900138
:101F9B001F12280C900130E004F0700690012FE026
:101FAB0004F090012FE07004A3E064DF70B09001A7
:101FBB001BA3A3A3E0FF9000BFEFF090011FA3A30F
:101FCB00A3E0FF9000DFEFF0D20E7D887C081200BB
:101FDB004112003EC20E7FF4123819E4FFFE123696
:101FEB00B9900141EEF0A3EFF0644C7003EE642066
:101FFB00601A7BFF7A017905900141E0FFA3E09025
:10200B00014ACFF0A3EFF01229E380CFE490014116
:10201B00F0A3F07BFF7A01791B1229E3E490012DE9
:10202B00F0A3F0900143E0FEA3E0FFC390012EE08C
:10203B009FEE6480F890012DE064809840030222AB
:10204B00939001291228180000800C900132E02493
:10205B000CFF900131E03400FEC006C00790012553
:10206B00E0FCA3E0FDA3E0FEA3E0FF78101227E65F
:10207B00AD07AC06D007D006120045900132E02424
:10208B000DFF900131E03400FEC006C00790012522
:10209B00A3A3E0FEA3E0FFAD07AC06D007D006126A
:1020AB000045900129E0F8A3E0F9A3E0FAA3E0FBD7
:1020BB00C000C001C002C003900125A3A3E0FEA392
:1020CB00E0FFE4FDFCAB07AA06F9C004C005C0069F
:1020DB00C007900125E0FCA3E0FDA3A3E07810125C
:1020EB0027E6D003D002D001D000EF2BFFEE3AFE53
:1020FB00ED39FDEC38FCD003D002D001D000EB2F32
:10210B00FFEA3EFEE93DFDE83CFCA312280CE490FF
:10211B00012FF0A3F0900124E025E0FF900123E0D4
:10212B0033FE900114E0FBA3E0FAA3E02FF9EA3EA3
:10213B00FA12351F90013FEEF0FCA3EFF0FD90017A
:10214B002FE0FEA3E0FF900132E02FFF900131E082
:10215B003EFE120045900129E0F8A3E0F9A3E0FA56
:10216B00A3E0FB90013FE0FEA3E0FFE4FCFDEB2FBF
:10217B00FFEA3EFEED39FDEC38FC90012912280CEC
:10218B00900124E004F07006900123E004F090012C
:10219B0025E0FCA3E0FDA3E0FEA3E02402FFE43E68
:1021AB00FEE43DFDE43CFC90012512280C9001302F
:1021BB00E004F0700690012FE004F0C3900130E0D2
:1021CB00940C90012FE064809480500302212090A6
:1021DB000132E0240EFF900131E03400FEC006C056
:1021EB0007900129E0FCA3E0FDA3E0FEA3E0FF12B2
:1021FB0027C7AD07AC06D007D006120045900132B9
:10220B00E0240E1236B1900132E0240FFF90013121
:10221B00E03400FE7D0C7C801200459001371228C3
:10222B001800000000802B90013BE0B48031A3E04C
:10223B00B40C2C900137E0FCA3E0FDA3E0FEA3E07F
:10224B002401FFE43EFEE43DFDE43CFC900137122B
:10225B00280C1236AB90013BEEF0A3EFF080C89048
:10226B00013BE07002A3E0600E900142E004F070CD
:10227B0006900141E004F090012EE004F07006900E
:10228B00012DE004F002202E900132E0240CFF908F
:10229B000131E03400FEC006C007900117E0FCA33B
:1022AB00E0FDA3E0FEA3E0FF78101227E6AD07AC3C
:1022BB0006D007D006120045900132E0240DFF90A6
:1022CB000131E03400FEC006C007900117A3A3E064
:1022DB00FEA3E0FFAD07AC06D007D0061200459079
:1022EB000117A3A3E0FEA3E0FFE4FDFCAB07AA06E6
:1022FB00F9C004C005C006C007900117E0FCA3E0BD
:10230B00FDA3A3E078101227E6D003D002D001D0B2
:10231B0000EF2BFFEE3AFEED39FDEC38FCE42FFF1E
:10232B00EE3440FEE43DFDE43CFC90012912280C08
:10233B00900132E0240EFF900131E03400FEC00624
:10234B00C007900129E0FCA3E0FDA3E0FEA3E0FFA2
:10235B001227C7AD07AC06D007D006120045900177
:10236B0032E0240FFF900131E03400FE7D007C4011
:10237B0012004590013DE07002A3E06044900137EC
:10238B0012281800000000802B90013BE0B4403174
:10239B00A3E0B4002C900137E0FCA3E0FDA3E0FE2A
:1023AB00A3E02401FFE43EFEE43DFDE43CFC900190
:1023BB003712280C1236AB90013BEEF0A3EFF080F6
:1023CB00C8E490012FF0A3F0E490012DF0A3F0905E
:1023DB00012EE004F0700690012DE004F090012D29
:1023EB00E0B404EBA3E0B400E6900130E004F0703D
:1023FB000690012FE004F090012FE0B404CAA3E093
:10240B00B400C57F147E981236B990013BEEF0A351
:10241B00EFF07D007C507F187E9812004580119064
:10242B00013BE064057002A3E060167F9612381939
:10243B007F187E981236B990013BEEF0A3EFF08037
:10244B00DE7D207C507F187E981200458011900114
:10245B003BE064057002A3E060167F2C1238197FF5
:10246B00187E981236B990013BEEF0A3EFF080DEA8
:10247B007BFF7A0179351229E3900145E4F0A374CF
:10248B0028F0E490012FF0A3F0900145E0FEA3E0CB
:10249B00FF90012FE0FCA3E0FDC39FEE6480F8ECFE
:1024AB006480985074EDAE047802C333CE33CED82B
:1024BB00F9FDAC0624D0F582741B3CF583E493FE46
:1024CB0074D12DF582741B3CF583E493FDEDFFC0B5
:1024DB0006C00790012FE0FEA3E07802C333CE3392
:1024EB00CED8F9FDAC0624D2F582741B3CF583E4FF
:1024FB0093FE74D32DF582741B3CF583E493FDEEB0
:10250B00FCD007D006120045900130E004F07006B5
:10251B0090012FE004F00224947FF41238197D7798
:10252B007C0712004112003E7FF412381912385901
:10253B007BFF7A01794D1229E380FEE709F608DF6C
:10254B00FA8046E709F208DFFA803E88828C83E73F
:10255B0009F0A3DFFA8032E309F608DFFA8078E3AB
:10256B0009F208DFFA807088828C83E309F0A3DF1D
:10257B00FA806489828A83E0A3F608DFFA8058899F
:10258B00828A83E0A3F208DFFA804C80D280FA8043
:10259B00C680D4806980F28033801080A680EA8068
:1025AB009A80A880DA80E280CA803389828A83ECA1
:1025BB00FAE493A3C8C582C8CCC583CCF0A3C8C525
:1025CB0082C8CCC583CCDFE9DEE7800D89828A83A4
:1025DB00E493A3F608DFF9ECFAA9F0EDFB2289826C
:1025EB008A83ECFAE0A3C8C582C8CCC583CCF0A320
:1025FB00C8C582C8CCC583CCDFEADEE880DB898224
:10260B008A83E493A3F208DFF980CC88F0EF6001B2
:10261B000E4E60C388F0ED2402B4040050B9F5826D
:10262B00EB2402B4040050AF23234582239025965C
:10263B0073BB010689828A83E0225002E722BBFE2C
:10264B0002E32289828A83E49322BB010CE582296F
:10265B00F582E5833AF583E0225006E92582F8E618
:10266B0022BBFE06E92582F8E222E58229F582E506
:10267B00833AF583E49322BB010689828A83F02295
:10268B005002F722BBFE01F322A3F8E0C5F025F0C0
:10269B00F0E582158270021583E0C838F0E822E875
:1026AB008FF0A4CC8BF0A42CFCE98EF0A42CFC8A2C
:1026BB00F0EDA42CFCEA8EF0A4CDA8F08BF0A42DA9
:1026CB00CC3825F0FDE98FF0A42CCD35F0FCEB8E4A
:1026DB00F0A4FEA9F0EB8FF0A4CFC5F02ECD39FE00
:1026EB00E43CFCEAA42DCE35F0FDE43CFC2275F075
:1026FB0008758200EF2FFFEE33FECD33CDCC33CCFC
:10270B00C58233C5829BED9AEC99E58298400CF516
:10271B0082EE9BFEED9AFDEC99FC0FD5F0D6E4CE44
:10272B00FBE4CDFAE4CCF9A88222B800C1B9005978
:10273B00BA002DEC8BF084CFCECDFCE5F0CBF97845
:10274B0018EF2FFFEE33FEED33FDEC33FCEB33FBD9
:10275B0010D703994004EB99FB0FD8E5E4F9FA2263
:10276B007818EF2FFFEE33FEED33FDEC33FCC9335E
:10277B00C910D7059BE99A4007EC9BFCE99AF90F26
:10278B00D8E0E4C9FAE4CCFB2275F010EF2FFFEE92
:10279B0033FEED33FDCC33CCC833C810D7079BECDD
:1027AB009AE899400AED9BFDEC9AFCE899F80FD555
:1027BB00F0DAE4CDFBE4CCFAE4C8F922C3E49FFFE2
:1027CB00E49EFEE49DFDE49CFC22EB9FF5F0EA9E6B
:1027DB0042F0E99D42F0E89C45F022E8600FECC323
:1027EB0013FCED13FDEE13FEEF13FFD8F122E8609F
:1027FB000FEFC333FFEE33FEED33FDEC33FCD8F1BB
:10280B0022ECF0A3EDF0A3EEF0A3EFF022A882856B
:10281B0083F0D083D08212282F12282F12282F1248
:10282B00282FE473E493A3C583C5F0C583C8C58281
:10283B00C8F0A3C583C5F0C583C8C582C822E70904
:10284B00F60870FA8046E709F20870FA803E888233
:10285B008C83E709F0A370FA807EE309F60870FA1F
:10286B008076E309F20870FA806E88828C83E30924
:10287B00F0A370FA806289828A83E0A3F60870FA6B
:10288B00805689828A83E0A3F20870FA804A80D24C
:10289B0080FA80C680D4806580F28031801080A65B
:1028AB0080EA809A80A880DA80E280CA80318982AF
:1028BB008A83ECFAE493A3C8C582C8CCC583CCF059
:1028CB00A3C8C582C8CCC583CC70E9800D89828A28
:1028DB0083E493A3F60870F9ECFAA9F0EDFB2289D7
:1028EB00828A83ECFAE0A3C8C582C8CCC583CCF03E
:1028FB00A3C8C582C8CCC583CC70EA80DD89828A27
:10290B0083E493A3F20870F980CE88F0ED2402B42F
:10291B00040050C4F582EB2402B4040050BA232304
:10292B0045822390289973F8E0FBA3A3E0F925F0E7
:10293B00F0E582158270021583E0FA38F022EBF095
:10294B00A3EAF0A3E9F022D083D082F8E4937012CB
:10295B00740193700DA3A393F8740193F58288838C
:10296B00E4737402936860EFA3A3A380DFE50824EC
:10297B004AF582E43401F583E005082290014730E3
:10298B00080390014AE475F00112293202263C201B
:10299B0001E97F2ED2018018EF540F2490D43440DC
:1029AB00D4FF30050BEF24BFB41A0050032461FF92
:1029BB00E50960021509050CE50C7002050B3008E2
:1029CB000E900147E475F001122932EF02268202C4
:1029DB0038DA7403D2088003E4C208F50890014783
:1029EB00122949E4F509F50BF50CE50960077F2081
:1029FB001229BB80F5750AFFC202C201C203C204D1
:102A0B00C206C207C209122987FF700D3008057F65
:102A1B00001229CCAF0CAE0B22B4255FC2D5C20578
:102A2B00122987FF24D0B40A00501A75F00A7809CE
:102A3B0030D50508B6FF0106C6A426F620D50470CE
:102A4B0002D20480D924CFB41A00EF5004C2E5D2CD
:102A5B0005022BCDD20280C6D20180C0D20380BC2E
:102A6B00D2D580BAD20680B47F201229BB200307AF
:102A7B007401B5090040F1122978FF1229BB022914
:102A8B00F5D209D2078095122978FB122978FA1210
:102A9B002978F94A4B7006799E7A2C7BFF20032EFE
:102AAB00E509602A7E008E8275830012265560062A
:102ABB000EEE650A70F0C2D5EBC0E0EAC0E0E9C0EB
:102ACB00E0EE122C14D0E0F9D0E0FAD0E0FB1226A5
:102ADB003CFF60AAEBC0E0EAC0E0E9C0E01229BB12
:102AEB00D0E02401F9D0E03400FAD0E0FBE50A0491
:102AFB0060DCD50AD980877BFF7A2C7910D20380D2
:102B0B009C791080027908C207C2098008D2D57956
:102B1B000A8004790AC2D5E50A047002F50AE4FAC0
:102B2B00FDFEFF122978FC7B08200213122978FD89
:102B3B007B1030010A122978FE122978FF7B20ECDA
:102B4B003382D592D55013C3E43001069FFFE49E28
:102B5B00FEE42002039DFDE49CFCE4CBF8C202ECF6
:102B6B00700CCFCECDCCE824F8F870F38017C3EF00
:102B7B0033FFEE33FEED33FDEC33FCEB33FB9940CF
:102B8B0002FB0FD8E9EB300205F8D0E0C448B202E3
:102B9B00C0E00AEC4D4E4F78207B0070C2EAB50ABC
:102BAB000040BCC0E0122C16D0F0D0E0200204C4D0
:102BBB00C0E0C4B202C0F01229A4D0F0D5F0EB02F1
:102BCB0029F51229522A92532B0C582A634C2A5F4F
:102BDB00422B104F2B18442B18492A78432B1E5588
:102BEB002B02462B02452B02472CBE502A672D2A5F
:102BFB006B2E2A8E2B2A6F232A8C202CA72A2A276E
:102C0B004800002A863F3F3F00790AA2D5200414D2
:102C1B00300609B910020404B9080104A2D5200733
:102C2B00025001042003689203B509005034C0E040
:102C3B007F203004197F30A20372077206500F12E7
:102C4B002C6DC203C207C206C2097F30800F30064B
:102C5B0003E9C0E01229BB300603D0E0F9D0E0B5A0
:102C6B0009CC3006177F30B9100C1229BB7F5830B6
:102C7B0005077F788003B908031229BB3003057F52
:102C8B002D0229BB7F202009F87F2B2007F32292EE
:102C9B000380CF286E756C6C2900D2021229783014
:102CAB0002F8C202780930D50108F6022A272D5006
:102CBB004349581229782403B405004001E4902CB1
:102CCB00B9931229AC743A1229ACD20475090402D7
:102CDB002B0CC10BC18C4101BB004101C300603205
:102CEB000176000000000000000000000000000062
:102CFB0000000000000000000000000000000000C9
:102D0B0000000000000000000000000000000000B8
:102D1B000000000041017500C10E4101A816A10081
:102D2B00001105060000000000000000000000007C
:102D3B000000000000000000000000000000000088
:102D4B000000000000000000000000000000000078
:102D5B000000000000000000000000000000000068
:102D6B000000000000000000000000000000000058
:102D7B000000000000000000000000000000000048
:102D8B000000000000000000000000000000003800
:102D9B000000000000000000000000000000000028
:102DAB0000110023800070000000000000000000F4
:102DBB0000000001084649542000000000000000FC
:102DCB0000000000001F00093A3130303239373132
:102DDB003130312020202020203120426807D000C4
:102DEB006302000000353238363230373530202060
:102DFB0020202020203135313031332020000000BD
:102E0B00290000000000000000000000000000008E
:102E1B0000000000000000000000000000000000A7
:102E2B000042016F0000410171004801A901040833
:102E3B000C101820304801B10301040005060702ED
:102E4B0000C0E0C0F0C083C082C0D075D000C0000D
:102E5B00C004C006C007E5B9540F14604414606F7A
:102E6B0024FE607624FA602C24FE606814606524CE
:102E7B0004706A53B9F690016FE475F00112269451
:102E8B00740025F0F8E2F5BBC390016FE0940140AC
:102E9B004CE4800853B9F59001717401F0A3F080F4
:102EAB003CE5B930E40553B9EF801F90016FE47531
:102EBB00F001122694740025F0F8E2F5BBC39001E3
:102ECB006FE094014004E4F0A3F053B9FE800E537D
:102EDB00B9FD800953B9FB022F6753B9FBE5AB2052
:102EEB00E2779001A8E5BCF0900172E0B401EE909E
:102EFB0001A8E0645060E6900171E014703190011C
:102F0B00A8E0C394804019787FE275F080A4FFE0BD
:102F1B007C002FFEEC35F090016FF0A3CEF08032E9
:102F2B009001A8E0FF90016FE4F0A3EFF0802390F5
:102F3B0001A8E0FF90016FE475F001122694740074
:102F4B0025F0F8EFF2C390016FE094014004E4F038
:102F5B00A3F0900171E4F0808453B9DFD007D00661
:102F6B00D004D000D0D0D082D083D0F0D0E032C00B
:102F7B00E0C083C082C0D075D000C006C007C200BD
:102F8B0030C20302303EE5C054F02480606D24C093
:102F9B00602624E0600302303A9001C2E025E0F5A0
:102FAB00C253C2FEA20DE43342C2C2C59001747477
:102FBB0001F0900173F0807D30C123200D779001DB
:102FCB00B9E0FF900173E0FED39F501574BD2EF551
:102FDB0082E43401F583E0F5C29001738039300E41
:102FEB0006D2C4C20A804ED2C4D2C59001BDE00441
:102FFB00F070429001BCE004F0803A900174E0FF65
:10300B00C3940274C350152FF582E43401F583E5A4
:10301B00C2F0D2C1900174E004F080192FF582E464
:10302B003401F583E5C2F0C20AC2C1D2C48006D214
:10303B00008002D20030001E53C17F43C180C2C545
:10304B00C2C4C2C1C20AC2009001BDE004F0700646
:10305B009001BCE004F0C2C0D007D006D0D0D08223
:10306B00D083D0E032E478047C017D017BFF7A1EB3
:10307B007914FE7F08122616780C7C017D017BFFEC
:10308B007A1E791C7E007F03122616780F7C017D39
:10309B00017BFF7A1E791F7E007F08122616781798
:1030AB007C017D017BFF7A1E79277E007F0812262B
:1030BB0016C20190011FE5A7F0E4F5A7C2B47FFF8C
:1030CB007EFB1238987DA57F007EF81237C77F00F4
:1030DB007EF81237F07DA57F007EF81237C77F0090
:1030EB007EF8123898EF64A56002D2017F007EF85B
:1030FB001237F07F007EF8123898EFF46002D2019D
:10310B007B017A017904900125E4F0A37408F07F28
:10311B00007EF81235867B017A01790F900125E448
:10312B00F0A37408F07D007CF81234B4E4FF74044F
:10313B002FF582E43401F583E0FE740F2FF582E462
:10314B003401F583E06E6002D2010FEFB408DF901B
:10315B00011FE0F5A72290010D12280C900117E535
:10316B00A7F075A72090010DE0C313FEA3E013FF9A
:10317B00E4FCFD900111E0F8A3E0F9A3E0FAA3E071
:10318B002FFFEA3EFEED39FDEC38FC900111A3A3B5
:10319B00A3E0FB122735900116EFF0E4900115F038
:1031AB00900115E0FFC39408400302324974A92F24
:1031BB00F582E43401F583E0FF900116E0FEEFC3E6
:1031CB009E4072E47F02FEFDFC900111E0F8A3E04B
:1031DB00F9A3E0FAA3E0FB1226AAA804A905AA0604
:1031EB00AB07900115E024A9F582E43401F583E0E7
:1031FB00FFE4FCFDFE1226AAA804A905AA06AB074C
:10320B0090010DE0FCA3E0FDA3E0FEA3E0FF12277D
:10321B0035C3E49FFFE49EF596EFF595900115E01D
:10322B0024B1F582E43401F583E0444042949001EB
:10323B0017E0F5A722900115E004F00231AB80FEF8
:10324B001238AA9001081228180001C2007F207EB4
:10325B00D77D757C01123787C2B420922A75E34063
:10326B00C293E4FFFE0FBF00010EEFF44E70F6D2D7
:10327B00933093FDE4FEFF0FBF00010EEF640A4E87
:10328B0070F5E4F5E380D3120003D296E4900100CD
:10329B00F09001BCF0A3F0C2AF75A72053BAFE4368
:1032AB00AD44D2AF123070121E359001BE7498F03F
:1032BB00A37411F0A374ABF0A374CDF0A37410F04E
:1032CB001235EB9001C27410F0E4900101F0900103
:1032DB0001E024BEF582E43401F583E0FF900101A7
:1032EB00E024C4F582E43401F583E06F600E9001B5
:1032FB00BDE004F070069001BCE004F0900101E029
:10330B0004F0E0B402C87FF4023819F9E43AFA90F9
:10331B000147EBF0A3EAF0A3E9F0A3122818000091
:10332B000000E490014EF090014AE0FCA3E0FDA305
:10333B00E0FEA3E0FF78081227F990014A12280C4F
:10334B0090014AE0F8A3E0F9A3E0FAA3E0FBC00088
:10335B00C001C002C003900147E0FBA3E0FAA3E069
:10336B00F990014EE0F582758300122655FFD003CC
:10337B00D002D001D000EB4FFFEAFEE9FDE8FC9054
:10338B00014A12280C90014EE004F0E0B40498902E
:10339B00014AE0FCA3E0FDA3E0FEA3E0FF22120044
:1033AB0071787FE4F6D8FD7581210233F302324B3D
:1033BB00E493A3F8E493A34003F68001F208DFF44F
:1033CB008029E493A3F85407240CC8C333C4540FC7
:1033DB004420C8834004F456800146F6DFE4800B9A
:1033EB000102040810204080902CDDE47E019360E4
:1033FB00BCA3FF543F30E509541FFEE493A36001C7
:10340B000ECF54C025E060A840B8E493A3FAE49330
:10341B00A3F8E493A3C8C582C8CAC583CAF0A3C8DE
:10342B00C582C8CAC583CADFE9DEE780BE90014FFB
:10343B00EEF0A3EFF0A3ECF0A3EDF0A3EAF0A3EB17
:10344B00F0A3A3E0FF74017E00A807088005C33337
:10345B00CE33CED8F924FFFFEE34FFAD07FC90013D
:10346B0053A3E0F9EDAE04A801088005C333CE33B6
:10347B00CED8F9F4FFEEF4FE90014FE05EF0A3E03E
:10348B005FF0A3E05CFEA3E05DA801088005C333F9
:10349B00CE33CED8F9FF90014FE04EFEA3E04FFFA5
:1034AB0090014FEEF0A3EFF022900120EBF0A3EA96
:1034BB00F0A3E9F0A3ECF0A3EDF0E4900127F0A367
:1034CB00F0900125E0FEA3E0FFA3E0FCA3E0FDC329
:1034DB009FEC9E5033900124E02DFF900123E03CA4
:1034EB00FE123898900120E0FBA3E475F001122640
:1034FB0094A9F0FAEF122682900128E004F070C133
:10350B00900127E004F080B9900120E0FBA3E0FAE2
:10351B00A3E0F922900147EBF0A3EAF0A3E9F0E472
:10352B00A3F0A3F0A3F0A3F090014CE0FCA3E0FD0B
:10353B00C39402EC64809480503890014BE0F8E423
:10354B00F0E890014AF0900147E0FBA3E0FAA3E01A
:10355B00F98D828C83122655FF90014AE0F0A3E08F
:10356B004FF090014DE004F070BE90014CE004F080
:10357B0080B690014AE0FEA3E0FF22900122EBF01F
:10358B00A3EAF0A3E9F0900120EEF0A3EFF0900195
:10359B0027EEF0A3EFF0900125E0FEA3E0FF9001F2
:1035AB0021E02FFD900120E03EFC900127E0FEA3DF
:1035BB00E0FFC39DEE9C5027900122E0FBA3E47536
:1035CB00F001122694A9F0FA12263CFD1237C7908F
:1035DB000128E004F070BF900127E004F080B722CF
:1035EB0090015112281800000000200AFDD20AC2D7
:1035FB000DD2C5300A48900151E0FCA3E0FDA3E0D9
:10360B00FEA3E02401FFE43EFEE43DFDE43CFC9020
:10361B00015112280CE47FFFFEFDFC900151E0F8F4
:10362B00A3E0F9A3E0FAA3E0FBD31227D540C490A3
:10363B00015112281800000000123740C322D32278
:10364B0090015112281800000000200AFDD20AD266
:10365B000DD2C5300A48900151E0FCA3E0FDA3E078
:10366B00FEA3E02401FFE43EFEE43DFDE43CFC90C0
:10367B00015112280CE47FFFFEFDFC900151E0F894
:10368B00A3E0F9A3E0FAA3E0FBD31227D540C49043
:10369B00015112281800000000123740C322D32218
:1036AB00900132E0240FFF900131E03400FE9001D5
:1036BB004FEEF0A3EFF09001B97402F09001C274D9
:1036CB0010F090014FE0FCA3E0FDEC9001BEF0ED9B
:1036DB00A3F01235EB9001C27410F012364B50D69A
:1036EB009001C4E0FEA3E0FDEDFF22900149ECF058
:1036FB00A3EDF0A3EAF0A3EBF0900147EEF0A3EFFC
:10370B00F01236B9C007900149E0FCA3E0FDA3E03D
:10371B00FAA3E0FBA3E0FFA3E0900155CFF0A3EFEA
:10372B00F0D007123438AC06AD07900147E0FEA38A
:10373B00E0FF0200457F0943D50C75F2FF75A55FCD
:10374B00E59030E210AE071FEE600A5390F700438E
:10375B0090080080EB75A55F5390F75390FB0043E7
:10376B009008004390040053D5F375A55053C17FC7
:10377B0043C180C2C5C2C4C2C1C20A2290010CE5BA
:10378B00A7F075A72043C812E4F5DA43930CC004E5
:10379B00C005C006C007900108E0FCA3E0FDA3E054
:1037AB00FEA3E0FF90011112280CD007D006D00524
:1037BB00D00412316190010CE0F5A722A2AF920266
:1037CB00C2AF75FF8075EF028F828E8375B7A575BB
:1037DB00B7F1438F0175FF8075EF02EDF0538FFE4C
:1037EB00A20292AF22A2AF9202C2AF75FF8075EF19
:1037FB00028F828E8375B7A575B7F1438F0375FF63
:10380B008075EF02E4F0538FFCA20292AF22538833
:10381B00CF5389F0438901438E04EF6012C28C753C
:10382B008CA0758A4CC28DD28C308DFD1F80EBC263
:10383B008C22AF885388AF758C38758A13758DFAC7
:10384B00758B34EF5440FEEF54104E42882290019A
:10385B004DE4F0A304F07B0E7A00FD7C007F617ECB
:10386B00840236F675A710E59854045398FB75A39C
:10387B003875A29E439804429822E59154045391C3
:10388B00FB75933875929E439104429122A2AF929D
:10389B0002C2AF8F828E83E493FFA20292AF22907B
:1038AB000104E5A7F0123911900104E0F5A7227588
:1038BB00A7207594437596FF75959643C81022758E
:1038CB00A72053BAFD43BA0275A71053987F32AEA7
:1038DB00A775A72030C9FD8F92C2C98EA72253C1ED
:1038EB007F43C18053917FC2C5C20A32E4F5A775ED
:1038FB00E68175F30675A8802275BD5053BAFB435C
:10390B00BA1843BA0222E4F5A7F5A9E5A930E7FBFB
:10391B0022E4F5A77597DE7597AD2253C1FC43C121
:02392B00DD229B
:00000001FF
