:020000040000FA
:100000000206CE85A70C12091712094A12093512E9
:10001000093C120884120028120921120943120017
:100020006212092B850CA722E59154045391FB75AC
:10003000933875929E43910442912202057D538824
:10004000CF5389F0438901438E04EF6012C28C754F
:100050008CA0758A4CC28DD28C308DFD1F80EBC276
:100060008C2275A7207594437596FF75959643C8A5
:100070001022220208DDE51B240FF8E6051B22787A
:100080000C300802780FE475F0011205470204EF06
:100090002001EB7F2ED2018018EF540F2490D4342E
:1000A00040D4FF30050BEF24BFB41A005003246185
:1000B000FFE51C6002151C051FE51F7002051E30C0
:1000C000080D780CE475F001120547EF02053502C2
:1000D00008CE7403D2088003E4C208F51B8B0C8A97
:1000E0000D890EE4F51CF51EF51FE51C60077F2049
:1000F0001200B180F5751DFFC202C201C203C20425
:10010000C206C207C20912007FFF700D3008057FCA
:10011000001200C2AF1FAE1E22B4255FC2D5C205B9
:1001200012007FFF24D0B40A00501A75F00A781C20
:1001300030D50508B6FF0106C6A426F620D5047002
:1001400002D20480D924CFB41A00EF5004C2E5D201
:10015000050202C2D20280C6D20180C0D20380BC96
:10016000D2D580BAD20680B47F201200B120030716
:100170007401B51C0040F1120076FF1200B10200BC
:10018000EAD209D2078095120076FB120076FA12A5
:100190000076F94A4B700679937A037BFF20032E91
:1001A000E51C602A7E008E827583001205086006B9
:1001B0000EEE651D70F0C2D5EBC0E0EAC0E0E9C00C
:1001C000E0EE120309D0E0F9D0E0FAD0E0FB12042F
:1001D000EFFF60AAEBC0E0EAC0E0E9C0E01200B1C6
:1001E000D0E02401F9D0E03400FAD0E0FBE51D04B2
:1001F00060DCD51DD980877BFF7A037905D2038027
:100200009C791080027908C207C2098008D2D5798A
:100210000A8004790AC2D5E51D047002F51DE4FACE
:10022000FDFEFF120076FC7B08200213120076FD13
:100230007B1030010A120076FE120076FF7B20EC64
:100240003382D592D55013C3E43001069FFFE49E5C
:10025000FEE42002039DFDE49CFCE4CBF8C202EC2A
:10026000700CCFCECDCCE824F8F870F38017C3EF34
:1002700033FFEE33FEED33FDEC33FCEB33FB994003
:1002800002FB0FD8E9EB300205F8D0E0C448B20217
:10029000C0E00AEC4D4E4F78207B0070C2EAB51DDD
:1002A0000040BCC0E012030BD0F0D0E0200204C438
:1002B000C0E0C4B202C0F012009AD0F0D5F0EB0258
:1002C00000EA12055701875302015801584C0154A6
:1002D0004202054F020D44020D49016D43021355C0
:1002E00001F74601F74501F74703B350015C2D01C3
:1002F000602E01832B016423018120039C2A011CB1
:10030000480000017B3F3F3F00790AA2D52004143A
:10031000300609B910020404B9080104A2D5200767
:10032000025001042003689203B51C005034C0E061
:100330007F203004197F30A20372077206500F121B
:100340000362C203C207C206C2097F30800F3006B3
:1003500003E9C0E01200B1300603D0E0F9D0E0B507
:100360001CCC3006177F30B9100C1200B17F58300A
:1003700005077F788003B908031200B13003057FB9
:100380002D0200B17F202009F87F2B2007F3229255
:100390000380CF286E756C6C2900D2021200763073
:1003A00002F8C202781C30D50108F602011C2D505B
:1003B0004349581200762403B405004001E4900339
:1003C000AE931200A2743A1200A2D204751C040269
:1003D0000201E88FF0A4CC8BF0A42CFCE98EF0A4F1
:1003E0002CFC8AF0EDA42CFCEA8EF0A4CDA8F08BB6
:1003F000F0A42DCC3825F0FDE98FF0A42CCD35F0FC
:10040000FCEB8EF0A4FEA9F0EB8FF0A4CFC5F02E8C
:10041000CD39FEE43CFCEAA42DCE35F0FDE43CFCF5
:100420002275F008758200EF2FFFEE33FECD33CD3D
:10043000CC33CCC58233C5829BED9AEC99E582988A
:10044000400CF582EE9BFEED9AFDEC99FC0FD5F089
:10045000D6E4CEFBE4CDFAE4CCF9A88222B800C100
:10046000B90059BA002DEC8BF084CFCECDFCE5F06D
:10047000CBF97818EF2FFFEE33FEED33FDEC33FCB4
:10048000EB33FB10D703994004EB99FB0FD8E5E45D
:10049000F9FA227818EF2FFFEE33FEED33FDEC333F
:1004A000FCC933C910D7059BE99A4007EC9BFCE9CE
:1004B0009AF90FD8E0E4C9FAE4CCFB2275F010EF0A
:1004C0002FFFEE33FEED33FDCC33CCC833C810D74D
:1004D000079BEC9AE899400AED9BFDEC9AFCE899A1
:1004E000F80FD5F0DAE4CDFBE4CCFAE4C8F922BB8E
:1004F000010689828A83E0225002E722BBFE02E3E2
:100500002289828A83E49322BB010CE58229F58249
:10051000E5833AF583E0225006E92582F8E622BB1E
:10052000FE06E92582F8E222E58229F582E5833A92
:10053000F583E49322BB010689828A83F02250026C
:10054000F722BBFE01F322FAE6FB0808E6F925F0E4
:10055000F618E6CA3AF622D083D082F8E4937012F5
:10056000740193700DA3A393F8740193F5828883AB
:10057000E4737402936860EFA3A3A380DFC0E0C0BC
:10058000D075D000C000C20020C27BE5C054F0246A
:1005900080604E24C0601D24E07067E53925E0F5D9
:1005A000C253C2FEA20BE43342C2C2C5753D0175FF
:1005B0003C01805430C11C200B4EE53CD395325099
:1005C0000C7434253CF8E6F5C2053C803BD2C4C22D
:1005D0000A8035D2C4D2C50534E534702B0533808A
:1005E00027E53DC394027439500B253DF8A6C2D2CD
:1005F000C1053D8013253DF8A6C2C20AC2C1D2C4BE
:100600008006D2008002D20030001A53C17F43C15D
:1006100080C2C5C2C4C2C1C20AC200C2940534E5C8
:100620003470020533C2C0D000D0D0D0E0328F1871
:100630008E178D168C1585A71F75A720E515C3137A
:10064000FEE51613FFEF251CFFEE351BFEE4351A01
:10065000FDE43519FCAB1CAA1BA91AA81912045DEC
:100660008F1EE4F51D7422251DF8E6C3951E405526
:10067000E47F02FEFDFCAB1CAA1BA91AA8191203F9
:10068000D2C004A905AA06AB077422251DF8E6FF0F
:10069000E4FCFDFED0001203D2A804A905AA06AB13
:1006A00007AF18AE17AD16AC1512045DC3E49FFF7B
:1006B000E49EF596EFF595742A251DF8E644404230
:1006C00094851FA722051DE51DB4089980FE120020
:1006D00072787FE4F6D8FD75813D02071802075D48
:1006E000E493A3F8E493A34003F68001F208DFF457
:1006F0008029E493A3F85407240CC8C333C4540FCF
:100700004420C8834004F456800146F6DFE4800BA1
:1007100001020408102040809008B9E47E01936033
:10072000BCA3FF543F30E509541FFEE493A36001CE
:100730000ECF54C025E060A840B8E493A3FAE49338
:10074000A3F8E493A3C8C582C8CAC583CAF0A3C8E6
:10075000C582C8CAC583CADFE9DEE780BE12090DBB
:100760007513007512C27511017510007F207ED7B8
:100770007D757C01120842C2B420922A75E340C202
:1007800093E4FFFE0FBF00010EEFF44E70F6D2931C
:100790003093FDE4FEFF0FBF00010EEF640A4E70C0
:1007A000F5E4F5E380D3120003D294E4F508F533C1
:1007B000F534E4FFFE1208648E0A8F0B7DCD7CAB0E
:1007C0007F117E981208A0E50B644C7004E50A6462
:1007D00020600F7BFF7A0779EB850A0F850B1012DB
:1007E00000D8B2947FF412003E80C7534D42305F70
:1007F000493243202020203D3D3D3D3D3D3D3D3D96
:100800003D3D3D3D3D3D526561643D3D3D3D3D3D90
:100810003D3D3D3D3D3D3D3D3D3D3D3D2030783004
:10082000203D3D3D3D3D3D3D3D3D3D3D3D457272A3
:100830006F722121212D3E307825303258200D0A4B
:10084000200085A71475A72043C812E4F5DA439366
:100850000C85131C85121B85111A85101912062E82
:100860008514A722AC06753202753910ECF535EF08
:10087000F5361209037539101208EBE53AFEE53B2F
:10088000FDEDFF22AF885388AF758C38758A1375DC
:100890008D34758B34EF5440FEEF54104E42882255
:1008A000AA06753204753910EAF535EFF536ECF520
:1008B00037EDF538120903D32208220104080C1081
:1008C000182030082A030104000506070200AEA71D
:1008D00075A72030C9FD8F92C2C98EA72253C17F50
:1008E00043C18053917FC2C5C20A32200AFDD20A99
:1008F000D20BD2C5200AFD22E4F5A7F5A9E5A9305F
:10090000E7FB22200AFDD20AC20BD2C52285A70C22
:100910001208F8850CA722E4F5A77597DE7597AD48
:1009200022758E0175892043884022E4F5A775E67B
:100930008175A8802275A51075D5032275E34175D0
:0E094000E1042253C1FC43C1DD2275D4FF2225
:00000001FF
