:020000040000FA
:100000000232A890021CE5A7F01238E812004E1246
:1000100038F21238F912386312005612381E1238AC
:100020004D1238D01200761239001238791238C3C6
:100030001238B690021CE0F5A72222022E7A900216
:100040001CE5A7F01238DD90021CE0F5A72275D45C
:02005000FF228D
:10005300023686AF885388AF758C38758A13758DD1
:0F006300FA758B34EF5440FEEF54104E42882252
:100073000238A8E4F5A7758E0175892043884022CC
:03008300022CEF5D
:10008B000238892054203D20256C642E256428439A
:10009B0029200A000D0A30B5D8D6B7D6B5CEAAA3FB
:1000AB00BA3078253034780D0A004C6F61642046E5
:1000BB0069726D776172652053746172742E2E2E86
:1000CB002E2E2E004C6F6164204669726D77617223
:1000DB006520456E642E2E2E2E2E2E004D43552060
:1000EB005354415254204F4B2E2E2E2E2E2E00C2E7
:1000FB00ED0100C7F800000100010000001A5801D3
:10010B0000000000000FD000000FD000000FD00047
:10011B00000FD000000FD000000FD000000FD00058
:10012B00000FD000000FD000000FD000000FD00048
:10013B00000FD000000FD000000FD0000000000017
:10014B00000000000000000000000001000504009A
:10015B000000000000000000000000000000000094
:10016B0000000000000000000000000100059C01E1
:10017B000006440100066C0400004001F40100007D
:10018B00200004000201F4020000020001FFFC0049
:10019B00010006000A000600050005003B001E00DA
:1001AB0001000A0000000000000000010000030035
:1001BB004B0032019005060000000000000000001B
:1001CB000000981000A989100DCBAB1000DCBC10FF
:1001DB00065DCD0000065D0000007600000000000B
:1001EB0000021000032F0100000000000103E802D1
:1001FB000001800020060600140000000000000033
:10020B000000001820010000000173A8211D589C5C
:10021B0021FFE0B8640082D4011004A8409805AC1B
:10022B0084FFFFD401B014E2C310009C400001A472
:10023B00840003E0421802D401A010E2842000B82D
:10024B00420008D4017008E29420009DC00000D445
:10025B0001900CD401C018D401481CD40108009E95
:10026B00940004E04410009F00000AAA4E0000070F
:10027B00C004E0A8760000E16BA048186000008C79
:10028B00B7003EA8632DF0A56B0007E16B18008C3F
:10029B008B0000E564280010000007A8770000E041
:1002AB00A52002E57228001000000315000000AA2B
:1002BB004500008C63003FE5A4180010000006E029
:1002CB00841802E56E20001000000315000000A941
:1002DB00C400009F18FFFFBC38000013FFFFE5159B
:1002EB000000009E52FFFFBC32FFFF0C000006A86F
:1002FB0060980407C004D3A882000003FFFFFB9E95
:10030B0052FFFF9C4200049DCEFFFFBC2EFFFF0C53
:10031B00000006A860980407C004CAA88200000366
:10032B00FFFFFB9DCEFFFF8521001C842100008475
:10033B0041000485C100088641000C8681001086AF
:10034B00C1001487010018440048009C2100209C28
:10035B0021FFE8D4017008D4014814D4010800D45B
:10036B00011004D401900CD401A010A9C300009477
:10037B006E0000BC2300000C000016A4430F00BC51
:10038B002208001000000E968E00029E400000A472
:10039B0043F0FFA880FFFFE0629000A8B4000007C5
:1003AB00C0049F9E520100BC32080013FFFFFBA844
:1003BB0080FFFF03FFFFEF9DCE0004A880FFFF0728
:1003CB00C00497A8B4000003FFFFEA9DCE0004858C
:1003DB00210014842100008441000485C10008869B
:1003EB0041000C86810010440048009C2100189CA1
:1003FB00A000019C21FFF4E0852008D4011004A883
:10040B00430000A8609811A8A40000D40148080775
:10041B00C00483D4010800B4605001D40218089CB6
:10042B00600000DC02181A8521000884210000847A
:10043B00410004440048009C21000CA4A400079C2C
:10044B0021FFF0B8A5000BD40110049CC03800A804
:10045B004400009C80004ED4017008D401480CA9C4
:10046B00C3000007C00783D4010800A4A20008A89A
:10047B006E0000BC050000100000039C8000DF9C98
:10048B00A0002207C0077B9CC000E28521000C84E2
:10049B002100008441000485C10008440048009CF1
:1004AB002100109C21FFECD4011004D4017008D45E
:1004BB00014810D4010800D401900CA84300008E11
:1004CB004300148CA3000CA6520007E57228001001
:1004DB00000004A9C40000000000059CA5FFFFE577
:1004EB00B22800100000039CA50001D802280C8C38
:1004FB00A2000CA4A50007A86E0000B8A5000B9CD9
:10050B0080004E07C0075B9CC038008C62000CE477
:10051B0023900010000015852100108C8200140719
:10052B00FFFFC7A86E0000A86E00009CA002009CF5
:10053B00C03F8007C0074F9C800001A862000007E6
:10054B00FFFFACA88E0000B4605001D40218089CC9
:10055B0060001EA88E0000D802180E07FFFF2DA802
:10056B006200008521001084210000844100048575
:10057B00C100088641000C440048009C2100149CDB
:10058B0021FFF0D401480CD4010800D4011004D48D
:10059B0001700899C3001ABC0E00000C00001685F0
:1005AB0021000CB440500184A30008E042280298BB
:1005BB00B7001CB8420059E48228001000000E85D9
:1005CB0021000CA84300001860010007C00806A812
:1005DB00631A489C600001DC02181A8C62000FBC85
:1005EB00030000100000048521000CD802700E855A
:1005FB0021000C842100008441000485C1000844C3
:10060B000048009C210010B86300849C21FFF4D4A7
:10061B00011004A443000FD4014808BC02000210CF
:10062B00000013D4010800BC02000310000009BC39
:10063B000200000C00000A1860010007FFFF45A82C
:10064B006318649C6000050000000FA8820000186E
:10065B0060010000000008A86318FC07C002F19CB1
:10066B006000020000000B8521000818600100A843
:10067B006319A407FFFF37150000009C6000059C61
:10068B0080000007C002EA150000008521000884E5
:10069B0021000084410004440048009C21000C9C74
:1006AB0021FFF8A48300FFD4014804BC0400001010
:1006BB00000006D401080007C002DA9C60000200AB
:1006CB0000001F8521000407C002D99C60000DA803
:1006DB0060981007C006C89C80001A07C003C5A805
:1006EB00609818B88B008CA56B000FBC0B0000102A
:1006FB0000000CAC64000DE0A01802E0651804BD0E
:10070B0083000010000008BC0400009C60000D0773
:10071B00C002C79C8000010000000985210004BCB9
:10072B0004000013FFFFEB1500000007C002BD9C87
:10073B0060000D03FFFFE8A86098108421000044BF
:10074B000048009C2100089C21FFF8A89700009C02
:10075B00A00042D401480407C0067CD401080085E0
:10076B0021000484210000440048009C2100089CC7
:10077B0021FFF4D4011004A443000FD4014808BC9A
:10078B002200011000000CD401080018800100A801
:10079B00609819A88400F807C0038A948400009C11
:1007AB0060000F07C002A2A88200000000000685AF
:1007BB002100081860008907C0064CA8636AAF8542
:1007CB002100088421000084410004440048009C5F
:1007DB0021000C9C21FFD41860010018800100D46B
:1007EB0001100418400100A8631A58A8841F98A888
:1007FB004200F8D4014828D4010800D4017008D471
:10080B0001900CD401A010D401B014D401C018D4A1
:10081B0001D01CD401E02007C003C0D401F0240791
:10082B00C003661500000094620000BC230000109A
:10083B000000071860010018800100A86300000485
:10084B000003BCA8841A58DC0258001AE00100AA65
:10085B00F70074A860981407C00366A840FFF0E483
:10086B002B1000100000061840CFFF07C0035A9C46
:10087B0060000007BFFE8515000000A842FFFFC106
:10088B004010009C800000C1402001186001009DB9
:10089B00C0FFFF07C00754A863172C9DCE0001A50E
:1008AB00CE0007B86E0003B84E0006E043100018E8
:1008BB00600100A8631D58E042180007C0079FA8FD
:1008CB006E0000B96B0088BDAB001F100001CBBDE3
:1008DB004B0017A64B001FBD52000910000009BDAD
:1008EB0092000BBD720008100000D8BC1200021061
:1008FB0000000C9C80FFFE0000038A150000001016
:10090B00000388BDB2000C10000104BC12001810CB
:10091B0000016DA880820000000382150000008C8E
:10092B006200429EC00001E0632003E2D67008D84B
:10093B0002184207C0032FA860980FA8609816E111
:10094B006B704807C0032BA64B0001A8609811D809
:10095B00029010A89600009CA0000007C00330AACC
:10096B008B00009062000EBC2300641000000CA4EE
:10097B0074FFFFE0637088A4630001BC03000010E8
:10098B00000360A8960000A860981607C003249C7B
:10099B00A000009C600000D802180E07C007AAA890
:1009AB006E0000A56B00FFBC1200001000002CD8DD
:1009BB0002580F94B700249CC0003FA4A5003FA889
:1009CB006E000007C0062B9C80007818600100A801
:1009DB008E000007C00704A863182018600100A848
:1009EB008E000007C00700A86317EC9C800008A8C6
:1009FB006E0000D802200E07C0061A9C80004EB96C
:100A0B006B00128CA2000FB96B005DBC050000A837
:100A1B006E00001000000CD802580C9CA000009C2B
:100A2B0080000107C006139CC0400094570018BCFF
:100A3B00220000100000039CA00002A8A20000A846
:100A4B006E00009C8000DF9CC0000207C0060915E9
:100A5B000000000000006D94970000BC0B0000101C
:100A6B000000319CC0003F94B70024A4A5003FA810
:100A7B006E00009C80007807C005FEBA9400101829
:100A8B00600100A88E000007C006D7A863182018C5
:100A9B00600100A88E000007C006D3A86317EC9C6A
:100AAB006000059C800008D802180DBD7400001072
:100ABB00000006D802200E9C6000079C800001D825
:100ACB0002180DD80220108CA2000DA4A50007A8B7
:100ADB006E0000B8A5000B9C80004E07C005E59C7E
:100AEB00C038008C62000DD802180C94570018BC4B
:100AFB00220000100000039CA00002A8A20000A886
:100B0B006E00009C8000DF07C005DA9CC00002A8C5
:100B1B006E00009C8000019CA0000003FFFFCC9C9A
:100B2B00C040008C62000E9C63FFF6BC43000D10AE
:100B3B0000003B18600100B460500184A20004E087
:100B4B0063280294B70010B8630050E485180010B6
:100B5B00000032E0B770008CC200139C660012B824
:100B6B00630002E077180084630000B883005CD454
:100B7B000218209C84001AB8840002E0972000849D
:100B8B00840000D8029012D4022024A48300FFB862
:100B9B00630004A4E4000FA4840007B8630048D8E2
:100BAB0002200CD8023814D402182018600100DC83
:100BBB00029018DC029016D805302CA88E00000786
:100BCB00C00689A86317EC8CA2000C98970022E54D
:100BDB00852000100000091500000094B70080A4C8
:100BEB00A5007FA86E0000B8A500079C8000010738
:100BFB00C005A09CC03F808C82001407FFFE10A88C
:100C0B006E00009497000007C005A3A86E000000BB
:100C1B000002C41500000018600100A88E00000738
:100C2B00C00671A86317889C80001F9C600000D8C9
:100C3B0002201CD802201D9C800008D8021812002C
:100C4B000002B8D802200E8E820012BC34000010B5
:100C5B000000079C600010B4605001D40218049C83
:100C6B00600009D802180E9C600010E283A088BCBB
:100C7B0034000010000003150000009E800001A846
:100C8B006E000007C005779C800074A56BFFFFBC4E
:100C9B004B0001100000039C6000019C600000A44D
:100CAB006300FFBC230000100000058C62001CBC1D
:100CBB003200091000000815000000D802181EBCF5
:100CCB0043003E0C000005E283A000000000058CF1
:100CDB00A2001CE283A002D802A01C8CA2001CA8BC
:100CEB006E00009CC0007F9C80004A07C00561A479
:100CFB00A5007FA86E00009C80004907C0056A9C78
:100D0B00A00000A8808B8C07C0055FA86E000000B8
:100D1B00000284150000008E8200129C600010E21D
:100D2B0083A088BC34000010000003150000009E57
:100D3B00800001A86E000007C0054A9C800074A5C6
:100D4B006BFFFFBC4B0001100000048C62001D0008
:100D5B00000006E283A002BC43003E10000004D852
:100D6B0002181FE283A000D802A01D8CA2001DA8B0
:100D7B006E00009C80004CA4A5007F07C0053D9C25
:100D8B00C0007F8C620012BC430006100000109C58
:100D9B00800078A8A0FFFFA86E000007C005429C4A
:100DAB00800049A880888907C00537A86E00008C91
:100DBB006200129C630001BC32000C10000259D877
:100DCB000218120000003B1860010094B70024A821
:100DDB006E0000A4A5003F9CC0003F07C005259EE8
:100DEB0040000018600100A88E000007C005FEA897
:100DFB006318208C62001FE40390001000000F9C0E
:100E0B0080000007C001B18C62001E8C62001F07BE
:100E1B00C001AEAA4B0000A872000007C00182A857
:100E2B008B00009C80000707C00256A86B00009E39
:100E3B004BFF809C800000A860981607C001EDD482
:100E4B00022020A56B8000BC2B0000100000139C1F
:100E5B00600006BDB2004B1000000EBDB200721058
:100E6B0000000C9D600001BDB20087100000099DC1
:100E7B00600002BDB200CB100000069D600003BDF8
:100E8B005200FE100000039D6000059D6000049C55
:100E9B00600005E0635802D8021813E0777000D8A1
:100EAB000390409C60000AD802180E18600100A83D
:100EBB008E000007C005CCA863184800000212186A
:100ECB0060010007C004F0A86E00008C620042A80D
:100EDB00630001D802184207C00565A86E0000A880
:100EEB006E000007C0052FAA4B00009477001AE490
:100EFB008B1800100000059E520010BCB200201091
:100F0B0000000915000000A86E00009C8000509C9A
:100F1B00A0080007C004D79CC00FFF0000020115FA
:100F2B000000008C620010BC0300001000002E15A6
:100F3B000000009497000207C004D7A86E0000A819
:100F4B00A0E000A8C0F000A86E000007C004C99C78
:100F5B0080003B8C620010BC0300001000000D15DC
:100F6B000000008C62000FBC230000100000189CD6
:100F7B0060001A8C82000C9877001EE56418001034
:100F8B00000004A86E000007C005F59C8000078CCC
:100F9B0062000FBC2300001000000D9C60001A8C37
:100FAB0082000C98770020E5641800100000069C66
:100FBB00A00022A86E00009C8000DF07C004AD9C3F
:100FCB00C000E2000000099C80001DA88E0000D824
:100FDB0002180E07FFFC8FA862000000000004152A
:100FEB000000009C800010D802200EB4605001005D
:100FFB000001CCD40218000C0001C3186001009E44
:10100B004E00809EC00003BA5200089F9200139EB0
:10101B0052002A07C00177A87C0000A872000007C5
:10102B00C00174ABCB00009C80000DA86E000007C4
:10103B00C0048CAB0B0000A86E000007C00501AA12
:10104B008B0000A87C0000AB4B000007C00169A718
:10105B00DE000FA56B000FE55E5800100000039C2F
:10106B008000019C800000A48400FFBC24000010C1
:10107B00000014BC0B000F100000139ED6FFFFB630
:10108B00C050018C62000E9C63FFF086420000A4EE
:10109B006300FFE2569002BC43002110000199BA95
:1010AB0052005018800100B8630002A88416A4E017
:1010BB006320008463000044001800150000009EAC
:1010CB00D6FFFFBC36000013FFFFD3150000000353
:1010DB00FFFFEC1500000094770026E49218001037
:1010EB00000189186001009497000207C0046AA8E8
:1010FB006E0000A86E00009C8000089CA00080077A
:10110B00C0045C9CC000F08C62000FBC0300000CA0
:10111B0000017AD402B0000000012D9C80001294D3
:10112B00970028E4922000100001771860010094CA
:10113B0097003C94C20018E0982000E58430001022
:10114B000000081500000094770026E49218000CAC
:10115B00000005186001000000016B150000009FE6
:10116B0000000084620024D402B000A483000FB8F6
:10117B00630044BC24000F0C000014D40218249C00
:10118B00640014A4B8FFFFE0631800E0E22000E065
:10119B00621800DC0328008C620014D807D030D80A
:1011AB000718348CE20012E5A4380010000003E5A8
:1011BB00B83000D80220121000000415000000DC2B
:1011CB00022818DC02181684820020BC04000010D0
:1011DB00000013BC38000010000009150000008C43
:1011EB00A2001494620016A4A50007A4630007E5EF
:1011FB004518001000000A15000000A484000FA879
:10120B006E000007FFFC8ED802201484620020B809
:10121B006300440000013BD402182095A2002890E3
:10122B00E200308C8200129D02002A9CA20031A8A1
:10123B00CD00009DE000009C600001E5A320000CA8
:10124B00000013A997000095880000E5AC30001052
:10125B0000000B1500000091650000BD8B00001015
:10126B00000004E54B38001000000515000000A835
:10127B00EB0000A9E30000A8CC00009C6300019DDB
:10128B0008000203FFFFEE9CA500019CA200289D15
:10129B000200309C600000E42378000C000013BCBB
:1012AB0024000396250000956C0038E1715800E589
:1012BB008B3000100000081500000091680000BD85
:1012CB008B000010000008E5AB380010000007BCD5
:1012DB002400039C6300019CA5000203FFFFEF9D0C
:1012EB00080001BC2400031000001A1500000015B3
:1012FB00000000BC23000010000016150000009435
:10130B0082002EE0846802B8A4009FE0852005E0EF
:10131B0084280294AC003AE56428001000000D15F7
:10132B0000000090820031BD840000100000081501
:10133B0000000090820032BD640000100000051513
:10134B00000000000000039C6000029C600001E0B4
:10135B006218008C8200148C630034A4840007D8BC
:10136B000218149C600019D802200C00000007D84A
:10137B0002180E9477002AE4921800100000E11571
:10138B00000000D402B000A862000007FFFC46A8D2
:10139B008E0000000000DC18600100A8620000074E
:1013AB00FFFC78A88E00008C62000FBC230000109D
:1013BB000000D5186001009E400100A860980F073F
:1013CB00C0008CE2527008E24B9003BC320000105C
:1013DB000000CC9C800001A86E0000A8B2000007A2
:1013EB00C003A49CC040009C600001DC029016D896
:1013FB00021815DC02901894970036E06320089CC5
:10140B0080001FD402B000D8021811000000BDD814
:10141B0002200EA862000007FFFC5AA88E000007EE
:10142B00C00074A860980F9C600100E0637008E135
:10143B006B1803BC2B0000100000B318600100A850
:10144B006E000007C003879C800009A56B8000BC61
:10145B002B0000100000AC1860010094770034E4FE
:10146B00921800100000A8186001008E4200119421
:10147B006200169E52FFFFE3181800A65200FFD41D
:10148B0002B000DC02C016BC3200001000009DD878
:10149B00029011A86E000007C003729C800080A808
:1014AB006E00009C80000107C0036EAACB00009465
:1014BB0062001694820018E46418001000000415F2
:1014CB0000000000000007DC0218188C6200159C5D
:1014DB0063FFFFDC029018B863005FD80218159009
:1014EB00820015BC04000010000009A474007FB832
:1014FB00B60010B8A50059E58328000C00000A15AA
:10150B00000000000000099CA30001B8AB0012B85A
:10151B00A50059E54328000C000004A4A5FFFF9C7F
:10152B00A3FFFFA4A5FFFFA86E00009C80005F0730
:10153B00C003509CC0007F9CA01000A86E00009CB4
:10154B0080000A07C0034BA8C50000949700369C87
:10155B00600001E0632008D80218119C60000000B5
:10156B00000068DC02181694770006E4B21800102D
:10157B0000006415000000A862000007FFFB25A80F
:10158B008E00009C80001CD402B000D802200EA854
:10159B0062000007FFFB97A88E00000000005A189E
:1015AB0060010094770004E4B21800100000551598
:1015BB00000000000000529C60001B9477000EE4BA
:1015CB00B218001000004F9C80001B0000004DD88B
:1015DB0002200EA862000007FFFB86A88E00000009
:1015EB000000479C60001B94770008E492180010E1
:1015FB000000449C8000319C600000D802200EDC6F
:10160B0002181A9C6000019497000AE0632008D826
:10161B000218119477000CE49218001000003A188D
:10162B006001009462001AE35A18008C820011BB0F
:10163B005A00109C84FFFFD402B000BB5A0090A448
:10164B008400FFDC02D01ABC2400001000002DD84F
:10165B0002201194F7000A98770014E0633808E52C
:10166B00BA18001000000B8C62000CBC03000010B9
:10167B000000169E4000018CA2000DE4851800109E
:10168B000000129C63FFFF0000000FD802180C989B
:10169B00B70016E0A53808E57A28001000000B9E6D
:1016AB00400001BC43000510000008150000008C31
:1016BB00A2000DE445180010000004E0639000D870
:1016CB0002180CAA4400008C82000C07C00312A85D
:1016DB006E0000BC120000100000089C80001AA8CD
:1016EB00620000D802200E07FFFACAA88E00000085
:1016FB00000005186001009C600030D802180E181D
:10170B0060010007C0025AA8630038A86098100750
:10171B00C002B99C80001A03FFFC629DCE0001073A
:10172B00C004DCA86E000003FFFFF718600100A9DE
:10173B006BFFFF19000100A9081684E403200010B9
:10174B000000109CA0000494C30000E16B3005B8AE
:10175B00CB004CB96B0004E0C630009CA5FFFFE04A
:10176B00C64000BC25000094C60000E16658051376
:10177B00FFFFF8A56BFFFF03FFFFF19C6300024423
:10178B000048001500000000008005800F000A8053
:10179B001B001E0014801180330036003C80390082
:1017AB0028802D8027002201000FD4010015FC0199
:1017BB0000101C010015FC010015FC010015FC01BB
:1017CB000015FC010015FC010015FC010012700155
:1017DB000014D001001298010014A0010014640140
:1017EB000014B801001310010015FC010015FC01D9
:1017FB000015FC010015FC010015FC010015FC0196
:10180B000015FC010015FC010015FC010015FC0185
:10181B000015FC010015FC010015FC010015FC0175
:10182B000015FC010015FC010014E40100151098D3
:10183B0010FFFF0000800B9F9F8200810B9F9F82F8
:10184B0000820B9F9F8200830B9F9F82009814FF47
:10185B00FF5B5B980C20002000980FFFFF00F099B6
:10186B0000FFFFFDE09901FFFF21049902FFFF93A9
:10187B00109903FFFF4A66981EFFFF85389826FFD5
:10188B00FF95799827FFFF0000000000F203F0029C
:10189B00E000DF00E2000000F9007E004C00F803DE
:1018AB00800000003BF00000000078003F002400A7
:1018BB000B9F9F8889006500E000000048FFFFFF39
:1018CB00FF0049FFFFFFFF004A0FFF071F004BFF01
:1018DB00FFFFFF004C1FFF0E9F004D80008000009C
:1018EB004E38003800004FF000F000000000000000
:1018FB00500FFF0040003BF0000000004D800080C7
:10190B0000000800F00080000140004000000A10B9
:10191B00000000006500E00000000B9F9F82980014
:10192B000000000048FFFF00800049FFFF0002009D
:10193B004C1FFF1115004BFFFF0080004A0FFF08E3
:10194B00BD000B9F9F820000000000008108000873
:10195B0000000C80000000000C800080000081085B
:10196B000000000000000088834E058882D80088A4
:10197B0075C6FF6002800088FC5236780000008834
:10198B0050504088A30020854E0000887641828805
:10199B0077516688781CBB847600848576008486B4
:1019AB007600848776008484771882857718828600
:1019BB007718828777188284788C3885788C38866C
:1019CB00788C3887788C38844E0000874E000086E0
:1019DB004E000060328000601280008863008088B7
:1019EB0064808088085ABB880329338802400660CC
:1019FB002280008806A1008805AE820000000088C6
:101A0B00DF0066888130008887CD7A8886CD7A881A
:101A1B00854D7A88848D7A88FC536688884D7A88C0
:101A2B00FE80AE88FDB64488FFFDC078080C0073BD
:101A3B001AFF00711AFF00721AFF00701AFF00786C
:101A4B00093A908879886C824E3800814E38008331
:101A5B004E3800804E3800884D800078061254882E
:101A6B00EFB6A088FB773678190005781681C08809
:101A7B00F98B5A88F8B7780007002088F1B00088F6
:101A8B00F067B488F561E088F7A246990293109944
:101A9B0000FDE0990121048801020188004D0588B1
:101AAB00074D7A0000000088DF00668881300088CF
:101ABB0087CD7A8886CD7A88854D7A88848D7A7899
:101ACB0006125488FB773688FEA5A888FD36448815
:101ADB00FFFDC078080C00731AFF00711AFF00702D
:101AEB001AFF00721AFF0078093A908879886C8186
:101AFB004E3800834E3800824E3800804E380088B6
:101B0B004D800088EFB6A088884D7A78190005784B
:101B1B001681C088F98BDA88F8B7780007002A8815
:101B2B00F1B00088F067B488F561E088F7A24699B8
:101B3B000293109900FDE0990121048801020188AC
:101B4B00004D0588074D7A00000000008BFC00FC5F
:101B5B0000008BFC00000000000000000000008073
:101B6B00A7140081A7140082A7140083A714008474
:101B7B00A7120085A7120086A7120087A712008064
:101B8B00A83C0081A83C0082A83C0083A83C0084B0
:101B9B00A83F0085A83F0086A83F0087A83F008488
:101BAB00A63C0085A63C0086A63C0087A63C008090
:101BBB00A0008081A0008082A0008083A000008410
:101BCB00A0000085A0008086A0008087A0008084F4
:101BDB004E2000854E2000864E2000874E20008030
:101BEB00613C20816134208261342083613C2084FC
:101BFB00617C2085613420866134208761342041EB
:101C0B004243444546470048494A00000000000053
:101C1B000000000000000000000041424344454624
:101C2B0047009F00980D981474FF90021CF0A3F0CE
:101C3B00E4900222F0A3F0A3122A2D0000000090E2
:101C4B000233122A2D00000000900237122A2D00B9
:101C5B0000000078497C027D017BFF7A1C792D7E88
:101C6B00007F0612282B90024F122A2D0000000035
:101C7B00900255E4F0A304F0E4900259F0A3F07B3A
:101C8B00FF7A0079FA90022CEBF0A3EAF0A3E9F0CB
:101C9B00240C123215900228122A2190022CE0FB00
:101CAB00A3E0FAA3E0240812321590022F122A2186
:101CBB0090022CE0FBA3E0FAA3E024101232159063
:101CCB00023BE4F0A3740AF0A3122A219002411202
:101CDB002A2D00000000E47B18FAF9F8900228E0A6
:101CEB00FCA3E0FDA3E0FEA3E0FF12294AEF2401D1
:101CFB00FFE43E90025BF0A3EFF0900247E4F0A309
:101D0B007480F0900233E0F8A3E0F9A3E0FAA3E0CB
:101D1B00FB900247E0FEA3E02417F58274013EF529
:101D2B0083E0FFE4FCFDFEEB2FFFEE3AFEED39FD09
:101D3B00EC38FC900233122A21900248E004F07038
:101D4B0006900247E004F0900247E07004A3E064C1
:101D5B00BF70B0900247E4F0A374C0F0900237E07C
:101D6B00F8A3E0F9A3E0FAA3E0FB900247E0FEA39F
:101D7B00E02417F58274013EF583E0FFE4FCFDFEE1
:101D8B00EB2FFFEE3AFEED39FDEC38FC90023712EB
:101D9B002A21900248E004F07006900247E004F01C
:101DAB00900247E07004A3E064DF70B0900233A3AD
:101DBB00A3A3E0FF9001D6EFF0900237A3A3A3E01B
:101DCB00FF9001F6EFF0D2107D887C081237B71226
:101DDB0037B4C2107FF41237E0E4FFFE1235B8902F
:101DEB000259EEF0A3EFF0644C7003EE6420601820
:101DFB007BFF7A00799F900259E0FFA3E09002628B
:101E0B00CFF0A3EFF0122461E4900259F0A3F07B22
:101E1B00FF7A0079B5122461E4900245F0A3F090AB
:101E2B00025BE0FEA3E0FFC3900246E09FEE6480FE
:101E3B00F8900245E0648098400302208F900241A5
:101E4B00122A2D0000800C90024AE0240CFF900215
:101E5B0049E03400FEC006C00790023DE0FCA3E061
:101E6B00FDA3E0FEA3E0FF78101229FBAD07AC0643
:101E7B00D007D0061237BB90024AE0240DFF900228
:101E8B0049E03400FEC006C00790023DA3A3E0FE6C
:101E9B00A3E0FFAD07AC06D007D0061237BB90020C
:101EAB0041E0F8A3E0F9A3E0FAA3E0FBC000C00116
:101EBB00C002C00390023DA3A3E0FEA3E0FFE4FD3C
:101ECB00FCAB07AA06F9C004C005C006C007900208
:101EDB003DE0FCA3E0FDA3A3E078101229FBD003A7
:101EEB00D002D001D000EF2BFFEE3AFEED39FDEC26
:101EFB0038FCD003D002D001D000EB2FFFEA3EFE1E
:101F0B00E93DFDE83CFCA3122A21E4900247F0A333
:101F1B00F090023CE025E0FF90023BE033FE9002A4
:101F2B002CE0FBA3E0FAA3E02FF9EA3EFA12341EF1
:101F3B00900257EEF0FCA3EFF0FD900247E0FEA3FA
:101F4B00E0FF90024AE02FFF900249E03EFE12377D
:101F5B00BB900241E0F8A3E0F9A3E0FAA3E0FB9009
:101F6B000257E0FEA3E0FFE4FCFDEB2FFFEA3EFE91
:101F7B00ED39FDEC38FC900241122A2190023CE035
:101F8B0004F0700690023BE004F090023DE0FCA3ED
:101F9B00E0FDA3E0FEA3E02402FFE43EFEE43DFDF2
:101FAB00E43CFC90023D122A21900248E004F070C0
:101FBB0006900247E004F0C3900248E0940C9002B4
:101FCB0047E0648094805003021F1C90024AE02477
:101FDB000EFF900249E03400FEC006C0079002419C
:101FEB00E0FCA3E0FDA3E0FEA3E0FF1229DCAD07BC
:101FFB00AC06D007D0061237BB90024AE0240E1273
:10200B0035B090024AE0240FFF900249E03400FE05
:10201B007D0C7C801237BB90024F122A2D000000E2
:10202B0000802B900253E0B48031A3E0B40C2C90D1
:10203B00024FE0FCA3E0FDA3E0FEA3E02401FFE4DC
:10204B003EFEE43DFDE43CFC90024F122A2112358A
:10205B00AA900253EEF0A3EFF080C8900253E07009
:10206B0002A3E0600E90025AE004F0700690025951
:10207B00E004F0900246E004F07006900245E004A4
:10208B00F0021E2A90024AE0240CFF900249E03431
:10209B0000FEC006C00790022FE0FCA3E0FDA3E00A
:1020AB00FEA3E0FF78101229FBAD07AC06D007D0DA
:1020BB00061237BB90024AE0240DFF900249E03430
:1020CB0000FEC006C00790022FA3A3E0FEA3E0FF13
:1020DB00AD07AC06D007D0061237BB90022FA3A3D7
:1020EB00E0FEA3E0FFE4FDFCAB07AA06F9C004C0C9
:1020FB0005C006C00790022FE0FCA3E0FDA3A3E000
:10210B0078101229FBD003D002D001D000EF2BFFA7
:10211B00EE3AFEED39FDEC38FCE42FFFEE3440FED9
:10212B00E43DFDE43CFC900241122A2190024AE07E
:10213B00240EFF900249E03400FEC006C007900257
:10214B0041E0FCA3E0FDA3E0FEA3E0FF1229DCAD20
:10215B0007AC06D007D0061237BB90024AE0240F1B
:10216B00FF900249E03400FE7D007C401237BB90AB
:10217B000255E07002A3E0604490024F122A2D003A
:10218B00000000802B900253E0B44031A3E0B40078
:10219B002C90024FE0FCA3E0FDA3E0FEA3E02401A2
:1021AB00FFE43EFEE43DFDE43CFC90024F122A218D
:1021BB001235AA900253EEF0A3EFF080C8E4900220
:1021CB0047F0A3F0E4900245F0A3F0900246E00440
:1021DB00F07006900245E004F0900245E0B404EB89
:1021EB00A3E0B400E6900248E004F07006900247CA
:1021FB00E004F0900247E0B404CAA3E0B400C57F4A
:10220B00147E981235B8900253EEF0A3EFF07D00D8
:10221B007C507F187E981237BB8011900253E0647C
:10222B00057002A3E060167F961237E07F187E9848
:10223B001235B8900253EEF0A3EFF080DE7D207CD8
:10224B00507F187E981237BB8011900253E06405C3
:10225B007002A3E060167F2C1237E07F187E981275
:10226B0035B8900253EEF0A3EFF080DE7BFF7A00DF
:10227B0079CF12246190025DE4F0A37428F0E4900E
:10228B000247F0A3F090025DE0FEA3E0FF9002474F
:10229B00E0FCA3E0FDC39FEE6480F8EC64809850F3
:1022AB0074EDAE047802C333CE33CED8F9FDAC0651
:1022BB00246AF582741B3CF583E493FE746B2DF555
:1022CB0082741B3CF583E493FDEDFFC006C00790C1
:1022DB000247E0FEA3E07802C333CE33CED8F9FD3C
:1022EB00AC06246CF582741B3CF583E493FE746D91
:1022FB002DF582741B3CF583E493FDEEFCD007D0E7
:10230B00061237BB900248E004F07006900247E0DB
:10231B0004F00222907FF41237E07D777C071237AE
:10232B00B71237B47FF41237E01238377BFF7A00DD
:10233B0079E7122461C2967B017AF87900900264E6
:10234B007402F0A3E4F0FD7CF81233B3900165E066
:10235B0014602A24FE6040146054240270EE900135
:10236B0061E0FEA3E0FDEDFFC006C007A3E0FEA306
:10237B00E0FDEEFCD007D0061237BB806690016102
:10238B00E0FEA3E0FDEDFF1235B8AD07AC06EC9017
:10239B000163F0EFA38011900162E02400F582E469
:1023AB0034F8F583E0900164F0E4A3F0809E900193
:1023BB0064E0FF900162E0FE2400F582E434F8F55E
:1023CB0083EFF0EEB4FF1C7F007EF81237837B01A6
:1023DB007AF879009002647401F0A3E4F0FF7EF8C0
:1023EB00123485E4900165F0022357E5082462F569
:1023FB0082E43402F583E005082290025F30090382
:10240B00900262E475F001122A5E0228512002E963
:10241B007F2ED2028018EF540F2490D43440D4FF77
:10242B0030060BEF24BFB41A0050032461FFE509FB
:10243B0060021509050CE50C7002050B30090E90B6
:10244B00025FE475F001122A5EEF022897023899B9
:10245B007403D2098003E4C209F50890025F122AC3
:10246B0075E4F509F50BF50CE50960077F201224DF
:10247B003980F5750AFFC203C202C204C205C20746
:10248B00C208C20A122405FF700D3009057F001225
:10249B00244AAF0CAE0B22B4255FC2D5C206122460
:1024AB0005FF24D0B40A00501A75F00A780930D50C
:1024BB000508B6FF0106C6A426F620D5047002D285
:1024CB000580D924CFB41A00EF5004C2E5D206021E
:1024DB00264BD20380C6D20280C0D20480BCD2D598
:1024EB0080BAD20780B47F201224392004077401EC
:1024FB00B5090040F11223F6FF122439022473D2DE
:10250B000AD20880951223F6FB1223F6FA1223F651
:10251B00F94A4B7006791C7A277BFF20042EE509BC
:10252B00602A7E008E8275830012286A60060EEE8A
:10253B00650A70F0C2D5EBC0E0EAC0E0E9C0E0EE9E
:10254B00122692D0E0F9D0E0FAD0E0FB122851FF2E
:10255B0060AAEBC0E0EAC0E0E9C0E0122439D0E0A9
:10256B002401F9D0E03400FAD0E0FBE50A0460DC8A
:10257B00D50AD980877BFF7A26798ED204809C7905
:10258B001080027908C208C20A8008D2D5790A8065
:10259B0004790AC2D5E50A047002F50AE4FAFDFED5
:1025AB00FF1223F6FC7B082003131223F6FD7B108E
:1025BB0030020A1223F6FE1223F6FF7B20EC338245
:1025CB00D592D55013C3E43002069FFFE49EFEE480
:1025DB002003039DFDE49CFCE4CBF8C203EC700CE0
:1025EB00CFCECDCCE824F8F870F38017C3EF33FFD0
:1025FB00EE33FEED33FDEC33FCEB33FB994002FB8A
:10260B000FD8E9EB300305F8D0E0C448B203C0E0C3
:10261B000AEC4D4E4F78207B0070C2EAB50A0040A1
:10262B00BCC0E0122694D0F0D0E0200304C4C0E07C
:10263B00C4B203C0F0122422D0F0D5F0EB02247305
:10264B00122A7E251053258A5824E14C24DD42257D
:10265B008E4F25964425964924F643259C55258077
:10266B0046258045258047273C5024E52D24E92E1F
:10267B00250C2B24ED23250A2027252A24A54800E9
:10268B000025043F3F3F00790AA2D52005143007EF
:10269B0009B910020404B9080104A2D5200802509C
:1026AB0001042004689204B509005034C0E07F2077
:1026BB003005197F30A20472087207500F1226EBF7
:1026CB00C204C208C207C20A7F30800F300703E979
:1026DB00C0E0122439300703D0E0F9D0E0B509CCC3
:1026EB003007177F30B9100C1224397F583006078A
:1026FB007F788003B908031224393004057F2D023B
:10270B0024397F20200AF87F2B2008F322920480A3
:10271B00CF286E756C6C2900D2031223F63003F8A8
:10272B00C203780930D50108F60224A52D50434980
:10273B00581223F62403B405004001E49027379385
:10274B0012242A743A12242AD20575090402258A06
:10275B00E709F608DFFA8046E709F208DFFA803E60
:10276B0088828C83E709F0A3DFFA8032E309F6084D
:10277B00DFFA8078E309F208DFFA807088828C83B5
:10278B00E309F0A3DFFA806489828A83E0A3F60869
:10279B00DFFA805889828A83E0A3F208DFFA804C43
:1027AB0080D280FA80C680D4806980F2803380101A
:1027BB0080A680EA809A80A880DA80E280CA803383
:1027CB0089828A83ECFAE493A3C8C582C8CCC583FB
:1027DB00CCF0A3C8C582C8CCC583CCDFE9DEE780CB
:1027EB000D89828A83E493A3F608DFF9ECFAA9F04A
:1027FB00EDFB2289828A83ECFAE0A3C8C582C8CCA0
:10280B00C583CCF0A3C8C582C8CCC583CCDFEADEB8
:10281B00E880DB89828A83E493A3F208DFF980CC1A
:10282B0088F0EF60010E4E60C388F0ED2402B40413
:10283B000050B9F582EB2402B4040050AF232345BA
:10284B0082239027AB73BB010689828A83E02250D7
:10285B0002E722BBFE02E32289828A83E49322BB36
:10286B00010CE58229F582E5833AF583E0225006D7
:10287B00E92582F8E622BBFE06E92582F8E222E58D
:10288B008229F582E5833AF583E49322BB0106891D
:10289B00828A83F0225002F722BBFE01F322A3F8B7
:1028AB00E0C5F025F0F0E582158270021583E0C8D3
:1028BB0038F0E822E88FF0A4CC8BF0A42CFCE98E46
:1028CB00F0A42CFC8AF0EDA42CFCEA8EF0A4CDA88D
:1028DB00F08BF0A42DCC3825F0FDE98FF0A42CCD96
:1028EB0035F0FCEB8EF0A4FEA9F0EB8FF0A4CFC576
:1028FB00F02ECD39FEE43CFCEAA42DCE35F0FDE400
:10290B003CFC2275F008758200EF2FFFEE33FECDF5
:10291B0033CDCC33CCC58233C5829BED9AEC99E594
:10292B008298400CF582EE9BFEED9AFDEC99FC0F24
:10293B00D5F0D6E4CEFBE4CDFAE4CCF9A88222B8EC
:10294B0000C1B90059BA002DEC8BF084CFCECDFC71
:10295B00E5F0CBF97818EF2FFFEE33FEED33FDECFE
:10296B0033FCEB33FB10D703994004EB99FB0FD8E7
:10297B00E5E4F9FA227818EF2FFFEE33FEED33FD85
:10298B00EC33FCC933C910D7059BE99A4007EC9B84
:10299B00FCE99AF90FD8E0E4C9FAE4CCFB2275F014
:1029AB0010EF2FFFEE33FEED33FDCC33CCC833C825
:1029BB0010D7079BEC9AE899400AED9BFDEC9AFC2B
:1029CB00E899F80FD5F0DAE4CDFBE4CCFAE4C8F9DA
:1029DB0022C3E49FFFE49EFEE49DFDE49CFC22EBFE
:1029EB009FF5F0EA9E42F0E99D42F0E89C45F0220B
:1029FB00E8600FECC313FCED13FDEE13FEEF13FFBA
:102A0B00D8F122E8600FEFC333FFEE33FEED33FD59
:102A1B00EC33FCD8F122ECF0A3EDF0A3EEF0A3EF36
:102A2B00F022A8828583F0D083D082122A44122A06
:102A3B0044122A44122A44E473E493A3C583C5F0D9
:102A4B00C583C8C582C8F0A3C583C5F0C583C8C5F7
:102A5B0082C822F8E0FBA3A3E0F925F0F0E582158C
:102A6B008270021583E0FA38F022EBF0A3EAF0A3B0
:102A7B00E9F022D083D082F8E49370127401937042
:102A8B000DA3A393F8740193F5828883E473740206
:102A9B00936860EFA3A3A380DFC10CC18D41000637
:102AAB000041000E00C10F44000000000000610057
:102ABB000011CC000000000000000000000000002E
:102ACB0000000000000000000000000000000000FB
:102ADB0000000000000000000000000000000000EB
:102AEB0000000000000000000000000000000000DB
:102AFB0000000000000000000000000000000000CB
:102B0B0000000000000000000000000000000000BA
:102B1B0000000000000000000000000000000000AA
:102B2B00000000000000000000000000000000009A
:102B3B00000000000000000000000000000000008A
:102B4B00000000000000000000000000000000007A
:102B5B00000000000000000000000000000000006A
:102B6B00000000000000000000000000000000005A
:102B7B00000000000000000000000000000000004A
:102B8B00000000000000000000000000000000003A
:102B9B00000000000000000000000000000000002A
:102BAB00000000000000000000000000000000001A
:102BBB00000041021700C1104102181661000117F5
:102BCB0011050600000000000000000000000000DE
:102BDB0000000000000000000000000000000000EA
:102BEB0000000000000000000000000000000000DA
:102BFB0000000000000000000000000000000000CA
:102C0B0000000000000000000000000000000000B9
:102C1B0000000000000000000000000000000000A9
:102C2B000000000000000000000000000000380061
:102C3B000000000000000000000000000000000089
:102C4B001100238000700000000000000000000055
:102C5B00000001084649542000000000000000005D
:102C6B00000000001F00093A313030323937313162
:102C7B0030312020202020203120426807D00063F3
:102C8B000200000035323836323037353020202004
:102C9B002020202031353130313320200000002915
:102CAB000000000000000000000000000000000019
:102CBB000000000000000000000000000000000009
:102CCB004201110000410113004101140048028729
:102CDB000104080C1018203048028F030104000572
:102CEB0006070200C0E0C0F0C083C082C0D075D020
:102CFB0000C000C001C002C004C005C006C007A2CE
:102D0B00AF9200C2AFA9A775A720E5B9540F146005
:102D1B0067147003022DBD24FE7003022DC824FA24
:102D2B00604924FE7003022DC2147003022DC224CD
:102D3B00046003022DCB53B9F6900111E475F00139
:102D4B001228A9FE741725F0F58274013EF583E075
:102D5B00FD7002AC058DBBC3900111E094014004E2
:102D6B00E4F0A3F0900114E4F0805553B9F5900111
:102D7B00137401F0A3F08048E5B930E40553B9EFC3
:102D8B00802B900111E475F0011228A9FE74172510
:102D9B00F0F58274013EF583E0FDB41101FC8DBBAF
:102DAB00C3900111E094014004E4F0A3F053B9FE89
:102DBB00800E53B9FD800953B9FB022E6153B9FB49
:102DCB00E5AB30E203022E56900218E5BCF0900101
:102DDB0014E0B401EB900218E0645060E39001132F
:102DEB00E0147035900218E0C39480401D9001965A
:102DFB00E075F080A4FF900218E07A002FFEEA3510
:102E0B00F0900111F0A3CEF08039900218E0FF9002
:102E1B000111E4F0A3EFF0802A900218E0FF90017B
:102E2B0011E475F0011228A9FA741725F0F58274D4
:102E3B00013AF583EFF0C3900111E094014004E4F3
:102E4B00F0A3F0900113E4F0022DCB53B9DFAF01E7
:102E5B008FA7A20092AFD007D006D005D004D00226
:102E6B00D001D000D0D0D082D083D0F0D0E032C00F
:102E7B00E0C083C082C0D075D000C006C007C201BD
:102E8B0030C203022F3EE5C054F02480606D24C095
:102E9B00602624E06003022F3A90000DE025E0F558
:102EAB00C253C2FEA20EE43342C2C2C590011674D5
:102EBB0001F0900115F0807D30C123200E7790003A
:102ECB0004E0FF900115E0FED39F501574082EF51A
:102EDB0082E43400F583E0F5C2900115803930109F
:102EEB0006D2C4C20B804ED2C4D2C5900008E004F7
:102EFB00F07042900007E004F0803A900116E0FF7A
:102F0B00C39402740E50152FF582E43400F583E55B
:102F1B00C2F0D2C1900116E004F080192FF582E4C3
:102F2B003400F583E5C2F0C20BC2C1D2C48006D215
:102F3B00018002D20130011E53C17F43C180C2C543
:102F4B00C2C4C2C1C20BC201900008E004F07006FB
:102F5B00900007E004F0C2C0D007D006D0D0D082DA
:102F6B00D083D0E032C2B4D2A2D2AF90FFD5E493DB
:102F7B00FE90FFD4E493FDEDFF900226EEF0A3EF5D
:102F8B00F0438701200F03023063900000E0FCA3A5
:102F9B00E0FDA3E0FEA3E0FFC006C007900226E021
:102FAB00FEA3E0FBAA06D007D006C3EF9BFFEE9A69
:102FBB00FEED9400FDEC9400FCE47B64FAF9F8124E
:102FCB0028BFE47B1CFAF9F81236CD90021C122AAA
:102FDB0021E47B64FAF9F890021CE0FCA3E0FDA36A
:102FEB00E0FEA3E0FF1236CD900220122A219002C0
:102FFB001CE0FCA3E0FDA3E0FEA3E0FFEC3390029A
:10300B001C5009A3A3A3E01229DC800BE0FCA3E076
:10301B00FDA3E0FEA3E0FFE47B64FAF9F81236CDE2
:10302B00AF03900224EAF0A3EFF07BFF7A00798ED6
:10303B00900220E0FCA3E0FDA3E0FEA3E0FF9002E2
:10304B0062122A21900224E0FFA3E0900266CFF0E7
:10305B00A3EFF0122461C20F22900225122A2190B5
:10306B00022FE5A7F075A720900225E0C313FEA35E
:10307B00E013FFE4FCFD900229E0F8A3E0F9A3E0E4
:10308B00FAA3E02FFFEA3EFEED39FDEC38FC90028F
:10309B0029A3A3A3E0FB12294A90022EEFF0E490A0
:1030AB00022DF090022DE0FFC39408400302314C37
:1030BB0074872FF582E43402F583E0FF90022EE053
:1030CB00FEEFC39E4072E47F02FEFDFC900229E0FE
:1030DB00F8A3E0F9A3E0FAA3E0FB1228BFA804A928
:1030EB0005AA06AB0790022DE02487F582E4340293
:1030FB00F583E0FFE4FCFDFE1228BFA804A905AA96
:10310B0006AB07900225E0FCA3E0FDA3E0FEA3E0E5
:10311B00FF12294AC3E49FFFE49EF596EFF59590C5
:10312B00022DE0248FF582E43402F583E044404223
:10313B009490022FE0F5A72290022DE004F00230CC
:10314B00AE80FE12003E900220122A2D0001C2001A
:10315B007F207ED77D757C01123711C2B420922A55
:10316B0075E340C293E4FFFE0FBF00010EEFF44E78
:10317B0070F6D2933093FDE4FEFF0FBF00010EEF0C
:10318B00640A4E70F5E4F5E380D3120003D296E4A3
:10319B00900007F0A3F0C2AF75A72053BAFE43BA55
:1031AB0044D2AF122F70121C339000097498F0A305
:1031BB007411F0A374ABF0A374CDF0A37410F012E0
:1031CB0034EA90000D7410F0E4900219F09002199B
:1031DB00E02409F582E43400F583E0FF900219E066
:1031EB00240FF582E43400F583E06F600E90000845
:1031FB00E004F07006900007E004F0900219E00480
:10320B00F0E0B402C87FF40237E0F9E43AFA900236
:10321B005FEBF0A3EAF0A3E9F0A3122A2D00000064
:10322B0000E4900266F0900262E0FCA3E0FDA3E0F4
:10323B00FEA3E0FF7808122A0E900262122A219058
:10324B000262E0F8A3E0F9A3E0FAA3E0FBC000C040
:10325B0001C002C00390025FE0FBA3E0FAA3E0F918
:10326B00900266E0F58275830012286AFFD003D0C6
:10327B0002D001D000EB4FFFEAFEE9FDE8FC900223
:10328B0062122A21900266E004F0E0B404989002E6
:10329B0062E0FCA3E0FDA3E0FEA3E0FF2212003AF4
:1032AB00787FE4F6D8FD7581220232F202314EE4CA
:1032BB0093A3F8E493A34003F68001F208DFF480B4
:1032CB0029E493A3F85407240CC8C333C4540F4404
:1032DB0020C8834004F456800146F6DFE4800B01DE
:1032EB0002040810204080902AA4E47E019360BC65
:1032FB00A3FF543F30E509541FFEE493A360010E76
:10330B00CF54C025E060A840B8E493A3FAE493A39C
:10331B00F8E493A3C8C582C8CAC583CAF0A3C8C5BD
:10332B0082C8CAC583CADFE9DEE780BE900267EEBA
:10333B00F0A3EFF0A3ECF0A3EDF0A3EAF0A3EBF016
:10334B00A3A3E0FF74017E00A807088005C333CE5A
:10335B0033CED8F924FFFFEE34FFAD07FC90026BA0
:10336B00A3E0F9EDAE04A801088005C333CE33CE3C
:10337B00D8F9F4FFEEF4FE900267E05EF0A3E05F95
:10338B00F0A3E05CFEA3E05DA801088005C333CE8B
:10339B0033CED8F9FF900267E04EFEA3E04FFF90CB
:1033AB000267EEF0A3EFF02290025FEBF0A3EAF0DE
:1033BB00A3E9F0A3ECF0A3EDF0E4900266F0A3F028
:1033CB00900264E0FEA3E0FFA3E0FCA3E0FDC39F3B
:1033DB00EC9E5033900263E02DFF900262E03CFEC6
:1033EB0012380490025FE0FBA3E475F0011228A9E8
:1033FB00A9F0FAEF122897900267E004F070C190E1
:10340B000266E004F080B990025FE0FBA3E0FAA350
:10341B00E0F92290025FEBF0A3EAF0A3E9F0E4A35A
:10342B00F0A3F0A3F0A3F0900264E0FCA3E0FDC3D3
:10343B009402EC648094805038900263E0F8E4F0DE
:10344B00E8900262F090025FE0FBA3E0FAA3E0F9E0
:10345B008D828C8312286AFF900262E0F0A3E04F0A
:10346B00F0900265E004F070BE900264E004F0801E
:10347B00B6900262E0FEA3E0FF22900261EBF0A3A4
:10348B00EAF0A3E9F090025FEEF0A3EFF090026692
:10349B00EEF0A3EFF0900264E0FEA3E0FF90026079
:1034AB00E02FFD90025FE03EFC900266E0FEA3E0A1
:1034BB00FFC39DEE9C5027900261E0FBA3E475F0E7
:1034CB00011228A9A9F0FA122851FD1237519002C6
:1034DB0067E004F070BF900266E004F080B72290C2
:1034EB000269122A2D00000000200BFDD20BC20E28
:1034FB00D2C5300B48900269E0FCA3E0FDA3E0FECF
:10350B00A3E02401FFE43EFEE43DFDE43CFC90021D
:10351B0069122A21E47FFFFEFDFC900269E0F8A30B
:10352B00E0F9A3E0FAA3E0FBD31229EA40C490022E
:10353B0069122A2D0000000012363FC322D32290BD
:10354B000269122A2D00000000200BFDD20BD20EB7
:10355B00D2C5300B48900269E0FCA3E0FDA3E0FE6E
:10356B00A3E02401FFE43EFEE43DFDE43CFC9002BD
:10357B0069122A21E47FFFFEFDFC900269E0F8A3AB
:10358B00E0F9A3E0FAA3E0FBD31229EA40C49002CE
:10359B0069122A2D0000000012363FC322D322905D
:1035AB00024AE0240FFF900249E03400FE900267CC
:1035BB00EEF0A3EFF09000047402F090000D741085
:1035CB00F0900267E0FCA3E0FDEC900009F0EDA3A6
:1035DB00F01234EA90000D7410F012354A50D69068
:1035EB00000FE0FEA3E0FDEDFF22900261ECF0A3E3
:1035FB00EDF0A3EAF0A3EBF090025FEEF0A3EFF097
:10360B001235B8C007900261E0FCA3E0FDA3E0FA1D
:10361B00A3E0FBA3E0FFA3E090026DCFF0A3EFF0DC
:10362B00D007123337AC06AD0790025FE0FEA3E084
:10363B00FF0237BB7F0943D50C75F2FF75A55FE51C
:10364B009030E210AE071FEE600A5390F7004390E4
:10365B00080080EB75A55F5390F75390FB004390E8
:10366B0008004390040053D5F375A55053C17F4315
:10367B00C180C2C5C2C4C2C1C20B22C0E0C0F0C06F
:10368B0083C082C0D075D000C000C004C005C00686
:10369B00C007C2EDE5BDAEBE7802CEC313CE13D8C4
:1036AB00F9FFE4FCFD900000122A21D20FD007D0C5
:1036BB0006D005D004D000D0D0D082D083D0F0D0AB
:1036CB00E032C2D5E830E70FB2D5E4C39BFBE49AF6
:1036DB00FAE499F9E498F8EC30E717B2D51237030E
:1036EB0012294AE4C39BFBE49AFAE499F9E498F8AB
:1036FB00800312294A30D50DE4C39FFFE49EFEE4FC
:10370B009DFDE49CFC22900224E5A7F075A72043C5
:10371B00C812E4F5DA43930CC004C005C006C00719
:10372B00900220E0FCA3E0FDA3E0FEA3E0FF9002EB
:10373B0029122A21D007D006D005D004123064906C
:10374B000224E0F5A722A2AF9202A9A7E4F5A7C233
:10375B00AF75FF8075EF028F828E8375B7A575B736
:10376B00F1438F0175FF8075EF02EDF0538FFEAFC4
:10377B00018FA7A20292AF22A2AF9202ADA7E4F5EE
:10378B00A7C2AF75FF8075EF028F828E8375B7A5C9
:10379B0075B7F1438F0375FF8075EF02F0538FFC04
:1037AB00AF058FA7A20292AF22E4FDFC7F0D7E989E
:1037BB00AB07AA069000047404F090000D7410F08F
:1037CB00EA900009F0EFA3F0ECA3F0EDA3F01234B4
:1037DB00EA50FBD3225388CF5389F0438901438EA0
:1037EB0004EF6012C28C758CA0758A4CC28DD28C82
:1037FB00308DFD1F80EBC28C22A2AF9202ADA7E4ED
:10380B00F5A7C2AF8F828E8393FFAE058EA7A20260
:10381B0092AF22E59154045391FB7595FE75940C70
:10382B0075933875929E439104429122900265E400
:10383B00F0A304F07B0E7A00FD7C007F617E840296
:10384B0035F575A710E59854045398FB75A3387597
:10385B00A29E43980442982275B30775B29C75BB20
:10386B001475DF6375BC0875B98643E8C12275A76B
:10387B00207594437596FF75959643C8102275A7CE
:10388B002053BAFD43BA0275A71053987F32AEA7E7
:10389B0075A72030C9FD8F92C2C98EA72253C17F55
:1038AB0043C18053917FC2C5C20B32E4F5A775E6C5
:1038BB008975F30675A8802275BD5053BAFB43BAC0
:1038CB001843BA0222E5C0540453C0FB43C0044260
:1038DB00C022E4F5A7F5A9E5A930E7FB22E4F5A79B
:1038EB007597DE7597AD2275A55075D5032275E3D7
:0C38FB004175E1042253C1FC43C1DD22F1
:00000001FF
