:020000040000FA
:100000000236B6E4FDFC7F0D7E98AB07AA06900190
:10001000C77404F09001D07410F0EA9001CCF0EFB6
:10002000A3F0ECA3F0EDA3F0123828400B7BFF7A8D
:10003000017905122DBC80F0D32222023377900182
:100040003EE5A7F0123B0512006F123B0F123B1664
:10005000123A38123A80123A6A120076123B1D1296
:100060003AA3123AED123AE090013EE0F5A722756C
:10007000D4FF22023AD2E4F5A7758E017589204398
:0600800088402202322636
:10008B00023AB3534D4230434600534D4230544332
:10009B0000534D4230434E3000534D423041445299
:1000AB0000534D423041444D00534D423044415476
:1000BB0000534D423046434E3000534D4230464381
:1000CB004E3100534D423052584C4E00534D42303E
:1000DB004643540050314D41534B0050314D415428
:1000EB000050310050314D44494E0050314D444F7A
:1000FB005554005031534B495000534D42305F49DA
:10010B0032435F4D61737465725772697465202059
:10011B004552524F5221212121212100534D423072
:10012B005F4932435F4D6173746572526561642040
:10013B00204552524F522121212121210030B5D887
:10014B00D6B7D6B5CEAAA3BA307825303478000D01
:10015B000A6C656E3A30780025303478000D0A0051
:10016B000D0A656E746572506F696E743A30780063
:10017B000D0A7374617274416464723A30780025AD
:10018B00303878000D0A2072616D416464723D0055
:10019B00307825303878000D0A206D64696F446122
:1001AB0074613D00636865636B73756D203D00631F
:1001BB006865636B73756D206572726F72212C208D
:1001CB00746F74616C206572726F72093D20003020
:1001DB0078257800636865636B20746865207265A9
:1001EB0073756C743A0D0A003078393831342773D3
:1001FB00202076616C75653A0049662074686572DB
:10020B006520697320636865636B73756D20657218
:10021B00726F722C20746F74616C206572726F72C6
:10022B0020203D20006C6F61642064656661756CF5
:10023B00743A20006C6F61642064656661756C7440
:10024B003A2030783938313827730976616C756507
:10025B003A006C6F6164203235673A20004D43558C
:10026B00205354415254204F4B2E2E2E2E2E2E0007
:10027B00C2ED0100077D00000100010000001A38EB
:10028B000100000000000FD000000FD000000FD0C5
:10029B0000000FD000000FD000000FD000000FD0D7
:1002AB0000000FD000000FD000000FD000000FD0C7
:1002BB0000000FD000000FD000000FD00000000096
:1002CB000000000000000000000000000100050419
:1002DB000000000000000000000000000000000013
:1002EB000000000000000000000000000100059C61
:1002FB00010006440100066C0400004001F40100FB
:10030B0000200004000201F4020000020001FFFCC7
:10031B0000010006000A000600050005003B001E58
:10032B000001000A000000000000000001000003B3
:10033B00004B003201900506000000000000000099
:10034B00000000981000A989100DCBAB1000DCBC8D
:10035B0010065DCD0000065D000000760000000079
:10036B000000021000032F0100000000000103E851
:10037B0002000180002006060014000000000000AF
:10038B00000000001820010000000173A8211D3897
:10039B009C21FFE0B8640082D4011004A8409805AA
:1003AB00AC84FFFFD401B014E2C310009C400001E9
:1003BB00A4840003E0421802D401A010E2842000C0
:1003CB00B8420008D4017008E29420009DC00000E0
:1003DB00D401900CD401C018D401481CD4010800DE
:1003EB009E940004E04410009F00000AAA4E0000F7
:1003FB0007C004E0A8760000E16BA048186000007D
:10040B008CB7003EA8632DF0A56B0007E16B1800BD
:10041B008C8B0000E564280010000007A877000013
:10042B00E0A52002E5722800100000031500000073
:10043B00AA4500008C63003FE5A4180010000006DD
:10044B00E0841802E56E2000100000031500000088
:10045B00A9C400009F18FFFFBC38000013FFFFE585
:10046B00150000009E52FFFFBC32FFFF0C00000680
:10047B00A860980407C004D3A882000003FFFFFB09
:10048B009E52FFFF9C4200049DCEFFFFBC2EFFFF40
:10049B000C000006A860980407C004CAA8820000DC
:1004AB0003FFFFFB9DCEFFFF8521001C8421000075
:1004BB008441000485C100088641000C8681001030
:1004CB0086C1001487010018440048009C210020BD
:1004DB009C21FFE8D4017008D4014814D401080012
:1004EB00D4011004D401900CD401A010A9C30000B6
:1004FB00946E0000BC2300000C000016A4430F00F8
:10050B00BC2208001000000E968E00029E400000D8
:10051B00A443F0FFA880FFFFE0629000A8B40000A6
:10052B0007C0049F9E520100BC32080013FFFFFB63
:10053B00A880FFFF03FFFFEF9DCE0004A880FFFF05
:10054B0007C00497A8B4000003FFFFEA9DCE000488
:10055B0085210014842100008441000485C100081A
:10056B008641000C86810010440048009C21001835
:10057B009CA000019C21FFF4E0852008D40110040D
:10058B00A8430000A8609811A8A40000D401480853
:10059B0007C00483D4010800B4605001D4021808CA
:1005AB009C600000DC02181A8521000884210000E1
:1005BB0084410004440048009C21000CA4A40007C3
:1005CB009C21FFF0B8A5000BD40110049CC038008F
:1005DB00A84400009C80004ED4017008D401480C44
:1005EB00A9C3000007C00783D4010800A4A2000818
:1005FB00A86E0000BC050000100000039C8000DF0B
:10060B009CA0002207C0077B9CC000E28521000C48
:10061B00842100008441000485C100084400480087
:10062B009C2100109C21FFECD4011004D401700814
:10063B00D4014810D4010800D401900CA843000049
:10064B008E4300148CA3000CA6520007E572280001
:10065B0010000004A9C40000000000059CA5FFFFCA
:10066B00E5B22800100000039CA50001D802280C5D
:10067B008CA2000CA4A50007A86E0000B8A5000B67
:10068B009C80004E07C0075B9CC038008C62000C3E
:10069B00E423900010000015852100108C820014BB
:1006AB0007FFFFC7A86E0000A86E00009CA0020009
:1006BB009CC03F8007C0074F9C800001A8620000D0
:1006CB0007FFFFACA88E0000B4605001D4021808DD
:1006DB009C60001EA88E0000D802180E07FFFF2D8D
:1006EB00A8620000852100108421000084410004D1
:1006FB0085C100088641000C440048009C21001471
:10070B009C21FFF0D401480CD4010800D401100443
:10071B00D401700899C3001ABC0E00000C0000161F
:10072B008521000CB440500184A30008E04228024C
:10073B0098B7001CB8420059E48228001000000E44
:10074B008521000CA84300001860010007C00806B3
:10075B00A8631A289C600001DC02181A8C62000F37
:10076B00BC030000100000048521000CD802700EA1
:10077B008521000C842100008441000485C1000800
:10078B00440048009C210010B86300849C21FFF4B6
:10079B00D4011004A443000FD4014808BC0200028A
:1007AB0010000013D4010800BC0200031000000964
:1007BB00BC0200000C00000A1860010007FFFF4597
:1007CB00A86318649C6000050000000FA88200005D
:1007DB001860010000000008A86318DC07C002F1D4
:1007EB009C6000020000000B8521000818600100CE
:1007FB00A863198407FFFF37150000009C600005F4
:10080B009C80000007C002EA15000000852100084B
:10081B008421000084410004440048009C21000C0A
:10082B009C21FFF8A48300FFD4014804BC04000002
:10083B0010000006D401080007C002DA9C60000219
:10084B000000001F8521000407C002D99C60000D29
:10085B00A860981007C006C89C80001A07C003C583
:10086B00A8609818B88B008CA56B000FBC0B000010
:10087B001000000CAC64000DE0A01802E065180439
:10088B00BD83000010000008BC0400009C60000D3C
:10089B0007C002C79C8000010000000985210004ED
:1008AB00BC04000013FFFFEB1500000007C002BDE6
:1008BB009C60000D03FFFFE8A860981084210000E6
:1008CB00440048009C2100089C21FFF8A8970000D9
:1008DB009CA00042D401480407C0067CD401080048
:1008EB008521000484210000440048009C2100085D
:1008FB009C21FFF4D4011004A443000FD401480839
:10090B00BC2200011000000CD4010800188001006B
:10091B00A8609819A88400F807C0038A9484000083
:10092B009C60000F07C002A2A88200000000000616
:10093B00852100081860000907C0064CA8637F7367
:10094B0085210008842100008441000444004800F4
:10095B009C21000C9C21FFD4186001001880010021
:10096B00D401100418400100A8631A38A8841F781A
:10097B00A84200F8D4014828D4010800D40170081B
:10098B00D401900CD401A010D401B014D401C01820
:10099B00D401D01CD401E02007C003C0D401F02443
:1009AB0007C003661500000094620000BC23000022
:1009BB00100000071860010018800100A8630000F8
:1009CB00040003BCA8841A38DC0258001AE00100AA
:1009DB00AAF70074A860981407C00366A840FFF03C
:1009EB00E42B1000100000061840CFFF07C0035A7D
:1009FB009C60000007BFFE8515000000A842FFFFAA
:100A0B00C14010009C800000C14020011860010013
:100A1B009DC0FFFF07C00754A863172C9DCE000194
:100A2B00A5CE0003B86E0003B84E0006E0431000DD
:100A3B0018600100A8631D38E042180007C0079F2B
:100A4B00A86E0000B96B0088BDAB001F100001CB76
:100A5B00BD4B0017A64B001FBD520009100000092B
:100A6B00BD92000BBD720008100000D8BC12000232
:100A7B001000000C9C80FFFE0000038A1500000094
:100A8B0010000388BDB2000C10000104BC1200184A
:100A9B001000016DA8808200000003821500000089
:100AAB008C6200429EC00001E0632003E2D6700816
:100ABB00D802184207C0032FA860980FA860981699
:100ACB00E16B704807C0032BA64B0001A86098117F
:100ADB00D8029010A89600009CA0000007C003301D
:100AEB00AA8B00009062000EBC2300641000000C67
:100AFB00A474FFFFE0637088A4630001BC030000D3
:100B0B0010000360A8960000A860981607C0032485
:100B1B009CA000009C600000D802180E07C007AA1A
:100B2B00A86E0000A56B00FFBC1200001000002C8B
:100B3B00D802580F94B700249CC0003FA4A5003FD7
:100B4B00A86E000007C0062B9C800078186001007F
:100B5B00A88E000007C00704A863182018600100C6
:100B6B00A88E000007C00700A86317EC9C80000844
:100B7B00A86E0000D802200E07C0061A9C80004EFB
:100B8B00B96B00128CA2000FB96B005DBC050000A5
:100B9B00A86E00001000000CD802580C9CA000009E
:100BAB009C80000107C006139CC04000945700189E
:100BBB00BC220000100000039CA00002A8A20000B1
:100BCB00A86E00009C8000DF9CC0000207C00609D5
:100BDB00150000000000006D94970000BC0B000096
:100BEB00100000319CC0003F94B70024A4A5003F27
:100BFB00A86E00009C80007807C005FEBA94001018
:100C0B0018600100A88E000007C006D7A863182043
:100C1B0018600100A88E000007C006D3A86317EC6C
:100C2B009C6000059C800008D802180DBD74000064
:100C3B0010000006D802200E9C6000079C8000016B
:100C4B00D802180DD80220108CA2000DA4A5000705
:100C5B00A86E0000B8A5000B9C80004E07C005E5F0
:100C6B009CC038008C62000DD802180C94570018E9
:100C7B00BC220000100000039CA00002A8A20000F0
:100C8B00A86E00009C8000DF07C005DA9CC0000244
:100C9B00A86E00009C8000019CA0000003FFFFCC0D
:100CAB009CC040008C62000E9C63FFF6BC43000DA1
:100CBB001000003B18600100B460500184A20004D6
:100CCB00E063280294B70010B8630050E485180065
:100CDB0010000032E0B770008CC200139C6600124B
:100CEB00B8630002E077180084630000B883005CEF
:100CFB00D40218209C84001AB8840002E0972000CC
:100D0B0084840000D8029012D4022024A48300FF14
:100D1B00B8630004A4E4000FA4840007B863004880
:100D2B00D802200CD8023814D40218201860010005
:100D3B00DC029018DC029016D805302CA88E00002F
:100D4B0007C00689A86317EC8CA2000C98970022A9
:100D5B00E5852000100000091500000094B7008005
:100D6B00A4A5007FA86E0000B8A500079C80000119
:100D7B0007C005A09CC03F808C82001407FFFE10AB
:100D8B00A86E00009497000007C005A3A86E000092
:100D9B00000002C41500000018600100A88E0000BE
:100DAB0007C00671A86317889C80001F9C60000019
:100DBB00D802201CD802201D9C800008D8021812D3
:100DCB00000002B8D802200E8E820012BC34000044
:100DDB00100000079C600010B4605001D40218048E
:100DEB009C600009D802180E9C600010E283A0885A
:100DFB00BC34000010000003150000009E800001B1
:100E0B00A86E000007C005779C800074A56BFFFFE0
:100E1B00BC4B0001100000039C6000019C600000B3
:100E2B00A46300FFBC230000100000058C62001CB3
:100E3B00BC3200091000000815000000D802181E73
:100E4B00BC43003E0C000005E283A000000000053F
:100E5B008CA2001CE283A002D802A01C8CA2001C56
:100E6B00A86E00009CC0007F9C80004A07C00561F3
:100E7B00A4A5007FA86E00009C80004907C0056AEE
:100E8B009CA00000A8808B8C07C0055FA86E00009B
:100E9B0000000284150000008E8200129C6000107E
:100EAB00E283A088BC340000100000031500000092
:100EBB009E800001A86E000007C0054A9C8000744C
:100ECB00A56BFFFFBC4B0001100000048C62001DE2
:100EDB0000000006E283A002BC43003E10000004A9
:100EEB00D802181FE283A000D802A01D8CA2001DFF
:100EFB00A86E00009C80004CA4A5007F07C0053D98
:100F0B009CC0007F8C620012BC43000610000010D6
:100F1B009C800078A8A0FFFFA86E000007C00542C8
:100F2B009C800049A880888907C00537A86E0000FF
:100F3B008C6200129C630001BC32000C1000025941
:100F4B00D80218120000003B1860010094B700246F
:100F5B00A86E0000A4A5003F9CC0003F07C005255C
:100F6B009E40000018600100A88E000007C005FE1F
:100F7B00A86318208C62001FE40390001000000F80
:100F8B009C80000007C001B18C62001E8C62001FA8
:100F9B0007C001AEAA4B0000A872000007C0018277
:100FAB00A88B00009C80000707C00256A86B0000AE
:100FBB009E4BFF809C800000A860981607C001ED37
:100FCB00D4022020A56B8000BC2B00001000001366
:100FDB009C600006BDB2004B1000000EBDB200724B
:100FEB001000000C9D600001BDB2008710000009CD
:100FFB009D600002BDB200CB100000069D60000397
:10100B00BD5200FE100000039D6000059D600004B2
:10101B009C600005E0635802D8021813E07770005B
:10102B00D80390409C60000AD802180E186001008B
:10103B00A88E000007C005CCA86318480000021258
:10104B001860010007C004F0A86E00008C6200421B
:10105B00A8630001D802184207C00565A86E0000FE
:10106B00A86E000007C0052FAA4B00009477001A4A
:10107B00E48B1800100000059E520010BCB200203B
:10108B001000000915000000A86E00009C800050A5
:10109B009CA0080007C004D79CC00FFF00000201F2
:1010AB00150000008C620010BC0300001000002E25
:1010BB00150000009497000207C004D7A86E00002B
:1010CB00A8A0E000A8C0F000A86E000007C004C9EB
:1010DB009C80003B8C620010BC0300001000000DD4
:1010EB00150000008C62000FBC23000010000018DC
:1010FB009C60001A8C82000C9877001EE564180027
:10110B0010000004A86E000007C005F59C800007C6
:10111B008C62000FBC2300001000000D9C60001AB5
:10112B008C82000C98770020E564180010000006F4
:10113B009CA00022A86E00009C8000DF07C004ADBD
:10114B009CC000E2000000099C80001DA88E0000DE
:10115B00D802180E07FFFC8FA862000000000004E5
:10116B00150000009C800010D802200EB4605001C6
:10117B00000001CCD40218000C0001C31860010060
:10118B009E4E00809EC00003BA5200089F9200132F
:10119B009E52002A07C00177A87C0000A8720000AD
:1011AB0007C00174ABCB00009C80000DA86E000043
:1011BB0007C0048CAB0B0000A86E000007C0050134
:1011CB00AA8B0000A87C0000AB4B000007C0016994
:1011DB00A7DE000FA56B000FE55E580010000003A3
:1011EB009C8000019C800000A48400FFBC240000B4
:1011FB0010000014BC0B000F100000139ED6FFFF55
:10120B00B6C050018C62000E9C63FFF0864200005A
:10121B00A46300FFE2569002BC4300211000019929
:10122B00BA52005018800100B8630002A88416A4BB
:10123B00E0632000846300004400180015000000E8
:10124B009ED6FFFFBC36000013FFFFD31500000036
:10125B0003FFFFEC1500000094770026E4921800C2
:10126B0010000189186001009497000207C0046AFE
:10127B00A86E0000A86E00009C8000089CA0008057
:10128B0007C0045C9CC000F08C62000FBC03000024
:10129B000C00017AD402B0000000012D9C800012DA
:1012AB0094970028E4922000100001771860010049
:1012BB009497003C94C20018E0982000E58430001D
:1012CB00100000081500000094770026E492180027
:1012DB000C000005186001000000016B15000000F8
:1012EB009F00000084620024D402B000A483000F8E
:1012FB00B8630044BC24000F0C000014D402182463
:10130B009C640014A4B8FFFFE0631800E0E2200027
:10131B00E0621800DC0328008C620014D807D03080
:10132B00D80718348CE20012E5A438001000000333
:10133B00E5B83000D80220121000000415000000A0
:10134B00DC022818DC02181684820020BC04000082
:10135B0010000013BC38000010000009150000003D
:10136B008CA2001494620016A4A50007A4630007C6
:10137B00E54518001000000A15000000A484000FBA
:10138B00A86E000007FFFC8ED80220148462002098
:10139B00B86300440000013BD402182095A200283A
:1013AB0090E200308C8200129D02002A9CA2003138
:1013BB00A8CD00009DE000009C600001E5A320008B
:1013CB000C000013A997000095880000E5AC3000D5
:1013DB001000000B1500000091650000BD8B000094
:1013EB0010000004E54B380010000005150000004C
:1013FB00A8EB0000A9E30000A8CC00009C6300014F
:10140B009D08000203FFFFEE9CA500019CA2002893
:10141B009D0200309C600000E42378000C00001358
:10142B00BC24000396250000956C0038E171580030
:10143B00E58B3000100000081500000091680000DB
:10144B00BD8B000010000008E5AB38001000000752
:10145B00BC2400039C6300019CA5000203FFFFEF6B
:10146B009D080001BC2400031000001A15000000A9
:10147B0015000000BC230000100000161500000032
:10148B009482002EE0846802B8A4009FE0852005BA
:10149B00E084280294AC003AE56428001000000DAB
:1014AB001500000090820031BD8400001000000880
:1014BB001500000090820032BD6400001000000592
:1014CB0015000000000000039C6000029C600001FE
:1014DB00E06218008C8200148C630034A484000733
:1014EB00D80218149C600019D802200C00000007C9
:1014FB00D802180E9477002AE4921800100000E12D
:10150B0015000000D402B000A862000007FFFC46E3
:10151B00A88E0000000000DC18600100A86200002B
:10152B0007FFFC78A88E00008C62000FBC23000024
:10153B00100000D5186001009E400100A860980FB4
:10154B0007C0008CE2527008E24B9003BC320000E3
:10155B00100000CC9C800001A86E0000A8B2000017
:10156B0007C003A49CC040009C600001DC029016E5
:10157B00D8021815DC02901894970036E063200807
:10158B009C80001FD402B000D8021811000000BDCF
:10159B00D802200EA862000007FFFC5AA88E00009C
:1015AB0007C00074A860980F9C600100E06370088E
:1015BB00E16B1803BC2B0000100000B31860010096
:1015CB00A86E000007C003879C800009A56B8000F4
:1015DB00BC2B0000100000AC1860010094770034A5
:1015EB00E4921800100000A8186001008E42001150
:1015FB00946200169E52FFFFE3181800A65200FFDC
:10160B00D402B000DC02C016BC3200001000009DFA
:10161B00D8029011A86E000007C003729C80008056
:10162B00A86E00009C80000107C0036EAACB0000CF
:10163B009462001694820018E464180010000004F1
:10164B001500000000000007DC0218188C62001562
:10165B009C63FFFFDC029018B863005FD80218157B
:10166B0090820015BC04000010000009A474007FD8
:10167B00B8B60010B8A50059E58328000C00000A85
:10168B0015000000000000099CA30001B8AB00127C
:10169B00B8A50059E54328000C000004A4A5FFFFE2
:1016AB009CA3FFFFA4A5FFFFA86E00009C80005F1A
:1016BB0007C003509CC0007F9CA01000A86E0000C8
:1016CB009C80000A07C0034BA8C500009497003606
:1016DB009C600001E0632008D80218119C60000098
:1016EB0000000068DC02181694770006E4B21800BC
:1016FB001000006415000000A862000007FFFB2526
:10170B00A88E00009C80001CD402B000D802200ED2
:10171B00A862000007FFFB97A88E00000000005A8C
:10172B001860010094770004E4B218001000005513
:10173B0015000000000000529C60001B9477000E07
:10174B00E4B218001000004F9C80001B0000004DFD
:10175B00D802200EA862000007FFFB86A88E0000AF
:10176B00000000479C60001B94770008E49218006F
:10177B00100000449C8000319C600000D802200EB9
:10178B00DC02181A9C6000019497000AE0632008A1
:10179B00D80218119477000CE49218001000003A4C
:1017AB00186001009462001AE35A18008C82001131
:1017BB00BB5A00109C84FFFFD402B000BB5A0090B0
:1017CB00A48400FFDC02D01ABC2400001000002D02
:1017DB00D802201194F7000A98770014E0633808B8
:1017EB00E5BA18001000000B8C62000CBC03000063
:1017FB00100000169E4000018CA2000DE48518001D
:10180B00100000129C63FFFF0000000FD802180CA1
:10181B0098B70016E0A53808E57A28001000000BF1
:10182B009E400001BC43000510000008150000009D
:10183B008CA2000DE445180010000004E06390003A
:10184B00D802180CAA4400008C82000C07C00312AB
:10185B00A86E0000BC120000100000089C80001A4B
:10186B00A8620000D802200E07FFFACAA88E00005B
:10187B0000000005186001009C600030D802180EB3
:10188B001860010007C0025AA8630038A8609810BE
:10189B0007C002B99C80001A03FFFC629DCE0001B9
:1018AB0007C004DCA86E000003FFFFF718600100FF
:1018BB00A96BFFFF19000100A9081684E40320009F
:1018CB00100000109CA0000494C30000E16B3005D5
:1018DB00B8CB004CB96B0004E0C630009CA5FFFFF1
:1018EB00E0C64000BC25000094C60000E166580528
:1018FB0013FFFFF8A56BFFFF03FFFFF19C630002D3
:10190B00440048001500000000008005800F000A0D
:10191B00801B001E0014801180330036003C803980
:10192B000028802D8027002201000FD4010015FC18
:10193B000100101C010015FC010015FC010015FC39
:10194B00010015FC010015FC010015FC01001270D3
:10195B00010014D001001298010014A001001464BE
:10196B00010014B801001310010015FC010015FC57
:10197B00010015FC010015FC010015FC010015FC14
:10198B00010015FC010015FC010015FC010015FC04
:10199B00010015FC010015FC010015FC010015FCF4
:1019AB00010015FC010015FC010014E401001510E9
:1019BB009810FFFF0000800B9F9F8200810B9F9F61
:1019CB008200820B9F9F8200830B9F9F8200981443
:1019DB00FFFF5B5B980C20002000980FFFFF000FB0
:1019EB009900FFFFFDE09901FFFF21049902FFFF22
:1019FB0093109903FFFF4A66981EFFFF85389826C0
:101A0B00FFFF95799827FFFF0000000000F203F01D
:101A1B0002E000DF00E2000000F9007E004C00F85D
:101A2B0003800000003BF00000000078003F002422
:101A3B00000B9F9F8889006500E000000048FFFFB6
:101A4B00FFFF0049FFFFFFFF004A0FFF071F004B7F
:101A5B00FFFFFFFF004C1FFF0E9F004D800080001B
:101A6B00004E38003800004FF000F000000000007E
:101A7B0000500FFF0040003BF0000000004D8000C5
:101A8B008000000800F00080000140004000000AC8
:101A9B0010000000006500E00000000B9F9F829883
:101AAB00000000000048FFFF00800049FFFF00021C
:101ABB00004C1FFF1115004BFFFF0080004A0FFF6A
:101ACB0008BD000B9F9F82000000000000810800F2
:101ADB000800000C80000000000C800080000081DA
:101AEB00080000000000000088834E058882D800A3
:101AFB008875C6FF6002800088FC523678000000B3
:101B0B008850504088A30020854E00008876418283
:101B1B008877516688781CBB84788C3885788C38AC
:101B2B0086788C3887788C38844E0000874E00007E
:101B3B00864E000060328000601280008863008057
:101B4B008864808088085ABB880329338802400642
:101B5B00602280008806A1008805AE82000000008C
:101B6B0088DF0066888130008887CD7A8886CD7AB9
:101B7B0088854D7A88848D7A88FC536688884D7A5F
:101B8B0088FE80AE88FDB64488FFFDC078080C0047
:101B9B00731AFF00711AFF00721AFF00701AFF0010
:101BAB0078093A908879886C824E3800814E3800DB
:101BBB00834E3800804E3800884D800078061254D2
:101BCB0088EFB6A088FB773678190005781681C0A8
:101BDB0088F98B5A88F8B7780007002088F1B00095
:101BEB0088F067B488F561E088F7A24699029310F4
:101BFB009900FDE0990121048801020188004D053F
:101C0B0088074D7A0000000088DF0066888130006D
:101C1B008887CD7A8886CD7A88854D7A88848D7A27
:101C2B007806125488FB773688FEA5A888FD3644C3
:101C3B0088FFFDC078080C00731AFF00711AFF00B3
:101C4B00701AFF00721AFF0078093A908879886C35
:101C5B00814E3800834E3800824E3800804E38005B
:101C6B00884D800088EFB6A088884D7A78190005DA
:101C7B00781681C088F98BDA88F8B7780007002AC4
:101C8B0088F1B00088F067B488F561E088F7A24668
:101C9B00990293109900FDE099012104880102013A
:101CAB0088004D0588074D7A00000000008BFC0072
:101CBB00FC00008BFC000000000000000000000096
:101CCB0080A7140081A7140082A7140083A7140017
:101CDB0084A7120085A7120086A7120087A71200FF
:101CEB0080A83C0081A83C0082A83C0083A83C0053
:101CFB0084A83F0085A83F0086A83F0087A83F0027
:101D0B0084A63C0085A63C0086A63C0087A63C002A
:101D1B0080A0008081A0008082A0008083A00000B2
:101D2B0084A0000085A0008086A0008087A0008092
:101D3B00844E2000854E2000864E2000874E2000CA
:101D4B0080613C20816134208261342083613C209E
:101D5B0084617C2085613420866134208761342046
:101D6B000000000000000000000000000000000068
:101D7B000000000000000000000000000000000058
:101D8B000000000000000000000000000000000048
:101D9B000000000000000000000000000000000038
:101DAB000000000000000000000000000000000028
:101DBB000000000000000000000000000000000018
:101DCB000000000000000000000000000000000008
:101DDB0000000000000000000000000000000000F8
:101DEB0000000000000000000000000000000000E8
:101DFB0000000000000000000000000000000000D8
:101E0B0000000000000000000000000000000000C7
:101E1B0000000000000000000000000000000000B7
:101E2B0000000000000000000000000000000000A7
:101E3B000000000000000000000000000000000097
:101E4B000000000000000000000000000000000087
:101E5B000000000000000000000000000000000077
:101E6B000000000000000000000000000000000067
:101E7B000000000000000000000000000000000057
:101E8B000000000000000000000000000000000047
:101E9B000000000000000000000000000000000037
:101EAB000000000000000000000000000000000027
:101EBB000000000000000000000000000000000017
:101ECB000000000000000000000000000000000007
:101EDB0000000000000000000000000000000000F7
:101EEB0000000000000000000000000000000000E7
:101EFB0000000000000000000000000000000000D7
:101F0B00000000009F00980D981474FF90013EF0A4
:101F1B00A3F0E4900144F0A3F0A3122BC600000041
:101F2B0000900159122BC60000000090015D122B8E
:101F3B00C600000000786F7C017D017BFF7A1F7962
:101F4B000F7E007F061229EF900175122BC6000041
:101F5B00000090017BE4F0A304F0E490017FF0A378
:101F6B00F090014E74FFF0A37402F0A3747BF0E4C5
:101F7B00FFFE1238F890017FEEF0A3EFF07BFF7AB3
:101F8B0001794890017FE0FFA3E0900192CFF0A38D
:101F9B00EFF0122DBC90014EE0FBA3E0FAA3E0247E
:101FAB000C12362390014A122BBA7BFF7A01795A15
:101FBB00122DBC90014AE0FCA3E0FDA3E0FEA3E0E0
:101FCB00FF7810122B94900140EEF0A3EFF09001EC
:101FDB004AE0FCA3E0FDA3E0FEA3E0FF900142EE8C
:101FEB00F0A3EFF07BFF7A017963900140E0FFA350
:101FFB00E0900192CFF0A3EFF0122DBC7BFF7A01A2
:10200B007963900142E0FFA3E0900192CFF0A3EF40
:10201B00F0122DBC7BFF7A017968122DBC90014E1A
:10202B00E0FBA3E0FAA3E02408123623900151123F
:10203B002BBA7BFF7A01796B122DBC900151E0FC1E
:10204B00A3E0FDA3E0FEA3E0FF7810122B94900118
:10205B0040EEF0A3EFF0900151E0FCA3E0FDA3E014
:10206B00FEA3E0FF900142EEF0A3EFF07BFF7A01BD
:10207B007963900140E0FFA3E0900192CFF0A3EFD2
:10208B00F0122DBC7BFF7A017963900142E0FFA334
:10209B00E0900192CFF0A3EFF0122DBC7BFF7A0101
:1020AB007968122DBC90014EE0FBA3E0FAA3E0246B
:1020BB0010123623900155122BBA7BFF7A01797BD4
:1020CB00122DBC7BFF7A01798A900155E0FCA3E0CD
:1020DB00FDA3E0FEA3E0FF900192122BBA122DBCE0
:1020EB007BFF7A017968122DBC900161E4F0A37437
:1020FB000AF0900155E0FCA3E0FDA3E0FEA3E0FF96
:10210B00900163122BBA900167122BC600000000DE
:10211B00E47B18FAF9F890014AE0FCA3E0FDA3E098
:10212B00FEA3E0FF122AE3EF2401FFE43E900181BE
:10213B00F0A3EFF090016DE4F0A37480F0900159DF
:10214B00E0F8A3E0F9A3E0FAA3E0FB90016DE0FE59
:10215B00A3E02406F58274003EF583E0FFE4FCFD6A
:10216B00FEEB2FFFEE3AFEED39FDEC38FC900159FA
:10217B00122BBA90016EE004F0700690016DE00432
:10218B00F090016DE07004A3E064BF70B090016D3E
:10219B00E4F0A374C0F090015DE0F8A3E0F9A3E0D4
:1021AB00FAA3E0FB90016DE0FEA3E02406F5827438
:1021BB00003EF583E0FFE4FCFDFEEB2FFFEE3AFE65
:1021CB00ED39FDEC38FC90015D122BBA90016EE0FD
:1021DB0004F0700690016DE004F090016DE0700466
:1021EB00A3E064DF70B0900159A3A3A3E0FF9000BC
:1021FB00C5EFF090015DA3A3A3E0FF9000E5EFF026
:10220B00D20E7D887C08120006120003C20E7FF4EA
:10221B00123A14E490016BF0A3F0900181E0FEA35D
:10222B00E0FFC390016CE09FEE6480F890016BE0DF
:10223B00648098400302256A900167122BC6000048
:10224B00800C900170E0240CFF90016FE03400FED5
:10225B00C006C007900163E0FCA3E0FDA3E0FEA372
:10226B00E0FF7810122B94AD07AC06D007D0061206
:10227B00000A900170E0240DFF90016FE03400FE26
:10228B00C006C007900163A3A3E0FEA3E0FFAD0768
:10229B00AC06D007D00612000A900167E0F8A3E065
:1022AB00F9A3E0FAA3E0FBC000C001C002C0039099
:1022BB000163A3A3E0FEA3E0FFE4FDFCAB07AA06CA
:1022CB00F9C004C005C006C007900163E0FCA3E0A1
:1022DB00FDA3A3E07810122B94D003D002D001D031
:1022EB0000EF2BFFEE3AFEED39FDEC38FCD003D0BE
:1022FB0002D001D000EB2FFFEA3EFEE93DFDE83CAA
:10230B00FCA3122BBAE490016DF0A3F07BFF7A01D2
:10231B00798F122DBC7BFF7A01799B900163E0FCD6
:10232B00A3E0FDA3E0FEA3E0FF900192122BBA12F3
:10233B002DBC900162E025E0FF900161E033FE903F
:10234B00014EE0FBA3E0FAA3E02FF9EA3EFA1237C5
:10235B00C190017DEEF0A3EFF07BFF7A0179A21221
:10236B002DBC7BFF7A01799B90017DE0FFA3E09070
:10237B000192CFF0A3EFF0122DBC90016DE0FEA304
:10238B00E0FF900170E02FFF90016FE03EFE9001A7
:10239B007DE0FCA3E0FD12000A900167E0F8A3E0EA
:1023AB00F9A3E0FAA3E0FB90017DE0FEA3E0FFE4DC
:1023BB00FCFDEB2FFFEA3EFEED39FDEC38FC900106
:1023CB0067122BBA900162E004F07006900161E095
:1023DB0004F0900163E0FCA3E0FDA3E0FEA3E02486
:1023EB0002FFE43EFEE43DFDE43CFC900163122B56
:1023FB00BA90016EE004F0700690016DE004F0C33A
:10240B0090016EE0940C90016DE064809480500319
:10241B000223177BFF7A0179AF122DBC7BFF7A0168
:10242B00799B900167E0FCA3E0FDA3E0FEA3E0FF36
:10243B00900192122BBA122DBC7BFF7A0179681294
:10244B002DBC900170E0240EFF90016FE03400FE74
:10245B00C006C007900167E0FCA3E0FDA3E0FEA36C
:10246B00E0FF122B75AD07AC06D007D00612000AA1
:10247B00900170E0240E1238F0900170E0240FFFF1
:10248B0090016FE03400FE7D0C7C8012000A9001FD
:10249B0075122BC6000000008065900179E0648006
:1024AB007004A3E0640C7064900175E0FCA3E0FD84
:1024BB00A3E0FEA3E02401FFE43EFEE43DFDE43C8B
:1024CB00FC900175122BBAE47FE87E03FDFC9001B2
:1024DB0075E0F8A3E0F9A3E0FAA3E0FBD3122B839A
:1024EB00401D7BFF7A01799B900175E0FCA3E0FD19
:1024FB00A3E0FEA3E0FF900192122BBA122DBC12A7
:10250B0038EA900179EEF0A3EFF0808E900179E03C
:10251B007002A3E06038900180E004F07006900137
:10252B007FE004F07BFF7A0179BA122DBC7BFF7A36
:10253B0001799B90017FE0FFA3E0900192CFF0A384
:10254B00EFF0122DBC7BFF7A017968122DBC900144
:10255B006CE004F0700690016BE004F00222259011
:10256B000170E0240CFF90016FE03400FEC006C048
:10257B0007900151E0FCA3E0FDA3E0FEA3E0FF7890
:10258B0010122B94AD07AC06D007D00612000A90A0
:10259B000170E0240DFF90016FE03400FEC006C017
:1025AB0007900151A3A3E0FEA3E0FFAD07AC06D05B
:1025BB0007D00612000A900151A3A3E0FEA3E0FF8F
:1025CB00E4FDFCAB07AA06F9C004C005C006C007B2
:1025DB00900151E0FCA3E0FDA3A3E07810122B9433
:1025EB00D003D002D001D000EF2BFFEE3AFEED3935
:1025FB00FDEC38FCE42FFFEE3440FEE43DFDE43C03
:10260B00FC900167122BBA900170E0240EFF900131
:10261B006FE03400FEC006C007900167E0FCA3E04A
:10262B00FDA3E0FEA3E0FF122B75AD07AC06D007B0
:10263B00D00612000A900170E0240FFF90016FE0AA
:10264B003400FE7D007C4012000A90017BE070029A
:10265B00A3E0607C900175122BC600000000806324
:10266B00900179E064407002A3E07064900175E022
:10267B00FCA3E0FDA3E0FEA3E02401FFE43EFEE4A7
:10268B003DFDE43CFC900175122BBAE47FE87E0320
:10269B00FDFC900175E0F8A3E0F9A3E0FAA3E0FBE1
:1026AB00D3122B83401D7BFF7A0179DA900175E001
:1026BB00FCA3E0FDA3E0FEA3E0FF900192122BBA76
:1026CB00122DBC1238EA900179EEF0A3EFF0809056
:1026DB00E490016DF0A3F0E490016BF0A3F0900196
:1026EB006CE004F0700690016BE004F090016BE07D
:1026FB00B404EBA3E0B400E690016EE004F07006C6
:10270B0090016DE004F090016DE0B404CAA3E0B455
:10271B0000C57BFF7A0179DF122DBC7F147E9812E6
:10272B0038F8900179EEF0A3EFF07BFF7A0179F3A3
:10273B00122DBC7BFF7A01799B900179E0FFA3E01E
:10274B00900192CFF0A3EFF0122DBC7BFF7A0179B1
:10275B0068122DBC7BFF7A027904122DBC7BFF7AA9
:10276B0001799B90017FE0FFA3E0900192CFF0A352
:10277B00EFF0122DBC7BFF7A017968122DBC7BFF29
:10278B007A027930122DBC7BFF7A017968122DBC4D
:10279B007D007C507F187E9812000A803B90017957
:1027AB00E064057002A3E060407BFF7A02793F1280
:1027BB002DBC7BFF7A01799B900179E0FFA3E09020
:1027CB000192CFF0A3EFF0122DBC7BFF7A01796859
:1027DB00122DBC7F96123A147F187E981238F890FF
:1027EB000179EEF0A3EFF080B47BFF7A02795D12F2
:1027FB002DBC7BFF7A017968122DBC7D207C507F2C
:10280B00187E9812000A803B900179E064057002F3
:10281B00A3E060407BFF7A02793F122DBC7BFF7AED
:10282B0001799B900179E0FFA3E0900192CFF0A397
:10283B00EFF0122DBC7BFF7A017968122DBC7F2C37
:10284B00123A147F187E981238F8900179EEF0A3A3
:10285B00EFF080B4900183E4F0A37428F0E49001CE
:10286B006DF0A3F0900183E0FEA3E0FF90016DE01B
:10287B00FCA3E0FDC39FEE6480F8EC648098507479
:10288B00EDAE047802C333CE33CED8F9FDAC0624BB
:10289B00CBF582741C3CF583E493FE74CC2DF5824E
:1028AB00741C3CF583E493FDEDFFC006C00790015B
:1028BB006DE0FEA3E07802C333CE33CED8F9FDAC86
:1028CB000624CDF582741C3CF583E493FE74CE2D67
:1028DB00F582741C3CF583E493FDEEFCD007D00627
:1028EB0012000A90016EE004F0700690016DE00496
:1028FB00F002286F7FF4123A147D777C07120006E2
:10290B001200037FF4123A14123A547BFF7A0279C5
:10291B0068022DBCE709F608DFFA8046E709F208E2
:10292B00DFFA803E88828C83E709F0A3DFFA8032DE
:10293B00E309F608DFFA8078E309F208DFFA807022
:10294B0088828C83E309F0A3DFFA806489828A830F
:10295B00E0A3F608DFFA805889828A83E0A3F208A5
:10296B00DFFA804C80D280FA80C680D4806980F2F6
:10297B008033801080A680EA809A80A880DA80E27B
:10298B0080CA803389828A83ECFAE493A3C8C58218
:10299B00C8CCC583CCF0A3C8C582C8CCC583CCDF5B
:1029AB00E9DEE7800D89828A83E493A3F608DFF9D9
:1029BB00ECFAA9F0EDFB2289828A83ECFAE0A3C83A
:1029CB00C582C8CCC583CCF0A3C8C582C8CCC5838F
:1029DB00CCDFEADEE880DB89828A83E493A3F2080A
:1029EB00DFF980CC88F0EF60010E4E60C388F0ED0C
:1029FB002402B4040050B9F582EB2402B404005055
:102A0B00AF232345822390296F73BB010CE58229E9
:102A1B00F582E5833AF583E0225006E92582F8E654
:102A2B0022BBFE06E92582F8E222E58229F582E542
:102A3B00833AF583E49322A3F8E0C5F025F0F0E5A3
:102A4B0082158270021583E0C838F0E822E88FF017
:102A5B00A4CC8BF0A42CFCE98EF0A42CFC8AF0ED1A
:102A6B00A42CFCEA8EF0A4CDA8F08BF0A42DCC38CE
:102A7B0025F0FDE98FF0A42CCD35F0FCEB8EF0A406
:102A8B00FEA9F0EB8FF0A4CFC5F02ECD39FEE43CC0
:102A9B00FCEAA42DCE35F0FDE43CFC2275F0087564
:102AAB008200EF2FFFEE33FECD33CDCC33CCC5827E
:102ABB0033C5829BED9AEC99E58298400CF582EE3A
:102ACB009BFEED9AFDEC99FC0FD5F0D6E4CEFBE422
:102ADB00CDFAE4CCF9A88222B800C1B90059BA00EA
:102AEB002DEC8BF084CFCECDFCE5F0CBF97818EF45
:102AFB002FFFEE33FEED33FDEC33FCEB33FB10D746
:102B0B0003994004EB99FB0FD8E5E4F9FA22781806
:102B1B00EF2FFFEE33FEED33FDEC33FCC933C91061
:102B2B00D7059BE99A4007EC9BFCE99AF90FD8E093
:102B3B00E4C9FAE4CCFB2275F010EF2FFFEE33FE65
:102B4B00ED33FDCC33CCC833C810D7079BEC9AE8D8
:102B5B0099400AED9BFDEC9AFCE899F80FD5F0DA59
:102B6B00E4CDFBE4CCFAE4C8F922C3E49FFFE49E76
:102B7B00FEE49DFDE49CFC22EB9FF5F0EA9E42F007
:102B8B00E99D42F0E89C45F022E8600FECC313FC92
:102B9B00ED13FDEE13FEEF13FFD8F122E8600FEFFC
:102BAB00C333FFEE33FEED33FDEC33FCD8F122ECF7
:102BBB00F0A3EDF0A3EEF0A3EFF022A8828583F053
:102BCB00D083D082122BDD122BDD122BDD122BDDED
:102BDB00E473E493A3C583C5F0C583C8C582C8F06D
:102BEB00A3C583C5F0C583C8C582C822E709F6080B
:102BFB0070FA8046E709F20870FA803E88828C836F
:102C0B00E709F0A370FA807EE309F60870FA807684
:102C1B00E309F20870FA806E88828C83E309F0A3D3
:102C2B0070FA806289828A83E0A3F60870FA805674
:102C3B0089828A83E0A3F20870FA804A80D280FAF4
:102C4B0080C680D4806580F28031801080A680EAB7
:102C5B00809A80A880DA80E280CA803189828A8358
:102C6B00ECFAE493A3C8C582C8CCC583CCF0A3C847
:102C7B00C582C8CCC583CC70E9800D89828A83E478
:102C8B0093A3F60870F9ECFAA9F0EDFB2289828A7E
:102C9B0083ECFAE0A3C8C582C8CCC583CCF0A3C82B
:102CAB00C582C8CCC583CC70EA80DD89828A83E477
:102CBB0093A3F20870F980CE88F0ED2402B40400DF
:102CCB0050C4F582EB2402B4040050BA232345828E
:102CDB0023902C4773BB010689828A83E022500222
:102CEB00E722BBFE02E32289828A83E49322BB01A3
:102CFB000689828A83F0225002F722BBFE01F3225F
:102D0B00F8E0FBA3A3E0F925F0F0E5821582700251
:102D1B001583E0FA38F022EBF0A3EAF0A3E9F022F6
:102D2B00D083D082F8E4937012740193700DA3A337
:102D3B0093F8740193F5828883E47374029368604B
:102D4B00EFA3A3A380DFE5082492F582E43401F519
:102D5B0083E005082290018F300803900192E475FF
:102D6B00F001122D0B022CE02001E97F2ED2018005
:102D7B0018EF540F2490D43440D4FF30050BEF24BC
:102D8B00BFB41A0050032461FFE509600215090561
:102D9B000CE50C7002050B30080E90018FE475F0FA
:102DAB0001122D0BEF022CF9023AC37403D20880E7
:102DBB0003E4C208F50890018F122D22E4F509F502
:102DCB000BF50CE50960077F20122D9480F5750A31
:102DDB00FFC202C201C203C204C206C207C2091269
:102DEB002D60FF700D3008057F00122DA5AF0CAEC6
:102DFB000B22B4255FC2D5C205122D60FF24D0B4BF
:102E0B000A00501A75F00A780930D50508B6FF018B
:102E1B0006C6A426F620D5047002D20480D924CF8E
:102E2B00B41A00EF5004C2E5D205022FA6D20280DD
:102E3B00C6D20180C0D20380BCD2D580BAD2068064
:102E4B00B47F20122D942003077401B5090040F1C3
:102E5B00122D51FF122D94022DCED209D20780953F
:102E6B00122D51FB122D51FA122D51F94A4B7006AE
:102E7B0079777A307BFF20032EE509602A7E008E5E
:102E8B0082758300122A1560060EEE650A70F0C279
:102E9B00D5EBC0E0EAC0E0E9C0E0EE122FEDD0E0E8
:102EAB00F9D0E0FAD0E0FB122CE0FF60AAEBC0E017
:102EBB00EAC0E0E9C0E0122D94D0E02401F9D0E0A3
:102ECB003400FAD0E0FBE50A0460DCD50AD9808730
:102EDB007BFF7A2F79E9D203809C791080027908E5
:102EEB00C207C2098008D2D5790A8004790AC2D5F3
:102EFB00E50A047002F50AE4FAFDFEFF122D51FCFF
:102F0B007B08200213122D51FD7B1030010A122D6C
:102F1B0051FE122D51FF7B20EC3382D592D55013ED
:102F2B00C3E43001069FFFE49EFEE42002039DFDF7
:102F3B00E49CFCE4CBF8C202EC700CCFCECDCCE819
:102F4B0024F8F870F38017C3EF33FFEE33FEED3345
:102F5B00FDEC33FCEB33FB994002FB0FD8E9EB3074
:102F6B000205F8D0E0C448B202C0E00AEC4D4E4F67
:102F7B0078207B0070C2EAB50A0040BCC0E0122F7B
:102F8B00EFD0F0D0E0200204C4C0E0C4B202C0F025
:102F9B00122D7DD0F0D5F0EB022DCE122D2B2E6BFA
:102FAB00532EE5582E3C4C2E38422EE94F2EF14431
:102FBB002EF1492E51432EF7552EDB462EDB452E97
:102FCB00DB473097502E402D2E442E2E672B2E484C
:102FDB00232E652030802A2E004800002E5F3F3FB5
:102FEB003F00790AA2D5200414300609B910020457
:102FFB0004B9080104A2D52007025001042003687C
:10300B009203B509005034C0E07F203004197F30A3
:10301B00A20372077206500F123046C203C207C2D8
:10302B0006C2097F30800F300603E9C0E0122D94F1
:10303B00300603D0E0F9D0E0B509CC3006177F306D
:10304B00B9100C122D947F583005077F788003B987
:10305B000803122D943003057F2D022D947F202021
:10306B0009F87F2B2007F322920380CF286E756C13
:10307B006C2900D202122D513002F8C202780930AD
:10308B00D50108F6022E002D50434958122D51241C
:10309B0003B405004001E490309293122D85743AED
:1030AB00122D85D204750904022EE5C10BC18C418A
:1030BB0001C9004101D1006032010700000000008E
:1030CB0000000000000000000000000000000000F5
:1030DB0000000000000000000000000000000000E5
:1030EB00000000000000000000000000004101068D
:1030FB0000C10E41013916610000061105060000E2
:10310B0000000000000000000000000000000000B4
:10311B0000000000000000000000000000000000A4
:10312B000000000000000000000000000000000094
:10313B000000000000000000000000000000000084
:10314B000000000000000000000000000000000074
:10315B000000000000000000000000000000000064
:10316B00000000000000000000380000000000001C
:10317B000000000000000000000000110023800090
:10318B007000000000000000000000000001084675
:10319B004954200000000000000000000000001F48
:1031AB0000093A313030323937313130312020207B
:1031BB002020203120426807D00063020000003538
:1031CB003238363230373530202020202020203145
:1031DB003531303133202000000029000000000081
:1031EB0000000000000000000000000000000000D4
:1031FB000000000000000000000000420000000082
:10320B00410002004801B70104080C101820304897
:10321B0001BF030104000506070200C0E0C0F0C0B7
:10322B0083C082C0D075D000C000C004C006C007E8
:10323B00E5B9540F1460511470030232C824FE70A8
:10324B00030232D324FA603324FE607614607324B5
:10325B0004707853B9F6900000E475F001122A421D
:10326B00FE740625F0F58274003EF583E0F5BBC3D2
:10327B00900000E094014053E4800853B9F59000AE
:10328B00027401F0A3F08043E5B930E40553B9EFC4
:10329B008026900000E475F001122A42FE74062588
:1032AB00F0F58274003EF583E0F5BBC3900000E0BF
:1032BB0094014004E4F0A3F053B9FE800E53B9FD22
:1032CB00800953B9FB02336453B9FBE5AB30E2031E
:1032DB00023361900139E5BCF0900003E0B401EBDF
:1032EB00900139E0645060E3900002E01470359077
:1032FB000139E0C39480401D900085E075F080A4F7
:10330B00FF900139E07C002FFEEC35F0900000F0CF
:10331B00A3CEF08039900139E0FF900000E4F0A3D8
:10332B00EFF0802A900139E0FF900000E475F00186
:10333B00122A42FC740625F0F58274003CF583EFEB
:10334B00F0C3900000E094014004E4F0A3F090007F
:10335B0002E4F00232D653B9DFD007D006D004D046
:10336B0000D0D0D082D083D0F0D0E032C0E0C08388
:10337B00C082C0D075D000C006C007C20030C203E7
:10338B0002343FE5C054F02480607124C0602A24CD
:10339B00E0600302343B9001D0E025E0F5C253C25C
:1033AB00FEA20DE43342C2C2C59000057401F09039
:1033BB000004F0A3E5C0F0807D30C123200D779091
:1033CB0001C7E0FF900004E0FED39F501574CB2E95
:1033DB00F582E43401F583E0F5C2900004803930C6
:1033EB000E06D2C4C20A804ED2C4D2C59001CBE025
:1033FB0004F070429001CAE004F0803A900005E0BE
:10340B00FFC3940274D150152FF582E43401F58378
:10341B00E5C2F0D2C1900005E004F080192FF582CF
:10342B00E43401F583E5C2F0C20AC2C1D2C48006FE
:10343B00D2008002D20030001E53C17F43C180C234
:10344B00C5C2C4C2C1C20AC2009001CBE004F07075
:10345B00069001CAE004F0C2C0D007D006D0D0D08D
:10346B0082D083D0E032900147122BBA900151E504
:10347B00A7F075A720900147E0C313FEA3E013FF4D
:10348B00E4FCFD90014BE0F8A3E0F9A3E0FAA3E024
:10349B002FFFEA3EFEED39FDEC38FC90014BA3A368
:1034AB00A3E0FB122AE3900150EFF0E490014FF000
:1034BB0090014FE0FFC39408400302355974B72FB6
:1034CB00F582E43401F583E0FF900150E0FEEFC399
:1034DB009E4072E47F02FEFDFC90014BE0F8A3E0FE
:1034EB00F9A3E0FAA3E0FB122A58A804A905AA063F
:1034FB00AB0790014FE024B7F582E43401F583E08C
:10350B00FFE4FCFDFE122A58A804A905AA06AB0786
:10351B00900147E0FCA3E0FDA3E0FEA3E0FF122A2D
:10352B00E3C3E49FFFE49EF596EFF59590014FE022
:10353B0024BFF582E43401F583E0444042949001CA
:10354B0051E0F5A72290014FE004F00234BB80FE5E
:10355B00123A93900142122BC60001C2007F207ECB
:10356B00D77D757C011239D4C2B420922A75E34001
:10357B00C293E4FFFE0FBF00010EEFF44E70F6D2C4
:10358B00933093FDE4FEFF0FBF00010EEF640A4E74
:10359B0070F5E4F5E380D312003ED296E490013A45
:1035AB00F09001CAF0A3F0C2AF75A72053BAFE4347
:1035BB00AD44D2AF121F159001CC7498F0A37411C7
:1035CB00F0A374ABF0A374CDF0A37410F0123828F1
:1035DB009001D07410F0E490013BF090013BE0249B
:1035EB00CCF582E43401F583E0FF90013BE024D27B
:1035FB00F582E43401F583E06F600E9001CBE004BB
:10360B00F070069001CAE004F090013BE004F0E09A
:10361B00B402C87FF4023A14F9E43AFA900185EB4C
:10362B00F0A3EAF0A3E9F0A3122BC600000000E41C
:10363B0090018CF0900188E0FCA3E0FDA3E0FEA3D9
:10364B00E0FF7808122BA7900188122BBA90018803
:10365B00E0F8A3E0F9A3E0FAA3E0FBC000C001C0CF
:10366B0002C003900185E0FBA3E0FAA3E0F990010F
:10367B008CE0F582758300122A15FFD003D002D09F
:10368B0001D000EB4FFFEAFEE9FDE8FC9001881248
:10369B002BBA90018CE004F0E0B40498900188E020
:1036AB00FCA3E0FDA3E0FEA3E0FF2212003A787F2B
:1036BB00E4F6D8FD75812102370002355BE493A354
:1036CB00F8E493A34003F68001F208DFF48029E4C9
:1036DB0093A3F85407240CC8C333C4540F4420C815
:1036EB00834004F456800146F6DFE4800B010204AC
:1036FB0008102040809030B6E47E019360BCA3FF9D
:10370B00543F30E509541FFEE493A360010ECF54E0
:10371B00C025E060A840B8E493A3FAE493A3F8E4CF
:10372B0093A3C8C582C8CAC583CAF0A3C8C582C83B
:10373B00CAC583CADFE9DEE780BE90018DEEF0A338
:10374B00EFF0A3ECF0A3EDF0A3EAF0A3EBF0A3A34F
:10375B00E0FF74017E00A807088005C333CE33CE8B
:10376B00D8F924FFFFEE34FFAD07FC900191A3E0E5
:10377B00F9EDAE04A801088005C333CE33CED8F9DA
:10378B00F4FFEEF4FE90018DE05EF0A3E05FF0A39A
:10379B00E05CFEA3E05DA801088005C333CE33CE09
:1037AB00D8F9FF90018DE04EFEA3E04FFF90018D05
:1037BB00EEF0A3EFF022900185EBF0A3EAF0A3E982
:1037CB00F0E4A3F0A3F0A3F0A3F090018AE0FCA334
:1037DB00E0FDC39402EC648094805038900189E042
:1037EB00F8E4F0E8900188F0900185E0FBA3E0FAA3
:1037FB00A3E0F98D828C83122A15FF900188E0F0EB
:10380B00A3E04FF090018BE004F070BE90018AE0D2
:10381B0004F080B6900188E0FEA3E0FF2290018FB8
:10382B00122BC600000000200AFDD20AC20DD2C521
:10383B00300A4990018FE0FCA3E0FDA3E0FEA3E07A
:10384B002401FFE43EFEE43DFDE43CFC90018F12BD
:10385B002BBAE47FFF7EFFFDFC90018FE0F8A3E025
:10386B00F9A3E0FAA3E0FBD3122B8340C390018FA3
:10387B00122BC600000000123940C322D322900144
:10388B008F122BC600000000200AFDD20AD20DD2E7
:10389B00C5300A4990018FE0FCA3E0FDA3E0FEA335
:1038AB00E02401FFE43EFEE43DFDE43CFC90018F8F
:1038BB00122BBAE47FFF7EFFFDFC90018FE0F8A393
:1038CB00E0F9A3E0FAA3E0FBD3122B8340C39001F2
:1038DB008F122BC600000000123940C322D3229056
:1038EB000170E0240FFF90016FE03400FE90018D1A
:1038FB00EEF0A3EFF09001C77402F09001D07410BA
:10390B00F090018DE0FCA3E0FDEC9001CCF0EDA379
:10391B00F01238289001D07410F0123889400B7BCC
:10392B00FF7A017927122DBC80CB9001D2E0FEA348
:10393B00E0FDEDFF227F0943D50C75F2FF75A55F06
:10394B00439004E59030E210AE071FEE600A5390EF
:10395B00F7004390080080EB75A55F5390F75390E9
:10396B00FB00439008004390040053D5F375A5501A
:10397B0053C17F43C180C2C5C2C4C2C1C20A229017
:10398B000187ECF0A3EDF0A3EAF0A3EBF090018537
:10399B00EEF0A3EFF01238F8C007900187E0FCA31C
:1039AB00E0FDA3E0FAA3E0FBA3E0FFA3E09001930B
:1039BB00CFF0A3EFF0D007123745AC06AD0790015F
:1039CB0085E0FEA3E0FF02000A900146E5A7F07533
:1039DB00A72043C812E4F5DA43930CC004C005C01A
:1039EB0006C007900142E0FCA3E0FDA3E0FEA3E0CC
:1039FB00FF90014B122BBAD007D006D005D0041282
:103A0B003471900146E0F5A7225388CF5389F043D8
:103A1B008901438E04EF6012C28C758CA0758A4CA1
:103A2B00C28DD28C308DFD1F80EBC28C22AF8853A0
:103A3B0088AF758C38758A13758DFA758B34EF5486
:103A4B0040FEEF54104E42882290018BE4F0A30409
:103A5B00F07B0E7A00FD7C007F617E8402398A75D3
:103A6B00A710E59854045398FB75A33875A29E4391
:103A7B009804429822E59154045391FB7593387541
:103A8B00929E43910442912290013EE5A7F0123A97
:103A9B00FA90013EE0F5A72275A720759443759621
:103AAB00FF75959643C8102275A72053BAFD43BAEC
:103ABB000275A71053987F32AEA775A72030C9FDAA
:103ACB008F92C2C98EA72253C17F43C18053917F6E
:103ADB00C2C5C20A32E4F5A775E68175F30675A86F
:103AEB00802275BD5053BAFB43BA1843BA0222E485
:103AFB00F5A7F5A9E5A930E7FB22E4F5A77597DE55
:103B0B007597AD2275A55075D5032275E34175E107
:093B1B00042253C1FC43C1DD2268
:00000001FF
