:020000040000FA
:100000000201C35388CF5389F0438901438E04EF23
:100010006012C28C758CA0758A4CC28DD28C308DCA
:10002000FD1F80EBC28C22E59154045391FB759324
:100030003875929E4391044291222202007685A750
:100040001412020212022B12022F1202161201A720
:1000500012002712020C12021D1202248514A7227C
:1000600085A7141201E01200701201ED8514A72279
:01007000226D
:100073000201D2C0E0C0D075D000C000C20220C2CD
:100083007BE5C054F02480604E24C0601D24E070E2
:1000930067E50E25E0F5C253C2FEA201E43342C276
:1000A300C2C5751601751501805430C11C20014E5F
:1000B300E515D39404500C74092515F8E6F5C2052B
:1000C30015803BD2C4C2008035D2C4D2C50509E530
:1000D30009702B05088027E516C39403740E500B93
:1000E3002516F8A6C2D2C1051680132516F8A6C296
:1000F300C200C2C1D2C48006D2028002D202300240
:100103001A53C17F43C180C2C5C2C4C2C1C200C2A7
:1001130002C2940509E50970020508C2C0D000D0E7
:10012300D0D0E032120060C2B420922A75E340C2FC
:1001330093E4FFFE0FBF00010EEFF44E70F6D2936F
:100143003093FDE4FEFF0FBF00010EEF640A4E7013
:10015300F5E4F5E380D312003ED294E4F512F508FA
:10016300F509750A98750B11750CAB750DCD750EE8
:10017300101201F8750E10E4F513AF13740A2FF87B
:10018300E6FFAE13740F2EF8E66F60080509E50964
:10019300700205080513E513B403DFB2947F32122E
:1001A300000380BEAF885388AF758C38758A13758A
:1001B3008D34758B34EF5440FEEF54104E42882239
:1001C30012003A787FE4F6D8FD75812002012753A7
:1001D300C17F43C18053917FC2C5C20032E4F5A7FA
:1001E30075A60875A72075CC0822E4F5A7F5A9E53F
:1001F300A930E7FB222000FDD200C201D2C522E4D0
:10020300F5A77597DE7597AD22758E017589204325
:1002130088402275E34075E1042253C1FC43C1DDEC
:100223002275E68175A8802275D4FF2275D5032235
:00000001FF
