:020000040000FA
:1000000002299E90013EE5A7F0122B8D12006D1281
:100010000034122B97122ABC122AEE122AD8122B65
:100020005B122B9E122B11122B75122B6890013E26
:10003000E0F5A72275A51075D5032202263BAD0772
:10004000AC069001BD7402F09001C67410F0EC9003
:1000500001C2F0EFA3F01200769001C67410F01206
:100060002B4E9001C8E0FEA3E0FDEDFF2275D4FF0A
:0200700022224A
:10007300022B40200AFDD20AC20DD2C5200AFD225E
:030083000224EA6A
:10008B00022B2130B5D8D6B7D6B5CEAAA3BA3078C5
:10009B002530347800307839383131B5D8D6B7D6E9
:1000AB00B5CEAAA3BA307825303478000D0A6C652A
:1000BB006E3A30780025303478000D0A000D0A6551
:1000CB006E746572506F696E743A3078000D0A73F6
:1000DB0074617274416464723A30780025303878F8
:1000EB00000D0A2072616D416464723D0030782509
:1000FB00303878000D0A206D64696F446174613D7E
:10010B0000636865636B73756D203D0063686563A1
:10011B006B73756D206572726F72212C20746F7406
:10012B00616C206572726F72093D20003078257802
:10013B0000636865636B2074686520726573756C0A
:10014B00743A0D0A00307839383134277320207611
:10015B00616C75653A004966207468657265206943
:10016B007320636865636B73756D206572726F7254
:10017B002C20746F74616C206572726F7220203D3D
:10018B0020006C6F61642064656661756C743A2045
:10019B00006C6F61642064656661756C743A203025
:1001AB00783938313827730976616C75653A006C8C
:1001BB006F6164203235673A20004D43552053540C
:1001CB00415254204F4B2E2E2E2E2E2E00C2ED01BF
:1001DB0000077D00000100010000001A380100003B
:1001EB000000000FD000000FD000000FD000000F58
:1001FB00D000000FD000000FD000000FD000000F78
:10020B00D000000FD000000FD000000FD000000F67
:10021B00D000000FD000000FD00000000000000045
:10022B0000000000000000000001000504000000B9
:10023B0000000000000000000000000000000000B3
:10024B000000000000000000000100059C010006FA
:10025B00440100066C0400004001F4010000200082
:10026B0004000201F4020000020001FFFC00010087
:10027B0006000A000600050005003B001E000100F9
:10028B000A000000000000000001000003004B000A
:10029B003201900506000000000000000000000085
:1002AB00981000A989100DCBAB1000DCBC10065DBB
:1002BB00CD0000065D00000076000000000000028B
:1002CB001000032F0100000000000103E8020001F1
:1002DB008000200606001400000000000000000053
:1002EB00001820010000000173A8211D389C21FF7C
:1002FB00E0B8640082D4011004A8409805AC84FFD8
:10030B00FFD401B014E2C310009C400001A4840090
:10031B0003E0421802D401A010E2842000B842008E
:10032B0008D4017008E29420009DC00000D4019015
:10033B000CD401C018D401481CD40108009E9400B1
:10034B0004E04410009F00000AAA4E000007C004FE
:10035B00E0A8760000E16BA048186000008CB700A5
:10036B003EA8632DF0A56B0007E16B18008C8B008A
:10037B0000E564280010000007A8770000E0A52026
:10038B0002E57228001000000315000000AA4500CA
:10039B00008C63003FE5A4180010000006E08418F1
:1003AB0002E56E20001000000315000000A9C40038
:1003BB00009F18FFFFBC38000013FFFFE51500007E
:1003CB00009E52FFFFBC32FFFF0C000006A8609896
:1003DB000407C004D3A882000003FFFFFB9E52FF5B
:1003EB00FF9C4200049DCEFFFFBC2EFFFF0C0000C4
:1003FB0006A860980407C004CAA882000003FFFF88
:10040B00FB9DCEFFFF8521001C8421000084410051
:10041B000485C100088641000C8681001086C1004E
:10042B001487010018440048009C2100209C21FFE8
:10043B00E8D4017008D4014814D4010800D4011089
:10044B0004D401900CD401A010A9C30000946E0039
:10045B0000BC2300000C000016A4430F00BC2208B4
:10046B00001000000E968E00029E400000A443F088
:10047B00FFA880FFFFE0629000A8B4000007C00453
:10048B009F9E520100BC32080013FFFFFBA880FFA8
:10049B00FF03FFFFEF9DCE0004A880FFFF07C00402
:1004AB0097A8B4000003FFFFEA9DCE00048521004E
:1004BB0014842100008441000485C100088641009A
:1004CB000C86810010440048009C2100189CA00061
:1004DB00019C21FFF4E0852008D4011004A84300FF
:1004EB0000A8609811A8A40000D401480807C00414
:1004FB0083D4010800B4605001D40218089C60003A
:10050B0000DC02181A8521000884210000844100B8
:10051B0004440048009C21000CA4A400079C21FF6C
:10052B00F0B8A5000BD40110049CC03800A84400FF
:10053B00009C80004ED4017008D401480CA9C30064
:10054B000007C00783D4010800A4A20008A86E000E
:10055B0000BC050000100000039C8000DF9CA00085
:10056B002207C0077B9CC000E28521000C84210080
:10057B00008441000485C10008440048009C210010
:10058B00109C21FFECD4011004D4017008D4014855
:10059B0010D4010800D401900CA84300008E430036
:1005AB00148CA3000CA6520007E572280010000063
:1005BB0004A9C40000000000059CA5FFFFE5B228BC
:1005CB0000100000039CA50001D802280C8CA2008F
:1005DB000CA4A50007A86E0000B8A5000B9C80001A
:1005EB004E07C0075B9CC038008C62000CE4239064
:1005FB000010000015852100108C82001407FFFFEE
:10060B00C7A86E0000A86E00009CA002009CC03F13
:10061B008007C0074F9C800001A862000007FFFF06
:10062B00ACA88E0000B4605001D40218089C600086
:10063B001EA88E0000D802180E07FFFF2DA862001F
:10064B000085210010842100008441000485C10035
:10065B00088641000C440048009C2100149C21FF9B
:10066B00F0D401480CD4010800D4011004D401705B
:10067B000899C3001ABC0E00000C0000168521005F
:10068B000CB440500184A30008E042280298B70044
:10069B001CB8420059E48228001000000E8521008E
:1006AB000CA84300001860010007C00806A8631AD5
:1006BB00289C600001DC02181A8C62000FBC03003E
:1006CB0000100000048521000CD802700E8521005B
:1006DB000C842100008441000485C10008440048BB
:1006EB00009C210010B86300849C21FFF4D40110FE
:1006FB0004A443000FD4014808BC02000210000000
:10070B0013D4010800BC02000310000009BC020056
:10071B00000C00000A1860010007FFFF45A86318D2
:10072B00649C6000050000000FA8820000186001A7
:10073B000000000008A86318DC07C002F19C6000F1
:10074B00020000000B8521000818600100A8631946
:10075B008407FFFF37150000009C6000059C80009C
:10076B000007C002EA150000008521000884210063
:10077B000084410004440048009C21000C9C21FF94
:10078B00F8A48300FFD4014804BC0400001000004F
:10079B0006D401080007C002DA9C600002000000CA
:1007AB001F8521000407C002D99C60000DA860982A
:1007BB001007C006C89C80001A07C003C5A8609824
:1007CB0018B88B008CA56B000FBC0B000010000041
:1007DB000CAC64000DE0A01802E0651804BD8300AA
:1007EB000010000008BC0400009C60000D07C00254
:1007FB00C79C8000010000000985210004BC040097
:10080B000013FFFFEB1500000007C002BD9C60004A
:10081B000D03FFFFE8A860981084210000440048F6
:10082B00009C2100089C21FFF8A89700009CA000C9
:10083B0042D401480407C0067CD40108008521007E
:10084B000484210000440048009C2100089C21FFE7
:10085B00F4D4011004A443000FD4014808BC2200B7
:10086B00011000000CD401080018800100A860984A
:10087B0019A88400F807C0038A948400009C6000C8
:10088B000F07C002A2A8820000000000068521000D
:10089B00081860000907C0064CA8637F7385210008
:1008AB00088421000084410004440048009C21007E
:1008BB000C9C21FFD41860010018800100D401109A
:1008CB000418400100A8631A38A8841F78A84200B6
:1008DB00F8D4014828D4010800D4017008D4019041
:1008EB000CD401A010D401B014D401C018D401D081
:1008FB001CD401E02007C003C0D401F02407C003BF
:10090B00661500000094620000BC2300001000007C
:10091B00071860010018800100A8630000040003A1
:10092B00BCA8841A38DC0258001AE00100AAF700B0
:10093B0074A860981407C00366A840FFF0E42B105E
:10094B0000100000061840CFFF07C0035A9C600040
:10095B000007BFFE8515000000A842FFFFC1401035
:10096B00009C800000C1402001186001009DC0FF69
:10097B00FF07C00754A863172C9DCE0001A5CE001E
:10098B0003B86E0003B84E0006E043100018600178
:10099B0000A8631D38E042180007C0079FA86E002F
:1009AB0000B96B0088BDAB001F100001CBBD4B0025
:1009BB0017A64B001FBD52000910000009BD920085
:1009CB000BBD720008100000D8BC12000210000012
:1009DB000C9C80FFFE0000038A1500000010000332
:1009EB0088BDB2000C10000104BC120018100001ED
:1009FB006DA880820000000382150000008C62004D
:100A0B00429EC00001E0632003E2D67008D80218B2
:100A1B004207C0032FA860980FA8609816E16B706F
:100A2B004807C0032BA64B0001A8609811D8029071
:100A3B0010A89600009CA0000007C00330AA8B00F2
:100A4B00009062000EBC2300641000000CA474FF25
:100A5B00FFE0637088A4630001BC03000010000377
:100A6B0060A8960000A860981607C003249CA000FD
:100A7B00009C600000D802180E07C007AAA86E00E1
:100A8B0000A56B00FFBC1200001000002CD8025810
:100A9B000F94B700249CC0003FA4A5003FA86E0094
:100AAB000007C0062B9C80007818600100A88E0000
:100ABB000007C00704A863182018600100A88E0067
:100ACB000007C00700A86317EC9C800008A86E0005
:100ADB0000D802200E07C0061A9C80004EB96B008E
:100AEB00128CA2000FB96B005DBC050000A86E0054
:100AFB00001000000CD802580C9CA000009C800039
:100B0B000107C006139CC0400094570018BC22007C
:100B1B0000100000039CA00002A8A20000A86E0019
:100B2B00009C8000DF9CC0000207C0060915000076
:100B3B00000000006D94970000BC0B00001000003B
:100B4B00319CC0003F94B70024A4A5003FA86E00C1
:100B5B00009C80007807C005FEBA94001018600155
:100B6B0000A88E000007C006D7A8631820186001E4
:100B7B0000A88E000007C006D3A86317EC9C60008A
:100B8B00059C800008D802180DBD740000100000F1
:100B9B0006D802200E9C6000079C800001D802182A
:100BAB000DD80220108CA2000DA4A50007A86E0082
:100BBB0000B8A5000B9C80004E07C005E59CC03813
:100BCB00008C62000DD802180C94570018BC220040
:100BDB0000100000039CA00002A8A20000A86E0059
:100BEB00009C8000DF07C005DA9CC00002A86E00E5
:100BFB00009C8000019CA0000003FFFFCC9CC04028
:100C0B00008C62000E9C63FFF6BC43000D100000CD
:100C1B003B18600100B460500184A20004E063281B
:100C2B000294B70010B8630050E485180010000060
:100C3B0032E0B770008CC200139C660012B86300E0
:100C4B0002E077180084630000B883005CD40218BC
:100C5B00209C84001AB8840002E097200084840052
:100C6B0000D8029012D4022024A48300FFB86300A2
:100C7B0004A4E4000FA4840007B8630048D8022042
:100C8B000CD8023814D402182018600100DC029032
:100C9B0018DC029016D805302CA88E000007C00671
:100CAB0089A86317EC8CA2000C98970022E585208D
:100CBB0000100000091500000094B70080A4A500E7
:100CCB007FA86E0000B8A500079C80000107C00537
:100CDB00A09CC03F808C82001407FFFE10A86E0002
:100CEB00009497000007C005A3A86E000000000247
:100CFB00C41500000018600100A88E000007C00694
:100D0B0071A86317889C80001F9C600000D802208C
:100D1B001CD802201D9C800008D80218120000026B
:100D2B00B8D802200E8E820012BC340000100000D6
:100D3B00079C600010B4605001D40218049C600042
:100D4B0009D802180E9C600010E283A088BC340006
:100D5B000010000003150000009E800001A86E002B
:100D6B000007C005779C800074A56BFFFFBC4B0090
:100D7B0001100000039C6000019C600000A4630054
:100D8B00FFBC230000100000058C62001CBC32006D
:100D9B00091000000815000000D802181EBC430003
:100DAB003E0C000005E283A000000000058CA200B1
:100DBB001CE283A002D802A01C8CA2001CA86E000F
:100DCB00009CC0007F9C80004A07C00561A4A50061
:100DDB007FA86E00009C80004907C0056A9CA0009C
:100DEB0000A8808B8C07C0055FA86E000000000276
:100DFB0084150000008E8200129C600010E283A01C
:100E0B0088BC34000010000003150000009E800019
:100E1B0001A86E000007C0054A9C800074A56BFFFB
:100E2B00FFBC4B0001100000048C62001D00000091
:100E3B0006E283A002BC43003E10000004D8021857
:100E4B001FE283A000D802A01D8CA2001DA86E007B
:100E5B00009C80004CA4A5007F07C0053D9CC000F2
:100E6B007F8C620012BC430006100000109C8000B7
:100E7B0078A8A0FFFFA86E000007C005429C800069
:100E8B0049A880888907C00537A86E00008C6200CE
:100E9B00129C630001BC32000C10000259D80218DE
:100EAB00120000003B1860010094B70024A86E00EC
:100EBB0000A4A5003F9CC0003F07C005259E400035
:100ECB000018600100A88E000007C005FEA863187B
:100EDB00208C62001FE40390001000000F9C800028
:100EEB000007C001B18C62001E8C62001F07C0019D
:100EFB00AEAA4B0000A872000007C00182A88B00AD
:100F0B00009C80000707C00256A86B00009E4BFF99
:100F1B00809C800000A860981607C001EDD40220C9
:100F2B0020A56B8000BC2B0000100000139C600000
:100F3B0006BDB2004B1000000EBDB20072100000D7
:100F4B000C9D600001BDB20087100000099D600080
:100F5B0002BDB200CB100000069D600003BD520025
:100F6B00FE100000039D6000059D6000049C600066
:100F7B0005E0635802D8021813E0777000D803908D
:100F8B00409C60000AD802180E18600100A88E0061
:100F9B000007C005CCA863184800000212186001B6
:100FAB000007C004F0A86E00008C620042A863002A
:100FBB0001D802184207C00565A86E0000A86E0094
:100FCB000007C0052FAA4B00009477001AE48B187A
:100FDB0000100000059E520010BCB2002010000053
:100FEB000915000000A86E00009C8000509CA00812
:100FFB000007C004D79CC00FFF00000201150000C2
:10100B00008C620010BC0300001000002E150000C5
:10101B00009497000207C004D7A86E0000A8A0E0B8
:10102B0000A8C0F000A86E000007C004C99C800097
:10103B003B8C620010BC0300001000000D1500007B
:10104B00008C62000FBC230000100000189C600095
:10105B001A8C82000C9877001EE5641800100000B3
:10106B0004A86E000007C005F59C8000078C620089
:10107B000FBC2300001000000D9C60001A8C820036
:10108B000C98770020E5641800100000069CA00067
:10109B0022A86E00009C8000DF07C004AD9CC0003E
:1010AB00E2000000099C80001DA88E0000D80218E9
:1010BB000E07FFFC8FA86200000000000415000063
:1010CB00009C800010D802200EB46050010000017B
:1010DB00CCD40218000C0001C3186001009E4E0016
:1010EB00809EC00003BA5200089F9200139E5200CC
:1010FB002A07C00177A87C0000A872000007C00176
:10110B0074ABCB00009C80000DA86E000007C004E0
:10111B008CAB0B0000A86E000007C00501AA8B006A
:10112B0000A87C0000AB4B000007C00169A7DE00E4
:10113B000FA56B000FE55E5800100000039C8000AC
:10114B00019C800000A48400FFBC24000010000060
:10115B0014BC0B000F100000139ED6FFFFB6C0503F
:10116B00018C62000E9C63FFF086420000A46300BA
:10117B00FFE2569002BC43002110000199BA5200C5
:10118B005018800100B8630002A88416A4E0632005
:10119B00008463000044001800150000009ED6FF79
:1011AB00FFBC36000013FFFFD31500000003FFFF49
:1011BB00EC1500000094770026E492180010000153
:1011CB0089186001009497000207C0046AA86E009A
:1011DB0000A86E00009C8000089CA0008007C00443
:1011EB005C9CC000F08C62000FBC0300000C000183
:1011FB007AD402B0000000012D9C8000129497005D
:10120B0028E49220001000017718600100949700E9
:10121B003C94C20018E0982000E5843000100000D8
:10122B00081500000094770026E49218000C0000CB
:10123B0005186001000000016B150000009F000005
:10124B000084620024D402B000A483000FB86300B2
:10125B0044BC24000F0C000014D40218249C64001E
:10126B0014A4B8FFFFE0631800E0E22000E062186E
:10127B0000DC0328008C620014D807D030D8071884
:10128B00348CE20012E5A4380010000003E5B830FE
:10129B0000D80220121000000415000000DC022808
:1012AB0018DC02181684820020BC04000010000019
:1012BB0013BC38000010000009150000008CA200C0
:1012CB001494620016A4A50007A4630007E5451853
:1012DB00001000000A15000000A484000FA86E0087
:1012EB000007FFFC8ED802201484620020B8630034
:1012FB00440000013BD402182095A2002890E20084
:10130B00308C8200129D02002A9CA20031A8CD00D5
:10131B00009DE000009C600001E5A320000C000094
:10132B0013A997000095880000E5AC300010000071
:10133B000B1500000091650000BD8B000010000034
:10134B0004E54B38001000000515000000A8EB0069
:10135B0000A9E30000A8CC00009C6300019D0800DD
:10136B000203FFFFEE9CA500019CA200289D02003A
:10137B00309C600000E42378000C000013BC2400B8
:10138B000396250000956C0038E1715800E58B3011
:10139B0000100000081500000091680000BD8B00D4
:1013AB000010000008E5AB380010000007BC24005B
:1013BB00039C6300019CA5000203FFFFEF9D080047
:1013CB0001BC2400031000001A15000000150000DA
:1013DB0000BC2300001000001615000000948200D2
:1013EB002EE0846802B8A4009FE0852005E08428E5
:1013FB000294AC003AE56428001000000D150000C3
:10140B000090820031BD8400001000000815000020
:10141B000090820032BD6400001000000515000032
:10142B0000000000039C6000029C600001E0621859
:10143B00008C8200148C630034A4840007D802183B
:10144B00149C600019D802200C00000007D8021869
:10145B000E9477002AE4921800100000E1150000AA
:10146B0000D402B000A862000007FFFC46A88E0063
:10147B0000000000DC18600100A862000007FFFC00
:10148B0078A88E00008C62000FBC230000100000B7
:10149B00D5186001009E400100A860980F07C0009E
:1014AB008CE2527008E24B9003BC3200001000003B
:1014BB00CC9C800001A86E0000A8B2000007C003FE
:1014CB00A49CC040009C600001DC029016D802185E
:1014DB0015DC02901894970036E06320089C80007E
:1014EB001FD402B000D8021811000000BDD8022092
:1014FB000EA862000007FFFC5AA88E000007C00070
:10150B0074A860980F9C600100E0637008E16B1891
:10151B0003BC2B0000100000B318600100A86E0084
:10152B000007C003879C800009A56B8000BC2B00C3
:10153B0000100000AC1860010094770034E492189E
:10154B0000100000A8186001008E42001194620088
:10155B00169E52FFFFE3181800A65200FFD402B0EC
:10156B0000DC02C016BC3200001000009DD80290B7
:10157B0011A86E000007C003729C800080A86E004B
:10158B00009C80000107C0036EAACB000094620090
:10159B001694820018E46418001000000415000073
:1015AB000000000007DC0218188C6200159C63FF1A
:1015BB00FFDC029018B863005FD802181590820008
:1015CB0015BC04000010000009A474007FB8B6001D
:1015DB0010B8A50059E58328000C00000A1500007F
:1015EB0000000000099CA30001B8AB0012B8A500D5
:1015FB0059E54328000C000004A4A5FFFF9CA3FFA2
:10160B00FFA4A5FFFFA86E00009C80005F07C0032E
:10161B00509CC0007F9CA01000A86E00009C800016
:10162B000A07C0034BA8C50000949700369C6000C6
:10163B0001E0632008D80218119C60000000000034
:10164B0068DC02181694770006E4B218001000004C
:10165B006415000000A862000007FFFB25A88E00A0
:10166B00009C80001CD402B000D802200EA862009F
:10167B000007FFFB97A88E00000000005A186001BE
:10168B000094770004E4B218001000005515000018
:10169B0000000000529C60001B9477000EE4B2180F
:1016AB00001000004F9C80001B0000004DD8022052
:1016BB000EA862000007FFFB86A88E00000000004A
:1016CB00479C60001B94770008E492180010000000
:1016DB00449C8000319C600000D802200EDC021874
:1016EB001A9C6000019497000AE0632008D8021846
:1016FB00119477000CE49218001000003A18600166
:10170B00009462001AE35A18008C820011BB5A0035
:10171B00109C84FFFFD402B000BB5A0090A484003D
:10172B00FFDC02D01ABC2400001000002DD80220D0
:10173B001194F7000A98770014E0633808E5BA189B
:10174B00001000000B8C62000CBC030000100000AA
:10175B00169E4000018CA2000DE4851800100000BD
:10176B00129C63FFFF0000000FD802180C98B70003
:10177B0016E0A53808E57A28001000000B9E400003
:10178B0001BC43000510000008150000008CA200EE
:10179B000DE445180010000004E0639000D8021817
:1017AB000CAA4400008C82000C07C00312A86E0028
:1017BB0000BC120000100000089C80001AA86200F8
:1017CB0000D802200E07FFFACAA88E000000000006
:1017DB0005186001009C600030D802180E186001DB
:1017EB000007C0025AA8630038A860981007C0020F
:1017FB00B99C80001A03FFFC629DCE000107C00458
:10180B00DCA86E000003FFFFF718600100A96BFF57
:10181B00FF19000100A9081684E403200010000042
:10182B00109CA0000494C30000E16B3005B8CB0002
:10183B004CB96B0004E0C630009CA5FFFFE0C6402E
:10184B0000BC25000094C60000E166580513FFFF9D
:10185B00F8A56BFFFF03FFFFF19C630002440048F8
:10186B00001500000000008005800F000A801B009F
:10187B001E0014801180330036003C803900288014
:10188B002D8027002201000FD4010015FC01001050
:10189B001C010015FC010015FC010015FC010015D5
:1018AB00FC010015FC010015FC0100127001001475
:1018BB00D001001298010014A0010014640100145F
:1018CB00B801001310010015FC010015FC010015F7
:1018DB00FC010015FC010015FC010015FC010015B5
:1018EB00FC010015FC010015FC010015FC010015A5
:1018FB00FC010015FC010015FC010015FC01001595
:10190B00FC010015FC010014E4010015109810FFF8
:10191B00FF0000800B9F9F8200810B9F9F820082A4
:10192B000B9F9F8200830B9F9F82009814FFFF5B8E
:10193B005B980C20002000980FFFFF000F9900FF11
:10194B00FFFDE09901FFFF21049902FFFF9310991E
:10195B0003FFFF4A66981EFFFF85389826FFFF9509
:10196B00799827FFFF0000000000F203F002E0006F
:10197B00DF00E2000000F9007E004C00F80380005D
:10198B0000003BF00000000078003F0024000B9F9C
:10199B009F8889006500E000000048FFFFFFFF0003
:1019AB0049FFFFFFFF004A0FFF071F004BFFFFFF21
:1019BB00FF004C1FFF0E9F004D80008000004E3833
:1019CB00003800004FF000F0000000000000500F46
:1019DB00FF0040003BF0000000004D800080000045
:1019EB000800F00080000140004000000A100000D9
:1019FB0000006500E00000000B9F9F829800000034
:101A0B00000048FFFF00800049FFFF0002004C1F51
:101A1B00FF1115004BFFFF0080004A0FFF08BD00B0
:101A2B000B9F9F820000000000008108000800004F
:101A3B000C80000000000C8000800000810800007A
:101A4B00000000000088834E058882D8008875C688
:101A5B00FF6002800088FC523678000000885050EE
:101A6B004088A30020854E000088764182887751FC
:101A7B006688781CBB84788C3885788C3886788C13
:101A8B003887788C38844E0000874E0000864E00D5
:101A9B000060328000601280008863008088648060
:101AAB008088085ABB88032933880240066022804D
:101ABB00008806A1008805AE820000000088DF00C8
:101ACB0066888130008887CD7A8886CD7A88854D67
:101ADB007A88848D7A88FC536688884D7A88FE8054
:101AEB00AE88FDB64488FFFDC078080C00731AFF62
:101AFB0000711AFF00721AFF00701AFF0078093A82
:101B0B00908879886C824E3800814E3800834E382D
:101B1B0000804E3800884D80007806125488EFB64E
:101B2B00A088FB773678190005781681C088F98B69
:101B3B005A88F8B7780007002088F1B00088F06762
:101B4B00B488F561E088F7A246990293109900FDDD
:101B5B00E0990121048801020188004D0588074D99
:101B6B007A0000000088DF0066888130008887CD0E
:101B7B007A8886CD7A88854D7A88848D7A78061214
:101B8B005488FB773688FEA5A888FD364488FFFD70
:101B9B00C078080C00731AFF00711AFF00701AFF4F
:101BAB0000721AFF0078093A908879886C814E3858
:101BBB0000834E3800824E3800804E3800884D80AE
:101BCB000088EFB6A088884D7A78190005781681C1
:101BDB00C088F98BDA88F8B7780007002A88F1B04B
:101BEB000088F067B488F561E088F7A24699029304
:101BFB00109900FDE0990121048801020188004D34
:101C0B000588074D7A00000000008BFC00FC0000EB
:101C1B008BFC000000000000000000000080A714F7
:101C2B000081A7140082A7140083A7140084A712B5
:101C3B000085A7120086A7120087A7120080A83C78
:101C4B000081A83C0082A83C0083A83C0084A83FEC
:101C5B000085A83F0086A83F0087A83F0084A63CCC
:101C6B000085A63C0086A63C0087A63C0080A00011
:101C7B008081A0008082A0008083A0000084A0004F
:101C8B000085A0008086A0008087A00080844E2065
:101C9B0000854E2000864E2000874E200080613C40
:101CAB0020816134208261342083613C2084617CFB
:101CBB00208561342086613420876134209F009811
:101CCB000D9814E5082488F582E43401F583E005CA
:101CDB000822900185300803900188E475F0011209
:101CEB00233602230B2001E97F2ED2018018EF54FB
:101CFB000F2490D43440D4FF30050BEF24BFB41A1B
:101D0B000050032461FFE50960021509050CE50C81
:101D1B007002050B30080E900185E475F00112235B
:101D2B0036EF022324022B317403D2088003E4C262
:101D3B0008F50890018512234DE4F509F50BF50C18
:101D4B00E50960077F20121D1180F5750AFFC2029D
:101D5B00C201C203C204C206C207C209121CDDFFC4
:101D6B00700D3008057F00121D22AF0CAE0B22B494
:101D7B00255FC2D5C205121CDDFF24D0B40A00506A
:101D8B001A75F00A780930D50508B6FF0106C6A406
:101D9B0026F620D5047002D20480D924CFB41A00C1
:101DAB00EF5004C2E5D205021F23D20280C6D20136
:101DBB0080C0D20380BCD2D580BAD20680B47F203B
:101DCB00121D112003077401B5090040F1121CCE3E
:101DDB00FF121D11021D4BD209D2078095121CCE8A
:101DEB00FB121CCEFA121CCEF94A4B700679F47A10
:101DFB001F7BFF20032EE509602A7E008E827583F0
:101E0B000012212960060EEE650A70F0C2D5EBC0F8
:101E1B00E0EAC0E0E9C0E0EE121F6AD0E0F9D0E0E2
:101E2B00FAD0E0FB12230BFF60AAEBC0E0EAC0E0A4
:101E3B00E9C0E0121D11D0E02401F9D0E03400FA22
:101E4B00D0E0FBE50A0460DCD50AD980877BFF7AFA
:101E5B001F7966D203809C791080027908C207C271
:101E6B00098008D2D5790A8004790AC2D5E50A041B
:101E7B007002F50AE4FAFDFEFF121CCEFC7B082073
:101E8B000213121CCEFD7B1030010A121CCEFE1267
:101E9B001CCEFF7B20EC3382D592D55013C3E4309C
:101EAB0001069FFFE49EFEE42002039DFDE49CFCE3
:101EBB00E4CBF8C202EC700CCFCECDCCE824F8F812
:101ECB0070F38017C3EF33FFEE33FEED33FDEC33CE
:101EDB00FCEB33FB994002FB0FD8E9EB300205F822
:101EEB00D0E0C448B202C0E00AEC4D4E4F78207BE4
:101EFB000070C2EAB50A0040BCC0E0121F6CD0F003
:101F0B00D0E0200204C4C0E0C4B202C0F0121CFA3C
:101F1B00D0F0D5F0EB021D4B1223561DE8531E6279
:101F2B00581DB94C1DB5421E664F1E6E441E6E49A0
:101F3B001DCE431E74551E58461E58451E5847202D
:101F4B0014501DBD2D1DC12E1DE42B1DC5231DE2DF
:101F5B00201FFD2A1D7D4800001DDC3F3F3F0079FF
:101F6B000AA2D5200414300609B910020404B908DA
:101F7B000104A2D52007025001042003689203B587
:101F8B0009005034C0E07F203004197F30A2037267
:101F9B00077206500F121FC3C203C207C206C20943
:101FAB007F30800F300603E9C0E0121D11300603AD
:101FBB00D0E0F9D0E0B509CC3006177F30B9100C62
:101FCB00121D117F583005077F788003B908031263
:101FDB001D113003057F2D021D117F202009F87F75
:101FEB002B2007F322920380CF286E756C6C29008F
:101FFB00D202121CCE3002F8C202780930D5010889
:10200B00F6021D7D2D50434958121CCE2403B405F6
:10201B00004001E490200F93121D02743A121D022E
:10202B00D204750904021E62E709F608DFFA80463E
:10203B00E709F208DFFA803E88828C83E709F0A378
:10204B00DFFA8032E309F608DFFA8078E309F20859
:10205B00DFFA807088828C83E309F0A3DFFA806457
:10206B0089828A83E0A3F608DFFA805889828A8303
:10207B00E0A3F208DFFA804C80D280FA80C680D4CD
:10208B00806980F28033801080A680EA809A80A8D5
:10209B0080DA80E280CA803389828A83ECFAE49307
:1020AB00A3C8C582C8CCC583CCF0A3C8C582C8CC95
:1020BB00C583CCDFE9DEE7800D89828A83E493A3B5
:1020CB00F608DFF9ECFAA9F0EDFB2289828A83ECA2
:1020DB00FAE0A3C8C582C8CCC583CCF0A3C8C5821F
:1020EB00C8CCC583CCDFEADEE880DB89828A83E457
:1020FB0093A3F208DFF980CC88F0EF60010E4E60FD
:10210B00C388F0ED2402B4040050B9F582EB24022D
:10211B00B4040050AF232345822390208373BB016B
:10212B000CE58229F582E5833AF583E0225006E936
:10213B002582F8E622BBFE06E92582F8E222E5823B
:10214B0029F582E5833AF583E49322A3F8E0C5F001
:10215B0025F0F0E582158270021583E0C838F0E8AF
:10216B0022E88FF0A4CC8BF0A42CFCE98EF0A42CED
:10217B00FC8AF0EDA42CFCEA8EF0A4CDA8F08BF039
:10218B00A42DCC3825F0FDE98FF0A42CCD35F0FC37
:10219B00EB8EF0A4FEA9F0EB8FF0A4CFC5F02ECD03
:1021AB0039FEE43CFCEAA42DCE35F0FDE43CFC22E8
:1021BB0075F008758200EF2FFFEE33FECD33CDCCDB
:1021CB0033CCC58233C5829BED9AEC99E58298405E
:1021DB000CF582EE9BFEED9AFDEC99FC0FD5F0D63B
:1021EB00E4CEFBE4CDFAE4CCF9A88222B800C1B965
:1021FB000059BA002DEC8BF084CFCECDFCE5F0CBA3
:10220B00F97818EF2FFFEE33FEED33FDEC33FCEBDB
:10221B0033FB10D703994004EB99FB0FD8E5E4F996
:10222B00FA227818EF2FFFEE33FEED33FDEC33FC83
:10223B00C933C910D7059BE99A4007EC9BFCE99A77
:10224B00F90FD8E0E4C9FAE4CCFB2275F010EF2FBC
:10225B00FFEE33FEED33FDCC33CCC833C810D707BC
:10226B009BEC9AE899400AED9BFDEC9AFCE899F8F7
:10227B000FD5F0DAE4CDFBE4CCFAE4C8F922C3E4E1
:10228B009FFFE49EFEE49DFDE49CFC22EB9FF5F09A
:10229B00EA9E42F0E99D42F0E89C45F022E8600F8F
:1022AB00ECC313FCED13FDEE13FEEF13FFD8F1227D
:1022BB00E8600FEFC333FFEE33FEED33FDEC33FC81
:1022CB00D8F122ECF0A3EDF0A3EEF0A3EFF022A8EF
:1022DB00828583F0D083D0821222F11222F1122256
:1022EB00F11222F1E473E493A3C583C5F0C583C84F
:1022FB00C582C8F0A3C583C5F0C583C8C582C822F3
:10230B00BB010689828A83E0225002E722BBFE02D0
:10231B00E32289828A83E49322BB010689828A8322
:10232B00F0225002F722BBFE01F322F8E0FBA3A33D
:10233B00E0F925F0F0E582158270021583E0FA389A
:10234B00F022EBF0A3EAF0A3E9F022D083D082F8DD
:10235B00E4937012740193700DA3A393F87401931B
:10236B00F5828883E4737402936860EFA3A3A38060
:10237B00DFC10BC18C4101BF004101C700603201BD
:10238B00070000000000000000000000000000003B
:10239B000000000000000000000000000000000032
:1023AB000000000000000000000000000000000022
:1023BB0000000041010600410139166100000611C1
:1023CB0005060000000000000000000000000000F7
:1023DB0000000000000000000000000000000000F2
:1023EB0000000000000000000000000000000000E2
:1023FB0000000000000000000000000000000000D2
:10240B0000000000000000000000000000000000C1
:10241B0000000000000000000000000000000000B1
:10242B000000000000000000000000000038000069
:10243B000000000000000000000000000000001180
:10244B00002380007000000000000000000000006E
:10245B000001084649542000000000000000000065
:10246B000000001F00093A3130303239373131303A
:10247B00312020202020203120426807D000630229
:10248B0000000035323836323037353020202020EE
:10249B00202020313531303133202000000029003D
:1024AB000000000000000000000000000000000021
:1024BB0000000000000000000000000000000042CF
:1024CB0000000000410002004801AD0104080C109F
:1024DB001820304801B5030104000506070200C0AF
:1024EB00E0C0F0C083C082C0D075D000C000C00473
:1024FB00C006C007E5B9540F1460511470030225D0
:10250B008C24FE700302259724FA603324FE607638
:10251B001460732404707853B9F6900000E475F0DE
:10252B0001122156FE740625F0F58274003EF583E8
:10253B00E0F5BBC3900000E094014053E4800853E6
:10254B00B9F59000027401F0A3F08043E5B930E4D3
:10255B000553B9EF8026900000E475F00112215667
:10256B00FE740625F0F58274003EF583E0F5BBC3DF
:10257B00900000E094014004E4F0A3F053B9FE8016
:10258B000E53B9FD800953B9FB02262853B9FBE55D
:10259B00AB30E203022625900139E5BCF090000335
:1025AB00E0B401EB900139E0645060E3900002E08D
:1025BB00147035900139E0C39480401D900085E084
:1025CB0075F080A4FF900139E07C002FFEEC35F014
:1025DB00900000F0A3CEF08039900139E0FF90001D
:1025EB0000E4F0A3EFF0802A900139E0FF900000A7
:1025FB00E475F001122156FC740625F0F582740087
:10260B003CF583EFF0C3900000E094014004E4F04C
:10261B00A3F0900002E4F002259A53B9DFD007D063
:10262B0006D004D000D0D0D082D083D0F0D0E0320E
:10263B00C0E0C083C082C0D075D000C006C007C246
:10264B000030C2030226FCE5C054F02480606A24EB
:10265B00C0602624E060030226F89001C6E025E066
:10266B00F5C253C2FEA20DE43342C2C2C5900005AF
:10267B007401F0900004F0807A30C129200D749021
:10268B0001BDE0FF900004E0FED39F501274C12EF9
:10269B00F582E43401F583E0F5C29000048036D274
:1026AB00C4C20A804ED2C4D2C59001C1E004F070FE
:1026BB00429001C0E004F0803A900005E0FFC39423
:1026CB000274C750152FF582E43401F583E5C2F08F
:1026DB00D2C1900005E004F080192FF582E434019B
:1026EB00F583E5C2F0C20AC2C1D2C48006D2008013
:1026FB0002D20030002053C17F43C180C2C5C2C487
:10270B00C2C1C20AC200C2949001C1E004F07006BB
:10271B009001C0E004F0C2C0D007D006D0D0D08268
:10272B00D083D0E0329001471222CE900151E5A721
:10273B00F075A720900147E0C313FEA3E013FFE45D
:10274B00FCFD90014BE0F8A3E0F9A3E0FAA3E02F26
:10275B00FFEA3EFEED39FDEC38FC90014BA3A3A341
:10276B00E0FB1221F7900150EFF0E490014FF09055
:10277B00014FE0FFC39408400302281874AD2FF5F6
:10278B0082E43401F583E0FF900150E0FEEFC39E3D
:10279B004072E47F02FEFDFC90014BE0F8A3E0F9F0
:1027AB00A3E0FAA3E0FB12216CA804A905AA06ABCF
:1027BB000790014FE024ADF582E43401F583E0FF8F
:1027CB00E4FCFDFE12216CA804A905AA06AB079038
:1027DB000147E0FCA3E0FDA3E0FEA3E0FF1221F71D
:1027EB00C3E49FFFE49EF596EFF59590014FE0242F
:1027FB00B5F582E43401F583E044404294900151F5
:10280B00E0F5A72290014FE004F002277A80FE1238
:10281B002B019001421222DA0001C2007F207ED7E9
:10282B007D757C01122A2DC2B420922A75E340C219
:10283B0093E4FFFE0FBF00010EEFF44E70F6D29340
:10284B003093FDE4FEFF0FBF00010EEF640A4E70E4
:10285B00F5E4F5E380D3120003D294E490013AF04F
:10286B009001C0F0A3F0C2AF75A72053BAFE43ADE1
:10287B0044D2AF1228E49001C27498F0A37411F003
:10288B00A374ABF0A374CDF0A37410F01200769088
:10289B0001C67410F0E490013BF090013BE024C2C0
:1028AB00F582E43401F583E0FF90013BE024C8F5A9
:1028BB0082E43401F583E06F600E9001C1E004F017
:1028CB0070069001C0E004F090013BE004F0E0B42E
:1028DB0002C8B2947FF4022A9874FF90013EF0A3D1
:1028EB00F0E4900144F0A3F0A31222DA0000000000
:1028FB009001591222DA0000000090015D1222DAD9
:10290B0000000000786F7C017D017BFF7A1C79C889
:10291B007E007F061221039001751222DA0000005F
:10292B000090017BE4F0A304F0E490017FF0A3F0AE
:10293B0090014E74FFF0A37401F0A374D8F0E4FF80
:10294B00FE12003E90017FEEF0A3EFF07BFF7A00CA
:10295B00798E900188EEF0A3EFF0121D39122A6DDB
:10296B007F117E9812003E90017FEEF0A3EFF07B7B
:10297B00FF7A0079A0900188EEF0A3EFF0121D39D9
:10298B00E490017FF0A3F0122A6DB2947FFA122A21
:10299B009880F4120071787FE4F6D8FD75812102DE
:1029AB0029E802281AE493A3F8E493A34003F680E2
:1029BB0001F208DFF48029E493A3F85407240CC830
:1029CB00C333C4540F4420C8834004F456800146DB
:1029DB00F6DFE4800B010204081020408090237C7A
:1029EB00E47E019360BCA3FF543F30E509541FFE06
:1029FB00E493A360010ECF54C025E060A840B8E477
:102A0B0093A3FAE493A3F8E493A3C8C582C8CAC5F9
:102A1B0083CAF0A3C8C582C8CAC583CADFE9DEE78B
:102A2B0080BE900146E5A7F075A72043C812E4F5D8
:102A3B00DA43930CC004C005C006C007900142E006
:102A4B00FCA3E0FDA3E0FEA3E0FF90014B1222CE1E
:102A5B00D007D006D005D004122730900146E0F500
:102A6B00A7227DCD7CAB7F117E98AB07AA06900188
:102A7B00BD7404F09001C67410F0EA9001C2F0EF3F
:102A8B00A3F0ECA3F0EDA3F0120076D3225388CF82
:102A9B005389F0438901438E04EF6012C28C758C0D
:102AAB00A0758A4CC28DD28C308DFD1F80EBC28CF1
:102ABB0022AF885388AF758C38758A13758D347532
:102ACB008B34EF5440FEEF54104E42882275A71002
:102ADB00E59854045398FB75A33875A29E4398044C
:102AEB00429822E59154045391FB75933875929E4D
:102AFB0043910442912290013EE5A7F0122B829064
:102B0B00013EE0F5A72275A7207594437596FF75D6
:102B1B00959643C8102275A72053BAFD43BA027588
:102B2B00A71053987F32AEA775A72030C9FD8F929F
:102B3B00C2C98EA72253C17F43C18053917FC2C5A7
:102B4B00C20A32200AFDD20AD20DD2C5200AFD22BA
:102B5B00E4F5A7758E0175892043884022E4F5A71B
:102B6B0075E68175F30675A8802275BD5053BAFBC7
:102B7B0043BA1843BA0222E4F5A7F5A9E5A930E751
:102B8B00FB22E4F5A77597DE7597AD2275E34175CA
:0A2B9B00E1042253C1FC43C1DD2216
:00000001FF
