:020000040000FA
:1000000002089E85A70C120AA9120086120AB312D2
:100010000ABA1209E5120A30120A1A120076120AF6
:10002000C1120062120A7D120A70850CA722200AF2
:10003000FDD20AD20DD2C5200AFD220206B2538893
:10004000CF5389F0438901438E04EF6012C28C754F
:100050008CA0758A4CC28DD28C308DFD1F80EBC276
:100060008C2275A7207594437596FF75959643C8A5
:10007000102222020A62E4F5A7758E0175892043D9
:0A00800088402202059575D4FF2286
:10008B00020A43E51B240FF8E6051B22780C300807
:10009B0002780FE475F00112055F0205072001EBF2
:1000AB007F2ED2018018EF540F2490D43440D4FF0C
:1000BB0030050BEF24BFB41A0050032461FFE51C7D
:1000CB006002151C051FE51F7002051E30080D7818
:1000DB000CE475F00112055FEF02054D020A537433
:1000EB0003D2088003E4C208F51B8B0C8A0D890E22
:1000FB00E4F51CF51EF51FE51C60077F201200C9F7
:10010B0080F5751DFFC202C201C203C204C206C242
:10011B0007C209120097FF700D3008057F0012000F
:10012B00DAAF1FAE1E22B4255FC2D5C205120097EF
:10013B00FF24D0B40A00501A75F00A781C30D5058C
:10014B0008B6FF0106C6A426F620D5047002D20419
:10015B0080D924CFB41A00EF5004C2E5D2050202B5
:10016B00DAD20280C6D20180C0D20380BCD2D58045
:10017B00BAD20680B47F201200C92003077401B5E0
:10018B001C0040F112008EFF1200C9020102D209BD
:10019B00D207809512008EFB12008EFA12008EF998
:1001AB004A4B700679AB7A037BFF20032EE51C606C
:1001BB002A7E008E8275830012052060060EEE6586
:1001CB001D70F0C2D5EBC0E0EAC0E0E9C0E0EE1272
:1001DB000321D0E0F9D0E0FAD0E0FB120507FF6075
:1001EB00AAEBC0E0EAC0E0E9C0E01200C9D0E0240D
:1001FB0001F9D0E03400FAD0E0FBE51D0460DCD55A
:10020B001DD980877BFF7A03791DD203809C7910DF
:10021B0080027908C207C2098008D2D5790A800406
:10022B00790AC2D5E51D047002F51DE4FAFDFEFF47
:10023B0012008EFC7B0820021312008EFD7B103007
:10024B00010A12008EFE12008EFF7B20EC3382D54A
:10025B0092D55013C3E43001069FFFE49EFEE420C9
:10026B0002039DFDE49CFCE4CBF8C202EC700CCFC6
:10027B00CECDCCE824F8F870F38017C3EF33FFEE44
:10028B0033FEED33FDEC33FCEB33FB994002FB0FFC
:10029B00D8E9EB300205F8D0E0C448B202C0E00A5E
:1002AB00EC4D4E4F78207B0070C2EAB51D0040BC70
:1002BB00C0E0120323D0F0D0E0200204C4C0E0C49D
:1002CB00B202C0F01200B2D0F0D5F0EB0201021274
:1002DB00056F019F5302195801704C016C42021DAE
:1002EB004F022544022549018543022B55020F4637
:1002FB00020F45020F4703CB5001742D01782E01DD
:10030B009B2B017C2301992003B42A013448000064
:10031B0001933F3F3F00790AA2D520041430060910
:10032B00B910020404B9080104A2D5200702500138
:10033B00042003689203B51C005034C0E07F2030CA
:10034B0004197F30A20372077206500F12037AC290
:10035B0003C207C206C2097F30800F300603E9C013
:10036B00E01200C9300603D0E0F9D0E0B51CCC3068
:10037B0006177F30B9100C1200C97F583005077F64
:10038B00788003B908031200C93003057F2D0200E2
:10039B00C97F202009F87F2B2007F322920380CFFF
:1003AB00286E756C6C2900D20212008E3002F8C2D6
:1003BB0002781C30D50108F60201342D5043495800
:1003CB0012008E2403B405004001E49003C693127F
:1003DB0000BA743A1200BAD204751C04020219E86E
:1003EB008FF0A4CC8BF0A42CFCE98EF0A42CFC8A0F
:1003FB00F0EDA42CFCEA8EF0A4CDA8F08BF0A42D8C
:10040B00CC3825F0FDE98FF0A42CCD35F0FCEB8E2C
:10041B00F0A4FEA9F0EB8FF0A4CFC5F02ECD39FEE2
:10042B00E43CFCEAA42DCE35F0FDE43CFC2275F057
:10043B0008758200EF2FFFEE33FECD33CDCC33CCDE
:10044B00C58233C5829BED9AEC99E58298400CF5F9
:10045B0082EE9BFEED9AFDEC99FC0FD5F0D6E4CE27
:10046B00FBE4CDFAE4CCF9A88222B800C1B900595B
:10047B00BA002DEC8BF084CFCECDFCE5F0CBF97828
:10048B0018EF2FFFEE33FEED33FDEC33FCEB33FBBC
:10049B0010D703994004EB99FB0FD8E5E4F9FA2246
:1004AB007818EF2FFFEE33FEED33FDEC33FCC93341
:1004BB00C910D7059BE99A4007EC9BFCE99AF90F09
:1004CB00D8E0E4C9FAE4CCFB2275F010EF2FFFEE75
:1004DB0033FEED33FDCC33CCC833C810D7079BECC0
:1004EB009AE899400AED9BFDEC9AFCE899F80FD538
:1004FB00F0DAE4CDFBE4CCFAE4C8F922BB010689BF
:10050B00828A83E0225002E722BBFE02E322898229
:10051B008A83E49322BB010CE58229F582E5833AB9
:10052B00F583E0225006E92582F8E622BBFE06E9B8
:10053B002582F8E222E58229F582E5833AF583E408
:10054B009322BB010689828A83F0225002F722BBD9
:10055B00FE01F322FAE6FB0808E6F925F0F618E6A9
:10056B00CA3AF622D083D082F8E4937012740193C6
:10057B00700DA3A393F8740193F5828883E47374CD
:10058B0002936860EFA3A3A380DFC0E0C0D075D057
:10059B0000C006C007E4FFE5AB30E71F300C1CE5DD
:1005AB00AB20E6030206A9E5B930E40553B9EF80A9
:1005BB00EEAE3405348EBB053C80E4E5AB30E30F87
:1005CB00E5AB30E2030206A985BC33D20B80F1E523
:1005DB00B9540F14602514603024FE607A24FA603D
:1005EB001424FE602A146027240460030206A65319
:1005FB00B9F60206A653B9F50206A6E5B930E4032F
:10060B0053B9EF53B9FE0206A653B9FD0206A65322
:10061B00B9FBE5F55470C4540FFFE53CD39402408D
:10062B00010FEFD39400407643AD40EF9402401797
:10063B00E5349FF5BB04F5BBEF24FEFFC3E5349F08
:10064B00F534753C028057EF64017052C3E5349F5B
:10065B00F5BB753C01804753B9FBE5F55470C454A9
:10066B000FFFE53CD3940240010FEFD39400402BD6
:10067B0043AD40EF94024017E5349FF5BB04F5BB47
:10068B00EF24FEFFC3E5349FF534753C02800CBFAD
:10069B000109C3E5349FF5BB753C0153B9DFD007A6
:1006AB00D006D0D0D0E032C0E0C0D075D000C000B2
:1006BB00C20020C27BE5C054F02480604E24C06091
:1006CB001D24E07067E53B25E0F5C253C2FEA20D89
:1006DB00E43342C2C2C5754001753F01805430C13D
:1006EB001C200D4EE53FD39532500C7436253FF848
:1006FB00E6F5C2053F803BD2C4C20A8035D2C4D2D4
:10070B00C50536E536702B05358027E540C39402C9
:10071B00743C500B2540F8A6C2D2C105408013256E
:10072B0040F8A6C2C20AC2C1D2C48006D20080025F
:10073B00D20030001A53C17F43C180C2C5C2C4C2AC
:10074B00C1C20AC200C2940536E53670020535C235
:10075B00C0D000D0D0D0E0328F188E178D168C15EC
:10076B0085A71F75A720E515C313FEE51613FFEF2D
:10077B00251CFFEE351BFEE4351AFDE43519FCABE9
:10078B001CAA1BA91AA8191204758F1EE4F51D7457
:10079B0022251DF8E6C3951E4055E47F02FEFDFCA5
:1007AB00AB1CAA1BA91AA8191203EAC004A905AA13
:1007BB0006AB077422251DF8E6FFE4FCFDFED00016
:1007CB001203EAA804A905AA06AB07AF18AE17AD2A
:1007DB0016AC15120475C3E49FFFE49EF596EFF576
:1007EB0095742A251DF8E644404294851FA72205DF
:1007FB001DE51DB4089980FE120A9F751300751232
:10080B00C27511017510007F207ED77D757C01129A
:10081B000984C2B420922A75E340C293E4FFFE0F11
:10082B00BF00010EEFF44E70F6D2933093FDE4FE51
:10083B00FF0FBF00010EEF640A4E70F5E4F5E38085
:10084B00D3120003D294E4F508F535F536C2AF7533
:10085B00A72053BAFE43AD44D2AFE4FFFE1209A664
:10086B008E0A8F0B7DCD7CAB7F117E98120A01E532
:10087B000B644C7004E50A6420600F7BFF7A0979E6
:10088B002D850A0F850B101200F0B2947FF4120025
:10089B003E80C7120072787FE4F6D8FD7581400266
:1008AB0008E8020803E493A3F8E493A34003F6805B
:1008BB0001F208DFF48029E493A3F85407240CC851
:1008CB00C333C4540F4420C8834004F456800146FC
:1008DB00F6DFE4800B01020408102040809009C66B
:1008EB00E47E019360BCA3FF543F30E509541FFE27
:1008FB00E493A360010ECF54C025E060A840B8E498
:10090B0093A3FAE493A3F8E493A3C8C582C8CAC51A
:10091B0083CAF0A3C8C582C8CAC583CADFE9DEE7AC
:10092B0080BE534D42305F493243202020203D3D55
:10093B003D3D3D3D3D3D3D3D3D3D3D3D3D5265617B
:10094B00643D3D3D3D3D3D3D3D3D3D3D3D3D3D3DA5
:10095B003D3D3D20307830203D3D3D3D3D3D3D3DD5
:10096B003D3D3D3D4572726F722121212D3E307808
:10097B0025303258200D0A200085A71475A7204377
:10098B00C812E4F5DA43930C85131C85121B8511F1
:10099B001A8510191207638514A722AC067532024B
:1009AB00753B10ECF537EFF538120A95753B1012C5
:1009BB00002EE53DFEE53EFDEDFF22C10BC18C0196
:1009CB003400013C0008220104080C1018203008E8
:1009DB002A030104000506070200AF885388AF7590
:1009EB008C38758A13758D34758B34EF5440FEEF4C
:1009FB0054104E428822AA06753204753B10EAF554
:100A0B0037EFF538ECF539EDF53A120A95D3227537
:100A1B00A710E59854045398FB75A33875A29E4311
:100A2B009804429822E59154045391FB75933875C1
:100A3B00929E43910442912275A72053BAFD43BA6B
:100A4B000275A71053987F32AEA775A72030C9FD4A
:100A5B008F92C2C98EA72253C17F43C18053917F0E
:100A6B00C2C5C20A32E4F5A775E68175F30675A80F
:100A7B00802275BD5053BAFB43BA1843BA0222E425
:100A8B00F5A7F5A9E5A930E7FB22200AFDD20AC29A
:100A9B000DD2C52285A70C120A8A850CA722E4F574
:100AAB00A77597DE7597AD2275A51075D5032275C1
:0D0ABB00E34175E1042253C1FC43C1DD227B
:00000001FF
