:020000040000FA
:100000000233C1A2AF9201A9A7E4F5A7C2AF75FF61
:100010008075EF028F828E8375B7A575B7F1438F18
:100020000175FF8075EF02EDF0538FFEAF018FA7D2
:0A003000A20192AF2275D4FF222234
:10003B0002307FA2AF9201ADA7E4F5A7C2AF75FF67
:10004B008075EF028F828E8375B7A575B7F1438FDD
:10005B000375FF8075EF02F0538FFCAF058FA7A2DE
:04006B000192AF222D
:100073000238A4E4F5A7758E0175892043884022D0
:03008300022F51F8
:10008B00023885534D4230434600534D4230544362
:10009B0000534D4230434E3000534D423041445299
:1000AB0000534D423041444D00534D423044415476
:1000BB0000534D423046434E3000534D4230464381
:1000CB004E3100534D423052584C4E00534D42303E
:1000DB004643540050314D41534B0050314D415428
:1000EB000050310050314D44494E0050314D444F7A
:1000FB005554005031534B4950000D0A30B5D8D6EA
:10010B00B7D6B5CEAAA3BA3078253034780D0A000D
:10011B004C6F6164204669726D7761726520537410
:10012B006172742E2E2E2E2E2E004C6F6164204683
:10013B0069726D7761726520456E642E2E2E2E2EA0
:10014B002E004D4355205354415254204F4B2E2ECD
:10015B002E2E2E2E00C2ED0100C7F800000100016B
:10016B000000001A580100000000000FD000000F23
:10017B00D000000FD000000FD000000FD000000FF8
:10018B00D000000FD000000FD000000FD000000FE8
:10019B00D000000FD000000FD000000FD000000FD8
:1001AB00D000000000000000000000000000000074
:1001BB00000100050400000000000000000000002A
:1001CB000000000000000000000000000000000024
:1001DB00000100059C010006440100066C040000B0
:1001EB004001F4010000200004000201F4020000B1
:1001FB00020001FFFC00010006000A0006000500DA
:10020B0005003B001E0001000A000000000000007A
:10021B000001000003004B003201900506000000B6
:10022B000000000000000000981000A989100DCB01
:10023B00AB1000DCBC10065DCD0000065D000000BD
:10024B0076000000000000021000032F01000000E8
:10025B0000000103E80200018000200606001400E4
:10026B000000000000000000001820010000000149
:10027B0073A8211D589C21FFE0B8640082D40110A3
:10028B0004A8409805AC84FFFFD401B014E2C3105E
:10029B00009C400001A4840003E0421802D401A09A
:1002AB0010E2842000B8420008D4017008E29420C8
:1002BB00009DC00000D401900CD401C018D401489B
:1002CB001CD40108009E940004E04410009F000021
:1002DB000AAA4E000007C004E0A8760000E16BA05C
:1002EB0048186000008CB7003EA8632DF0A56B008A
:1002FB0007E16B18008C8B0000E5642800100000F0
:10030B0007A8770000E0A52002E572280010000086
:10031B000315000000AA4500008C63003FE5A418FC
:10032B000010000006E0841802E56E2000100000AB
:10033B000315000000A9C400009F18FFFFBC380084
:10034B000013FFFFE5150000009E52FFFFBC32FFBC
:10035B00FF0C000006A860980407C004D3A8820015
:10036B000003FFFFFB9E52FFFF9C4200049DCEFF4C
:10037B00FFBC2EFFFF0C000006A860980407C0040A
:10038B00CAA882000003FFFFFB9DCEFFFF85210063
:10039B001C842100008441000485C10008864100B3
:1003AB000C8681001086C100148701001844004898
:1003BB00009C2100209C21FFE8D4017008D4014847
:1003CB0014D4010800D4011004D401900CD401A062
:1003DB0010A9C30000946E0000BC2300000C0000A9
:1003EB0016A4430F00BC2208001000000E968E00CE
:1003FB00029E400000A443F0FFA880FFFFE0629044
:10040B0000A8B4000007C0049F9E520100BC320834
:10041B000013FFFFFBA880FFFF03FFFFEF9DCE0044
:10042B0004A880FFFF07C00497A8B4000003FFFFD8
:10043B00EA9DCE0004852100148421000084410034
:10044B000485C100088641000C86810010440048D9
:10045B00009C2100189CA000019C21FFF4E085204A
:10046B0008D4011004A8430000A8609811A8A400A8
:10047B0000D401480807C00483D4010800B46050BD
:10048B0001D40218089C600000DC02181A852100B8
:10049B00088421000084410004440048009C210092
:1004AB000CA4A400079C21FFF0B8A5000BD40110ED
:1004BB00049CC03800A84400009C80004ED40170FE
:1004CB0008D401480CA9C3000007C00783D4010856
:1004DB0000A4A20008A86E0000BC050000100000DC
:1004EB00039C8000DF9CA0002207C0077B9CC00000
:1004FB00E28521000C842100008441000485C100A9
:10050B0008440048009C2100109C21FFECD40110F2
:10051B0004D4017008D4014810D4010800D4019010
:10052B000CA84300008E4300148CA3000CA65200B1
:10053B0007E572280010000004A9C40000000000A9
:10054B00059CA5FFFFE5B22800100000039CA50049
:10055B0001D802280C8CA2000CA4A50007A86E00E1
:10056B0000B8A5000B9C80004E07C0075B9CC038F1
:10057B00008C62000CE42390001000001585210014
:10058B00108C82001407FFFFC7A86E0000A86E0036
:10059B00009CA002009CC03F8007C0074F9C8000BE
:1005AB0001A862000007FFFFACA88E0000B46050EA
:1005BB0001D40218089C60001EA88E0000D80218F7
:1005CB000E07FFFF2DA8620000852100108421007B
:1005DB00008441000485C100088641000C4400489A
:1005EB00009C2100149C21FFF0D401480CD401087D
:1005FB0000D4011004D401700899C3001ABC0E007A
:10060B00000C0000168521000CB440500184A3009F
:10061B0008E042280298B7001CB8420059E482282F
:10062B00001000000E8521000CA84300001860018B
:10063B000007C00806A8631A489C600001DC02187A
:10064B001A8C62000FBC030000100000048521000F
:10065B000CD802700E8521000C842100008441000F
:10066B000485C10008440048009C210010B86300B9
:10067B00849C21FFF4D4011004A443000FD401483F
:10068B0008BC02000210000013D4010800BC0200D9
:10069B000310000009BC0200000C00000A186001E6
:1006AB000007FFFF45A86318649C6000050000006D
:1006BB000FA88200001860010000000008A8631852
:1006CB00FC07C002F19C6000020000000B852100BA
:1006DB000818600100A86319A407FFFF3715000075
:1006EB00009C6000059C80000007C002EA1500001A
:1006FB000085210008842100008441000444004847
:10070B00009C21000C9C21FFF8A48300FFD401481E
:10071B0004BC04000010000006D401080007C0024E
:10072B00DA9C6000020000001F8521000407C00254
:10073B00D99C60000DA860981007C006C89C80006B
:10074B001A07C003C5A8609818B88B008CA56B005E
:10075B000FBC0B00001000000CAC64000DE0A018E7
:10076B0002E0651804BD83000010000008BC040003
:10077B00009C60000D07C002C79C800001000000B8
:10078B000985210004BC04000013FFFFEB150000DA
:10079B000007C002BD9C60000D03FFFFE8A8609836
:1007AB001084210000440048009C2100089C21FF7C
:1007BB00F8A89700009CA00042D401480407C0068B
:1007CB007CD40108008521000484210000440048EA
:1007DB00009C2100089C21FFF4D4011004A44300C9
:1007EB000FD4014808BC2200011000000CD40108F2
:1007FB000018800100A8609819A88400F807C003AE
:10080B008A948400009C60000F07C002A2A882009B
:10081B000000000006852100081860008907C0064B
:10082B004CA8636AAF852100088421000084410035
:10083B0004440048009C21000C9C21FFD41860014B
:10084B000018800100D401100418400100A8631A9D
:10085B0058A8841F98A84200F8D4014828D401084E
:10086B0000D4017008D401900CD401A010D401B0B5
:10087B0014D401C018D401D01CD401E02007C0034C
:10088B00C0D401F02407C003661500000094620079
:10089B0000BC230000100000071860010018800145
:1008AB0000A8630000040003BCA8841A58DC02589B
:1008BB00001AE00100AAF70074A860981407C0039F
:1008CB0066A840FFF0E42B1000100000061840CF84
:1008DB00FF07C0035A9C60000007BFFE8515000090
:1008EB0000A842FFFFC14010009C800000C14020C7
:1008FB0001186001009DC0FFFF07C00754A86317D4
:10090B002C9DCE0001A5CE0007B86E0003B84E009B
:10091B0006E043100018600100A8631D58E0421860
:10092B000007C0079FA86E0000B96B0088BDAB0025
:10093B001F100001CBBD4B0017A64B001FBD520073
:10094B000910000009BD92000BBD720008100000D9
:10095B00D8BC1200021000000C9C80FFFE000003AC
:10096B008A1500000010000388BDB2000C100001B6
:10097B0004BC1200181000016DA880820000000357
:10098B0082150000008C6200429EC00001E06320D3
:10099B0003E2D67008D802184207C0032FA860984C
:1009AB000FA8609816E16B704807C0032BA64B008D
:1009BB0001A8609811D8029010A89600009CA00086
:1009CB000007C00330AA8B00009062000EBC23000E
:1009DB00641000000CA474FFFFE0637088A4630034
:1009EB0001BC03000010000360A8960000A86098EB
:1009FB001607C003249CA000009C600000D80218BE
:100A0B000E07C007AAA86E0000A56B00FFBC120062
:100A1B00001000002CD802580F94B700249CC00083
:100A2B003FA4A5003FA86E000007C0062B9C8000CA
:100A3B007818600100A88E000007C00704A863188F
:100A4B002018600100A88E000007C00700A86317DC
:100A5B00EC9C800008A86E0000D802200E07C00690
:100A6B001A9C80004EB96B00128CA2000FB96B0060
:100A7B005DBC050000A86E00001000000CD80258E9
:100A8B000C9CA000009C80000107C006139CC0407A
:100A9B000094570018BC220000100000039CA0001B
:100AAB0002A8A20000A86E00009C8000DF9CC00082
:100ABB000207C00609150000000000006D949700A6
:100ACB0000BC0B0000100000319CC0003F94B7002D
:100ADB0024A4A5003FA86E00009C80007807C005E9
:100AEB00FEBA94001018600100A88E000007C00623
:100AFB00D7A863182018600100A88E000007C00655
:100B0B00D3A86317EC9C6000059C800008D80218E2
:100B1B000DBD74000010000006D802200E9C600072
:100B2B00079C800001D802180DD80220108CA2005F
:100B3B000DA4A50007A86E0000B8A5000B9C8000B3
:100B4B004E07C005E59CC038008C62000DD802181A
:100B5B000C94570018BC220000100000039CA0004E
:100B6B0002A8A20000A86E00009C8000DF07C00551
:100B7B00DA9CC00002A86E00009C8000019CA000C3
:100B8B000003FFFFCC9CC040008C62000E9C63FFF7
:100B9B00F6BC43000D1000003B18600100B4605020
:100BAB000184A20004E063280294B70010B863002C
:100BBB0050E485180010000032E0B770008CC200C2
:100BCB00139C660012B8630002E077180084630080
:100BDB0000B883005CD40218209C84001AB88400EF
:100BEB0002E097200084840000D8029012D40220E7
:100BFB0024A48300FFB8630004A4E4000FA48400C2
:100C0B0007B8630048D802200CD8023814D4021855
:100C1B002018600100DC029018DC029016D8053019
:100C2B002CA88E000007C00689A86317EC8CA200C5
:100C3B000C98970022E58520001000000915000094
:100C4B000094B70080A4A5007FA86E0000B8A50093
:100C5B00079C80000107C005A09CC03F808C8200D0
:100C6B001407FFFE10A86E00009497000007C00544
:100C7B00A3A86E0000000002C4150000001860015C
:100C8B0000A88E000007C00671A86317889C80001F
:100C9B001F9C600000D802201CD802201D9C8000E5
:100CAB0008D8021812000002B8D802200E8E82005B
:100CBB0012BC340000100000079C600010B46050A0
:100CCB0001D40218049C600009D802180E9C600025
:100CDB0010E283A088BC3400001000000315000054
:100CEB00009E800001A86E000007C005779C800065
:100CFB0074A56BFFFFBC4B0001100000039C600050
:100D0B00019C600000A46300FFBC230000100000E6
:100D1B00058C62001CBC3200091000000815000095
:100D2B0000D802181EBC43003E0C000005E283A055
:100D3B0000000000058CA2001CE283A002D802A0D8
:100D4B001C8CA2001CA86E00009CC0007F9C800025
:100D5B004A07C00561A4A5007FA86E00009C800017
:100D6B004907C0056A9CA00000A8808B8C07C005B2
:100D7B005FA86E000000000284150000008E820048
:100D8B00129C600010E283A088BC340000100000AD
:100D9B0003150000009E800001A86E000007C0052F
:100DAB004A9C800074A56BFFFFBC4B000110000038
:100DBB00048C62001D00000006E283A002BC43000D
:100DCB003E10000004D802181FE283A000D802A036
:100DDB001D8CA2001DA86E00009C80004CA4A500D9
:100DEB007F07C0053D9CC0007F8C620012BC430096
:100DFB0006100000109C800078A8A0FFFFA86E00D2
:100E0B000007C005429C800049A880888907C0055F
:100E1B0037A86E00008C6200129C630001BC32008C
:100E2B000C10000259D80218120000003B18600188
:100E3B000094B70024A86E0000A4A5003F9CC0003E
:100E4B003F07C005259E40000018600100A88E00DA
:100E5B000007C005FEA86318208C62001FE40390F6
:100E6B00001000000F9C80000007C001B18C6200D5
:100E7B001E8C62001F07C001AEAA4B0000A87200B7
:100E8B000007C00182A88B00009C80000707C002EE
:100E9B0056A86B00009E4BFF809C800000A86098BA
:100EAB001607C001EDD4022020A56B8000BC2B00DF
:100EBB0000100000139C600006BDB2004B10000038
:100ECB000EBDB200721000000C9D600001BDB2009F
:100EDB0087100000099D600002BDB200CB1000001E
:100EEB00069D600003BD5200FE100000039D6000D4
:100EFB00059D6000049C600005E0635802D8021851
:100F0B0013E0777000D80390409C60000AD8021859
:100F1B000E18600100A88E000007C005CCA863184E
:100F2B0048000002121860010007C004F0A86E0010
:100F3B00008C620042A8630001D802184207C0056A
:100F4B0065A86E0000A86E000007C0052FAA4B0015
:100F5B00009477001AE48B1800100000059E5200D5
:100F6B0010BCB200201000000915000000A86E0094
:100F7B00009C8000509CA0080007C004D79CC00FA9
:100F8B00FF00000201150000008C620010BC030082
:100F9B00001000002E150000009497000207C004FB
:100FAB00D7A86E0000A8A0E000A8C0F000A86E00B3
:100FBB000007C004C99C80003B8C620010BC03007E
:100FCB00001000000D150000008C62000FBC230008
:100FDB0000100000189C60001A8C82000C9877009F
:100FEB001EE564180010000004A86E000007C00581
:100FFB00F59C8000078C62000FBC230000100000E2
:10100B000D9C60001A8C82000C98770020E5641808
:10101B0000100000069CA00022A86E00009C80001F
:10102B00DF07C004AD9CC000E2000000099C8000FB
:10103B001DA88E0000D802180E07FFFC8FA86200B7
:10104B000000000004150000009C800010D8022056
:10105B000EB4605001000001CCD40218000C00014A
:10106B00C3186001009E4E00809EC00003BA520060
:10107B00089F9200139E52002A07C00177A87C009C
:10108B0000A872000007C00174ABCB00009C80006D
:10109B000DA86E000007C0048CAB0B0000A86E00FF
:1010AB000007C00501AA8B0000A87C0000AB4B0019
:1010BB000007C00169A7DE000FA56B000FE55E58A6
:1010CB0000100000039C8000019C800000A48400A1
:1010DB00FFBC24000010000014BC0B000F1000001C
:1010EB00139ED6FFFFB6C050018C62000E9C63FFAF
:1010FB00F086420000A46300FFE2569002BC43005E
:10110B002110000199BA52005018800100B86300F9
:10111B0002A88416A4E06320008463000044001836
:10112B0000150000009ED6FFFFBC36000013FFFF2A
:10113B00D31500000003FFFFEC15000000947700AF
:10114B0026E49218001000018918600100949700A2
:10115B000207C0046AA86E0000A86E00009C800005
:10116B00089CA0008007C0045C9CC000F08C62004F
:10117B000FBC0300000C00017AD402B00000000188
:10118B002D9C80001294970028E4922000100001FF
:10119B0077186001009497003C94C20018E09820E7
:1011AB0000E5843000100000081500000094770063
:1011BB0026E49218000C00000518600100000001E5
:1011CB006B150000009F00000084620024D402B065
:1011DB0000A483000FB8630044BC24000F0C000074
:1011EB0014D40218249C640014A4B8FFFFE0631805
:1011FB0000E0E22000E0621800DC0328008C6200B3
:10120B0014D807D030D80718348CE20012E5A43874
:10121B000010000003E5B83000D8022012100000C7
:10122B000415000000DC022818DC0218168482006A
:10123B0020BC04000010000013BC3800001000009C
:10124B0009150000008CA2001494620016A4A500DE
:10125B0007A4630007E54518001000000A150000FD
:10126B0000A484000FA86E000007FFFC8ED802209C
:10127B001484620020B86300440000013BD40218C0
:10128B002095A2002890E200308C8200129D020073
:10129B002A9CA20031A8CD00009DE000009C6000BC
:1012AB0001E5A320000C000013A99700009588000E
:1012BB0000E5AC30001000000B150000009165003C
:1012CB0000BD8B000010000004E54B38001000003F
:1012DB000515000000A8EB0000A9E30000A8CC0056
:1012EB00009C6300019D08000203FFFFEE9CA5001C
:1012FB00019CA200289D0200309C600000E4237832
:10130B00000C000013BC24000396250000956C0014
:10131B0038E1715800E58B30001000000815000013
:10132B000091680000BD8B000010000008E5AB3891
:10133B000010000007BC2400039C6300019CA50067
:10134B000203FFFFEF9D080001BC24000310000007
:10135B001A1500000015000000BC2300001000004F
:10136B0016150000009482002EE0846802B8A400D9
:10137B009FE0852005E084280294AC003AE56428C0
:10138B00001000000D1500000090820031BD84009C
:10139B0000100000081500000090820032BD6400B0
:1013AB00001000000515000000000000039C600009
:1013BB00029C600001E06218008C8200148C6300B8
:1013CB0034A4840007D80218149C600019D802209A
:1013DB000C00000007D802180E9477002AE492182C
:1013EB0000100000E115000000D402B000A862005C
:1013FB000007FFFC46A88E0000000000DC1860010F
:10140B0000A862000007FFFC78A88E00008C620029
:10141B000FBC230000100000D5186001009E400196
:10142B0000A860980F07C0008CE2527008E24B9046
:10143B0003BC320000100000CC9C800001A86E00A1
:10144B0000A8B2000007C003A49CC040009C600031
:10145B0001DC029016D8021815DC02901894970044
:10146B0036E06320089C80001FD402B000D802181D
:10147B0011000000BDD802200EA862000007FFFC7F
:10148B005AA88E000007C00074A860980F9C6001DA
:10149B0000E0637008E16B1803BC2B000010000028
:1014AB00B318600100A86E000007C003879C800082
:1014BB0009A56B8000BC2B0000100000AC1860016C
:1014CB000094770034E4921800100000A818600113
:1014DB00008E420011946200169E52FFFFE3181813
:1014EB0000A65200FFD402B000DC02C016BC3200D2
:1014FB00001000009DD8029011A86E000007C003D9
:10150B00729C800080A86E00009C80000107C003C5
:10151B006EAACB00009462001694820018E4641843
:10152B0000100000041500000000000007DC02188A
:10153B00188C6200159C63FFFFDC029018B86300E7
:10154B005FD802181590820015BC04000010000033
:10155B0009A474007FB8B60010B8A50059E583281C
:10156B00000C00000A15000000000000099CA300FD
:10157B0001B8AB0012B8A50059E54328000C0000D8
:10158B0004A4A5FFFF9CA3FFFFA4A5FFFFA86E006B
:10159B00009C80005F07C003509CC0007F9CA01084
:1015AB0000A86E00009C80000A07C0034BA8C50072
:1015BB0000949700369C600001E0632008D8021865
:1015CB00119C60000000000068DC02181694770084
:1015DB0006E4B218001000006415000000A86200B9
:1015EB000007FFFB25A88E00009C80001CD402B0D6
:1015FB0000D802200EA862000007FFFB97A88E0000
:10160B00000000005A1860010094770004E4B2183F
:10161B00001000005515000000000000529C6000F7
:10162B001B9477000EE4B218001000004F9C800052
:10163B001B0000004DD802200EA862000007FFFB24
:10164B0086A88E0000000000479C60001B9477006A
:10165B0008E4921800100000449C8000319C60004C
:10166B0000D802200EDC02181A9C6000019497002F
:10167B000AE0632008D80218119477000CE4921842
:10168B00001000003A186001009462001AE35A1827
:10169B00008C820011BB5A00109C84FFFFD402B057
:1016AB0000BB5A0090A48400FFDC02D01ABC2400BB
:1016BB00001000002DD802201194F7000A98770033
:1016CB0014E0633808E5BA18001000000B8C6200B8
:1016DB000CBC030000100000169E4000018CA20001
:1016EB000DE4851800100000129C63FFFF00000042
:1016FB000FD802180C98B70016E0A53808E57A2821
:10170B00001000000B9E400001BC430005100000C0
:10171B0008150000008CA2000DE445180010000015
:10172B0004E0639000D802180CAA4400008C8200DD
:10173B000C07C00312A86E0000BC120000100000C2
:10174B00089C80001AA8620000D802200E07FFFA3E
:10175B00CAA88E000000000005186001009C600004
:10176B0030D802180E1860010007C0025AA8630097
:10177B0038A860981007C002B99C80001A03FFFCC0
:10178B00629DCE000107C004DCA86E000003FFFFC2
:10179B00F718600100A96BFFFF19000100A90816DB
:1017AB0084E4032000100000109CA0000494C300EC
:1017BB0000E16B3005B8CB004CB96B0004E0C630D0
:1017CB00009CA5FFFFE0C64000BC25000094C600AE
:1017DB0000E166580513FFFFF8A56BFFFF03FFFF42
:1017EB00F19C6300024400480015000000000080DB
:1017FB0005800F000A801B001E001480118033002F
:10180B0036003C80390028802D8027002201000FF4
:10181B00D4010015FC0100101C010015FC01001582
:10182B00FC010015FC010015FC010015FC01001565
:10183B00FC01001270010014D00100129801001479
:10184B00A001001464010014B8010013100100156D
:10185B00FC010015FC010015FC010015FC01001535
:10186B00FC010015FC010015FC010015FC01001525
:10187B00FC010015FC010015FC010015FC01001515
:10188B00FC010015FC010015FC010015FC01001406
:10189B00E4010015109810FFFF0000800B9F9F8242
:1018AB0000810B9F9F8200820B9F9F8200830B9F67
:1018BB009F82009814FFFF5B5B980C200020009820
:1018CB000FFFFF00F09900FFFFFDE09901FFFF21E3
:1018DB00049902FFFF93109903FFFF4A66981EFFBE
:1018EB00FF85389826FFFF95799827FFFF000000AA
:1018FB000000F203F002E000DF00E2000000F9005C
:10190B007E004C00F803800000003BF0000000005C
:10191B0078003F0024000B9F9F8889006500E00042
:10192B00000048FFFFFFFF0049FFFFFFFF004A0FCA
:10193B00FF071F004BFFFFFFFF004C1FFF0E9F0019
:10194B004D80008000004E38003800004FF000F052
:10195B00000000000000500FFF0040003BF00000B3
:10196B0000004D80008000000800F0008000014066
:10197B00004000000A10000000006500E0000000BD
:10198B000B9F9F8298000000000048FFFF00800023
:10199B0049FFFF0002004C1FFF1115004BFFFF001A
:1019AB0080004A0FFF08BD000B9F9F8200000000C4
:1019BB0000008108000800000C80000000000C8073
:1019CB000080000081080000000000000088834EAA
:1019DB00058882D8008875C6FF6002800088FC529B
:1019EB0036780000008850504088A30020854E00B8
:1019FB0000887641828877516688781CBB84760094
:101A0B0084857600848676008487760084847718B4
:101A1B008285771882867718828777188284788CEC
:101A2B003885788C3886788C3887788C38844E005B
:101A3B0000874E0000864E000060328000601280EE
:101A4B0000886300808864808088085ABB880329DB
:101A5B003388024006602280008806A1008805AE0C
:101A6B00820000000088DF0066888130008887CD07
:101A7B007A8886CD7A88854D7A88848D7A88FC53CE
:101A8B006688884D7A88FE80AE88FDB64488FFFD57
:101A9B00C078080C00731AFF00711AFF00721AFF4E
:101AAB0000701AFF0078093A908879886C824E385A
:101ABB0000814E3800834E3800804E3800884D80B0
:101ACB00007806125488EFB6A088FB773678190099
:101ADB0005781681C088F98B5A88F8B7780007000B
:101AEB002088F1B00088F067B488F561E088F7A230
:101AFB0046990293109900FDE09901210488010297
:101B0B000188004D0588074D7A0000000088DF0032
:101B1B0066888130008887CD7A8886CD7A88854D16
:101B2B007A88848D7A7806125488FB773688FEA5DE
:101B3B00A888FD364488FFFDC078080C00731AFF97
:101B4B0000711AFF00701AFF00721AFF0078093A31
:101B5B00908879886C814E3800834E3800824E38DD
:101B6B0000804E3800884D800088EFB6A088884DE5
:101B7B007A78190005781681C088F98BDA88F8B75E
:101B8B00780007002A88F1B00088F067B488F56107
:101B9B00E088F7A246990293109900FDE099012184
:101BAB00048801020188004D0588074D7A0000006A
:101BBB0000008BFC00FC00008BFC00000000000010
:101BCB00000000000080A7140081A7140082A71456
:101BDB000083A7140084A7120085A7120086A71202
:101BEB000087A7120080A83C0081A83C0082A83C7B
:101BFB000083A83C0084A83F0085A83F0086A83F2F
:101C0B000087A83F0084A63C0085A63C0086A63C26
:101C1B000087A63C0080A0008081A0008082A000ED
:101C2B008083A0000084A0000085A0008086A00017
:101C3B008087A00080844E2000854E2000864E2099
:101C4B0000874E200080613C20816134208261340A
:101C5B002083613C2084617C208561342086613443
:101C6B00208761342000000000000000000000000D
:101C7B000000000000000000000000000000000059
:101C8B000000000000000000000000000000000049
:101C9B000000000000000000000000000000000039
:101CAB000000000000000000000000000000000029
:101CBB000000000000000000000000000000000019
:101CCB000000000000000000000000000000000009
:101CDB0000000000000000000000000000000000F9
:101CEB0000000000000000000000000000000000E9
:101CFB0000000000000000000000000000000000D9
:101D0B0000000000000000000000000000000000C8
:101D1B0000000000000000000000000000000000B8
:101D2B0000000000000000000000000000000000A8
:101D3B000000000000000000000000000000000098
:101D4B000000000000000000000000000000000088
:101D5B000000000000000000000000000000000078
:101D6B000000000000000000000000000000000068
:101D7B000000000000000000000000000000000058
:101D8B000000000000000000000000000000000048
:101D9B000000000000000000000000000000000038
:101DAB000000000000000000000000000000000028
:101DBB000000000000000000000000000000000018
:101DCB000000000000000000000000000000000008
:101DDB0000000000000000000000000000000000F8
:101DEB0000000000000000000000000000000000E8
:101DFB0000000000000000000000000000000000D8
:101E0B0000000000000000000041424344454647EB
:101E1B000048494A000000000000000041424344D2
:101E2B00454647009F00980D981474FF900211F0DF
:101E3B00A3F0E4900217F0A3F0A3122819000000FE
:101E4B00009002281228190000000090022C122882
:101E5B001900000000783E7C027D017BFF7A1E7921
:101E6B002F7E007F061226179002441228190000BD
:101E7B00000090024AE4F0A304F0E490024EF0A3B9
:101E8B00F07BFF7A017960900221EBF0A3EAF0A3DB
:101E9B00E9F0240C12332E90021D12280D90022112
:101EAB00E0FBA3E0FAA3E0240812332E90022412E5
:101EBB00280D900221E0FBA3E0FAA3E024101233DB
:101ECB002E900230E4F0A3740AF0A312280D9002B6
:101EDB003612281900000000E47B18FAF9F890027A
:101EEB001DE0FCA3E0FDA3E0FEA3E0FF122736EF0D
:101EFB002401FFE43E900250F0A3EFF090023CE48B
:101F0B00F0A37480F0900228E0F8A3E0F9A3E0FAC4
:101F1B00A3E0FB90023CE0FEA3E02400F5827400FA
:101F2B003EF583E0FFE4FCFDFEEB2FFFEE3AFEED0A
:101F3B0039FDEC38FC90022812280D90023DE0048C
:101F4B00F0700690023CE004F090023CE07004A3B9
:101F5B00E064BF70B090023CE4F0A374C0F0900258
:101F6B002CE0F8A3E0F9A3E0FAA3E0FB90023CE03D
:101F7B00FEA3E02400F58274003EF583E0FFE4FC51
:101F8B00FDFEEB2FFFEE3AFEED39FDEC38FC900237
:101F9B002C12280D90023DE004F0700690023CE0FC
:101FAB0004F090023CE07004A3E064DF70B0900298
:101FBB0028A3A3A3E0FF9000BFEFF090022CA3A3F4
:101FCB00A3E0FF9000DFEFF0D20E7D887C08123784
:101FDB00A81237A5C20E7FF41237D1E4FFFE1236DA
:101FEB006690024EEEF0A3EFF0644C7003EE6420AB
:101FFB0060187BFF7A01790590024EE0FFA3E09019
:10200B000257CFF0A3EFF01229E4E490024EF0A3B5
:10201B00F07BFF7A01791B1229E4E490023AF0A3DA
:10202B00F0900250E0FEA3E0FFC390023BE09FEE76
:10203B006480F890023AE064809840030222919009
:10204B0002361228190000800C90023FE0240CFF8E
:10205B0090023EE03400FEC006C007900232E0FC66
:10206B00A3E0FDA3E0FEA3E0FF78101227E7AD0786
:10207B00AC06D007D0061237AC90023FE0240DFF20
:10208B0090023EE03400FEC006C007900232A3A3CC
:10209B00E0FEA3E0FFAD07AC06D007D0061237ACCD
:1020AB00900236E0F8A3E0F9A3E0FAA3E0FBC0004E
:1020BB00C001C002C003900232A3A3E0FEA3E0FF65
:1020CB00E4FDFCAB07AA06F9C004C005C006C007B7
:1020DB00900232E0FCA3E0FDA3A3E078101227E707
:1020EB00D003D002D001D000EF2BFFEE3AFEED393A
:1020FB00FDEC38FCD003D002D001D000EB2FFFEA6F
:10210B003EFEE93DFDE83CFCA312280DE490023CA9
:10211B00F0A3F0900231E025E0FF900230E033FEB7
:10212B00900221E0FBA3E0FAA3E02FF9EA3EFA12BA
:10213B0034CC90024CEEF0FCA3EFF0FD90023CE0AF
:10214B00FEA3E0FF90023FE02FFF90023EE03EFE39
:10215B001237AC900236E0F8A3E0F9A3E0FAA3E063
:10216B00FB90024CE0FEA3E0FFE4FCFDEB2FFFEA4B
:10217B003EFEED39FDEC38FC90023612280D900234
:10218B0031E004F07006900230E004F0900232E08F
:10219B00FCA3E0FDA3E0FEA3E02402FFE43EFEE48B
:1021AB003DFDE43CFC90023212280D90023DE00410
:1021BB00F0700690023CE004F0C390023DE0940CFA
:1021CB0090023CE064809480500302211E90023FF9
:1021DB00E0240EFF90023EE03400FEC006C00790E4
:1021EB000236E0FCA3E0FDA3E0FEA3E0FF1227C84C
:1021FB00AD07AC06D007D0061237AC90023FE024F7
:10220B000E12365E90023FE0240FFF90023EE03448
:10221B0000FE7D0C7C801237AC9002441228190012
:10222B00000000802B900248E0B48031A3E0B40C96
:10223B002C900244E0FCA3E0FDA3E0FEA3E024010C
:10224B00FFE43EFEE43DFDE43CFC90024412280D0D
:10225B00123658900248EEF0A3EFF080C890024877
:10226B00E07002A3E0600E90024FE004F070069065
:10227B00024EE004F090023BE004F0700690023A4C
:10228B00E004F002202C90023FE0240CFF90023E71
:10229B00E03400FEC006C007900224E0FCA3E0FD82
:1022AB00A3E0FEA3E0FF78101227E7AD07AC06D042
:1022BB0007D0061237AC90023FE0240DFF90023E90
:1022CB00E03400FEC006C007900224A3A3E0FEA3E7
:1022DB00E0FFAD07AC06D007D0061237AC90022456
:1022EB00A3A3E0FEA3E0FFE4FDFCAB07AA06F9C045
:1022FB0004C005C006C007900224E0FCA3E0FDA3C8
:10230B00A3E078101227E7D003D002D001D000EF62
:10231B002BFFEE3AFEED39FDEC38FCE42FFFEE34EB
:10232B0040FEE43DFDE43CFC90023612280D900289
:10233B003FE0240EFF90023EE03400FEC006C007D3
:10234B00900236E0FCA3E0FDA3E0FEA3E0FF122722
:10235B00C8AD07AC06D007D0061237AC90023FE0F1
:10236B00240FFF90023EE03400FE7D007C401237CC
:10237B00AC90024AE07002A3E06044900244122841
:10238B001900000000802B900248E0B44031A3E01C
:10239B00B4002C900244E0FCA3E0FDA3E0FEA3E01C
:1023AB002401FFE43EFEE43DFDE43CFC90024412BC
:1023BB00280D123658900248EEF0A3EFF080C8E4D7
:1023CB0090023CF0A3F0E490023AF0A3F090023BB1
:1023DB00E004F0700690023AE004F090023AE0B4A8
:1023EB0004EBA3E0B400E690023DE004F07006902D
:1023FB00023CE004F090023CE0B404CAA3E0B40059
:10240B00C57F147E98123666900248EEF0A3EFF06B
:10241B007D007C507F187E981237AC80119002485B
:10242B00E064057002A3E060167F961237D17F1827
:10243B007E98123666900248EEF0A3EFF080DE7DB8
:10244B00207C507F187E981237AC8011900248E0A8
:10245B0064057002A3E060167F2C1237D17F187EC3
:10246B0098123666900248EEF0A3EFF080DE7BFF09
:10247B007A0179351229E4900252E4F0A37428F022
:10248B00E490023CF0A3F0900252E0FEA3E0FF9038
:10249B00023CE0FCA3E0FDC39FEE6480F8EC64809B
:1024AB00985074EDAE047802C333CE33CED8F9FD19
:1024BB00AC0624D0F582741B3CF583E493FE74D1F7
:1024CB002DF582741B3CF583E493FDEDFFC006C034
:1024DB000790023CE0FEA3E07802C333CE33CED8A4
:1024EB00F9FDAC0624D2F582741B3CF583E493FE14
:1024FB0074D32DF582741B3CF583E493FDEEFCD075
:10250B0007D0061237AC90023DE004F07006900243
:10251B003CE004F00224927FF41237D17D777C07E4
:10252B001237A81237A57FF41237D11238117BFF5F
:10253B007A01794D1229E412383D80FEE709F6083D
:10254B00DFFA8046E709F208DFFA803E88828C8347
:10255B00E709F0A3DFFA8032E309F608DFFA8078A7
:10256B00E309F208DFFA807088828C83E309F0A319
:10257B00DFFA806489828A83E0A3F608DFFA805849
:10258B0089828A83E0A3F208DFFA804C80D280FA3A
:10259B0080C680D4806980F28033801080A680EA68
:1025AB00809A80A880DA80E280CA803389828A830D
:1025BB00ECFAE493A3C8C582C8CCC583CCF0A3C8FE
:1025CB00C582C8CCC583CCDFE9DEE7800D89828A62
:1025DB0083E493A3F608DFF9ECFAA9F0EDFB22896B
:1025EB00828A83ECFAE0A3C8C582C8CCC583CCF041
:1025FB00A3C8C582C8CCC583CCDFEADEE880DB8903
:10260B00828A83E493A3F208DFF980CC88F0EF6031
:10261B00010E4E60C388F0ED2402B4040050B9F5EE
:10262B0082EB2402B4040050AF2323458223902570
:10263B009773BB010689828A83E0225002E722BB93
:10264B00FE02E32289828A83E49322BB010CE5829A
:10265B0029F582E5833AF583E0225006E92582F8D5
:10266B00E622BBFE06E92582F8E222E58229F58205
:10267B00E5833AF583E49322BB010689828A83F0D2
:10268B00225002F722BBFE01F322A3F8E0C5F0258E
:10269B00F0F0E582158270021583E0C838F0E8226D
:1026AB00E88FF0A4CC8BF0A42CFCE98EF0A42CFCCE
:1026BB008AF0EDA42CFCEA8EF0A4CDA8F08BF0A44C
:1026CB002DCC3825F0FDE98FF0A42CCD35F0FCEBAB
:1026DB008EF0A4FEA9F0EB8FF0A4CFC5F02ECD3970
:1026EB00FEE43CFCEAA42DCE35F0FDE43CFC227567
:1026FB00F008758200EF2FFFEE33FECD33CDCC33D8
:10270B00CCC58233C5829BED9AEC99E58298400C3F
:10271B00F582EE9BFEED9AFDEC99FC0FD5F0D6E41D
:10272B00CEFBE4CDFAE4CCF9A88222B800C1B90003
:10273B0059BA002DEC8BF084CFCECDFCE5F0CBF964
:10274B007818EF2FFFEE33FEED33FDEC33FCEB335C
:10275B00FB10D703994004EB99FB0FD8E5E4F9FA8A
:10276B00227818EF2FFFEE33FEED33FDEC33FCC96F
:10277B0033C910D7059BE99A4007EC9BFCE99AF902
:10278B000FD8E0E4C9FAE4CCFB2275F010EF2FFF71
:10279B00EE33FEED33FDCC33CCC833C810D7079BDB
:1027AB00EC9AE899400AED9BFDEC9AFCE899F80F3E
:1027BB00D5F0DAE4CDFBE4CCFAE4C8F922C3E49F0C
:1027CB00FFE49EFEE49DFDE49CFC22EB9FF5F0EA0A
:1027DB009E42F0E99D42F0E89C45F022E8600FEC48
:1027EB00C313FCED13FDEE13FEEF13FFD8F122E83C
:1027FB00600FEFC333FFEE33FEED33FDEC33FCD84C
:10280B00F122ECF0A3EDF0A3EEF0A3EFF022A882FF
:10281B008583F0D083D082122830122830122830D2
:10282B00122830E473E493A3C583C5F0C583C8C5F0
:10283B0082C8F0A3C583C5F0C583C8C582C822E78B
:10284B0009F60870FA8046E709F20870FA803E88AC
:10285B00828C83E709F0A370FA807EE309F6087097
:10286B00FA8076E309F20870FA806E88828C83E333
:10287B0009F0A370FA806289828A83E0A3F608705C
:10288B00FA805689828A83E0A3F20870FA804A8024
:10289B00D280FA80C680D4806580F280318010802F
:1028AB00A680EA809A80A880DA80E280CA8031898B
:1028BB00828A83ECFAE493A3C8C582C8CCC583CCC7
:1028CB00F0A3C8C582C8CCC583CC70E9800D8982C2
:1028DB008A83E493A3F60870F9ECFAA9F0EDFB22D6
:1028EB0089828A83ECFAE0A3C8C582C8CCC583CCA5
:1028FB00F0A3C8C582C8CCC583CC70EA80DD8982C1
:10290B008A83E493A3F20870F980CE88F0ED240259
:10291B00B4040050C4F582EB2402B4040050BA2373
:10292B002345822390289A73F8E0FBA3A3E0F925B3
:10293B00F0F0E582158270021583E0FA38F022EB95
:10294B00F0A3EAF0A3E9F022D083D082F8E49370ED
:10295B0012740193700DA3A393F8740193F58288FD
:10296B0083E4737402936860EFA3A3A380DFE5088D
:10297B002457F582E43402F583E0050822900254D3
:10298B00300803900257E475F00112293302263DFB
:10299B002001E97F2ED2018018EF540F2490D434FC
:1029AB0040D4FF30050BEF24BFB41A005003246151
:1029BB00FFE50960021509050CE50C7002050B30EB
:1029CB00080E900254E475F001122933EF022683AE
:1029DB000238957403D2088003E4C208F50890020C
:1029EB005412294AE4F509F50BF50CE50960077F4C
:1029FB00201229BC80F5750AFFC202C201C203C2B4
:102A0B0004C206C207C209122988FF700D300805DF
:102A1B007F001229CDAF0CAE0B22B4255FC2D5C2FD
:102A2B0005122988FF24D0B40A00501A75F00A78D1
:102A3B000930D50508B6FF0106C6A426F620D50435
:102A4B007002D20480D924CFB41A00EF5004C2E52F
:102A5B00D205022BCED20280C6D20180C0D2038017
:102A6B00BCD2D580BAD20680B47F201229BC2003F9
:102A7B00077401B5090040F1122979FF1229BC0234
:102A8B0029F6D209D2078095122979FB122979FAF6
:102A9B00122979F94A4B7006799F7A2C7BFF200318
:102AAB002EE509602A7E008E827583001226566001
:102ABB00060EEE650A70F0C2D5EBC0E0EAC0E0E9A5
:102ACB00C0E0EE122C15D0E0F9D0E0FAD0E0FB120A
:102ADB00263DFF60AAEBC0E0EAC0E0E9C0E01229A6
:102AEB00BCD0E02401F9D0E03400FAD0E0FBE50AD9
:102AFB000460DCD50AD980877BFF7A2C7911D2034D
:102B0B00809C791080027908C207C2098008D2D54F
:102B1B00790A8004790AC2D5E50A047002F50AE441
:102B2B00FAFDFEFF122979FC7B082002131229798A
:102B3B00FD7B1030010A122979FE122979FF7B20C7
:102B4B00EC3382D592D55013C3E43001069FFFE4DA
:102B5B009EFEE42002039DFDE49CFCE4CBF8C20244
:102B6B00EC700CCFCECDCCE824F8F870F38017C303
:102B7B00EF33FFEE33FEED33FDEC33FCEB33FB9920
:102B8B004002FB0FD8E9EB300205F8D0E0C448B2A5
:102B9B0002C0E00AEC4D4E4F78207B0070C2EAB5C4
:102BAB000A0040BCC0E0122C17D0F0D0E020020489
:102BBB00C4C0E0C4B202C0F01229A5D0F0D5F0EB2E
:102BCB000229F61229532A93532B0D582A644C2AA7
:102BDB0060422B114F2B19442B19492A79432B1F78
:102BEB00552B03462B03452B03472CBF502A682D2F
:102BFB002A6C2E2A8F2B2A70232A8D202CA82A2A66
:102C0B00284800002A873F3F3F00790AA2D52004BD
:102C1B0014300609B910020404B9080104A2D52026
:102C2B0007025001042003689203B509005034C019
:102C3B00E07F203004197F30A20372077206500F19
:102C4B00122C6EC203C207C206C2097F30800F303E
:102C5B000603E9C0E01229BC300603D0E0F9D0E04E
:102C6B00B509CC3006177F30B9100C1229BC7F5830
:102C7B003005077F788003B908031229BC300305A0
:102C8B007F2D0229BC7F202009F87F2B2007F32200
:102C9B00920380CF286E756C6C2900D202122979B1
:102CAB003002F8C202780930D50108F6022A282D25
:102CBB00504349581229792403B405004001E4908C
:102CCB002CBA931229AD743A1229ADD204750904AA
:102CDB00022B0DC10BC18C4101020041010A0061A5
:102CEB0000010DCC000000000000000000000000FF
:102CFB0000000000000000000000000000000000C9
:102D0B0000000000000000000000000000000000B8
:102D1B0000000000000000000000000000000000A8
:102D2B000000000000000000000000000000000098
:102D3B000000000000000000000000000000000088
:102D4B000000000000000000000000000000000078
:102D5B000000000000000000000000000000000068
:102D6B000000000000000000000000000000000058
:102D7B000000000000000000000000000000000048
:102D8B000000000000000000000000000000000038
:102D9B000000000000000000000000000000000028
:102DAB000000000000000000000000000000000018
:102DBB000000000000000000000000000000000008
:102DCB0000000000000000000000000000000000F8
:102DDB0000000000000000000000000000000000E8
:102DEB0000000060320283000000000000000000C1
:102DFB0000000000000000000000000000000000C8
:102E0B0000000000000000000000000000000000B7
:102E1B0000000000000000000041028200C10E41D2
:102E2B0002B516A10000110506000000000000000D
:102E3B000000000000000000000000000000000087
:102E4B000000000000000000000000000000000077
:102E5B000000000000000000000000000000000067
:102E6B000000000000000000000000000000000057
:102E7B000000000000000000000000000000000047
:102E8B000000000000000000000000000000000037
:102E9B0000000000380000000000000000000000EF
:102EAB0000000000000011002380007000000000F3
:102EBB0000000000000000000108464954200000FB
:102ECB00000000000000000000001F00093A313034
:102EDB003032393731313031202020202020312041
:102EEB00426807D0006302000000353238363230BA
:102EFB003735302020202020202031353130313320
:102F0B00202000000029000000000000000000004D
:102F1B0000000000000000000000000000000000A6
:102F2B0000000000000042027C000041027E0048CD
:102F3B0002B60104080C101820304802BE0301042D
:102F4B00000506070200C0E0C0F0C083C082C0D0FD
:102F5B0075D000C000C004C006C007E5B9540F14FB
:102F6B00604414606F24FE607624FA602C24FE60AB
:102F7B00681460652404706A53B9F690027CE4759A
:102F8B00F001122695740025F0F8E2F5BBC3900210
:102F9B007CE09401404CE4800853B9F590027E74B8
:102FAB0001F0A3F0803CE5B930E40553B9EF801F85
:102FBB0090027CE475F001122695740025F0F8E27E
:102FCB00F5BBC390027CE094014004E4F0A3F05302
:102FDB00B9FE800E53B9FD800953B9FB02306C5317
:102FEB00B9FBE5AB20E2779002B5E5BCF090027F30
:102FFB00E0B401EE9002B5E0645060E690027EE032
:10300B001470319002B5E0C394804019787FE2755B
:10301B00F080A4FFE07C002FFEEC35F090027CF0FA
:10302B00A3CEF080329002B5E0FF90027CE4F0A3D7
:10303B00EFF080239002B5E0FF90027CE475F00185
:10304B00122695740025F0F8EFF2C390027CE09401
:10305B00014004E4F0A3F090027EE4F0808453B9C5
:10306B00DFD007D006D004D000D0D0D082D083D010
:10307B00F0D0E032C0E0C083C082C0D075D000C0B9
:10308B0006C007C20030C203023143E5C054F0242E
:10309B0080606D24C0602624E0600302313F900104
:1030AB0009E025E0F5C253C2FEA20DE43342C2C2D1
:1030BB00C59002817401F0900280F0807D30C123B5
:1030CB00200D77900100E0FF900280E0FED39F502F
:1030DB001574042EF582E43401F583E0F5C29002F9
:1030EB00808039300E06D2C4C20A804ED2C4D2C5FB
:1030FB00900104E004F07042900103E004F0803A88
:10310B00900281E0FFC39402740A50152FF582E4FC
:10311B003401F583E5C2F0D2C1900281E004F08066
:10312B00192FF582E43401F583E5C2F0C20AC2C15E
:10313B00D2C48006D2008002D20030001E53C17F61
:10314B0043C180C2C5C2C4C2C1C20AC2009001043D
:10315B00E004F07006900103E004F0C2C0D007D089
:10316B0006D0D0D082D083D0E03290021A12280D34
:10317B00900224E5A7F075A72090021AE0C313FE76
:10318B00A3E013FFE4FCFD90021EE0F8A3E0F9A31B
:10319B00E0FAA3E02FFFEA3EFEED39FDEC38FC90A0
:1031AB00021EA3A3A3E0FB122736900223EFF0E449
:1031BB00900222F0900222E0FFC3940840030232F7
:1031CB005D74B62FF582E43402F583E0FF900223A1
:1031DB00E0FEEFC39E4072E47F02FEFDFC90021EF8
:1031EB00E0F8A3E0F9A3E0FAA3E0FB1226ABA804F6
:1031FB00A905AA06AB07900222E024B6F582E434B7
:10320B0002F583E0FFE4FCFDFE1226ABA804A90542
:10321B00AA06AB0790021AE0FCA3E0FDA3E0FEA315
:10322B00E0FF122736C3E49FFFE49EF596EFF5957A
:10323B00900222E024BEF582E43402F583E04440A0
:10324B004294900224E0F5A722900222E004F002BF
:10325B0031BF80FE7F007EF812003E12386590026F
:10326B00151228190001C2007F207ED77D757C01C5
:10327B00123734C2B420922A75E340C293E4FFFEA6
:10328B000FBF00010EEFF44E70F6D2933093FDE4B6
:10329B00FEFF0FBF00010EEF640A4E70F5E4F5E37D
:1032AB0080D3123774D296E490020DF0900103F0A4
:1032BB00A3F0C2AF75A72053BAFE43AD44D2AF12F1
:1032CB001E359001057498F0A37411F0A374ABF044
:1032DB00A374CDF0A37410F01235989001097410FB
:1032EB00F0E490020EF090020EE02405F582E43437
:1032FB0001F583E0FF90020EE0240BF582E434012C
:10330B00F583E06F600E900104E004F0700690010D
:10331B0003E004F090020EE004F0E0B402C87FF486
:10332B000237D1F9E43AFA900254EBF0A3EAF0A396
:10333B00E9F0A312281900000000E490025BF09062
:10334B000257E0FCA3E0FDA3E0FEA3E0FF78081228
:10335B0027FA90025712280D900257E0F8A3E0F9D4
:10336B00A3E0FAA3E0FBC000C001C002C0039002BF
:10337B0054E0FBA3E0FAA3E0F990025BE0F5827561
:10338B008300122656FFD003D002D001D000EB4FA2
:10339B00FFEAFEE9FDE8FC90025712280D90025B54
:1033AB00E004F0E0B40498900257E0FCA3E0FDA326
:1033BB00E0FEA3E0FF22120039787FE4F6D8FD751A
:1033CB00812102340B02325FE493A3F8E493A34010
:1033DB0003F68001F208DFF48029E493A3F8540785
:1033EB00240CC8C333C4540F4420C8834004F45680
:1033FB00800146F6DFE4800B0102040810204080B8
:10340B00902CDEE47E019360BCA3FF543F30E509B2
:10341B00541FFEE493A360010ECF54C025E060A8B7
:10342B0040B8E493A3FAE493A3F8E493A3C8C5824A
:10343B00C8CAC583CAF0A3C8C582C8CAC583CADFB8
:10344B00E9DEE780BE90025CEEF0A3EFF0A3ECF0B8
:10345B00A3EDF0A3EAF0A3EBF0A3A3E0FF74017ECE
:10346B0000A807088005C333CE33CED8F924FFFF5D
:10347B00EE34FFAD07FC900260A3E0F9EDAE04A8BB
:10348B0001088005C333CE33CED8F9F4FFEEF4FE3A
:10349B0090025CE05EF0A3E05FF0A3E05CFEA3E0D3
:1034AB005DA801088005C333CE33CED8F9FF900257
:1034BB005CE04EFEA3E04FFF90025CEEF0A3EFF05A
:1034CB0022900254EBF0A3EAF0A3E9F0E4A3F0A3FB
:1034DB00F0A3F0A3F0900259E0FCA3E0FDC394022B
:1034EB00EC648094805038900258E0F8E4F0E89057
:1034FB000257F0900254E0FBA3E0FAA3E0F98D82AF
:10350B008C83122656FF900257E0F0A3E04FF09009
:10351B00025AE004F070BE900259E004F080B690BD
:10352B000257E0FEA3E0FF22900256EBF0A3EAF075
:10353B00A3E9F0900254EEF0A3EFF090025BEEF0F3
:10354B00A3EFF0900259E0FEA3E0FF900255E02FAD
:10355B00FD900254E03EFC90025BE0FEA3E0FFC353
:10356B009DEE9C5027900256E0FBA3E475F00112F0
:10357B002695A9F0FA12263DFD12000390025CE09D
:10358B0004F070BF90025BE004F080B72290025E03
:10359B0012281900000000200AFDD20AC20DD2C564
:1035AB00300A4890025EE0FCA3E0FDA3E0FEA3E03E
:1035BB002401FFE43EFEE43DFDE43CFC90025E1280
:1035CB00280DE47FFFFEFDFC90025EE0F8A3E0F91E
:1035DB00A3E0FAA3E0FBD31227D640C490025E12FD
:1035EB002819000000001236EDC322D32290025E90
:1035FB0012281900000000200AFDD20AD20DD2C5F4
:10360B00300A4890025EE0FCA3E0FDA3E0FEA3E0DD
:10361B002401FFE43EFEE43DFDE43CFC90025E121F
:10362B00280DE47FFFFEFDFC90025EE0F8A3E0F9BD
:10363B00A3E0FAA3E0FBD31227D640C490025E129C
:10364B002819000000001236EDC322D32290023F4E
:10365B00E0240FFF90023EE03400FE90025CEEF09F
:10366B00A3EFF09001007402F09001097410F09038
:10367B00025CE0FCA3E0FDEC900105F0EDA3F01281
:10368B0035989001097410F01235F850D690010B53
:10369B00E0FEA3E0FDEDFF22900256ECF0A3EDF06F
:1036AB00A3EAF0A3EBF0900254EEF0A3EFF0123686
:1036BB0066C007900256E0FCA3E0FDA3E0FAA3E08E
:1036CB00FBA3E0FFA3E0900262CFF0A3EFF0D007E3
:1036DB00123450AC06AD07900254E0FEA3E0FF029B
:1036EB0037AC7F0943D50C75F2FF75A55FE59030BC
:1036FB00E210AE071FEE600A5390F70043900800EC
:10370B0080EB75A55F5390F75390FB004390080037
:10371B004390040053D5F375A55053C17F43C1802B
:10372B00C2C5C2C4C2C1C20A22900219E5A7F07574
:10373B00A72043C812E4F5DA43930CC004C005C0BC
:10374B0006C007900215E0FCA3E0FDA3E0FEA3E09A
:10375B00FF90021E12280DD007D006D005D0041200
:10376B003175900219E0F5A722900211E5A7F0122E
:10377B0038D71200351238E11238E81237F5123803
:10378B00521238271200761238EF1238751238BFE2
:10379B001238B2900211E0F5A722E4FDFC7F0D7EFA
:1037AB0098AB07AA069001007404F09001097410FD
:1037BB00F0EA900105F0EFA3F0ECA3F0EDA3F0120B
:1037CB00359850FBD3225388CF5389F0438901435B
:1037DB008E04EF6012C28C758CA0758A4CC28DD290
:1037EB008C308DFD1F80EBC28C22AF885388AF7558
:1037FB008C38758A13758DFA758B34EF5440FEEF48
:10380B0054104E42882290025AE4F0A304F07B0E2F
:10381B007A00FD7C007F617E840236A375A710E5DC
:10382B009854045398FB75A33875A29E4398044291
:10383B0098227B017A01790D9002597401F0A3E46F
:10384B00F0FF7EF8023533E59154045391FB7593E9
:10385B003875929E439104429122900211E5A7F094
:10386B001238CC900211E0F5A72275A7207594436E
:10387B007596FF75959643C8102275A72053BAFD10
:10388B0043BA0275A71053987F32AEA775A72030A5
:10389B00C9FD8F92C2C98EA72253C17F43C18053EA
:1038AB00917FC2C5C20A32E4F5A775E68175F306AE
:1038BB0075A8802275BD5053BAFB43BA1843BA02A0
:1038CB0022E4F5A7F5A9E5A930E7FB22E4F5A775F6
:1038DB0097DE7597AD2275A55075D5032275E3411B
:0B38EB0075E1042253C1FC43C1DD2243
:00000001FF
