:020000040000FA
:100000000232E6900215E5A7F01239361200861288
:1000100039401239471238A112005612385C123892
:100020008B12391E12007612394E1238C71239114E
:10003000123904900215E0F5A72222022EAB7B01B3
:100040007A01791190025D7401F0A3E4F0FF7EF86B
:100050000234C30236C4AF885388AF758C38758AB2
:1000600013758DFA758B34EF5440FEEF54104E42E9
:020070008822E4
:100073000238F6E4F5A7758E01758920438840227E
:07008300022C6F75D4FF226F
:10008B000238D72054203D20256C642E256428434C
:10009B0029200A000D0A30B5D8D6B7D6B5CEAAA3FB
:1000AB00BA3078253034780D0A004C6F61642046E5
:1000BB0069726D776172652053746172742E2E2E86
:1000CB002E2E2E004C6F6164204669726D77617223
:1000DB006520456E642E2E2E2E2E2E004D43552060
:1000EB005354415254204F4B2E2E2E2E2E2E00C2E7
:1000FB00ED0100C7F800000100010000001A5801D3
:10010B0000000000000FD000000FD000000FD00047
:10011B00000FD000000FD000000FD000000FD00058
:10012B00000FD000000FD000000FD000000FD00048
:10013B00000FD000000FD000000FD0000000000017
:10014B00000000000000000000000001000504009A
:10015B000000000000000000000000000000000094
:10016B0000000000000000000000000100059C01E1
:10017B000006440100066C0400004001F40100007D
:10018B00200004000201F4020000020001FFFC0049
:10019B00010006000A000600050005003B001E00DA
:1001AB0001000A0000000000000000010000030035
:1001BB004B0032019005060000000000000000001B
:1001CB000000981000A989100DCBAB1000DCBC10FF
:1001DB00065DCD0000065D0000007600000000000B
:1001EB0000021000032F0100000000000103E802D1
:1001FB000001800020060600140000000000000033
:10020B000000001820010000000173A8211D589C5C
:10021B0021FFE0B8640082D4011004A8409805AC1B
:10022B0084FFFFD401B014E2C310009C400001A472
:10023B00840003E0421802D401A010E2842000B82D
:10024B00420008D4017008E29420009DC00000D445
:10025B0001900CD401C018D401481CD40108009E95
:10026B00940004E04410009F00000AAA4E0000070F
:10027B00C004E0A8760000E16BA048186000008C79
:10028B00B7003EA8632DF0A56B0007E16B18008C3F
:10029B008B0000E564280010000007A8770000E041
:1002AB00A52002E57228001000000315000000AA2B
:1002BB004500008C63003FE5A4180010000006E029
:1002CB00841802E56E20001000000315000000A941
:1002DB00C400009F18FFFFBC38000013FFFFE5159B
:1002EB000000009E52FFFFBC32FFFF0C000006A86F
:1002FB0060980407C004D3A882000003FFFFFB9E95
:10030B0052FFFF9C4200049DCEFFFFBC2EFFFF0C53
:10031B00000006A860980407C004CAA88200000366
:10032B00FFFFFB9DCEFFFF8521001C842100008475
:10033B0041000485C100088641000C8681001086AF
:10034B00C1001487010018440048009C2100209C28
:10035B0021FFE8D4017008D4014814D4010800D45B
:10036B00011004D401900CD401A010A9C300009477
:10037B006E0000BC2300000C000016A4430F00BC51
:10038B002208001000000E968E00029E400000A472
:10039B0043F0FFA880FFFFE0629000A8B4000007C5
:1003AB00C0049F9E520100BC32080013FFFFFBA844
:1003BB0080FFFF03FFFFEF9DCE0004A880FFFF0728
:1003CB00C00497A8B4000003FFFFEA9DCE0004858C
:1003DB00210014842100008441000485C10008869B
:1003EB0041000C86810010440048009C2100189CA1
:1003FB00A000019C21FFF4E0852008D4011004A883
:10040B00430000A8609811A8A40000D40148080775
:10041B00C00483D4010800B4605001D40218089CB6
:10042B00600000DC02181A8521000884210000847A
:10043B00410004440048009C21000CA4A400079C2C
:10044B0021FFF0B8A5000BD40110049CC03800A804
:10045B004400009C80004ED4017008D401480CA9C4
:10046B00C3000007C00783D4010800A4A20008A89A
:10047B006E0000BC050000100000039C8000DF9C98
:10048B00A0002207C0077B9CC000E28521000C84E2
:10049B002100008441000485C10008440048009CF1
:1004AB002100109C21FFECD4011004D4017008D45E
:1004BB00014810D4010800D401900CA84300008E11
:1004CB004300148CA3000CA6520007E57228001001
:1004DB00000004A9C40000000000059CA5FFFFE577
:1004EB00B22800100000039CA50001D802280C8C38
:1004FB00A2000CA4A50007A86E0000B8A5000B9CD9
:10050B0080004E07C0075B9CC038008C62000CE477
:10051B0023900010000015852100108C8200140719
:10052B00FFFFC7A86E0000A86E00009CA002009CF5
:10053B00C03F8007C0074F9C800001A862000007E6
:10054B00FFFFACA88E0000B4605001D40218089CC9
:10055B0060001EA88E0000D802180E07FFFF2DA802
:10056B006200008521001084210000844100048575
:10057B00C100088641000C440048009C2100149CDB
:10058B0021FFF0D401480CD4010800D4011004D48D
:10059B0001700899C3001ABC0E00000C00001685F0
:1005AB0021000CB440500184A30008E042280298BB
:1005BB00B7001CB8420059E48228001000000E85D9
:1005CB0021000CA84300001860010007C00806A812
:1005DB00631A489C600001DC02181A8C62000FBC85
:1005EB00030000100000048521000CD802700E855A
:1005FB0021000C842100008441000485C1000844C3
:10060B000048009C210010B86300849C21FFF4D4A7
:10061B00011004A443000FD4014808BC02000210CF
:10062B00000013D4010800BC02000310000009BC39
:10063B000200000C00000A1860010007FFFF45A82C
:10064B006318649C6000050000000FA8820000186E
:10065B0060010000000008A86318FC07C002F19CB1
:10066B006000020000000B8521000818600100A843
:10067B006319A407FFFF37150000009C6000059C61
:10068B0080000007C002EA150000008521000884E5
:10069B0021000084410004440048009C21000C9C74
:1006AB0021FFF8A48300FFD4014804BC0400001010
:1006BB00000006D401080007C002DA9C60000200AB
:1006CB0000001F8521000407C002D99C60000DA803
:1006DB0060981007C006C89C80001A07C003C5A805
:1006EB00609818B88B008CA56B000FBC0B0000102A
:1006FB0000000CAC64000DE0A01802E0651804BD0E
:10070B0083000010000008BC0400009C60000D0773
:10071B00C002C79C8000010000000985210004BCB9
:10072B0004000013FFFFEB1500000007C002BD9C87
:10073B0060000D03FFFFE8A86098108421000044BF
:10074B000048009C2100089C21FFF8A89700009C02
:10075B00A00042D401480407C0067CD401080085E0
:10076B0021000484210000440048009C2100089CC7
:10077B0021FFF4D4011004A443000FD4014808BC9A
:10078B002200011000000CD401080018800100A801
:10079B00609819A88400F807C0038A948400009C11
:1007AB0060000F07C002A2A88200000000000685AF
:1007BB002100081860008907C0064CA8636AAF8542
:1007CB002100088421000084410004440048009C5F
:1007DB0021000C9C21FFD41860010018800100D46B
:1007EB0001100418400100A8631A58A8841F98A888
:1007FB004200F8D4014828D4010800D4017008D471
:10080B0001900CD401A010D401B014D401C018D4A1
:10081B0001D01CD401E02007C003C0D401F0240791
:10082B00C003661500000094620000BC230000109A
:10083B000000071860010018800100A86300000485
:10084B000003BCA8841A58DC0258001AE00100AA65
:10085B00F70074A860981407C00366A840FFF0E483
:10086B002B1000100000061840CFFF07C0035A9C46
:10087B0060000007BFFE8515000000A842FFFFC106
:10088B004010009C800000C1402001186001009DB9
:10089B00C0FFFF07C00754A863172C9DCE0001A50E
:1008AB00CE0007B86E0003B84E0006E043100018E8
:1008BB00600100A8631D58E042180007C0079FA8FD
:1008CB006E0000B96B0088BDAB001F100001CBBDE3
:1008DB004B0017A64B001FBD52000910000009BDAD
:1008EB0092000BBD720008100000D8BC1200021061
:1008FB0000000C9C80FFFE0000038A150000001016
:10090B00000388BDB2000C10000104BC12001810CB
:10091B0000016DA880820000000382150000008C8E
:10092B006200429EC00001E0632003E2D67008D84B
:10093B0002184207C0032FA860980FA8609816E111
:10094B006B704807C0032BA64B0001A8609811D809
:10095B00029010A89600009CA0000007C00330AACC
:10096B008B00009062000EBC2300641000000CA4EE
:10097B0074FFFFE0637088A4630001BC03000010E8
:10098B00000360A8960000A860981607C003249C7B
:10099B00A000009C600000D802180E07C007AAA890
:1009AB006E0000A56B00FFBC1200001000002CD8DD
:1009BB0002580F94B700249CC0003FA4A5003FA889
:1009CB006E000007C0062B9C80007818600100A801
:1009DB008E000007C00704A863182018600100A848
:1009EB008E000007C00700A86317EC9C800008A8C6
:1009FB006E0000D802200E07C0061A9C80004EB96C
:100A0B006B00128CA2000FB96B005DBC050000A837
:100A1B006E00001000000CD802580C9CA000009C2B
:100A2B0080000107C006139CC0400094570018BCFF
:100A3B00220000100000039CA00002A8A20000A846
:100A4B006E00009C8000DF9CC0000207C0060915E9
:100A5B000000000000006D94970000BC0B0000101C
:100A6B000000319CC0003F94B70024A4A5003FA810
:100A7B006E00009C80007807C005FEBA9400101829
:100A8B00600100A88E000007C006D7A863182018C5
:100A9B00600100A88E000007C006D3A86317EC9C6A
:100AAB006000059C800008D802180DBD7400001072
:100ABB00000006D802200E9C6000079C800001D825
:100ACB0002180DD80220108CA2000DA4A50007A8B7
:100ADB006E0000B8A5000B9C80004E07C005E59C7E
:100AEB00C038008C62000DD802180C94570018BC4B
:100AFB00220000100000039CA00002A8A20000A886
:100B0B006E00009C8000DF07C005DA9CC00002A8C5
:100B1B006E00009C8000019CA0000003FFFFCC9C9A
:100B2B00C040008C62000E9C63FFF6BC43000D10AE
:100B3B0000003B18600100B460500184A20004E087
:100B4B0063280294B70010B8630050E485180010B6
:100B5B00000032E0B770008CC200139C660012B824
:100B6B00630002E077180084630000B883005CD454
:100B7B000218209C84001AB8840002E0972000849D
:100B8B00840000D8029012D4022024A48300FFB862
:100B9B00630004A4E4000FA4840007B8630048D8E2
:100BAB0002200CD8023814D402182018600100DC83
:100BBB00029018DC029016D805302CA88E00000786
:100BCB00C00689A86317EC8CA2000C98970022E54D
:100BDB00852000100000091500000094B70080A4C8
:100BEB00A5007FA86E0000B8A500079C8000010738
:100BFB00C005A09CC03F808C82001407FFFE10A88C
:100C0B006E00009497000007C005A3A86E000000BB
:100C1B000002C41500000018600100A88E00000738
:100C2B00C00671A86317889C80001F9C600000D8C9
:100C3B0002201CD802201D9C800008D8021812002C
:100C4B000002B8D802200E8E820012BC34000010B5
:100C5B000000079C600010B4605001D40218049C83
:100C6B00600009D802180E9C600010E283A088BCBB
:100C7B0034000010000003150000009E800001A846
:100C8B006E000007C005779C800074A56BFFFFBC4E
:100C9B004B0001100000039C6000019C600000A44D
:100CAB006300FFBC230000100000058C62001CBC1D
:100CBB003200091000000815000000D802181EBCF5
:100CCB0043003E0C000005E283A000000000058CF1
:100CDB00A2001CE283A002D802A01C8CA2001CA8BC
:100CEB006E00009CC0007F9C80004A07C00561A479
:100CFB00A5007FA86E00009C80004907C0056A9C78
:100D0B00A00000A8808B8C07C0055FA86E000000B8
:100D1B00000284150000008E8200129C600010E21D
:100D2B0083A088BC34000010000003150000009E57
:100D3B00800001A86E000007C0054A9C800074A5C6
:100D4B006BFFFFBC4B0001100000048C62001D0008
:100D5B00000006E283A002BC43003E10000004D852
:100D6B0002181FE283A000D802A01D8CA2001DA8B0
:100D7B006E00009C80004CA4A5007F07C0053D9C25
:100D8B00C0007F8C620012BC430006100000109C58
:100D9B00800078A8A0FFFFA86E000007C005429C4A
:100DAB00800049A880888907C00537A86E00008C91
:100DBB006200129C630001BC32000C10000259D877
:100DCB000218120000003B1860010094B70024A821
:100DDB006E0000A4A5003F9CC0003F07C005259EE8
:100DEB0040000018600100A88E000007C005FEA897
:100DFB006318208C62001FE40390001000000F9C0E
:100E0B0080000007C001B18C62001E8C62001F07BE
:100E1B00C001AEAA4B0000A872000007C00182A857
:100E2B008B00009C80000707C00256A86B00009E39
:100E3B004BFF809C800000A860981607C001EDD482
:100E4B00022020A56B8000BC2B0000100000139C1F
:100E5B00600006BDB2004B1000000EBDB200721058
:100E6B0000000C9D600001BDB20087100000099DC1
:100E7B00600002BDB200CB100000069D600003BDF8
:100E8B005200FE100000039D6000059D6000049C55
:100E9B00600005E0635802D8021813E0777000D8A1
:100EAB000390409C60000AD802180E18600100A83D
:100EBB008E000007C005CCA863184800000212186A
:100ECB0060010007C004F0A86E00008C620042A80D
:100EDB00630001D802184207C00565A86E0000A880
:100EEB006E000007C0052FAA4B00009477001AE490
:100EFB008B1800100000059E520010BCB200201091
:100F0B0000000915000000A86E00009C8000509C9A
:100F1B00A0080007C004D79CC00FFF0000020115FA
:100F2B000000008C620010BC0300001000002E15A6
:100F3B000000009497000207C004D7A86E0000A819
:100F4B00A0E000A8C0F000A86E000007C004C99C78
:100F5B0080003B8C620010BC0300001000000D15DC
:100F6B000000008C62000FBC230000100000189CD6
:100F7B0060001A8C82000C9877001EE56418001034
:100F8B00000004A86E000007C005F59C8000078CCC
:100F9B0062000FBC2300001000000D9C60001A8C37
:100FAB0082000C98770020E5641800100000069C66
:100FBB00A00022A86E00009C8000DF07C004AD9C3F
:100FCB00C000E2000000099C80001DA88E0000D824
:100FDB0002180E07FFFC8FA862000000000004152A
:100FEB000000009C800010D802200EB4605001005D
:100FFB000001CCD40218000C0001C3186001009E44
:10100B004E00809EC00003BA5200089F9200139EB0
:10101B0052002A07C00177A87C0000A872000007C5
:10102B00C00174ABCB00009C80000DA86E000007C4
:10103B00C0048CAB0B0000A86E000007C00501AA12
:10104B008B0000A87C0000AB4B000007C00169A718
:10105B00DE000FA56B000FE55E5800100000039C2F
:10106B008000019C800000A48400FFBC24000010C1
:10107B00000014BC0B000F100000139ED6FFFFB630
:10108B00C050018C62000E9C63FFF086420000A4EE
:10109B006300FFE2569002BC43002110000199BA95
:1010AB0052005018800100B8630002A88416A4E017
:1010BB006320008463000044001800150000009EAC
:1010CB00D6FFFFBC36000013FFFFD3150000000353
:1010DB00FFFFEC1500000094770026E49218001037
:1010EB00000189186001009497000207C0046AA8E8
:1010FB006E0000A86E00009C8000089CA00080077A
:10110B00C0045C9CC000F08C62000FBC0300000CA0
:10111B0000017AD402B0000000012D9C80001294D3
:10112B00970028E4922000100001771860010094CA
:10113B0097003C94C20018E0982000E58430001022
:10114B000000081500000094770026E49218000CAC
:10115B00000005186001000000016B150000009FE6
:10116B0000000084620024D402B000A483000FB8F6
:10117B00630044BC24000F0C000014D40218249C00
:10118B00640014A4B8FFFFE0631800E0E22000E065
:10119B00621800DC0328008C620014D807D030D80A
:1011AB000718348CE20012E5A4380010000003E5A8
:1011BB00B83000D80220121000000415000000DC2B
:1011CB00022818DC02181684820020BC04000010D0
:1011DB00000013BC38000010000009150000008C43
:1011EB00A2001494620016A4A50007A4630007E5EF
:1011FB004518001000000A15000000A484000FA879
:10120B006E000007FFFC8ED802201484620020B809
:10121B006300440000013BD402182095A2002890E3
:10122B00E200308C8200129D02002A9CA20031A8A1
:10123B00CD00009DE000009C600001E5A320000CA8
:10124B00000013A997000095880000E5AC30001052
:10125B0000000B1500000091650000BD8B00001015
:10126B00000004E54B38001000000515000000A835
:10127B00EB0000A9E30000A8CC00009C6300019DDB
:10128B0008000203FFFFEE9CA500019CA200289D15
:10129B000200309C600000E42378000C000013BCBB
:1012AB0024000396250000956C0038E1715800E589
:1012BB008B3000100000081500000091680000BD85
:1012CB008B000010000008E5AB380010000007BCD5
:1012DB002400039C6300019CA5000203FFFFEF9D0C
:1012EB00080001BC2400031000001A1500000015B3
:1012FB00000000BC23000010000016150000009435
:10130B0082002EE0846802B8A4009FE0852005E0EF
:10131B0084280294AC003AE56428001000000D15F7
:10132B0000000090820031BD840000100000081501
:10133B0000000090820032BD640000100000051513
:10134B00000000000000039C6000029C600001E0B4
:10135B006218008C8200148C630034A4840007D8BC
:10136B000218149C600019D802200C00000007D84A
:10137B0002180E9477002AE4921800100000E11571
:10138B00000000D402B000A862000007FFFC46A8D2
:10139B008E0000000000DC18600100A8620000074E
:1013AB00FFFC78A88E00008C62000FBC230000109D
:1013BB000000D5186001009E400100A860980F073F
:1013CB00C0008CE2527008E24B9003BC320000105C
:1013DB000000CC9C800001A86E0000A8B2000007A2
:1013EB00C003A49CC040009C600001DC029016D896
:1013FB00021815DC02901894970036E06320089CC5
:10140B0080001FD402B000D8021811000000BDD814
:10141B0002200EA862000007FFFC5AA88E000007EE
:10142B00C00074A860980F9C600100E0637008E135
:10143B006B1803BC2B0000100000B318600100A850
:10144B006E000007C003879C800009A56B8000BC61
:10145B002B0000100000AC1860010094770034E4FE
:10146B00921800100000A8186001008E4200119421
:10147B006200169E52FFFFE3181800A65200FFD41D
:10148B0002B000DC02C016BC3200001000009DD878
:10149B00029011A86E000007C003729C800080A808
:1014AB006E00009C80000107C0036EAACB00009465
:1014BB0062001694820018E46418001000000415F2
:1014CB0000000000000007DC0218188C6200159C5D
:1014DB0063FFFFDC029018B863005FD80218159009
:1014EB00820015BC04000010000009A474007FB832
:1014FB00B60010B8A50059E58328000C00000A15AA
:10150B00000000000000099CA30001B8AB0012B85A
:10151B00A50059E54328000C000004A4A5FFFF9C7F
:10152B00A3FFFFA4A5FFFFA86E00009C80005F0730
:10153B00C003509CC0007F9CA01000A86E00009CB4
:10154B0080000A07C0034BA8C50000949700369C87
:10155B00600001E0632008D80218119C60000000B5
:10156B00000068DC02181694770006E4B21800102D
:10157B0000006415000000A862000007FFFB25A80F
:10158B008E00009C80001CD402B000D802200EA854
:10159B0062000007FFFB97A88E00000000005A189E
:1015AB0060010094770004E4B21800100000551598
:1015BB00000000000000529C60001B9477000EE4BA
:1015CB00B218001000004F9C80001B0000004DD88B
:1015DB0002200EA862000007FFFB86A88E00000009
:1015EB000000479C60001B94770008E492180010E1
:1015FB000000449C8000319C600000D802200EDC6F
:10160B0002181A9C6000019497000AE0632008D826
:10161B000218119477000CE49218001000003A188D
:10162B006001009462001AE35A18008C820011BB0F
:10163B005A00109C84FFFFD402B000BB5A0090A448
:10164B008400FFDC02D01ABC2400001000002DD84F
:10165B0002201194F7000A98770014E0633808E52C
:10166B00BA18001000000B8C62000CBC03000010B9
:10167B000000169E4000018CA2000DE4851800109E
:10168B000000129C63FFFF0000000FD802180C989B
:10169B00B70016E0A53808E57A28001000000B9E6D
:1016AB00400001BC43000510000008150000008C31
:1016BB00A2000DE445180010000004E0639000D870
:1016CB0002180CAA4400008C82000C07C00312A85D
:1016DB006E0000BC120000100000089C80001AA8CD
:1016EB00620000D802200E07FFFACAA88E00000085
:1016FB00000005186001009C600030D802180E181D
:10170B0060010007C0025AA8630038A86098100750
:10171B00C002B99C80001A03FFFC629DCE0001073A
:10172B00C004DCA86E000003FFFFF718600100A9DE
:10173B006BFFFF19000100A9081684E403200010B9
:10174B000000109CA0000494C30000E16B3005B8AE
:10175B00CB004CB96B0004E0C630009CA5FFFFE04A
:10176B00C64000BC25000094C60000E16658051376
:10177B00FFFFF8A56BFFFF03FFFFF19C6300024423
:10178B000048001500000000008005800F000A8053
:10179B001B001E0014801180330036003C80390082
:1017AB0028802D8027002201000FD4010015FC0199
:1017BB0000101C010015FC010015FC010015FC01BB
:1017CB000015FC010015FC010015FC010012700155
:1017DB000014D001001298010014A0010014640140
:1017EB000014B801001310010015FC010015FC01D9
:1017FB000015FC010015FC010015FC010015FC0196
:10180B000015FC010015FC010015FC010015FC0185
:10181B000015FC010015FC010015FC010015FC0175
:10182B000015FC010015FC010014E40100151098D3
:10183B0010FFFF0000800B9F9F8200810B9F9F82F8
:10184B0000820B9F9F8200830B9F9F82009814FF47
:10185B00FF5B5B980C20002000980FFFFF00F099B6
:10186B0000FFFFFDE09901FFFF21049902FFFF93A9
:10187B00109903FFFF4A66981EFFFF85389826FFD5
:10188B00FF95799827FFFF0000000000F203F0029C
:10189B00E000DF00E2000000F9007E004C00F803DE
:1018AB00800000003BF00000000078003F002400A7
:1018BB000B9F9F8889006500E000000048FFFFFF39
:1018CB00FF0049FFFFFFFF004A0FFF071F004BFF01
:1018DB00FFFFFF004C1FFF0E9F004D80008000009C
:1018EB004E38003800004FF000F000000000000000
:1018FB00500FFF0040003BF0000000004D800080C7
:10190B0000000800F00080000140004000000A10B9
:10191B00000000006500E00000000B9F9F82980014
:10192B000000000048FFFF00800049FFFF0002009D
:10193B004C1FFF1115004BFFFF0080004A0FFF08E3
:10194B00BD000B9F9F820000000000008108000873
:10195B0000000C80000000000C800080000081085B
:10196B000000000000000088834E058882D80088A4
:10197B0075C6FF6002800088FC5236780000008834
:10198B0050504088A30020854E0000887641828805
:10199B0077516688781CBB847600848576008486B4
:1019AB007600848776008484771882857718828600
:1019BB007718828777188284788C3885788C38866C
:1019CB00788C3887788C38844E0000874E000086E0
:1019DB004E000060328000601280008863008088B7
:1019EB0064808088085ABB880329338802400660CC
:1019FB002280008806A1008805AE820000000088C6
:101A0B00DF0066888130008887CD7A8886CD7A881A
:101A1B00854D7A88848D7A88FC536688884D7A88C0
:101A2B00FE80AE88FDB64488FFFDC078080C0073BD
:101A3B001AFF00711AFF00721AFF00701AFF00786C
:101A4B00093A908879886C824E3800814E38008331
:101A5B004E3800804E3800884D800078061254882E
:101A6B00EFB6A088FB773678190005781681C08809
:101A7B00F98B5A88F8B7780007002088F1B00088F6
:101A8B00F067B488F561E088F7A246990293109944
:101A9B0000FDE0990121048801020188004D0588B1
:101AAB00074D7A0000000088DF00668881300088CF
:101ABB0087CD7A8886CD7A88854D7A88848D7A7899
:101ACB0006125488FB773688FEA5A888FD36448815
:101ADB00FFFDC078080C00731AFF00711AFF00702D
:101AEB001AFF00721AFF0078093A908879886C8186
:101AFB004E3800834E3800824E3800804E380088B6
:101B0B004D800088EFB6A088884D7A78190005784B
:101B1B001681C088F98BDA88F8B7780007002A8815
:101B2B00F1B00088F067B488F561E088F7A24699B8
:101B3B000293109900FDE0990121048801020188AC
:101B4B00004D0588074D7A00000000008BFC00FC5F
:101B5B0000008BFC00000000000000000000008073
:101B6B00A7140081A7140082A7140083A714008474
:101B7B00A7120085A7120086A7120087A712008064
:101B8B00A83C0081A83C0082A83C0083A83C0084B0
:101B9B00A83F0085A83F0086A83F0087A83F008488
:101BAB00A63C0085A63C0086A63C0087A63C008090
:101BBB00A0008081A0008082A0008083A000008410
:101BCB00A0000085A0008086A0008087A0008084F4
:101BDB004E2000854E2000864E2000874E20008030
:101BEB00613C20816134208261342083613C2084FC
:101BFB00617C2085613420866134208761342041EB
:101C0B004243444546470048494A00000000000053
:101C1B000000000000000000000041424344454624
:101C2B0047009F00980D981474FF900215F0A3F0D5
:101C3B00E490021BF0A3F0A312297C00000000909B
:101C4B00022C12297C0000000090023012297C002B
:101C5B0000000078427C027D017BFF7A1C792D7E8F
:101C6B00007F0612277A90024812297C00000000A0
:101C7B0090024EE4F0A304F0E4900252F0A3F07B48
:101C8B00FF7A0079FA900225EBF0A3EAF0A3E9F0D2
:101C9B00240C123253900221122970900225E0FB82
:101CAB00A3E0FAA3E0240812325390022812297001
:101CBB00900225E0FBA3E0FAA3E02410123253902C
:101CCB000234E4F0A3740AF0A312297090023A12C2
:101CDB00297C00000000E47B18FAF9F8900221E05F
:101CEB00FCA3E0FDA3E0FEA3E0FF122899EF240183
:101CFB00FFE43E900254F0A3EFF0900240E4F0A317
:101D0B007480F090022CE0F8A3E0F9A3E0FAA3E0D2
:101D1B00FB900240E0FEA3E02400F58274003EF548
:101D2B0083E0FFE4FCFDFEEB2FFFEE3AFEED39FD09
:101D3B00EC38FC90022C122970900241E004F070F8
:101D4B0006900240E004F0900240E07004A3E064CF
:101D5B00BF70B0900240E4F0A374C0F0900230E08A
:101D6B00F8A3E0F9A3E0FAA3E0FB900240E0FEA3A6
:101D7B00E02400F58274003EF583E0FFE4FCFDFEF9
:101D8B00EB2FFFEE3AFEED39FDEC38FC90023012F2
:101D9B002970900241E004F07006900240E004F0DC
:101DAB00900240E07004A3E064DF70B090022CA3BB
:101DBB00A3A3E0FF9000BFEFF0900230A3A3A3E03A
:101DCB00FF9000DFEFF0D20F7D887C081237F51201
:101DDB0037F2C20F7FF412381EE4FFFE1235F69075
:101DEB000252EEF0A3EFF0644C7003EE6420601827
:101DFB007BFF7A00799F900252E0FFA3E090025B99
:101E0B00CFF0A3EFF01223B0E4900252F0A3F07BDB
:101E1B00FF7A0079B51223B0E490023EF0A3F09064
:101E2B000254E0FEA3E0FFC390023FE09FEE64800C
:101E3B00F890023EE0648098400302208F90023AB3
:101E4B0012297C0000800C900243E0240CFF9002CE
:101E5B0042E03400FEC006C007900236E0FCA3E06F
:101E6B00FDA3E0FEA3E0FF781012294AAD07AC06F4
:101E7B00D007D0061237F9900243E0240DFF9002F1
:101E8B0042E03400FEC006C007900236A3A3E0FE7A
:101E9B00A3E0FFAD07AC06D007D0061237F99002CE
:101EAB003AE0F8A3E0F9A3E0FAA3E0FBC000C0011D
:101EBB00C002C003900236A3A3E0FEA3E0FFE4FD43
:101ECB00FCAB07AA06F9C004C005C006C007900208
:101EDB0036E0FCA3E0FDA3A3E0781012294AD0035F
:101EEB00D002D001D000EF2BFFEE3AFEED39FDEC26
:101EFB0038FCD003D002D001D000EB2FFFEA3EFE1E
:101F0B00E93DFDE83CFCA3122970E4900240F0A3EC
:101F1B00F0900235E025E0FF900234E033FE9002B2
:101F2B0025E0FBA3E0FAA3E02FF9EA3EFA12345CBA
:101F3B00900250EEF0FCA3EFF0FD900240E0FEA308
:101F4B00E0FF900243E02FFF900242E03EFE12378B
:101F5B00F990023AE0F8A3E0F9A3E0FAA3E0FB90D2
:101F6B000250E0FEA3E0FFE4FCFDEB2FFFEA3EFE98
:101F7B00ED39FDEC38FC90023A122970900235E0F5
:101F8B0004F07006900234E004F0900236E0FCA3FB
:101F9B00E0FDA3E0FEA3E02402FFE43EFEE43DFDF2
:101FAB00E43CFC900236122970900241E004F07080
:101FBB0006900240E004F0C3900241E0940C9002C2
:101FCB0040E0648094805003021F1C900243E02485
:101FDB000EFF900242E03400FEC006C00790023AAA
:101FEB00E0FCA3E0FDA3E0FEA3E0FF12292BAD076D
:101FFB00AC06D007D0061237F9900243E0240E123C
:10200B0035EE900243E0240FFF900242E03400FED5
:10201B007D0C7C801237F990024812297C0000005D
:10202B0000802B90024CE0B48031A3E0B40C2C90D8
:10203B000248E0FCA3E0FDA3E0FEA3E02401FFE4E3
:10204B003EFEE43DFDE43CFC900248122970123543
:10205B00E890024CEEF0A3EFF080C890024CE070D9
:10206B0002A3E0600E900253E004F070069002525F
:10207B00E004F090023FE004F0700690023EE004B2
:10208B00F0021E2A900243E0240CFF900242E0343F
:10209B0000FEC006C007900228E0FCA3E0FDA3E011
:1020AB00FEA3E0FF781012294AAD07AC06D007D08B
:1020BB00061237F9900243E0240DFF900242E03400
:1020CB0000FEC006C007900228A3A3E0FEA3E0FF1A
:1020DB00AD07AC06D007D0061237F9900228A3A3A0
:1020EB00E0FEA3E0FFE4FDFCAB07AA06F9C004C0C9
:1020FB0005C006C007900228E0FCA3E0FDA3A3E007
:10210B00781012294AD003D002D001D000EF2BFF58
:10211B00EE3AFEED39FDEC38FCE42FFFEE3440FED9
:10212B00E43DFDE43CFC90023A122970900243E03E
:10213B00240EFF900242E03400FEC006C00790025E
:10214B003AE0FCA3E0FDA3E0FEA3E0FF12292BADD8
:10215B0007AC06D007D0061237F9900243E0240FE4
:10216B00FF900242E03400FE7D007C401237F99074
:10217B00024EE07002A3E0604490024812297C00FA
:10218B00000000802B90024CE0B44031A3E0B4007F
:10219B002C900248E0FCA3E0FDA3E0FEA3E02401A9
:1021AB00FFE43EFEE43DFDE43CFC90024812297046
:1021BB001235E890024CEEF0A3EFF080C8E49002E9
:1021CB0040F0A3F0E490023EF0A3F090023FE00455
:1021DB00F0700690023EE004F090023EE0B404EB97
:1021EB00A3E0B400E6900241E004F07006900240D8
:1021FB00E004F0900240E0B404CAA3E0B400C57F51
:10220B00147E981235F690024CEEF0A3EFF07D00A1
:10221B007C507F187E981237F9801190024CE06445
:10222B00057002A3E060167F9612381E7F187E9809
:10223B001235F690024CEEF0A3EFF080DE7D207CA1
:10224B00507F187E981237F9801190024CE064058C
:10225B007002A3E060167F2C12381E7F187E981236
:10226B0035F690024CEEF0A3EFF080DE7BFF7A00A8
:10227B0079CF1223B0900256E4F0A37428F0E490C7
:10228B000240F0A3F0900256E0FEA3E0FF90024064
:10229B00E0FCA3E0FDC39FEE6480F8EC64809850F3
:1022AB0074EDAE047802C333CE33CED8F9FDAC0651
:1022BB00246AF582741B3CF583E493FE746B2DF555
:1022CB0082741B3CF583E493FDEDFFC006C00790C1
:1022DB000240E0FEA3E07802C333CE33CED8F9FD43
:1022EB00AC06246CF582741B3CF583E493FE746D91
:1022FB002DF582741B3CF583E493FDEEFCD007D0E7
:10230B00061237F9900241E004F07006900240E0AB
:10231B0004F00222907FF412381E7D777C0712376F
:10232B00F51237F27FF412381E1238757BFF7A00E4
:10233B0079E71223B012003E80FEE508245BF5829C
:10234B00E43402F583E0050822900258300803902C
:10235B00025BE475F0011229AD0227A02001E97F91
:10236B002ED2018018EF540F2490D43440D4FF3078
:10237B00050BEF24BFB41A0050032461FFE509607D
:10238B00021509050CE50C7002050B30080E9002C6
:10239B0058E475F0011229ADEF0227E60238E77415
:1023AB0003D2088003E4C208F5089002581229C42E
:1023BB00E4F509F50BF50CE50960077F201223887E
:1023CB0080F5750AFFC202C201C203C204C206C273
:1023DB0007C209122354FF700D3008057F0012232A
:1023EB0099AF0CAE0B22B4255FC2D5C20512235494
:1023FB00FF24D0B40A00501A75F00A780930D505BD
:10240B0008B6FF0106C6A426F620D5047002D20436
:10241B0080D924CFB41A00EF5004C2E5D2050225AF
:10242B009AD20280C6D20180C0D20380BCD2D580A2
:10243B00BAD20680B47F201223882003077401B51B
:10244B00090040F1122345FF1223880223C2D2094F
:10245B00D2078095122345FB122345FA122345F927
:10246B004A4B7006796B7A267BFF20032EE50960B9
:10247B002A7E008E827583001227B960060EEE65E8
:10248B000A70F0C2D5EBC0E0EAC0E0E9C0E0EE12A2
:10249B0025E1D0E0F9D0E0FAD0E0FB1227A0FF60F5
:1024AB00AAEBC0E0EAC0E0E9C0E0122388D0E02448
:1024BB0001F9D0E03400FAD0E0FBE50A0460DCD58A
:1024CB000AD980877BFF7A2579DDD203809C79102E
:1024DB0080027908C207C2098008D2D5790A800424
:1024EB00790AC2D5E50A047002F50AE4FAFDFEFF8B
:1024FB00122345FC7B08200213122345FD7B103071
:10250B00010A122345FE122345FF7B20EC3382D5B3
:10251B0092D55013C3E43001069FFFE49EFEE420E6
:10252B0002039DFDE49CFCE4CBF8C202EC700CCFE3
:10253B00CECDCCE824F8F870F38017C3EF33FFEE61
:10254B0033FEED33FDEC33FCEB33FB994002FB0F19
:10255B00D8E9EB300205F8D0E0C448B202C0E00A7B
:10256B00EC4D4E4F78207B0070C2EAB50A0040BCA0
:10257B00C0E01225E3D0F0D0E0200204C4C0E0C4D8
:10258B00B202C0F0122371D0F0D5F0EB0223C212CD
:10259B0029CD245F5324D95824304C242C4224DDDC
:1025AB004F24E54424E54924454324EB5524CF46E9
:1025BB0024CF4524CF47268B5024342D24382E246A
:1025CB005B2B243C2324592026742A23F448000037
:1025DB0024533F3F3F00790AA2D52004143006094B
:1025EB00B910020404B9080104A2D5200702500156
:1025FB00042003689203B509005034C0E07F2030FB
:10260B0004197F30A20372077206500F12263AC2CA
:10261B0003C207C206C2097F30800F300603E9C030
:10262B00E0122388300603D0E0F9D0E0B509CC30B6
:10263B0006177F30B9100C1223887F583005077F9F
:10264B00788003B908031223883003057F2D0223FA
:10265B00887F202009F87F2B2007F322920380CF5D
:10266B00286E756C6C2900D2021223453002F8C219
:10267B0002780930D50108F60223F42D504349584E
:10268B001223452403B405004001E49026869312DF
:10269B002379743A122379D2047509040224D9E7F9
:1026AB0009F608DFFA8046E709F208DFFA803E8870
:1026BB00828C83E709F0A3DFFA8032E309F608DFA7
:1026CB00FA8078E309F208DFFA807088828C83E362
:1026DB0009F0A3DFFA806489828A83E0A3F608DF1E
:1026EB00FA805889828A83E0A3F208DFFA804C8053
:1026FB00D280FA80C680D4806980F28033801080CB
:10270B00A680EA809A80A880DA80E280CA8033892A
:10271B00828A83ECFAE493A3C8C582C8CCC583CC68
:10272B00F0A3C8C582C8CCC583CCDFE9DEE7800D3A
:10273B0089828A83E493A3F608DFF9ECFAA9F0ED1A
:10274B00FB2289828A83ECFAE0A3C8C582C8CCC578
:10275B0083CCF0A3C8C582C8CCC583CCDFEADEE846
:10276B0080DB89828A83E493A3F208DFF980CC882B
:10277B00F0EF60010E4E60C388F0ED2402B404004C
:10278B0050B9F582EB2402B4040050AF23234582E9
:10279B00239026FA73BB010689828A83E0225002BA
:1027AB00E722BBFE02E32289828A83E49322BB01E8
:1027BB000CE58229F582E5833AF583E0225006E9A0
:1027CB002582F8E622BBFE06E92582F8E222E582A5
:1027DB0029F582E5833AF583E49322BB01068982CE
:1027EB008A83F0225002F722BBFE01F322A3F8E00A
:1027FB00C5F025F0F0E582158270021583E0C8382C
:10280B00F0E822E88FF0A4CC8BF0A42CFCE98EF03E
:10281B00A42CFC8AF0EDA42CFCEA8EF0A4CDA8F03D
:10282B008BF0A42DCC3825F0FDE98FF0A42CCD3501
:10283B00F0FCEB8EF0A4FEA9F0EB8FF0A4CFC5F06B
:10284B002ECD39FEE43CFCEAA42DCE35F0FDE43C64
:10285B00FC2275F008758200EF2FFFEE33FECD33AF
:10286B00CDCC33CCC58233C5829BED9AEC99E582F6
:10287B0098400CF582EE9BFEED9AFDEC99FC0FD582
:10288B00F0D6E4CEFBE4CDFAE4CCF9A88222B80072
:10289B00C1B90059BA002DEC8BF084CFCECDFCE53D
:1028AB00F0CBF97818EF2FFFEE33FEED33FDEC3361
:1028BB00FCEB33FB10D703994004EB99FB0FD8E5E6
:1028CB00E4F9FA227818EF2FFFEE33FEED33FDEC2F
:1028DB0033FCC933C910D7059BE99A4007EC9BFC25
:1028EB00E99AF90FD8E0E4C9FAE4CCFB2275F010B1
:1028FB00EF2FFFEE33FEED33FDCC33CCC833C810D6
:10290B00D7079BEC9AE899400AED9BFDEC9AFCE803
:10291B0099F80FD5F0DAE4CDFBE4CCFAE4C8F92250
:10292B00C3E49FFFE49EFEE49DFDE49CFC22EB9F31
:10293B00F5F0EA9E42F0E99D42F0E89C45F022E872
:10294B00600FECC313FCED13FDEE13FEEF13FFD87A
:10295B00F122E8600FEFC333FFEE33FEED33FDECF6
:10296B0033FCD8F122ECF0A3EDF0A3EEF0A3EFF0E3
:10297B0022A8828583F0D083D082122993122993C7
:10298B00122993122993E473E493A3C583C5F0C56D
:10299B0083C8C582C8F0A3C583C5F0C583C8C582EB
:1029AB00C822F8E0FBA3A3E0F925F0F0E58215823D
:1029BB0070021583E0FA38F022EBF0A3EAF0A3E9FA
:1029CB00F022D083D082F8E4937012740193700DCF
:1029DB00A3A393F8740193F5828883E47374029331
:1029EB006860EFA3A3A380DFC10BC18C410106007C
:1029FB0041010E00C10E4401000000000061000106
:102A0B0011CC0000000000000000000000000000DE
:102A1B0000000000000000000000000000000000AB
:102A2B00000000000000000000000000000000009B
:102A3B00000000000000000000000000000000008B
:102A4B00000000000000000000000000000000007B
:102A5B00000000000000000000000000000000006B
:102A6B00000000000000000000000000000000005B
:102A7B00000000000000000000000000000000004B
:102A8B00000000000000000000000000000000003B
:102A9B00000000000000000000000000000000002B
:102AAB00000000000000000000000000000000001B
:102ABB00000000000000000000000000000000000B
:102ACB0000000000000000000000000000000000FB
:102ADB0000000000000000000000000000000000EB
:102AEB0000000000000000000000000000000000DB
:102AFB0000000000000000000000000000000000CB
:102B0B00006032028700000000000000000000009F
:102B1B0000000000000000000000000000000000AA
:102B2B00000000000000000000000000000000009A
:102B3B000000000000000041028600C10F4102B9F5
:102B4B0016A10000110506000000000000000000A7
:102B5B00000000000000000000000000000000006A
:102B6B00000000000000000000000000000000005A
:102B7B00000000000000000000000000000000004A
:102B8B00000000000000000000000000000000003A
:102B9B00000000000000000000000000000000002A
:102BAB00000000000000000000000000000000001A
:102BBB0000003800000000000000000000000000D2
:102BCB0000000000110023800070000000000000D6
:102BDB0000000000000001084649542000000000DE
:102BEB0000000000000000001F00093A31303032B5
:102BFB0039373131303120202020202031204268DC
:102C0B0007D00063020000003532383632303735DA
:102C1B00302020202020202031353130313320202E
:102C2B000000002900000000000000000000000070
:102C3B000000000000000000000000000000000089
:102C4B00000000004202800000410282004802BAEC
:102C5B000104080C101820304802C20301040005BF
:102C6B0006070200C0E0C0F0C083C082C0D075D0A0
:102C7B0000C000C004C006C007E5B9540F1460447F
:102C8B0014606F24FE607624FA602C24FE606814B6
:102C9B0060652404706A53B9F6900280E475F00104
:102CAB001227F8740025F0F8E2F5BBC3900280E020
:102CBB009401404CE4800853B9F59002827401F002
:102CCB00A3F0803CE5B930E40553B9EF801F9002C7
:102CDB0080E475F0011227F8740025F0F8E2F5BBDB
:102CEB00C3900280E094014004E4F0A3F053B9FEDA
:102CFB00800E53B9FD800953B9FB022D8A53B9FBE2
:102D0B00E5AB20E2779002B9E5BCF0900283E0B42A
:102D1B0001EE9002B9E0645060E6900282E014701C
:102D2B00319002B9E0C394804019787FE275F0804E
:102D3B00A4FFE07C002FFEEC35F0900280F0A3CED8
:102D4B00F080329002B9E0FF900280E4F0A3EFF044
:102D5B0080239002B9E0FF900280E475F001122706
:102D6B00F8740025F0F8EFF2C3900280E094014074
:102D7B0004E4F0A3F0900282E4F0808453B9DFD036
:102D8B0007D006D004D000D0D0D082D083D0F0D0E2
:102D9B00E032E4900215F078167C027D017BFF7A1D
:102DAB001C790AFE7F0812277A781E7C027D017B34
:102DBB00FF7A1C79127E007F0312277A78217C021E
:102DCB007D017BFF7A1C79157E007F0812277A78AC
:102DDB00297C027D017BFF7A1C791D7E007F081206
:102DEB00277A78317C027D017BFF7A1C79257E0066
:102DFB007F0812277AC201900239E5A7F0E4F5A704
:102E0B00C2B47FFF7EFB123842900215EFF07DA516
:102E1B007F007EF812378F7B017A02791690025D64
:102E2B00E4F0A37408F07F007EF81234C37B017AC0
:102E3B0002792990023FE4F0A37408F07D007CF83E
:102E4B001233F1E4FF74162FF582E43402F583E0BC
:102E5B00FE74292FF582E43402F583E06E6002D212
:102E6B00010FEFB408DF7DA57F007EF812378F7F4F
:102E7B00007EF8123842900215EFF064A56002D282
:102E8B00017F007EF81237C17F007EF81238429026
:102E9B000215EFF0F46002D201900239E0F5A7229F
:102EAB00C0E0C083C082C0D075D000C006C007C2CE
:102EBB000030C203022F6FE5C054F02480606D24F4
:102ECB00C0602624E06003022F6B90010DE025E02B
:102EDB00F5C253C2FEA20DE43342C2C2C5900285B5
:102EEB007401F0900284F0807D30C123200D779027
:102EFB000104E0FF900284E0FED39F501574082E6E
:102F0B00F582E43401F583E0F5C290028480393018
:102F1B000F06D2C4C20A804ED2C4D2C5900108E0BB
:102F2B0004F07042900107E004F0803A900285E0D3
:102F3B00FFC39402740E50152FF582E43401F58310
:102F4B00E5C2F0D2C1900285E004F080192FF58222
:102F5B00E43401F583E5C2F0C20AC2C1D2C48006D3
:102F6B00D2008002D20030001E53C17F43C180C209
:102F7B00C5C2C4C2C1C20AC200900108E004F0700D
:102F8B0006900107E004F0C2C0D007D006D0D0D025
:102F9B0082D083D0E032C2B4D2A2D2AF90FFD5E4BC
:102FAB0093FE90FFD4E493FDEDFF90021FEEF0A390
:102FBB00EFF0438701300EFA900100E0FCA3E0FD37
:102FCB00A3E0FEA3E0FFC006C00790021FE0FEA334
:102FDB00E0FBAA06D007D006C3EF9BFFEE9AFEEDEF
:102FEB009400FDEC9400FCE47B64FAF9F812280ED3
:102FFB00E47B1CFAF9F812370B900215122970E4D6
:10300B007B64FAF9F8900215E0FCA3E0FDA3E0FE67
:10301B00A3E0FF12370B900219122970900215E0F2
:10302B00FCA3E0FDA3E0FEA3E0FFEC339002155000
:10303B0009A3A3A3E012292B800BE0FCA3E0FDA3C3
:10304B00E0FEA3E0FFE47B64FAF9F812370BAF0361
:10305B0090021DEAF0A3EFF07BFF7A00798E9002CD
:10306B0019E0FCA3E0FDA3E0FEA3E0FF90025B12DE
:10307B00297090021DE0FFA3E090025FCFF0A3EF59
:10308B00F01223B0C20E022FBD90021E12297090B7
:10309B000228E5A7F075A72090021EE0C313FEA33C
:1030AB00E013FFE4FCFD900222E0F8A3E0F9A3E0BB
:1030BB00FAA3E02FFFEA3EFEED39FDEC38FC90025F
:1030CB0022A3A3A3E0FB122899900227EFF0E49030
:1030DB000226F0900226E0FFC39408400302317CE5
:1030EB0074BA2FF582E43402F583E0FF900227E0F7
:1030FB00FEEFC39E4072E47F02FEFDFC900222E0D5
:10310B00F8A3E0F9A3E0FAA3E0FB12280EA804A9A8
:10311B0005AA06AB07900226E024BAF582E4340236
:10312B00F583E0FFE4FCFDFE12280EA804A905AA16
:10313B0006AB0790021EE0FCA3E0FDA3E0FEA3E0BC
:10314B00FF122899C3E49FFFE49EF596EFF5959047
:10315B000226E024C2F582E43402F583E0444042C7
:10316B0094900228E0F5A722900226E004F00230AA
:10317B00DE80FE7F007EF81237C11238B79002193D
:10318B0012297C0001C2007F207ED77D757C011245
:10319B00374FC2B420922A75E340C293E4FFFE0F6F
:1031AB00BF00010EEFF44E70F6D2933093FDE4FEA8
:1031BB00FF0FBF00010EEF640A4E70F5E4F5E380DC
:1031CB00D3120003D296E4900211F0900107F0A302
:1031DB00F0C2AF75A72053BAFE43AD44D2AF122D48
:1031EB009D122FA1121C339001097498F0A3741136
:1031FB00F0A374ABF0A374CDF0A37410F0123528C8
:10320B0090010D7410F0E4900212F0900212E02481
:10321B0009F582E43401F583E0FF900212E0240FFC
:10322B00F582E43401F583E06F600E900108E00451
:10323B00F07006900107E004F0900212E004F0E059
:10324B00B402C87FF402381EF9E43AFA900258EB44
:10325B00F0A3EAF0A3E9F0A312297C00000000E43C
:10326B0090025FF090025BE0FCA3E0FDA3E0FEA305
:10327B00E0FF780812295D90025B12297090025BC7
:10328B00E0F8A3E0F9A3E0FAA3E0FBC000C001C0A3
:10329B0002C003900258E0FBA3E0FAA3E0F990020E
:1032AB005FE0F5827583001227B9FFD003D002D0FF
:1032BB0001D000EB4FFFEAFEE9FDE8FC90025B1248
:1032CB00297090025FE004F0E0B4049890025BE098
:1032DB00FCA3E0FDA3E0FEA3E0FF2212003A787FFF
:1032EB00E4F6D8FD75812102333002317EE493A3DD
:1032FB00F8E493A34003F68001F208DFF48029E49D
:10330B0093A3F85407240CC8C333C4540F4420C8E8
:10331B00834004F456800146F6DFE4800B0102047F
:10332B0008102040809029F3E47E019360BCA3FF3A
:10333B00543F30E509541FFEE493A360010ECF54B4
:10334B00C025E060A840B8E493A3FAE493A3F8E4A3
:10335B0093A3C8C582C8CAC583CAF0A3C8C582C80F
:10336B00CAC583CADFE9DEE780BE900260EEF0A338
:10337B00EFF0A3ECF0A3EDF0A3EAF0A3EBF0A3A323
:10338B00E0FF74017E00A807088005C333CE33CE5F
:10339B00D8F924FFFFEE34FFAD07FC900264A3E0E5
:1033AB00F9EDAE04A801088005C333CE33CED8F9AE
:1033BB00F4FFEEF4FE900260E05EF0A3E05FF0A39A
:1033CB00E05CFEA3E05DA801088005C333CE33CEDD
:1033DB00D8F9FF900260E04EFEA3E04FFF90026031
:1033EB00EEF0A3EFF02290023AEBF0A3EAF0A3E9A0
:1033FB00F0A3ECF0A3EDF0E4900241F0A3F0900207
:10340B003FE0FEA3E0FFA3E0FCA3E0FDC39FEC9E27
:10341B00503390023EE02DFF90023DE03CFE12380F
:10342B004290023AE0FBA3E475F0011227F8A9F0F1
:10343B00FAEF1227E6900242E004F070C1900241CD
:10344B00E004F080B990023AE0FBA3E0FAA3E0F9C4
:10345B0022900258EBF0A3EAF0A3E9F0E4A3F0A367
:10346B00F0A3F0A3F090025DE0FCA3E0FDC3940297
:10347B00EC64809480503890025CE0F8E4F0E890C3
:10348B00025BF0900258E0FBA3E0FAA3E0F98D8217
:10349B008C831227B9FF90025BE0F0A3E04FF09012
:1034AB00025EE004F070BE90025DE004F080B69026
:1034BB00025BE0FEA3E0FF2290025AEBF0A3EAF0DE
:1034CB00A3E9F0900258EEF0A3EFF090025FEEF05C
:1034DB00A3EFF090025DE0FEA3E0FF900259E02F16
:1034EB00FD900258E03EFC90025FE0FEA3E0FFC3BC
:1034FB009DEE9C502790025AE0FBA3E475F001125D
:10350B0027F8A9F0FA1227A0FD12378F900260E07E
:10351B0004F070BF90025FE004F080B7229002626B
:10352B0012297C00000000200AFDD20AC20DD2C570
:10353B00300A48900262E0FCA3E0FDA3E0FEA3E0AA
:10354B002401FFE43EFEE43DFDE43CFC90026212EC
:10355B002970E47FFFFEFDFC900262E0F8A3E0F926
:10356B00A3E0FAA3E0FBD312293940C49002621204
:10357B00297C0000000012367DC322D32290026208
:10358B0012297C00000000200AFDD20AD20DD2C500
:10359B00300A48900262E0FCA3E0FDA3E0FEA3E04A
:1035AB002401FFE43EFEE43DFDE43CFC900262128C
:1035BB002970E47FFFFEFDFC900262E0F8A3E0F9C6
:1035CB00A3E0FAA3E0FBD312293940C490026212A4
:1035DB00297C0000000012367DC322D322900243C7
:1035EB00E0240FFF900242E03400FE900260EEF008
:1035FB00A3EFF09001047402F090010D7410F090A1
:10360B000260E0FCA3E0FDEC900109F0EDA3F012E9
:10361B00352890010D7410F012358850D690010F9B
:10362B00E0FEA3E0FDEDFF2290025AECF0A3EDF0DB
:10363B00A3EAF0A3EBF0900258EEF0A3EFF01235F3
:10364B00F6C00790025AE0FCA3E0FDA3E0FAA3E06A
:10365B00FBA3E0FFA3E0900266CFF0A3EFF0D0074F
:10366B00123375AC06AD07900258E0FEA3E0FF02E3
:10367B0037F97F0943D50C75F2FF75A55FE59030DF
:10368B00E210AE071FEE600A5390F700439008005C
:10369B0080EB75A55F5390F75390FB0043900800A8
:1036AB004390040053D5F375A55053C17F43C1809C
:1036BB00C2C5C2C4C2C1C20A22C0E0C0F0C083C02E
:1036CB0082C0D075D000C000C004C005C006C007C2
:1036DB00C2EDE5BDAEBE7802CEC313CE13D8F9FF53
:1036EB00E4FCFD900100122970D20ED007D006D059
:1036FB0005D004D000D0D0D082D083D0F0D0E0322F
:10370B00C2D5E830E70FB2D5E4C39BFBE49AFAE4E9
:10371B0099F9E498F8EC30E717B2D5123741122833
:10372B0099E4C39BFBE49AFAE499F9E498F88003D3
:10373B0012289930D50DE4C39FFFE49EFEE49DFD56
:10374B00E49CFC2290021DE5A7F075A72043C8124C
:10375B00E4F5DA43930CC004C005C006C007900221
:10376B0019E0FCA3E0FDA3E0FEA3E0FF9002221210
:10377B002970D007D006D005D00412309490021DCA
:10378B00E0F5A722A2AF9202A9A7E4F5A7C2AF75F5
:10379B00FF8075EF028F828E8375B7A575B7F143E6
:1037AB008F0175FF8075EF02EDF0538FFEAF018F28
:1037BB00A7A20292AF22A2AF9202ADA7E4F5A7C2D5
:1037CB00AF75FF8075EF028F828E8375B7A575B7C6
:1037DB00F1438F0375FF8075EF02F0538FFCAF053C
:1037EB008FA7A20292AF22E4FDFC7F0D7E98AB0760
:1037FB00AA069001047404F090010D7410F0EA9085
:10380B000109F0EFA3F0ECA3F0EDA3F01235285073
:10381B00FBD3225388CF5389F0438901438E04EFA6
:10382B006012C28C758CA0758A4CC28DD28C308D77
:10383B00FD1F80EBC28C22A2AF9202ADA7E4F5A7CD
:10384B00C2AF8F828E8393FFAE058EA7A20292AF7B
:10385B0022E59154045391FB7595FE75940C759369
:10386B003875929E43910442912290025EE4F0A33C
:10387B0004F07B0E7A00FD7C007F617E8402363380
:10388B0075A710E59854045398FB75A33875A29E41
:10389B0043980442982275B30775B29C75BB147597
:1038AB00DF6375BC0875B98643E8C122900215E544
:1038BB00A7F012392B900215E0F5A72275A72075FA
:1038CB0094437596FF75959643C8102275A72053A0
:1038DB00BAFD43BA0275A71053987F32AEA775A7EE
:1038EB002030C9FD8F92C2C98EA72253C17F43C11D
:1038FB008053917FC2C5C20A32E4F5A775E689757C
:10390B00F30675A8802275BD5053BAFB43BA184312
:10391B00BA0222E5C0540453C0FB43C00442C02288
:10392B00E4F5A7F5A9E5A930E7FB22E4F5A7759720
:10393B00DE7597AD2275A55075D5032275E34175DC
:0A394B00E1042253C1FC43C1DD2258
:00000001FF
