:020000040000FA
:10000000022FED900004E5A7F012327112006D127C
:10001000003412327B1231AD1231DF1231C912328B
:100020003F12328212320212325912324C900004C4
:10003000E0F5A72275A55075D50322022C8BAD07DC
:10004000AC0690033E7402F09003477410F0EC90FD
:100050000343F0EFA3F012307C9003477410F012CA
:100060000076900349E0FEA3E0FDEDFF2275D4FF8A
:0200700022224A
:10007300023231200AFDD20AD20DD2C5200AFD2256
:03008300022B3A13
:10008B0002321230B5D8D6B7D6B5CEAAA3BA3078CD
:10009B002530347800307839383131B5D8D6B7D6E9
:1000AB00B5CEAAA3BA307825303478000D0A6C652A
:1000BB006E3A30780025303478000D0A000D0A6551
:1000CB006E746572506F696E743A3078000D0A73F6
:1000DB0074617274416464723A30780025303878F8
:1000EB00000D0A2072616D416464723D0030782509
:1000FB00303878000D0A206D64696F446174613D7E
:10010B0000636865636B73756D203D0063686563A1
:10011B006B73756D206572726F72212C20746F7406
:10012B00616C206572726F72093D20003078257802
:10013B0000636865636B2074686520726573756C0A
:10014B00743A0D0A00307839383134277320207611
:10015B00616C75653A004966207468657265206943
:10016B007320636865636B73756D206572726F7254
:10017B002C20746F74616C206572726F7220203D3D
:10018B0020006C6F61642064656661756C743A2045
:10019B00006C6F61642064656661756C743A203025
:1001AB00783938313827730976616C75653A006C8C
:1001BB006F6164203235673A20004D43552053540C
:1001CB00415254204F4B2E2E2E2E2E2E00534D428D
:1001DB0030434600534D4230544300534D4230435D
:1001EB004E3000534D423041445200534D4230414A
:1001FB00444D00534D423044415400534D42304620
:10020B00434E3000534D423046434E3100534D4226
:10021B003052584C4E00534D4230464354005031EF
:10022B004D41534B0050314D415400503100503132
:10023B004D44494E0050314D444F555400503153AD
:10024B004B495000C2ED0100077D00000100010089
:10025B0000001A380100000000000FD000000FD082
:10026B0000000FD000000FD000000FD000000FD007
:10027B0000000FD000000FD000000FD000000FD0F7
:10028B0000000FD000000FD000000FD000000FD0E7
:10029B000000000000000000000000000000000053
:1002AB000100050400000000000000000000000039
:1002BB000000000000000000000000000000000033
:1002CB000100059C010006440100066C040000407F
:1002DB0001F4010000200004000201F402000002FE
:1002EB000001FFFC00010006000A000600050005E6
:1002FB00003B001E0001000A00000000000000008F
:10030B0001000003004B00320190050600000000C5
:10031B0000000000000000981000A989100DCBAB65
:10032B001000DCBC10065DCD0000065D0000007601
:10033B00000000000000021000032F01000000006D
:10034B00000103E8020001800020060600140000F3
:10035B0000000000000000001820010000000173E5
:10036B00A8211D389C21FFE0B8640082D401100441
:10037B00A8409805AC84FFFFD401B014E2C3100071
:10038B009C400001A4840003E0421802D401A01099
:10039B00E2842000B8420008D4017008E2942000E7
:1003AB009DC00000D401900CD401C018D401481C8E
:1003BB00D40108009E940004E04410009F00000A42
:1003CB00AA4E000007C004E0A8760000E16BA0482D
:1003DB00186000008CB7003EA8632DF0A56B0007DA
:1003EB00E16B18008C8B0000E564280010000007FF
:1003FB00A8770000E0A52002E5722800100000039A
:10040B0015000000AA4500008C63003FE5A418000E
:10041B0010000006E0841802E56E200010000003B7
:10042B0015000000A9C400009F18FFFFBC38000096
:10043B0013FFFFE5150000009E52FFFFBC32FFFFCC
:10044B000C000006A860980407C004D3A882000023
:10045B0003FFFFFB9E52FFFF9C4200049DCEFFFF5C
:10046B00BC2EFFFF0C000006A860980407C004CA4E
:10047B00A882000003FFFFFB9DCEFFFF8521001C20
:10048B00842100008441000485C100088641000CD2
:10049B008681001086C100148701001844004800B3
:1004AB009C2100209C21FFE8D4017008D401481442
:1004BB00D4010800D4011004D401900CD401A01075
:1004CB00A9C30000946E0000BC2300000C000016B2
:1004DB00A4430F00BC2208001000000E968E0002F1
:1004EB009E400000A443F0FFA880FFFFE062900055
:1004FB00A8B4000007C0049F9E520100BC32080044
:10050B0013FFFFFBA880FFFF03FFFFEF9DCE00044F
:10051B00A880FFFF07C00497A8B4000003FFFFEA01
:10052B009DCE000485210014842100008441000429
:10053B0085C100088641000C8681001044004800EC
:10054B009C2100189CA000019C21FFF4E085200851
:10055B00D4011004A8430000A8609811A8A40000BF
:10056B00D401480807C00483D4010800B4605001CB
:10057B00D40218089C600000DC02181A85210008C0
:10058B008421000084410004440048009C21000C9D
:10059B00A4A400079C21FFF0B8A5000BD401100404
:1005AB009CC03800A84400009C80004ED401700809
:1005BB00D401480CA9C3000007C00783D40108006D
:1005CB00A4A20008A86E0000BC05000010000003E8
:1005DB009C8000DF9CA0002207C0077B9CC000E230
:1005EB008521000C842100008441000485C1000892
:1005FB00440048009C2100109C21FFECD401100406
:10060B00D4017008D4014810D4010800D401900C17
:10061B00A84300008E4300148CA3000CA6520007C5
:10062B00E572280010000004A9C4000000000005BA
:10063B009CA5FFFFE5B22800100000039CA500015C
:10064B00D802280C8CA2000CA4A50007A86E0000F1
:10065B00B8A5000B9C80004E07C0075B9CC0380000
:10066B008C62000CE4239000100000158521001013
:10067B008C82001407FFFFC7A86E0000A86E000055
:10068B009CA002009CC03F8007C0074F9C800001CC
:10069B00A862000007FFFFACA88E0000B4605001F9
:1006AB00D40218089C60001EA88E0000D802180EF9
:1006BB0007FFFF2DA8620000852100108421000098
:1006CB008441000485C100088641000C44004800A9
:1006DB009C2100149C21FFF0D401480CD40108008C
:1006EB00D4011004D401700899C3001ABC0E000089
:1006FB000C0000168521000CB440500184A30008A7
:10070B00E042280298B7001CB8420059E482280046
:10071B001000000E8521000CA8430000186001009A
:10072B0007C00806A8631A289C600001DC02181A8F
:10073B008C62000FBC030000100000048521000C2C
:10074B00D802700E8521000C842100008441000426
:10075B0085C10008440048009C210010B863008448
:10076B009C21FFF4D4011004A443000FD4014808CA
:10077B00BC02000210000013D4010800BC020003ED
:10078B0010000009BC0200000C00000A18600100F8
:10079B0007FFFF45A86318649C6000050000000F6D
:1007AB00A88200001860010000000008A86318DC94
:1007BB0007C002F19C6000020000000B85210008BD
:1007CB0018600100A863198407FFFF3715000000AC
:1007DB009C6000059C80000007C002EA1500000029
:1007EB008521000884210000844100044400480056
:1007FB009C21000C9C21FFF8A48300FFD40148042A
:10080B00BC04000010000006D401080007C002DA87
:10081B009C6000020000001F8521000407C002D964
:10082B009C60000DA860981007C006C89C80001A39
:10083B0007C003C5A8609818B88B008CA56B000F78
:10084B00BC0B00001000000CAC64000DE0A0180203
:10085B00E0651804BD83000010000008BC04000014
:10086B009C60000D07C002C79C80000100000009BE
:10087B0085210004BC04000013FFFFEB15000000F2
:10088B0007C002BD9C60000D03FFFFE8A860981035
:10089B0084210000440048009C2100089C21FFF8A3
:1008AB00A89700009CA00042D401480407C0067C16
:1008BB00D401080085210004842100004400480075
:1008CB009C2100089C21FFF4D4011004A443000FC9
:1008DB00D4014808BC2200011000000CD401080010
:1008EB0018800100A8609819A88400F807C0038A33
:1008FB00948400009C60000F07C002A2A882000035
:10090B0000000006852100081860000907C0064C8E
:10091B00A8637F73852100088421000084410004B3
:10092B00440048009C21000C9C21FFD4186001005E
:10093B0018800100D401100418400100A8631A3874
:10094B00A8841F78A84200F8D4014828D4010800D5
:10095B00D4017008D401900CD401A010D401B014B0
:10096B00D401C018D401D01CD401E02007C003C0AF
:10097B00D401F02407C00366150000009462000048
:10098B00BC23000010000007186001001880010054
:10099B00A8630000040003BCA8841A38DC025800CA
:1009AB001AE00100AAF70074A860981407C0036648
:1009BB00A840FFF0E42B1000100000061840CFFFFA
:1009CB0007C0035A9C60000007BFFE85150000009E
:1009DB00A842FFFFC14010009C800000C1402001D5
:1009EB00186001009DC0FFFF07C00754A863172CB8
:1009FB009DCE0001A5CE0003B86E0003B84E0006D5
:100A0B00E043100018600100A8631D38E042180095
:100A1B0007C0079FA86E0000B96B0088BDAB001F15
:100A2B00100001CBBD4B0017A64B001FBD52000998
:100A3B0010000009BD92000BBD720008100000D819
:100A4B00BC1200021000000C9C80FFFE0000038A09
:100A5B001500000010000388BDB2000C100001044B
:100A6B00BC1200181000016DA880820000000382E8
:100A7B00150000008C6200429EC00001E063200361
:100A8B00E2D67008D802184207C0032FA860980F4F
:100A9B00A8609816E16B704807C0032BA64B0001AA
:100AAB00A8609811D8029010A89600009CA0000096
:100ABB0007C00330AA8B00009062000EBC230064B9
:100ACB001000000CA474FFFFE0637088A4630001A6
:100ADB00BC03000010000360A8960000A8609816E5
:100AEB0007C003249CA000009C600000D802180ED5
:100AFB0007C007AAA86E0000A56B00FFBC12000080
:100B0B001000002CD802580F94B700249CC0003F53
:100B1B00A4A5003FA86E000007C0062B9C800078A0
:100B2B0018600100A88E000007C00704A8631820F6
:100B3B0018600100A88E000007C00700A86317EC1F
:100B4B009C800008A86E0000D802200E07C0061A71
:100B5B009C80004EB96B00128CA2000FB96B005D2C
:100B6B00BC050000A86E00001000000CD802580C49
:100B7B009CA000009C80000107C006139CC0400095
:100B8B0094570018BC220000100000039CA0000228
:100B9B00A8A20000A86E00009C8000DF9CC0000291
:100BAB0007C00609150000000000006D94970000B7
:100BBB00BC0B0000100000319CC0003F94B7002418
:100BCB00A4A5003FA86E00009C80007807C005FE1E
:100BDB00BA94001018600100A88E000007C006D759
:100BEB00A863182018600100A88E000007C006D368
:100BFB00A86317EC9C6000059C800008D802180DB8
:100C0B00BD74000010000006D802200E9C60000787
:100C1B009C800001D802180DD80220108CA2000D68
:100C2B00A4A50007A86E0000B8A5000B9C80004E81
:100C3B0007C005E59CC038008C62000DD802180C6B
:100C4B0094570018BC220000100000039CA0000267
:100C5B00A8A20000A86E00009C8000DF07C005DA88
:100C6B009CC00002A86E00009C8000019CA00000AC
:100C7B0003FFFFCC9CC040008C62000E9C63FFF610
:100C8B00BC43000D1000003B18600100B460500124
:100C9B0084A20004E063280294B70010B8630050EC
:100CAB00E485180010000032E0B770008CC200130E
:100CBB009C660012B8630002E077180084630000A2
:100CCB00B883005CD40218209C84001AB8840002FC
:100CDB00E097200084840000D8029012D4022024D4
:100CEB00A48300FFB8630004A4E4000FA4840007EE
:100CFB00B8630048D802200CD8023814D40218204C
:100D0B0018600100DC029018DC029016D805302C1C
:100D1B00A88E000007C00689A86317EC8CA2000CF4
:100D2B0098970022E58520001000000915000000AF
:100D3B0094B70080A4A5007FA86E0000B8A500079B
:100D4B009C80000107C005A09CC03F808C820014D2
:100D5B0007FFFE10A86E00009497000007C005A3C4
:100D6B00A86E0000000002C415000000186001000E
:100D7B00A88E000007C00671A86317889C80001F0F
:100D8B009C600000D802201CD802201D9C8000080B
:100D9B00D8021812000002B8D802200E8E82001260
:100DAB00BC340000100000079C600010B4605001C0
:100DBB00D40218049C600009D802180E9C60001025
:100DCB00E283A088BC340000100000031500000073
:100DDB009E800001A86E000007C005779C80007400
:100DEB00A56BFFFFBC4B0001100000039C600001D2
:100DFB009C600000A46300FFBC23000010000005F2
:100E0B008C62001CBC3200091000000815000000A9
:100E1B00D802181EBC43003E0C000005E283A00064
:100E2B00000000058CA2001CE283A002D802A01CCB
:100E3B008CA2001CA86E00009CC0007F9C80004A06
:100E4B0007C00561A4A5007FA86E00009C80004927
:100E5B0007C0056A9CA00000A8808B8C07C0055FAB
:100E6B00A86E000000000284150000008E820012A4
:100E7B009C600010E283A088BC34000010000003CB
:100E8B00150000009E800001A86E000007C0054AF7
:100E9B009C800074A56BFFFFBC4B0001100000048D
:100EAB008C62001D00000006E283A002BC43003EE2
:100EBB0010000004D802181FE283A000D802A01D66
:100ECB008CA2001DA86E00009C80004CA4A5007F86
:100EDB0007C0053D9CC0007F8C620012BC4300061E
:100EEB00100000109C800078A8A0FFFFA86E0000E7
:100EFB0007C005429C800049A880888907C0053738
:100F0B00A86E00008C6200129C630001BC32000CC6
:100F1B0010000259D80218120000003B18600100A3
:100F2B0094B70024A86E0000A4A5003F9CC0003F0E
:100F3B0007C005259E40000018600100A88E000028
:100F4B0007C005FEA86318208C62001FE403900005
:100F5B001000000F9C80000007C001B18C62001EC6
:100F6B008C62001F07C001AEAA4B0000A8720000E4
:100F7B0007C00182A88B00009C80000707C00256A7
:100F8B00A86B00009E4BFF809C800000A860981609
:100F9B0007C001EDD4022020A56B8000BC2B000004
:100FAB00100000139C600006BDB2004B1000000E39
:100FBB00BDB200721000000C9D600001BDB2008735
:100FCB00100000099D600002BDB200CB10000006AE
:100FDB009D600003BD5200FE100000039D600005E4
:100FEB009D6000049C600005E0635802D802181352
:100FFB00E0777000D80390409C60000AD802180E6E
:10100B0018600100A88E000007C005CCA863184823
:10101B00000002121860010007C004F0A86E000067
:10102B008C620042A8630001D802184207C0056514
:10103B00A86E0000A86E000007C0052FAA4B000089
:10104B009477001AE48B1800100000059E520010D4
:10105B00BCB200201000000915000000A86E0000B3
:10106B009C8000509CA0080007C004D79CC00FFFB9
:10107B0000000201150000008C620010BC03000090
:10108B001000002E150000009497000207C004D733
:10109B00A86E0000A8A0E000A8C0F000A86E000099
:1010AB0007C004C99C80003B8C620010BC0300008D
:1010BB001000000D150000008C62000FBC23000017
:1010CB00100000189C60001A8C82000C9877001E90
:1010DB00E564180010000004A86E000007C005F5B9
:1010EB009C8000078C62000FBC2300001000000DD9
:1010FB009C60001A8C82000C98770020E564180025
:10110B00100000069CA00022A86E00009C8000DF4F
:10111B0007C004AD9CC000E2000000099C80001DCC
:10112B00A88E0000D802180E07FFFC8FA8620000E3
:10113B0000000004150000009C800010D802200E57
:10114B00B4605001000001CCD40218000C0001C3A4
:10115B00186001009E4E00809EC00003BA5200082A
:10116B009F9200139E52002A07C00177A87C0000B3
:10117B00A872000007C00174ABCB00009C80000D6F
:10118B00A86E000007C0048CAB0B0000A86E00001B
:10119B0007C00501AA8B0000A87C0000AB4B000028
:1011AB0007C00169A7DE000FA56B000FE55E5800B5
:1011BB00100000039C8000019C800000A48400FFB1
:1011CB00BC24000010000014BC0B000F1000001317
:1011DB009ED6FFFFB6C050018C62000E9C63FFF0E1
:1011EB0086420000A46300FFE2569002BC4300213C
:1011FB0010000199BA52005018800100B863000228
:10120B00A88416A4E0632000846300004400180047
:10121B00150000009ED6FFFFBC36000013FFFFD366
:10122B001500000003FFFFEC15000000947700266B
:10123B00E4921800100001891860010094970002D5
:10124B0007C0046AA86E0000A86E00009C8000080E
:10125B009CA0008007C0045C9CC000F08C62000F57
:10126B00BC0300000C00017AD402B0000000012D79
:10127B009C80001294970028E492200010000177C4
:10128B00186001009497003C94C20018E09820006D
:10129B00E58430001000000815000000947700264C
:1012AB00E49218000C000005186001000000016BAF
:1012BB00150000009F00000084620024D402B000DF
:1012CB00A483000FB8630044BC24000F0C0000146F
:1012DB00D40218249C640014A4B8FFFFE063180028
:1012EB00E0E22000E0621800DC0328008C620014AE
:1012FB00D807D030D80718348CE20012E5A4380098
:10130B0010000003E5B83000D802201210000004D2
:10131B0015000000DC022818DC021816848200205D
:10132B00BC04000010000013BC38000010000009C2
:10133B00150000008CA2001494620016A4A50007EF
:10134B00A4630007E54518001000000A1500000013
:10135B00A484000FA86E000007FFFC8ED802201497
:10136B0084620020B86300440000013BD4021820C3
:10137B0095A2002890E200308C8200129D02002A78
:10138B009CA20031A8CD00009DE000009C600001F4
:10139B00E5A320000C000013A9970000958800001E
:1013AB00E5AC30001000000B15000000916500004B
:1013BB00BD8B000010000004E54B38001000000549
:1013CB0015000000A8EB0000A9E30000A8CC00006A
:1013DB009C6300019D08000203FFFFEE9CA500012A
:1013EB009CA200289D0200309C600000E423780042
:1013FB000C000013BC24000396250000956C0038EC
:10140B00E1715800E58B300010000008150000005A
:10141B0091680000BD8B000010000008E5AB3800A0
:10142B0010000007BC2400039C6300019CA5000274
:10143B0003FFFFEF9D080001BC2400031000001AFE
:10144B001500000015000000BC2300001000001662
:10145B00150000009482002EE0846802B8A4009F5F
:10146B00E0852005E084280294AC003AE56428006E
:10147B001000000D1500000090820031BD840000AB
:10148B00100000081500000090820032BD640000BF
:10149B001000000515000000000000039C60000216
:1014AB009C600001E06218008C8200148C63003495
:1014BB00A4840007D80218149C600019D802200CD1
:1014CB0000000007D802180E9477002AE492180047
:1014DB00100000E115000000D402B000A86200006B
:1014EB0007FFFC46A88E0000000000DC186001001E
:1014FB00A862000007FFFC78A88E00008C62000F2A
:10150B00BC230000100000D5186001009E400100B4
:10151B00A860980F07C0008CE2527008E24B900352
:10152B00BC320000100000CC9C800001A86E0000B3
:10153B00A8B2000007C003A49CC040009C6000013F
:10154B00DC029016D8021815DC029018949700361E
:10155B00E06320089C80001FD402B000D802181151
:10156B00000000BDD802200EA862000007FFFC5A45
:10157B00A88E000007C00074A860980F9C60010043
:10158B00E0637008E16B1803BC2B0000100000B384
:10159B0018600100A86E000007C003879C8000093B
:1015AB00A56B8000BC2B0000100000AC1860010084
:1015BB0094770034E4921800100000A81860010022
:1015CB008E420011946200169E52FFFFE318180022
:1015DB00A65200FFD402B000DC02C016BC320000E1
:1015EB001000009DD8029011A86E000007C0037276
:1015FB009C800080A86E00009C80000107C0036ED9
:10160B00AACB00009462001694820018E4641800C0
:10161B00100000041500000000000007DC02181881
:10162B008C6200159C63FFFFDC029018B863005FAF
:10163B00D802181590820015BC0400001000000998
:10164B00A474007FB8B60010B8A50059E583280034
:10165B000C00000A15000000000000099CA300010B
:10166B00B8AB0012B8A50059E54328000C000004E4
:10167B00A4A5FFFF9CA3FFFFA4A5FFFFA86E00007E
:10168B009C80005F07C003509CC0007F9CA0100093
:10169B00A86E00009C80000A07C0034BA8C5000081
:1016AB00949700369C600001E0632008D802181163
:1016BB009C60000000000068DC021816947700069E
:1016CB00E4B218001000006415000000A8620000CE
:1016DB0007FFFB25A88E00009C80001CD402B000E5
:1016EB00D802200EA862000007FFFB97A88E00000F
:1016FB000000005A1860010094770004E4B218004F
:10170B001000005515000000000000529C60001BEB
:10171B009477000EE4B218001000004F9C80001B61
:10172B000000004DD802200EA862000007FFFB86C8
:10173B00A88E0000000000479C60001B94770008F7
:10174B00E4921800100000449C8000319C60000063
:10175B00D802200EDC02181A9C6000019497000A34
:10176B00E0632008D80218119477000CE49218005B
:10177B001000003A186001009462001AE35A180036
:10178B008C820011BB5A00109C84FFFFD402B00066
:10179B00BB5A0090A48400FFDC02D01ABC240000CA
:1017AB001000002DD802201194F7000A987700142E
:1017BB00E0633808E5BA18001000000B8C62000CCF
:1017CB00BC030000100000169E4000018CA2000D0F
:1017DB00E4851800100000129C63FFFF0000000F4F
:1017EB00D802180C98B70016E0A53808E57A28003F
:1017FB001000000B9E400001BC43000510000008C8
:10180B00150000008CA2000DE44518001000000428
:10181B00E0639000D802180CAA4400008C82000CE4
:10182B0007C00312A86E0000BC12000010000008D5
:10183B009C80001AA8620000D802200E07FFFACA8B
:10184B00A88E000000000005186001009C600030AD
:10185B00D802180E1860010007C0025AA86300389E
:10186B00A860981007C002B99C80001A03FFFC62A5
:10187B009DCE000107C004DCA86E000003FFFFF73C
:10188B0018600100A96BFFFF19000100A90816845D
:10189B00E4032000100000109CA0000494C300007F
:1018AB00E16B3005B8CB004CB96B0004E0C63000DF
:1018BB009CA5FFFFE0C64000BC25000094C60000BD
:1018CB00E166580513FFFFF8A56BFFFF03FFFFF160
:1018DB009C630002440048001500000000008005D6
:1018EB00800F000A801B001E00148011803300360D
:1018FB00003C80390028802D8027002201000FD466
:10190B00010015FC0100101C010015FC010015FC69
:10191B00010015FC010015FC010015FC010015FC74
:10192B0001001270010014D001001298010014A0E4
:10193B0001001464010014B801001310010015FC20
:10194B00010015FC010015FC010015FC010015FC44
:10195B00010015FC010015FC010015FC010015FC34
:10196B00010015FC010015FC010015FC010015FC24
:10197B00010015FC010015FC010015FC010014E42D
:10198B00010015109810FFFF0000800B9F9F820035
:10199B00810B9F9F8200820B9F9F8200830B9F9FD7
:1019AB0082009814FFFF5B5B980C20002000980FBF
:1019BB00FFFF000F9900FFFFFDE09901FFFF2104DE
:1019CB009902FFFF93109903FFFF4A66981EFFFFD2
:1019DB0085389826FFFF95799827FFFF00000000B8
:1019EB0000F203F002E000DF00E2000000F9007EED
:1019FB00004C00F803800000003BF0000000007872
:101A0B00003F0024000B9F9F8889006500E00000C9
:101A1B000048FFFFFFFF0049FFFFFFFF004A0FFFDA
:101A2B00071F004BFFFFFFFF004C1FFF0E9F004DDA
:101A3B0080008000004E38003800004FF000F000AE
:101A4B000000000000500FFF0040003BF0000000C2
:101A5B00004D80008000000800F000800001400075
:101A6B004000000A10000000006500E00000000BC1
:101A7B009F9F8298000000000048FFFF00800049F4
:101A8B00FFFF0002004C1FFF1115004BFFFF0080F2
:101A9B00004A0FFF08BD000B9F9F82000000000053
:101AAB00008108000800000C80000000000C800082
:101ABB0080000081080000000000000088834E05B4
:101ACB008882D8008875C6FF6002800088FC523679
:101ADB00780000008850504088A30020854E0000FD
:101AEB00887641828877516688781CBB84788C38DD
:101AFB0085788C3886788C3887788C38844E0000C3
:101B0B00874E0000864E000060328000601280001D
:101B1B00886300808864808088085ABB88032933D7
:101B2B0088024006602280008806A1008805AE82EC
:101B3B000000000088DF0066888130008887CD7A3E
:101B4B008886CD7A88854D7A88848D7A88FC536611
:101B5B0088884D7A88FE80AE88FDB64488FFFDC02C
:101B6B0078080C00731AFF00711AFF00721AFF003D
:101B7B00701AFF0078093A908879886C824E380089
:101B8B00814E3800834E3800804E3800884D8000DF
:101B9B007806125488EFB6A088FB773678190005C3
:101BAB00781681C088F98B5A88F8B778000700201F
:101BBB0088F1B00088F067B488F561E088F7A24639
:101BCB00990293109900FDE099012104880102010B
:101BDB0088004D0588074D7A0000000088DF0066FD
:101BEB00888130008887CD7A8886CD7A88854D7A32
:101BFB0088848D7A7806125488FB773688FEA5A8E0
:101C0B0088FD364488FFFDC078080C00731AFF006E
:101C1B00711AFF00701AFF00721AFF0078093A90D0
:101C2B008879886C814E3800834E3800824E38009C
:101C3B00804E3800884D800088EFB6A088884D7A9A
:101C4B0078190005781681C088F98BDA88F8B7788F
:101C5B000007002A88F1B00088F067B488F561E0CE
:101C6B0088F7A246990293109900FDE0990121048F
:101C7B008801020188004D0588074D7A000000009D
:101C8B00008BFC00FC00008BFC000000000000003F
:101C9B000000000080A7140081A7140082A7140085
:101CAB0083A7140084A7120085A7120086A7120031
:101CBB0087A7120080A83C0081A83C0082A83C00AA
:101CCB0083A83C0084A83F0085A83F0086A83F005E
:101CDB0087A83F0084A63C0085A63C0086A63C0056
:101CEB0087A63C0080A0008081A0008082A000809D
:101CFB0083A0000084A0000085A0008086A0008047
:101D0B0087A00080844E2000854E2000864E200048
:101D1B00874E200080613C20816134208261342019
:101D2B0083613C2084617C20856134208661342072
:101D3B00876134209F00980D98140000000000006C
:101D4B000000000000000000000000000000000088
:101D5B000000000000000000000000000000000078
:101D6B000000000000000000000000000000000068
:101D7B000000000000000000000000000000000058
:101D8B000000000000000000000000000000000048
:101D9B000000000000000000000000000000000038
:101DAB000000000000000000000000000000000028
:101DBB000000000000000000000000000000000018
:101DCB000000000000000000000000000000000008
:101DDB0000000000000000000000000000000000F8
:101DEB0000000000000000000000000000000000E8
:101DFB0000000000000000000000000000000000D8
:101E0B0000000000000000000000000000000000C7
:101E1B0000000000000000000000000000000000B7
:101E2B0000000000000000000000000000000000A7
:101E3B000000000000000000000000000000000097
:101E4B000000000000000000000000000000000087
:101E5B000000000000000000000000000000000077
:101E6B000000000000000000000000000000000067
:101E7B000000000000000000000000000000000057
:101E8B000000000000000000000000000000000047
:101E9B000000000000000000000000000000000037
:101EAB000000000000000000000000000000000027
:101EBB000000000000000000000000000000000017
:101ECB000000000000000000000000000000000007
:101EDB000000000000000000000000000000E70907
:101EEB00F608DFFA8046E709F208DFFA803E8882BF
:101EFB008C83E709F0A3DFFA8032E309F608DFFAF7
:101F0B008078E309F208DFFA807088828C83E3091A
:101F1B00F0A3DFFA806489828A83E0A3F608DFFAF4
:101F2B00805889828A83E0A3F208DFFA804C80D242
:101F3B0080FA80C680D4806980F28033801080A6BE
:101F4B0080EA809A80A880DA80E280CA8033898216
:101F5B008A83ECFAE493A3C8C582C8CCC583CCF0C2
:101F6B00A3C8C582C8CCC583CCDFE9DEE7800D8969
:101F7B00828A83E493A3F608DFF9ECFAA9F0EDFB70
:101F8B002289828A83ECFAE0A3C8C582C8CCC583B8
:101F9B00CCF0A3C8C582C8CCC583CCDFEADEE88011
:101FAB00DB89828A83E493A3F208DFF980CC88F083
:101FBB00EF60010E4E60C388F0ED2402B4040050B4
:101FCB00B9F582EB2402B4040050AF2323458223DE
:101FDB00901F3973BB010CE58229F582E5833AF535
:101FEB0083E0225006E92582F8E622BBFE06E925AE
:101FFB0082F8E222E58229F582E5833AF583E493C0
:10200B0022A3F8E0C5F025F0F0E5821582700215E9
:10201B0083E0C838F0E822E88FF0A4CC8BF0A42C36
:10202B00FCE98EF0A42CFC8AF0EDA42CFCEA8EF0DB
:10203B00A4CDA8F08BF0A42DCC3825F0FDE98FF0C2
:10204B00A42CCD35F0FCEB8EF0A4FEA9F0EB8FF0B9
:10205B00A4CFC5F02ECD39FEE43CFCEAA42DCE3541
:10206B00F0FDE43CFC2275F008758200EF2FFFEECB
:10207B0033FECD33CDCC33CCC58233C5829BED9AA9
:10208B00EC99E58298400CF582EE9BFEED9AFDEC07
:10209B0099FC0FD5F0D6E4CEFBE4CDFAE4CCF9A84D
:1020AB008222B800C1B90059BA002DEC8BF084CF55
:1020BB00CECDFCE5F0CBF97818EF2FFFEE33FEED2C
:1020CB0033FDEC33FCEB33FB10D703994004EB9956
:1020DB00FB0FD8E5E4F9FA227818EF2FFFEE33FE69
:1020EB00ED33FDEC33FCC933C910D7059BE99A409E
:1020FB0007EC9BFCE99AF90FD8E0E4C9FAE4CCFBB6
:10210B002275F010EF2FFFEE33FEED33FDCC33CC09
:10211B00C833C810D7079BEC9AE899400AED9BFD92
:10212B00EC9AFCE899F80FD5F0DAE4CDFBE4CCFAA5
:10213B00E4C8F922C3E49FFFE49EFEE49DFDE49C0A
:10214B00FC22EB9FF5F0EA9E42F0E99D42F0E89C01
:10215B0045F022E8600FECC313FCED13FDEE13FE0C
:10216B00EF13FFD8F122E8600FEFC333FFEE33FE1E
:10217B00ED33FDEC33FCD8F122ECF0A3EDF0A3EE44
:10218B00F0A3EFF022A8828583F0D083D0821221B6
:10219B00A71221A71221A71221A7E473E493A3C5C9
:1021AB0083C5F0C583C8C582C8F0A3C583C5F0C578
:1021BB0083C8C582C822E709F60870FA8046E7098A
:1021CB00F20870FA803E88828C83E709F0A370FADC
:1021DB00807EE309F60870FA8076E309F20870FA5C
:1021EB00806E88828C83E309F0A370FA8062898207
:1021FB008A83E0A3F60870FA805689828A83E0A36B
:10220B00F20870FA804A80D280FA80C680D480654A
:10221B0080F28031801080A680EA809A80A880DAD4
:10222B0080E280CA803189828A83ECFAE493A3C866
:10223B00C582C8CCC583CCF0A3C8C582C8CCC58326
:10224B00CC70E9800D89828A83E493A3F60870F938
:10225B00ECFAA9F0EDFB2289828A83ECFAE0A3C8A1
:10226B00C582C8CCC583CCF0A3C8C582C8CCC583F6
:10227B00CC70EA80DD89828A83E493A3F20870F93B
:10228B0080CE88F0ED2402B4040050C4F582EB2418
:10229B0002B4040050BA232345822390221173BB4E
:1022AB00010689828A83E0225002E722BBFE02E309
:1022BB002289828A83E49322BB010689828A83F076
:1022CB00225002F722BBFE01F322F8E0FBA3A3E0AE
:1022DB00F925F0F0E582158270021583E0FA38F0EB
:1022EB0022EBF0A3EAF0A3E9F022D083D082F8E44A
:1022FB00937012740193700DA3A393F8740193F56B
:10230B00828883E4737402936860EFA3A3A380DFD6
:10231B00E508244EF582E43400F583E005082290AD
:10232B00004B30080390004EE475F0011222D502E9
:10233B0022AA2001E97F2ED2018018EF540F24909E
:10234B00D43440D4FF30050BEF24BFB41A00500334
:10235B002461FFE50960021509050CE50C70020507
:10236B000B30080E90004BE475F0011222D5EF02F2
:10237B0022C30232227403D2088003E4C208F50898
:10238B0090004B1222ECE4F509F50BF50CE5096016
:10239B00077F2012235E80F5750AFFC202C201C2BD
:1023AB0003C204C206C207C20912232AFF700D30F2
:1023BB0008057F0012236FAF0CAE0B22B4255FC252
:1023CB00D5C20512232AFF24D0B40A00501A75F087
:1023DB000A780930D50508B6FF0106C6A426F620F3
:1023EB00D5047002D20480D924CFB41A00EF500464
:1023FB00C2E5D205022570D20280C6D20180C0D2BE
:10240B000380BCD2D580BAD20680B47F2012235E63
:10241B002003077401B5090040F112231BFF12239F
:10242B005E022398D209D207809512231BFB12233D
:10243B001BFA12231BF94A4B700679417A267BFF54
:10244B0020032EE509602A7E008E82758300121F01
:10245B00DF60060EEE650A70F0C2D5EBC0E0EAC095
:10246B00E0E9C0E0EE1225B7D0E0F9D0E0FAD0E019
:10247B00FB1222AAFF60AAEBC0E0EAC0E0E9C0E0D1
:10248B0012235ED0E02401F9D0E03400FAD0E0FB57
:10249B00E50A0460DCD50AD980877BFF7A2579B3FE
:1024AB00D203809C791080027908C207C209800888
:1024BB00D2D5790A8004790AC2D5E50A047002F5EF
:1024CB000AE4FAFDFEFF12231BFC7B082002131209
:1024DB00231BFD7B1030010A12231BFE12231BFF53
:1024EB007B20EC3382D592D55013C3E43001069F89
:1024FB00FFE49EFEE42002039DFDE49CFCE4CBF88C
:10250B00C202EC700CCFCECDCCE824F8F870F3807F
:10251B0017C3EF33FFEE33FEED33FDEC33FCEB3340
:10252B00FB994002FB0FD8E9EB300205F8D0E0C471
:10253B0048B202C0E00AEC4D4E4F78207B0070C2CF
:10254B00EAB50A0040BCC0E01225B9D0F0D0E020BB
:10255B000204C4C0E0C4B202C0F0122347D0F0D5CD
:10256B00F0EB0223981222F524355324AF5824069E
:10257B004C24024224B34F24BB4424BB49241B43A9
:10258B0024C15524A54624A54524A54726615024DE
:10259B000A2D240E2E24312B241223242F20264ADD
:1025AB002A23CA48000024293F3F3F00790AA2D5BD
:1025BB00200414300609B910020404B9080104A25E
:1025CB00D52007025001042003689203B50900507F
:1025DB0034C0E07F203004197F30A20372077206EB
:1025EB00500F122610C203C207C206C2097F3080E9
:1025FB000F300603E9C0E012235E300603D0E0F98A
:10260B00D0E0B509CC3006177F30B9100C12235E21
:10261B007F583005077F788003B9080312235E309B
:10262B0003057F2D02235E7F202009F87F2B2007D7
:10263B00F322920380CF286E756C6C2900D20212A4
:10264B00231B3002F8C202780930D50108F60223A9
:10265B00CA2D5043495812231B2403B405004001D3
:10266B00E490265C9312234F743A12234FD20475D5
:10267B0009040224AFE490004FF078507C007D01F8
:10268B007BFF7A1D79457E017FA4121FB990004F05
:10269B00E0FF75F015A42450F582E5F03400F583C6
:1026AB00E5C1F0EF75F015A42451F9740035F0A8CD
:1026BB0001FC7D017BFF7A0179D812228D90004FAE
:1026CB00E004F0E0FF75F015A42450F582E5F0343A
:1026DB0000F583E5ACF0EF75F015A42451F9740007
:1026EB0035F0A801FC7D017BFF7A0179DF12228D89
:1026FB0090004FE004F0E0FF75F015A42450F58234
:10270B00E5F03400F583E5C0F0EF75F015A4245126
:10271B00F9740035F0A801FC7D017BFF7A0179E6A5
:10272B0012228D90004FE004F0E0FF75F015A42409
:10273B0050F582E5F03400F583E5D7F0EF75F01531
:10274B00A42451F9740035F0A801FC7D017BFF7ABC
:10275B000179EE12228D90004FE004F0E0FF75F04E
:10276B0015A42450F582E5F03400F583E5D6F0EF9F
:10277B0075F015A42451F9740035F0A801FC7D0106
:10278B007BFF7A0179F612228D90004FE004F0E086
:10279B00FF75F015A42450F582E5F03400F583E5C0
:1027AB00C2F0EF75F015A42451F9740035F0A801AF
:1027BB00FC7D017BFF7A0179FE12228D90004FE0A8
:1027CB0004F0E0FF75F015A42450F582E5F0340019
:1027DB00F583E5C3F0EF75F015A42451F9740035BA
:1027EB00F0A801FC7D017BFF7A02790612228D9005
:1027FB00004FE004F0E0FF75F015A42450F582E5DE
:10280B00F03400F583E5C4F0EF75F015A42451F90D
:10281B00740035F0A801FC7D017BFF7A02790F1261
:10282B00228D90004FE004F0E0FF75F015A42450CA
:10283B00F582E5F03400F583E5C5F0EF75F015A4EE
:10284B002451F9740035F0A801FC7D017BFF7A025D
:10285B00791812228D90004FE004F0E0FF75F0150F
:10286B00A42450F582E5F03400F583E5EFF0EF7525
:10287B00F015A42451F9740035F0A801FC7D017BFF
:10288B00FF7A02792112228D90004FE004F0E0FFD5
:10289B0075F015A42450F582E5F03400F583E5EED0
:1028AB00F0EF75F015A42451F9740035F0A801FC74
:1028BB007D017BFF7A02792912228D90004FE00473
:1028CB00F0E0FF75F015A42450F582E5F03400F527
:1028DB0083E5EDF0EF75F015A42451F9740035F094
:1028EB00A801FC7D017BFF7A02793012228D9000CA
:1028FB004FE004F0E0FF75F015A42450F582E5F0ED
:10290B003400F583E590F0EF75F015A42451F974BC
:10291B000035F0A801FC7D017BFF7A02793612228B
:10292B008D90004FE004F0E0FF75F015A42450F5F6
:10293B0082E5F03400F583E5F2F0EF75F015A42491
:10294B0051F9740035F0A801FC7D017BFF7A027907
:10295B003912228D90004FE004F0E0FF75F015A4C2
:10296B002450F582E5F03400F583E5A5F0EF75F022
:10297B0015A42451F9740035F0A801FC7D017BFFEF
:10298B007A02794012228D90004FE004F0E0FF753F
:10299B00F015A42450F582E5F03400F583E5D5F06D
:1029AB00EF75F015A42451F9740035F0A801FC7DE6
:1029BB00017BFF7A02794812228D90004FE004F0E0
:1029CB0022C10BC18C41034000410348006032021D
:1029DB00FB000000000000000000000000000000F1
:1029EB0000000000000000000000000000000000DC
:1029FB0000000000000000000000000000000000CC
:102A0B000000004102FA0041032D16610001FA118A
:102A1B0005060000000000000000000000000000A0
:102A2B00000000000000000000000000000000009B
:102A3B00000000000000000000000000000000008B
:102A4B00000000000000000000000000000000007B
:102A5B00000000000000000000000000000000006B
:102A6B00000000000000000000000000000000005B
:102A7B000000000000000000000000000038000013
:102A8B00000000000000000000000000000000112A
:102A9B000023800070000000000000000000000018
:102AAB00000108464954200000000000000000000F
:102ABB000000001F00093A313030323937313130E4
:102ACB00312020202020203120426807D0006302D3
:102ADB000000003532383632303735302020202098
:102AEB0020202031353130313320200000002900E7
:102AFB0000000000000000000000000000000000CB
:102B0B000000000000000000000000000000004278
:102B1B0001F400004101F60048032E0104080C10DB
:102B2B00182030480336030104000506070200C0D5
:102B3B00E0C0F0C083C082C0D075D000C000C0041C
:102B4B00C006C007E5B9540F146051147003022B73
:102B5B00DC24FE7003022BE724FA603324FE60763C
:102B6B001460732404707853B9F69001F4E475F093
:102B7B000112200CFE74FA25F0F58274013EF583E8
:102B8B00E0F5BBC39001F4E094014053E48008539B
:102B9B00B9F59001F67401F0A3F08043E5B930E488
:102BAB000553B9EF80269001F4E475F00112200C67
:102BBB00FE74FA25F0F58274013EF583E0F5BBC394
:102BCB009001F4E094014004E4F0A3F053B9FE80CB
:102BDB000E53B9FD800953B9FB022C7853B9FBE5B1
:102BEB00AB30E203022C7590032DE5BCF09001F79E
:102BFB00E0B401EB90032DE0645060E39001F6E04C
:102C0B0014703590032DE0C39480401D900279E041
:102C1B0075F080A4FF90032DE07C002FFEEC35F0C7
:102C2B009001F4F0A3CEF0803990032DE0FF9001DA
:102C3B00F4E4F0A3EFF0802A90032DE0FF9001F471
:102C4B00E475F00112200CFC74FA25F0F582740186
:102C5B003CF583EFF0C39001F4E094014004E4F001
:102C6B00A3F09001F6E4F0022BEA53B9DFD007D0C2
:102C7B0006D004D000D0D0D082D083D0F0D0E032B8
:102C8B00C0E0C083C082C0D075D000C006C007C2F0
:102C9B000030C203022D50E5C054F02480606E2436
:102CAB00C0602A24E06003022D4C900347E025E02E
:102CBB00F5C253C2FEA20DE43342C2C2C59001F964
:102CCB007401F09001F8F0A3E5C0F0807A30C129CF
:102CDB00200D7490033EE0FF9001F8E0FED39F506F
:102CEB001274422EF582E43403F583E0F5C29001B1
:102CFB00F88036D2C4C20A804ED2C4D2C5900342E9
:102D0B00E004F07042900341E004F0803A9001F946
:102D1B00E0FFC39402744850152FF582E43403F599
:102D2B0083E5C2F0D2C19001F9E004F080192FF5D0
:102D3B0082E43403F583E5C2F0C20AC2C1D2C48077
:102D4B0006D2008002D20030002053C17F43C180E5
:102D5B00C2C5C2C4C2C1C20AC200C294900342E03F
:102D6B0004F07006900341E004F0C2C0D007D00617
:102D7B00D0D0D082D083D0E03290000D122184903D
:102D8B000017E5A7F075A72090000DE0C313FEA375
:102D9B00E013FFE4FCFD900011E0F8A3E0F9A3E0E1
:102DAB00FAA3E02FFFEA3EFEED39FDEC38FC900074
:102DBB0011A3A3A3E0FB1220AD900016EFF0E4905B
:102DCB000015F0900015E0FFC394084003022E6C31
:102DDB00742E2FF582E43403F583E0FF900016E0A8
:102DEB00FEEFC39E4072E47F02FEFDFC900011E0FB
:102DFB00F8A3E0F9A3E0FAA3E0FB122022A804A9B0
:102E0B0005AA06AB07900015E0242EF582E43403E7
:102E1B00F583E0FFE4FCFDFE122022A804A905AA1D
:102E2B0006AB0790000DE0FCA3E0FDA3E0FEA3E0E2
:102E3B00FF1220ADC3E49FFFE49EF596EFF595904E
:102E4B000015E02436F582E43403F583E044404278
:102E5B0094900017E0F5A722900015E004F0022DE6
:102E6B00CE80FE1231F29000081221900001C200B8
:102E7B007F207ED77D757C0112311EC2B420922A31
:102E8B0075E340C293E4FFFE0FBF00010EEFF44E5B
:102E9B0070F6D2933093FDE4FEFF0FBF00010EEFEF
:102EAB00640A4E70F5E4F5E380D3120003D294E488
:102EBB00900000F0900341F0A3F0C2AF75A7205330
:102ECB00BAFE43AD44D2AF122F389003437498F03F
:102EDB00A37411F0A374ABF0A374CDF0A37410F032
:102EEB0012307C9003477410F0E4900001F09000D6
:102EFB0001E02443F582E43403F583E0FF90000105
:102F0B00E02449F582E43403F583E06F600E90030F
:102F1B0042E004F07006900341E004F0900001E001
:102F2B0004F0E0B402C8B2947FF402318974FF90CC
:102F3B000004F0A3F0E490000AF0A3F0A312219098
:102F4B000000000090001F12219000000000900074
:102F5B00231221900000000078357C007D017BFF5F
:102F6B007A1D793F7E007F06121FB990003B12211C
:102F7B009000000000900041E4F0A304F0E4900006
:102F8B0045F0A3F090001474FFF0A37402F0A37447
:102F9B004FF0E4FFFE12003E900045EEF0A3EFF081
:102FAB007BFF7A00798E90004EEEF0A3EFF01223A8
:102FBB008612315E7F117E9812003E900045EEF036
:102FCB00A3EFF07BFF7A0079A090004EEEF0A3EF19
:102FDB00F0122386E4900045F0A3F012315EB29418
:102FEB0080F9120071787FE4F6D8FD7581210230EB
:102FFB0037022E6EE493A3F8E493A34003F680010B
:10300B00F208DFF48029E493A3F85407240CC8C317
:10301B0033C4540F4420C8834004F456800146F651
:10302B00DFE4800B01020408102040809029CCE4DF
:10303B007E019360BCA3FF543F30E509541FFEE4AF
:10304B0093A360010ECF54C025E060A840B8E49371
:10305B00A3FAE493A3F8E493A3C8C582C8CAC583B3
:10306B00CAF0A3C8C582C8CAC583CADFE9DEE78038
:10307B00BE90004B12219000000000200AFDD20AE6
:10308B00C20DD2C5300A4990004BE0FCA3E0FDA372
:10309B00E0FEA3E02401FFE43EFEE43DFDE43CFC46
:1030AB0090004B122184E47FFF7EFFFDFC90004BD0
:1030BB00E0F8A3E0F9A3E0FAA3E0FBD312214D4023
:1030CB00C390004B122190000000001230DC80B442
:1030DB002212268053C17F43D50C75A55F5390BF39
:1030EB004390405390F75390FB004390080053904C
:1030FB00F75390FB004390080043900453D5F375AE
:10310B00A55053C17F43C180C2C5C2C4C2C1C20A4C
:10311B0002268090000CE5A7F075A72043C812E4A7
:10312B00F5DA43930CC004C005C006C00790000835
:10313B00E0FCA3E0FDA3E0FEA3E0FF900011122151
:10314B0084D007D006D005D004122D8490000CE05B
:10315B00F5A7227DCD7CAB7F117E98AB07AA06909D
:10316B00033E7404F09003477410F0EA900343F0AD
:10317B00EFA3F0ECA3F0EDA3F012307CD322538835
:10318B00CF5389F0438901438E04EF6012C28C75D3
:10319B008CA0758A4CC28DD28C308DFD1F80EBC2FA
:1031AB008C22AF885388AF758C38758A13758D3424
:1031BB00758B34EF5440FEEF54104E42882275A7A6
:1031CB0010E59854045398FB75A33875A29E439849
:1031DB0004429822E59154045391FB7593387592F0
:1031EB009E439104429122900004E5A7F0123266AF
:1031FB00900004E0F5A72275A7207594437596FF00
:10320B0075959643C8102275A72053BAFD43BA0291
:10321B0075A71053987F32AEA775A72030C9FD8FC5
:10322B0092C2C98EA72253C17F43C18053917FC2E3
:10323B00C5C20A32E4F5A7758E0175892043884013
:10324B0022E4F5A775E68175F30675A8802275BD96
:10325B005053BAFB43BA1843BA0222E4F5A7F5A9B7
:10326B00E5A930E7FB22E4F5A77597DE7597AD224C
:0E327B0075E34175E1042253C1FC43C1DD221D
:00000001FF
