:020000040000FA
:10000000020B1190010BE5A7F0120D4C12006D12BE
:100010000034120D56120C7E120CB0120C9A120DF6
:1000200010120D5D120CD3120D2A120D1D90010B32
:10003000E0F5A72275A51075D50322020886AD0745
:10004000AC069001437402F090014C7410F0EC90F7
:100050000148F0EFA3F0120D4290014C7410F01221
:10006000007690014EE0FEA3E0FDEDFF2275D4FF87
:0200700022224A
:10007300020D02200AFDD20AD20DD2C5200AFD22AA
:0300830002060171
:10008B00020CE3E508240EF582E43401F583E00568
:10009B00082290010B30080390010EE475F0011259
:1000AB0005BB0205632001E97F2ED2018018EF54B6
:1000BB000F2490D43440D4FF30050BEF24BFB41A77
:1000CB000050032461FFE50960021509050CE50CDE
:1000DB007002050B30080E90010BE475F001120550
:1000EB00BBEF0205A9020CF37403D2088003E4C230
:1000FB0008F50890010B1205D2E4F509F50BF50C88
:10010B00E50960077F201200D180F5750AFFC20256
:10011B00C201C203C204C206C207C20912009DFF7C
:10012B00700D3008057F001200E2AF0CAE0B22B44D
:10013B00255FC2D5C20512009DFF24D0B40A005022
:10014B001A75F00A780930D50508B6FF0106C6A462
:10015B0026F620D5047002D20480D924CFB41A001D
:10016B00EF5004C2E5D2050202E3D20280C6D201EF
:10017B0080C0D20380BCD2D580BAD20680B47F2097
:10018B001200D12003077401B5090040F112008E53
:10019B00FF1200D102010BD209D207809512008EFB
:1001AB00FB12008EFA12008EF94A4B700679B47A64
:1001BB00037BFF20032EE509602A7E008E82758368
:1001CB000012057C60060EEE650A70F0C2D5EBC01E
:1001DB00E0EAC0E0E9C0E0EE12032AD0E0F9D0E09B
:1001EB00FAD0E0FB120563FF60AAEBC0E0EAC0E0C7
:1001FB00E9C0E01200D1D0E02401F9D0E03400FADC
:10020B00D0E0FBE50A0460DCD50AD980877BFF7A56
:10021B00037926D203809C791080027908C207C229
:10022B00098008D2D5790A8004790AC2D5E50A0477
:10023B007002F50AE4FAFDFEFF12008EFC7B08202B
:10024B00021312008EFD7B1030010A12008EFE127B
:10025B00008EFF7B20EC3382D592D55013C3E43054
:10026B0001069FFFE49EFEE42002039DFDE49CFC3F
:10027B00E4CBF8C202EC700CCFCECDCCE824F8F86E
:10028B0070F38017C3EF33FFEE33FEED33FDEC332A
:10029B00FCEB33FB994002FB0FD8E9EB300205F87E
:1002AB00D0E0C448B202C0E00AEC4D4E4F78207B40
:1002BB000070C2EAB50A0040BCC0E012032CD0F0BB
:1002CB00D0E0200204C4C0E0C4B202C0F01200BAF5
:1002DB00D0F0D5F0EB02010B1205DB01A853022283
:1002EB005801794C01754202264F022E44022E49C9
:1002FB00018E430234550218460218450218470373
:10030B00D450017D2D01812E01A42B01852301A247
:10031B002003BD2A013D480000019C3F3F3F00796F
:10032B000AA2D5200414300609B910020404B90836
:10033B000104A2D52007025001042003689203B5E3
:10034B0009005034C0E07F203004197F30A20372C3
:10035B00077206500F120383C203C207C206C209FB
:10036B007F30800F300603E9C0E01200D130060366
:10037B00D0E0F9D0E0B509CC3006177F30B9100CBE
:10038B001200D17F583005077F788003B90803121C
:10039B0000D13003057F2D0200D17F202009F87F8B
:1003AB002B2007F322920380CF286E756C6C2900EB
:1003BB00D20212008E3002F8C202780930D5010841
:1003CB00F602013D2D5043495812008E2403B4050B
:1003DB00004001E49003CF931200C2743A1200C2A2
:1003EB00D204750904020222A3F8E0C5F025F0F04F
:1003FB00E582158270021583E0C838F0E822E88F99
:10040B00F0A4CC8BF0A42CFCE98EF0A42CFC8AF08D
:10041B00EDA42CFCEA8EF0A4CDA8F08BF0A42DCC8F
:10042B003825F0FDE98FF0A42CCD35F0FCEB8EF0E8
:10043B00A4FEA9F0EB8FF0A4CFC5F02ECD39FEE4CE
:10044B003CFCEAA42DCE35F0FDE43CFC2275F00813
:10045B00758200EF2FFFEE33FECD33CDCC33CCC501
:10046B008233C5829BED9AEC99E58298400CF5821C
:10047B00EE9BFEED9AFDEC99FC0FD5F0D6E4CEFB8E
:10048B00E4CDFAE4CCF9A88222B800C1B90059BA7C
:10049B00002DEC8BF084CFCECDFCE5F0CBF97818AA
:1004AB00EF2FFFEE33FEED33FDEC33FCEB33FB10A4
:1004BB00D703994004EB99FB0FD8E5E4F9FA2278BE
:1004CB0018EF2FFFEE33FEED33FDEC33FCC933C9D0
:1004DB0010D7059BE99A4007EC9BFCE99AF90FD8DA
:1004EB00E0E4C9FAE4CCFB2275F010EF2FFFEE33FA
:1004FB00FEED33FDCC33CCC833C810D7079BEC9A39
:10050B00E899400AED9BFDEC9AFCE899F80FD5F0C1
:10051B00DAE4CDFBE4CCFAE4C8F922ECF0A3EDF07D
:10052B00A3EEF0A3EFF022A8828583F0D083D082D4
:10053B00120549120549120549120549E473E49362
:10054B00A3C583C5F0C583C8C582C8F0A3C583C541
:10055B00F0C583C8C582C822BB010689828A83E0A5
:10056B00225002E722BBFE02E32289828A83E493B4
:10057B0022BB010CE58229F582E5833AF583E02263
:10058B005006E92582F8E622BBFE06E92582F8E251
:10059B0022E58229F582E5833AF583E49322BB01B8
:1005AB000689828A83F0225002F722BBFE01F322D6
:1005BB00F8E0FBA3A3E0F925F0F0E58215827002C9
:1005CB001583E0FA38F022EBF0A3EAF0A3E9F0226E
:1005DB00D083D082F8E4937012740193700DA3A3AF
:1005EB0093F8740193F5828883E4737402936860C3
:1005FB00EFA3A3A380DFC0E0C0F0C083C082C0D054
:10060B0075D000C000C004C006C007E5B9540F1474
:10061B0060511470030206A324FE70030206AE247D
:10062B00FA603324FE60761460732404707853B937
:10063B00F6900000E475F0011203F3FE740625F04A
:10064B00F58274003EF583E0F5BBC3900000E094A7
:10065B00014053E4800853B9F59000027401F0A3F4
:10066B00F08043E5B930E40553B9EF8026900000E4
:10067B00E475F0011203F3FE740625F0F5827400A5
:10068B003EF583E0F5BBC3900000E094014004E429
:10069B00F0A3F053B9FE800E53B9FD800953B9FB9B
:1006AB0002073F53B9FBE5AB30E20302073C900175
:1006BB0006E5BCF0900003E0B401EB900106E064AA
:1006CB005060E3900002E0147035900106E0C39493
:1006DB0080401D900085E075F080A4FF900106E03E
:1006EB007C002FFEEC35F0900000F0A3CEF08039AB
:1006FB00900106E0FF900000E4F0A3EFF0802A9059
:10070B000106E0FF900000E475F0011203F3FC74A6
:10071B000625F0F58274003CF583EFF0C3900000E2
:10072B00E094014004E4F0A3F0900002E4F0020630
:10073B00B153B9DFD007D006D004D000D0D0D082CF
:10074B00D083D0F0D0E032C10BC18C4101450041C8
:10075B00014D00410106166100000611050600005F
:10076B00000000000000000000000000000000007E
:10077B00000000000000000000000000000000006E
:10078B00000000000000000000000000000000005E
:10079B00000000000000000000000000000000004E
:1007AB00000000000000000000000000000000003E
:1007BB00000000000000000000000000000000002E
:1007CB0000000000000000000038000000000000E6
:1007DB00000000000000000000000011002380005A
:1007EB00700000000000000000000000000108463F
:1007FB004954200000000000000000000000001F12
:10080B0000093A3130303239373131303120202044
:10081B002020203120426807D00063020000003501
:10082B00323836323037353020202020202020310E
:10083B00353130313320200000002900000000004A
:10084B00000000000000000000000000000000009D
:10085B00000000000000000000000042000000004B
:10086B00410002004801330104080C1018203048E5
:10087B00013B030104000506070200C0E0C083C072
:10088B0082C0D075D000C006C007C20030C20302C0
:10089B000947E5C054F02480606A24C0602624E038
:1008AB00600302094390014CE025E0F5C253C2FE00
:1008BB00A20DE43342C2C2C59000057401F0900052
:1008CB0004F0807A30C129200D74900143E0FF9031
:1008DB000004E0FED39F501274472EF582E43401DE
:1008EB00F583E0F5C29000048036D2C4C20A804E74
:1008FB00D2C4D2C5900147E004F07042900146E0AB
:10090B0004F0803A900005E0FFC39402744D50153B
:10091B002FF582E43401F583E5C2F0D2C1900005D6
:10092B00E004F080192FF582E43401F583E5C2F081
:10093B00C20AC2C1D2C48006D2008002D2003000EB
:10094B002053C17F43C180C2C5C2C4C2C1C20AC247
:10095B0000C294900147E004F07006900146E00459
:10096B00F0C2C0D007D006D0D0D082D083D0E03236
:10097B0090011412052690011EE5A7F075A7209093
:10098B000114E0C313FEA3E013FFE4FCFD90011878
:10099B00E0F8A3E0F9A3E0FAA3E02FFFEA3EFEEDB7
:1009AB0039FDEC38FC900118A3A3A3E0FB120494CF
:1009BB0090011DEFF0E490011CF090011CE0FFC3CF
:1009CB0094084003020A6374332FF582E43401F573
:1009DB0083E0FF90011DE0FEEFC39E4072E47F02B7
:1009EB00FEFDFC900118E0F8A3E0F9A3E0FAA3E008
:1009FB00FB120409A804A905AA06AB0790011CE089
:100A0B002433F582E43401F583E0FFE4FCFDFE12B0
:100A1B000409A804A905AA06AB07900114E0FCA3DE
:100A2B00E0FDA3E0FEA3E0FF120494C3E49FFFE408
:100A3B009EF596EFF59590011CE0243BF582E4348E
:100A4B0001F583E04440429490011EE0F5A722900B
:100A5B00011CE004F00209C580FE120CC390010FCB
:100A6B001205320001C2007F207ED77D757C0112FA
:100A7B000BF7C2B420922A75E340C293E4FFFE0F3A
:100A8B00BF00010EEFF44E70F6D2933093FDE4FEEF
:100A9B00FF0FBF00010EEF640A4E70F5E4F5E38023
:100AAB00D3120003D294E4900107F0900146F0A317
:100ABB00F0C2AF75A72053BAFE43AD44D2AFE4FFEB
:100ACB00FE12003E900109EEF0A3EFF07DCD7CAB62
:100ADB007F117E98120C5B900109E064207004A3D7
:100AEB00E0644C60187BFF7A0B79A0900109E0FF62
:100AFB00A3E090010ECFF0A3EFF01200F9B2947FB8
:100B0B00F4120C3780B8120071787FE4F6D8FD75BB
:100B1B008121020B5B020A65E493A3F8E493A340E3
:100B2B0003F68001F208DFF48029E493A3F854075D
:100B3B00240CC8C333C4540F4420C8834004F45658
:100B4B00800146F6DFE4800B010204081020408090
:100B5B00900752E47E019360BCA3FF543F30E5093C
:100B6B00541FFEE493A360010ECF54C025E060A890
:100B7B0040B8E493A3FAE493A3F8E493A3C8C58223
:100B8B00C8CAC583CAF0A3C8C582C8CAC583CADF91
:100B9B00E9DEE780BE534D42305F493243202020CF
:100BAB00203D3D3D3D3D3D3D3D3D3D3D3D3D3D3D87
:100BBB00526561643D3D3D3D3D3D3D3D3D3D3D3DD2
:100BCB003D3D3D3D3D3D20307830203D3D3D3D3D63
:100BDB003D3D3D3D3D3D3D4572726F722121212DC5
:100BEB003E307825303258200D0A2000900113E555
:100BFB00A7F075A72043C812E4F5DA43930CC004A1
:100C0B00C005C006C00790010FE0FCA3E0FDA3E008
:100C1B00FEA3E0FF900118120526D007D006D005E1
:100C2B00D00412097B900113E0F5A7225388CF5310
:100C3B0089F0438901438E04EF6012C28C758CA03E
:100C4B00758A4CC28DD28C308DFD1F80EBC28C22ED
:100C5B00AB07AA069001437404F090014C7410F09A
:100C6B00EA900148F0EFA3F0ECA3F0EDA3F0120D26
:100C7B0042D322AF885388AF758C38758A13758D24
:100C8B0034758B34EF5440FEEF54104E428822756E
:100C9B00A710E59854045398FB75A33875A29E438F
:100CAB009804429822E59154045391FB759338753F
:100CBB00929E43910442912290010BE5A7F0120DF5
:100CCB003790010BE0F5A72275A720759443759615
:100CDB00FF75959643C8102275A72053BAFD43BAEA
:100CEB000275A71053987F32AEA775A72030C9FDA8
:100CFB008F92C2C98EA72253C17F43C18053917F6C
:100D0B00C2C5C20A32E4F5A7758E017589204388E6
:100D1B004022E4F5A775E68175F30675A880227568
:100D2B00BD5053BAFB43BA1843BA0222E4F5A7F5F8
:100D3B00A9E5A930E7FB22200AFDD20AC20DD2C5D4
:100D4B0022E4F5A77597DE7597AD2275E34175E142
:090D5B00042253C1FC43C1DD2256
:00000001FF
