:020000040000FA
:10000000023B7D90013EE5A7F0123F3D12008612B3
:100010000034123F47123E80123EC8123EB2120018
:1000200076123F4E123EDB123F25123F1890013EE2
:10003000E0F5A72275A55075D503220236F4538842
:10004000CF5389F0438901438E04EF6012C28C754F
:100050008CA0758A4CC28DD28C308DFD1F80EBC276
:100060008C2290013EE5A7F0123F3290013EE0F570
:10007000A72222023F0AE4F5A7758E017589204365
:0A0080008840220235A375D4FF2248
:10008B00023EEB534D4230434600534D42305443F6
:10009B0000534D4230434E3000534D423041445299
:1000AB0000534D423041444D00534D423044415476
:1000BB0000534D423046434E3000534D4230464381
:1000CB004E3100534D423052584C4E00534D42303E
:1000DB004643540050314D41534B0050314D415428
:1000EB000050310050314D44494E0050314D444F7A
:1000FB005554005031534B49500057722000253056
:10010B0034780020000D0A00534D42305F493243D2
:10011B005F4D617374657257726974652020455227
:10012B00524F5221212121212100534D42305F4951
:10013B0032435F4D61737465725265616420204573
:10014B0052524F5221212121212100526420003D86
:10015B003D000D0A30B5D8D6B7D6B5CEAAA3BA3066
:10016B0078253034780D0A000D0A6C656E3A3078BC
:10017B00000D0A656E746572506F696E743A307853
:10018B00000D0A7374617274416464723A307800C2
:10019B0072616D416464723D006D64696F4461749A
:1001AB00613D00636865636B73756D203D0063682B
:1001BB0065636B74696D65203D00636865636B7384
:1001CB00756D206572726F72212C20746F74616C67
:1001DB00206572726F72093D2000636865636B2046
:1001EB0074686520726573756C743A0D0A0030780B
:1001FB00393831342773202076616C75653A0049A4
:10020B006620746865726520697320636865636B2B
:10021B0073756D206572726F722C20746F74616CC4
:10022B00206572726F7220203D20006C6F6164201C
:10023B0064656661756C743A20006C6F6164206450
:10024B00656661756C743A203078393831382773AC
:10025B000976616C75653A006C6F616420323567A5
:10026B003A20004D4355205354415254204F4B2EAE
:10027B002E2E2E2E2E00C2ED0100C7F8000001001D
:10028B00010000001A580100000000000FD0000010
:10029B000FD000000FD000000FD000000FD00000D7
:1002AB000FD000000FD000000FD000000FD00000C7
:1002BB000FD000000FD000000FD000000FD00000B7
:1002CB000FD0000000000000000000000000000044
:1002DB000000010005040000000000000000000009
:1002EB000000000000000000000000000000000003
:1002FB0000000100059C010006440100066C04008F
:10030B00004001F4010000200004000201F402008F
:10031B0000020001FFFC00010006000A00060005B8
:10032B000005003B001E0001000A00000000000059
:10033B00000001000003004B003201900506000095
:10034B00000000000000000000981000A989100DAB
:10035B00CBAB1000DCBC10065DCD0000065D0000D1
:10036B000076000000000000021000032F010000C7
:10037B000000000103E802000180002006060014C3
:10038B000000000000000000000018200100000029
:10039B000173A8211D589C21FFE0B8640082D40191
:1003AB001004A8409805AC84FFFFD401B014E2C33D
:1003BB0010009C400001A4840003E0421802D40109
:1003CB00A010E2842000B8420008D4017008E29427
:1003DB0020009DC00000D401900CD401C018D401A2
:1003EB00481CD40108009E940004E04410009F00B8
:1003FB00000AAA4E000007C004E0A8760000E16BDB
:10040B00A048186000008CB7003EA8632DF0A56BC8
:10041B000007E16B18008C8B0000E56428001000CE
:10042B000007A8770000E0A52002E5722800100065
:10043B00000315000000AA4500008C63003FE5A4F3
:10044B00180010000006E0841802E56E2000100072
:10045B00000315000000A9C400009F18FFFFBC3863
:10046B00000013FFFFE5150000009E52FFFFBC329A
:10047B00FFFF0C000006A860980407C004D3A882F5
:10048B00000003FFFFFB9E52FFFF9C4200049DCE2A
:10049B00FFFFBC2EFFFF0C000006A860980407C0EE
:1004AB0004CAA882000003FFFFFB9DCEFFFF85213E
:1004BB00001C842100008441000485C10008864192
:1004CB00000C8681001086C10014870100184400BF
:1004DB0048009C2100209C21FFE8D4017008D40126
:1004EB004814D4010800D4011004D401900CD40199
:1004FB00A010A9C30000946E0000BC2300000C00E8
:10050B000016A4430F00BC2208001000000E968EAC
:10051B0000029E400000A443F0FFA880FFFFE062B2
:10052B009000A8B4000007C0049F9E520100BC328B
:10053B00080013FFFFFBA880FFFF03FFFFEF9DCE1B
:10054B000004A880FFFF07C00497A8B4000003FFB6
:10055B00FFEA9DCE00048521001484210000844114
:10056B00000485C100088641000C86810010440000
:10057B0048009C2100189CA000019C21FFF4E08501
:10058B002008D4011004A8430000A8609811A8A467
:10059B000000D401480807C00483D4010800B460EC
:1005AB005001D40218089C600000DC02181A852147
:1005BB0000088421000084410004440048009C2171
:1005CB00000CA4A400079C21FFF0B8A5000BD401DC
:1005DB0010049CC03800A84400009C80004ED4013D
:1005EB007008D401480CA9C3000007C00783D401CD
:1005FB000800A4A20008A86E0000BC0500001000B3
:10060B0000039C8000DF9CA0002207C0077B9CC0DE
:10061B0000E28521000C842100008441000485C187
:10062B000008440048009C2100109C21FFECD401E1
:10063B001004D4017008D4014810D4010800D4016F
:10064B00900CA84300008E4300148CA3000CA65200
:10065B000007E572280010000004A9C40000000088
:10066B0000059CA5FFFFE5B22800100000039CA528
:10067B000001D802280C8CA2000CA4A50007A86EC0
:10068B000000B8A5000B9C80004E07C0075B9CC008
:10069B0038008C62000CE4239000100000158521BB
:1006AB0000108C82001407FFFFC7A86E0000A86E15
:1006BB0000009CA002009CC03F8007C0074F9C809D
:1006CB000001A862000007FFFFACA88E0000B46019
:1006DB005001D40218089C60001EA88E0000D8029E
:1006EB00180E07FFFF2DA862000085210010842142
:1006FB0000008441000485C100088641000C4400C1
:10070B0048009C2100149C21FFF0D401480CD4011B
:10071B000800D4011004D401700899C3001ABC0E50
:10072B0000000C0000168521000CB440500184A37E
:10073B000008E042280298B7001CB8420059E48236
:10074B0028001000000E8521000CA8430000186043
:10075B00010007C00806A8631A489C600001DC0270
:10076B00181A8C62000FBC030000100000048521D6
:10077B00000CD802700E8521000C842100008441EE
:10078B00000485C10008440048009C210010B86398
:10079B0000849C21FFF4D4011004A443000FD40166
:1007AB004808BC02000210000013D4010800BC0270
:1007BB00000310000009BC0200000C00000A1860C6
:1007CB00010007FFFF45A86318649C60000500004B
:1007DB00000FA88200001860010000000008A86349
:1007EB0018FC07C002F19C6000020000000B852181
:1007FB00000818600100A86319A407FFFF37150054
:10080B0000009C6000059C80000007C002EA1500F8
:10081B00000085210008842100008441000444006D
:10082B0048009C21000C9C21FFF8A48300FFD401FD
:10083B004804BC04000010000006D401080007C0E7
:10084B0002DA9C6000020000001F8521000407C033
:10085B0002D99C60000DA860981007C006C89C8048
:10086B00001A07C003C5A8609818B88B008CA56B3D
:10087B00000FBC0B00001000000CAC64000DE0A0DE
:10088B001802E0651804BD83000010000008BC04CA
:10089B0000009C60000D07C002C79C800001000097
:1008AB00000985210004BC04000013FFFFEB1500B9
:1008BB00000007C002BD9C60000D03FFFFE8A860AD
:1008CB00981084210000440048009C2100089C21C2
:1008DB00FFF8A89700009CA00042D401480407C071
:1008EB00067CD4010800852100048421000044000B
:1008FB0048009C2100089C21FFF4D4011004A44360
:10090B00000FD4014808BC2200011000000CD401D8
:10091B00080018800100A8609819A88400F807C087
:10092B00038A948400009C60000F07C002A2A88277
:10093B00000000000006852100081860008907C030
:10094B00064CA8636AAF852100088421000084410E
:10095B000004440048009C21000C9C21FFD418602B
:10096B00010018800100D401100418400100A86395
:10097B001A58A8841F98A84200F8D4014828D4011B
:10098B000800D4017008D401900CD401A010D4013C
:10099B00B014D401C018D401D01CD401E02007C07E
:1009AB0003C0D401F02407C0036615000000946255
:1009BB000000BC2300001000000718600100188025
:1009CB000100A8630000040003BCA8841A58DC02D1
:1009DB0058001AE00100AAF70074A860981407C029
:1009EB000366A840FFF0E42B10001000000618402F
:1009FB00CFFF07C0035A9C60000007BFFE851500A0
:100A0B000000A842FFFFC14010009C800000C140C5
:100A1B002001186001009DC0FFFF07C00754A863A9
:100A2B00172C9DCE0001A5CE0007B86E0003B84E63
:100A3B000006E043100018600100A8631D58E04257
:100A4B00180007C0079FA86E0000B96B0088BDABEC
:100A5B00001F100001CBBD4B0017A64B001FBD5252
:100A6B00000910000009BD92000BBD7200081000B8
:100A7B0000D8BC1200021000000C9C80FFFE00008E
:100A8B00038A1500000010000388BDB2000C100093
:100A9B000104BC1200181000016DA8808200000038
:100AAB000382150000008C6200429EC00001E063CF
:100ABB002003E2D67008D802184207C0032FA860A3
:100ACB00980FA8609816E16B704807C0032BA64BD4
:100ADB000001A8609811D8029010A89600009CA065
:100AEB00000007C00330AA8B00009062000EBC23ED
:100AFB0000641000000CA474FFFFE0637088A46313
:100B0B000001BC03000010000360A8960000A86061
:100B1B00981607C003249CA000009C600000D8021C
:100B2B00180E07C007AAA86E0000A56B00FFBC1229
:100B3B0000001000002CD802580F94B700249CC062
:100B4B00003FA4A5003FA86E000007C0062B9C80A9
:100B5B00007818600100A88E000007C00704A86386
:100B6B00182018600100A88E000007C00700A863BA
:100B7B0017EC9C800008A86E0000D802200E07C05E
:100B8B00061A9C80004EB96B00128CA2000FB96B39
:100B9B00005DBC050000A86E00001000000CD80220
:100BAB00580C9CA000009C80000107C006139CC041
:100BBB00400094570018BC220000100000039CA0BA
:100BCB000002A8A20000A86E00009C8000DF9CC061
:100BDB00000207C00609150000000000006D949785
:100BEB000000BC0B0000100000319CC0003F94B70C
:100BFB000024A4A5003FA86E00009C80007807C0CD
:100C0B0005FEBA94001018600100A88E000007C002
:100C1B0006D7A863182018600100A88E000007C033
:100C2B0006D3A86317EC9C6000059C800008D802D3
:100C3B00180DBD74000010000006D802200E9C6039
:100C4B0000079C800001D802180DD80220108CA23E
:100C5B00000DA4A50007A86E0000B8A5000B9C8092
:100C6B00004E07C005E59CC038008C62000DD80211
:100C7B00180C94570018BC220000100000039CA015
:100C8B000002A8A20000A86E00009C8000DF07C035
:100C9B0005DA9CC00002A86E00009C8000019CA09D
:100CAB00000003FFFFCC9CC040008C62000E9C63D5
:100CBB00FFF6BC43000D1000003B18600100B46050
:100CCB00500184A20004E063280294B70010B863BB
:100CDB000050E485180010000032E0B770008CC2A1
:100CEB0000139C660012B8630002E077180084635F
:100CFB000000B883005CD40218209C84001AB884CE
:100D0B000002E097200084840000D8029012D402E5
:100D1B002024A48300FFB8630004A4E4000FA48480
:100D2B000007B8630048D802200CD8023814D4024C
:100D3B00182018600100DC029018DC029016D80510
:100D4B00302CA88E000007C00689A86317EC8CA274
:100D5B00000C98970022E585200010000009150073
:100D6B00000094B70080A4A5007FA86E0000B8A572
:100D7B0000079C80000107C005A09CC03F808C82AF
:100D8B00001407FFFE10A86E00009497000007C028
:100D9B0005A3A86E0000000002C415000000186037
:100DAB000100A88E000007C00671A86317889C80FD
:100DBB00001F9C600000D802201CD802201D9C80C4
:100DCB000008D8021812000002B8D802200E8E823A
:100DDB000012BC340000100000079C600010B460CF
:100DEB005001D40218049C600009D802180E9C60B4
:100DFB000010E283A088BC34000010000003150033
:100E0B0000009E800001A86E000007C005779C8043
:100E1B000074A56BFFFFBC4B0001100000039C602E
:100E2B0000019C600000A46300FFBC2300001000C5
:100E3B0000058C62001CBC32000910000008150074
:100E4B000000D802181EBC43003E0C000005E283D4
:100E5B00A000000000058CA2001CE283A002D802B7
:100E6B00A01C8CA2001CA86E00009CC0007F9C8064
:100E7B00004A07C00561A4A5007FA86E00009C80F6
:100E8B00004907C0056A9CA00000A8808B8C07C096
:100E9B00055FA86E000000000284150000008E8222
:100EAB0000129C600010E283A088BC34000010008C
:100EBB000003150000009E800001A86E000007C013
:100ECB00054A9C800074A56BFFFFBC4B0001100012
:100EDB0000048C62001D00000006E283A002BC43EC
:100EEB00003E10000004D802181FE283A000D802B5
:100EFB00A01D8CA2001DA86E00009C80004CA4A518
:100F0B00007F07C0053D9CC0007F8C620012BC4374
:100F1B000006100000109C800078A8A0FFFFA86EB0
:100F2B00000007C005429C800049A880888907C043
:100F3B000537A86E00008C6200129C630001BC3266
:100F4B00000C10000259D80218120000003B186068
:100F5B00010094B70024A86E0000A4A5003F9CC01C
:100F6B00003F07C005259E40000018600100A88EB9
:100F7B00000007C005FEA86318208C62001FE40365
:100F8B0090001000000F9C80000007C001B18C6224
:100F9B00001E8C62001F07C001AEAA4B0000A87296
:100FAB00000007C00182A88B00009C80000707C0CF
:100FBB000256A86B00009E4BFF809C800000A8602F
:100FCB00981607C001EDD4022020A56B8000BC2B26
:100FDB000000100000139C600006BDB2004B100017
:100FEB00000EBDB200721000000C9D600001BDB27E
:100FFB000087100000099D600002BDB200CB1000FD
:10100B0000069D600003BD5200FE100000039D60B2
:10101B0000059D6000049C600005E0635802D80247
:10102B001813E0777000D80390409C60000AD80238
:10103B00180E18600100A88E000007C005CCA8632D
:10104B001848000002121860010007C004F0A86ED7
:10105B0000008C620042A8630001D802184207C04E
:10106B000565A86E0000A86E000007C0052FAA4BEF
:10107B0000009477001AE48B1800100000059E52B4
:10108B000010BCB200201000000915000000A86E73
:10109B0000009C8000509CA0080007C004D79CC097
:1010AB000FFF00000201150000008C620010BC0352
:1010BB0000001000002E150000009497000207C0DE
:1010CB0004D7A86E0000A8A0E000A8C0F000A86E8E
:1010DB00000007C004C99C80003B8C620010BC035D
:1010EB0000001000000D150000008C62000FBC23E7
:1010FB000000100000189C60001A8C82000C98777E
:10110B00001EE564180010000004A86E000007C064
:10111B0005F59C8000078C62000FBC2300001000BB
:10112B00000D9C60001A8C82000C98770020E564FF
:10113B001800100000069CA00022A86E00009C80E6
:10114B0000DF07C004AD9CC000E2000000099C80DA
:10115B00001DA88E0000D802180E07FFFC8FA86296
:10116B00000000000004150000009C800010D80255
:10117B00200EB4605001000001CCD40218000C000A
:10118B0001C3186001009E4E00809EC00003BA523E
:10119B0000089F9200139E52002A07C00177A87C7B
:1011AB000000A872000007C00174ABCB00009C804C
:1011BB00000DA86E000007C0048CAB0B0000A86EDE
:1011CB00000007C00501AA8B0000A87C0000AB4BF8
:1011DB00000007C00169A7DE000FA56B000FE55EDD
:1011EB005800100000039C8000019C800000A48428
:1011FB0000FFBC24000010000014BC0B000F1000FB
:10120B0000139ED6FFFFB6C050018C62000E9C638C
:10121B00FFF086420000A46300FFE2569002BC433D
:10122B00002110000199BA52005018800100B863D8
:10123B000002A88416A4E06320008463000044002D
:10124B001800150000009ED6FFFFBC36000013FFF0
:10125B00FFD31500000003FFFFEC1500000094778F
:10126B000026E49218001000018918600100949781
:10127B00000207C0046AA86E0000A86E00009C80E4
:10128B0000089CA0008007C0045C9CC000F08C622E
:10129B00000FBC0300000C00017AD402B000000068
:1012AB00012D9C80001294970028E49220001000DE
:1012BB000177186001009497003C94C20018E098E5
:1012CB002000E58430001000000815000000947722
:1012DB000026E49218000C000005186001000000C5
:1012EB00016B150000009F00000084620024D402F3
:1012FB00B000A483000FB8630044BC24000F0C00A3
:10130B000014D40218249C640014A4B8FFFFE063FB
:10131B001800E0E22000E0621800DC0328008C6279
:10132B000014D807D030D80718348CE20012E5A48B
:10133B00380010000003E5B83000D802201210006E
:10134B00000415000000DC022818DC021816848249
:10135B000020BC04000010000013BC38000010007B
:10136B000009150000008CA2001494620016A4A5BD
:10137B000007A4630007E54518001000000A1500DC
:10138B000000A484000FA86E000007FFFC8ED8029B
:10139B00201484620020B86300440000013BD40297
:1013AB00182095A2002890E200308C8200129D023A
:1013BB00002A9CA20031A8CD00009DE000009C609B
:1013CB000001E5A320000C000013A99700009588ED
:1013DB000000E5AC30001000000B1500000091651B
:1013EB000000BD8B000010000004E54B380010001E
:1013FB00000515000000A8EB0000A9E30000A8CC35
:10140B0000009C6300019D08000203FFFFEE9CA5FA
:10141B0000019CA200289D0200309C600000E42388
:10142B0078000C000013BC24000396250000956C7B
:10143B000038E1715800E58B3000100000081500F2
:10144B00000091680000BD8B000010000008E5ABA8
:10145B00380010000007BC2400039C6300019CA50E
:10146B00000203FFFFEF9D080001BC2400031000E6
:10147B00001A1500000015000000BC23000010002E
:10148B000016150000009482002EE0846802B8A4B8
:10149B00009FE0852005E084280294AC003AE564C7
:1014AB0028001000000D1500000090820031BD8453
:1014BB000000100000081500000090820032BD648F
:1014CB0000001000000515000000000000039C60E8
:1014DB0000029C600001E06218008C8200148C6397
:1014EB000034A4840007D80218149C600019D80299
:1014FB00200C00000007D802180E9477002AE49203
:10150B001800100000E115000000D402B000A86222
:10151B00000007FFFC46A88E0000000000DC1860EE
:10152B000100A862000007FFFC78A88E00008C6207
:10153B00000FBC230000100000D5186001009E4076
:10154B000100A860980F07C0008CE2527008E24BB4
:10155B009003BC320000100000CC9C800001A86EF0
:10156B000000A8B2000007C003A49CC040009C6010
:10157B000001DC029016D8021815DC029018949723
:10158B000036E06320089C80001FD402B000D80214
:10159B001811000000BDD802200EA862000007FF42
:1015AB00FC5AA88E000007C00074A860980F9C60BE
:1015BB000100E0637008E16B1803BC2B0000100006
:1015CB0000B318600100A86E000007C003879C8061
:1015DB000009A56B8000BC2B0000100000AC18604C
:1015EB00010094770034E4921800100000A81860F2
:1015FB0001008E420011946200169E52FFFFE31809
:10160B001800A65200FFD402B000DC02C016BC3298
:10161B0000001000009DD8029011A86E000007C0BA
:10162B0003729C800080A86E00009C80000107C0A4
:10163B00036EAACB00009462001694820018E46437
:10164B001800100000041500000000000007DC0269
:10165B0018188C6200159C63FFFFDC029018B863AE
:10166B00005FD802181590820015BC040000100012
:10167B000009A474007FB8B60010B8A50059E58323
:10168B0028000C00000A15000000000000099CA3B4
:10169B000001B8AB0012B8A50059E54328000C00B7
:1016AB000004A4A5FFFF9CA3FFFFA4A5FFFFA86E4A
:1016BB0000009C80005F07C003509CC0007F9CA073
:1016CB001000A86E00009C80000A07C0034BA8C541
:1016DB000000949700369C600001E0632008D8025C
:1016EB0018119C60000000000068DC02181694774B
:1016FB000006E4B218001000006415000000A86298
:10170B00000007FFFB25A88E00009C80001CD40264
:10171B00B000D802200EA862000007FFFB97A88E2E
:10172B0000000000005A1860010094770004E4B236
:10173B0018001000005515000000000000529C60BE
:10174B00001B9477000EE4B218001000004F9C8031
:10175B00001B0000004DD802200EA862000007FFFE
:10176B00FB86A88E0000000000479C60001B94774E
:10177B000008E4921800100000449C8000319C602B
:10178B000000D802200EDC02181A9C60000194970E
:10179B00000AE0632008D80218119477000CE49239
:1017AB0018001000003A186001009462001AE35A06
:1017BB0018008C820011BB5A00109C84FFFFD402CE
:1017CB00B000BB5A0090A48400FFDC02D01ABC24EA
:1017DB0000001000002DD802201194F7000A987712
:1017EB000014E0633808E5BA18001000000B8C6297
:1017FB00000CBC030000100000169E4000018CA2E0
:10180B00000DE4851800100000129C63FFFF000020
:10181B00000FD802180C98B70016E0A53808E57A27
:10182B0028001000000B9E400001BC430005100077
:10183B000008150000008CA2000DE44518001000F4
:10184B000004E0639000D802180CAA4400008C82BC
:10185B00000C07C00312A86E0000BC1200001000A1
:10186B0000089C80001AA8620000D802200E07FF17
:10187B00FACAA88E000000000005186001009C60E9
:10188B000030D802180E1860010007C0025AA86376
:10189B000038A860981007C002B99C80001A03FF9B
:1018AB00FC629DCE000107C004DCA86E000003FFA4
:1018BB00FFF718600100A96BFFFF19000100A908D1
:1018CB001684E4032000100000109CA0000494C3B5
:1018DB000000E16B3005B8CB004CB96B0004E0C6DF
:1018EB0030009CA5FFFFE0C64000BC25000094C65D
:1018FB000000E166580513FFFFF8A56BFFFF03FF20
:10190B00FFF19C630002440048001500000000003A
:10191B008005800F000A801B001E0014801180338D
:10192B000036003C80390028802D802700220100E2
:10193B000FD4010015FC0100101C010015FC010067
:10194B0015FC010015FC010015FC010015FC010044
:10195B0015FC01001270010014D001001298010057
:10196B0014A001001464010014B80100131001004D
:10197B0015FC010015FC010015FC010015FC010014
:10198B0015FC010015FC010015FC010015FC010004
:10199B0015FC010015FC010015FC010015FC0100F4
:1019AB0015FC010015FC010015FC010015FC0100E4
:1019BB0014E4010015109810FFFF0000800B9F9F8F
:1019CB008200810B9F9F8200820B9F9F8200830B63
:1019DB009F9F82009814FFFF5B5B980C20002000F8
:1019EB00980FFFFF00F09900FFFFFDE09901FFFF4B
:1019FB0021049902FFFF93109903FFFF4A66981E7B
:101A0B00FFFF85389826FFFF95799827FFFF000089
:101A1B00000000F203F002E000DF00E2000000F93A
:101A2B00007E004C00F803800000003BF00000003B
:101A3B000078003F0024000B9F9F8889006500E021
:101A4B0000000048FFFFFFFF0049FFFFFFFF004AB8
:101A5B000FFF071F004BFFFFFFFF004C1FFF0E9FE9
:101A6B00004D80008000004E38003800004FF00021
:101A7B00F0000000000000500FFF0040003BF000A2
:101A8B000000004D80008000000800F00080000185
:101A9B0040004000000A10000000006500E000005C
:101AAB00000B9F9F8298000000000048FFFF008002
:101ABB000049FFFF0002004C1FFF1115004BFFFFF9
:101ACB000080004A0FFF08BD000B9F9F82000000A3
:101ADB000000008108000800000C80000000000CD2
:101AEB008000800000810800000000000000888357
:101AFB004E058882D8008875C6FF6002800088FC7E
:101B0B005236780000008850504088A30020854E44
:101B1B000000887641828877516688781CBB847672
:101B2B0000848576008486760084877600848477AB
:101B3B00188285771882867718828777188284783F
:101B4B008C3885788C3886788C3887788C38844EAE
:101B5B000000874E0000864E00006032800060124D
:101B6B008000886300808864808088085ABB880363
:101B7B00293388024006602280008806A100880570
:101B8B00AE820000000088DF006688813000888705
:101B9B00CD7A8886CD7A88854D7A88848D7A88FC33
:101BAB00536688884D7A88FE80AE88FDB64488FFE0
:101BBB00FDC078080C00731AFF00711AFF00721A2F
:101BCB00FF00701AFF0078093A908879886C824E72
:101BDB003800814E3800834E3800804E3800884DD7
:101BEB0080007806125488EFB6A088FB77367819F8
:101BFB000005781681C088F98B5A88F8B7780007EA
:101C0B00002088F1B00088F067B488F561E088F7B0
:101C1B00A246990293109900FDE0990121048801D5
:101C2B00020188004D0588074D7A0000000088DF0F
:101C3B000066888130008887CD7A8886CD7A888542
:101C4B004D7A88848D7A7806125488FB773688FE15
:101C5B00A5A888FD364488FFFDC078080C00731AD0
:101C6B00FF00711AFF00701AFF00721AFF0078094B
:101C7B003A908879886C814E3800834E3800824EBA
:101C8B003800804E3800884D800088EFB6A08888D9
:101C9B004D7A78190005781681C088F98BDA88F8A7
:101CAB00B7780007002A88F1B00088F067B488F590
:101CBB0061E088F7A246990293109900FDE0990123
:101CCB0021048801020188004D0588074D7A000028
:101CDB000000008BFC00FC00008BFC0000000000EF
:101CEB0000000000000080A7140081A7140082A749
:101CFB00140083A7140084A7120085A7120086A7DF
:101D0B00120087A7120080A83C0081A83C0082A883
:101D1B003C0083A83C0084A83F0085A83F0086A810
:101D2B003F0087A83F0084A63C0085A63C0086A602
:101D3B003C0087A63C0080A0008081A0008082A090
:101D4B00008083A0000084A0000085A0008086A0F6
:101D5B00008087A00080844E2000854E2000864E98
:101D6B002000874E200080613C20816134208261FD
:101D7B00342083613C2084617C2085613420866122
:101D8B0034208761342000000000000000000000B8
:101D9B000000000000000000000000000000000038
:101DAB000000000000000000000000000000000028
:101DBB000000000000000000000000000000000018
:101DCB000000000000000000000000000000000008
:101DDB0000000000000000000000000000000000F8
:101DEB0000000000000000000000000000000000E8
:101DFB0000000000000000000000000000000000D8
:101E0B0000000000000000000000000000000000C7
:101E1B0000000000000000000000000000000000B7
:101E2B0000000000000000000000000000000000A7
:101E3B000000000000000000000000000000000097
:101E4B000000000000000000000000000000000087
:101E5B000000000000000000000000000000000077
:101E6B000000000000000000000000000000000067
:101E7B000000000000000000000000000000000057
:101E8B000000000000000000000000000000000047
:101E9B000000000000000000000000000000000037
:101EAB000000000000000000000000000000000027
:101EBB000000000000000000000000000000000017
:101ECB000000000000000000000000000000000007
:101EDB0000000000000000000000000000000000F7
:101EEB0000000000000000000000000000000000E7
:101EFB0000000000000000000000000000000000D7
:101F0B0000000000000000000000000000000000C6
:101F1B0000000000000000000000000000000000B6
:101F2B00000000000000000000009F00980D9814B6
:101F3B0074FF90013EF0A3F0E4900144F0A3F0A3F2
:101F4B00122F4300000000900159122F4300000094
:101F5B000090015D122F4300000000786F7C017D23
:101F6B00017BFF7A1F79357E007F06122D58900179
:101F7B0075122F430000000090017BE4F0A304F0E6
:101F8B00E490017FF0A3F090014E74FFF0A3740274
:101F9B00F0A37481F0E4FFFE1239AA90017FEEF0FA
:101FAB00A3EFF0644C7003EE642060187BFF7A01A2
:101FBB00795D90017FE0FFA3E0900194CFF0A3EF58
:101FCB00F012313990014EE0FBA3E0FAA3E0240CB0
:101FDB00123AEA90014A122F377BFF7A017973127A
:101FEB00313990014AE0FCA3E0FDA3E0FEA3E0FF42
:101FFB007810122EFD900140EEF0A3EFF090014A05
:10200B00E0FCA3E0FDA3E0FEA3E0FF900142EEF0B5
:10201B00A3EFF07BFF7A017909900140E0FFA3E089
:10202B00900194CFF0A3EFF01231397BFF7A017955
:10203B0009900142E0FFA3E0900194CFF0A3EFF0F1
:10204B001231397BFF7A01791012313990014EE050
:10205B00FBA3E0FAA3E02408123AEA900151122FF5
:10206B00377BFF7A01797C123139900151E0FCA367
:10207B00E0FDA3E0FEA3E0FF7810122EFD900140DF
:10208B00EEF0A3EFF0900151E0FCA3E0FDA3E0FE26
:10209B00A3E0FF900142EEF0A3EFF07BFF7A017912
:1020AB0009900140E0FFA3E0900194CFF0A3EFF083
:1020BB001231397BFF7A017909900142E0FFA3E0ED
:1020CB00900194CFF0A3EFF01231397BFF7A0179B5
:1020DB001012313990014EE0FBA3E0FAA3E024107B
:1020EB00123AEA900155122F377BFF7A01798C1245
:1020FB003139900155E0FCA3E0FDA3E0FEA3E0FF26
:10210B007810122EFD900140EEF0A3EFF0900155E8
:10211B00E0FCA3E0FDA3E0FEA3E0FF900142EEF0A4
:10212B00A3EFF07BFF7A017909900140E0FFA3E078
:10213B00900194CFF0A3EFF01231397BFF7A017944
:10214B0009900142E0FFA3E0900194CFF0A3EFF0E0
:10215B001231397BFF7A017910123139900161E428
:10216B00F0A3740AF0900155E0FCA3E0FDA3E0FEA0
:10217B00A3E0FF900163122F37900167122F4300EA
:10218B00000000E47B18FAF9F890014AE0FCA3E0A8
:10219B00FDA3E0FEA3E0FF122E4CEF2401FFE43E73
:1021AB00900181F0A3EFF090016DE4F0A37480F047
:1021BB00900159E0F8A3E0F9A3E0FAA3E0FB90014A
:1021CB006DE0FEA3E02406F58274003EF583E0FF8C
:1021DB00E4FCFDFEEB2FFFEE3AFEED39FDEC38FC97
:1021EB00900159122F3790016EE004F070069001A8
:1021FB006DE004F090016DE07004A3E064BF70B07B
:10220B0090016DE4F0A374C0F090015DE0F8A3E0E1
:10221B00F9A3E0FAA3E0FB90016DE0FEA3E0240636
:10222B00F58274003EF583E0FFE4FCFDFEEB2FFF2F
:10223B00EE3AFEED39FDEC38FC90015D122F379034
:10224B00016EE004F0700690016DE004F090016DFA
:10225B00E07004A3E064DF70B0900159A3A3A3E086
:10226B00FF9000C5EFF090015DA3A3A3E0FF9000EA
:10227B00E5EFF0D20E7D887C08123A50123A4DC22F
:10228B000E7FF412003EE4FFFE1239AA90017FEE9E
:10229B00F0A3EFF0644C7003EE6420601A7BFF7ABE
:1022AB0001795D90017FE0FFA3E0900194CFF0A353
:1022BB00EFF012313980CFE490017FF0A3F0900161
:1022CB006BF0A3F0900181E0FEA3E0FFC390016CE3
:1022DB00E09FEE6480F890016BE06480984003020D
:1022EB002781900167122F430000800C900170E052
:1022FB00240CFF90016FE03400FEC006C007900174
:10230B0063E0FCA3E0FDA3E0FEA3E0FF7810122E38
:10231B00FDAD07AC06D007D006123A54900170E021
:10232B00240DFF90016FE03400FEC006C007900142
:10233B0063A3A3E0FEA3E0FFAD07AC06D007D00676
:10234B00123A54900167E0F8A3E0F9A3E0FAA3E096
:10235B00FBC000C001C002C003900163A3A3E0FE59
:10236B00A3E0FFE4FDFCAB07AA06F9C004C005C05F
:10237B0006C007900163E0FCA3E0FDA3A3E0781087
:10238B00122EFDD003D002D001D000EF2BFFEE3A7E
:10239B00FEED39FDEC38FCD003D002D001D000EBC0
:1023AB002FFFEA3EFEE93DFDE83CFCA3122F37E48C
:1023BB0090016DF0A3F07BFF7A01799B123139907C
:1023CB000163E0FCA3E0FDA3E0FEA3E0FF781012A5
:1023DB002EFD900140EEF0A3EFF0900163E0FCA323
:1023EB00E0FDA3E0FEA3E0FF900142EEF0A3EFF0CF
:1023FB007BFF7A017909900140E0FFA3E090019403
:10240B00CFF0A3EFF01231397BFF7A0179099001FC
:10241B0042E0FFA3E0900194CFF0A3EFF01231392B
:10242B007BFF7A017910123139900162E025E0FFD0
:10243B00900161E033FE90014EE0FBA3E0FAA3E0D4
:10244B002FF9EA3EFA123C8890017DEEF0A3EFF0F3
:10245B007BFF7A0179A412313990017DE0FCA3E076
:10246B00FDAE047810CEC313CE13D8F9FF90014004
:10247B00EEF0A3EFF0AF05A3ECF0A3EFF07BFF7A48
:10248B00017909900140E0FFA3E0900194CFF0A304
:10249B00EFF01231397BFF7A017909900142E0FFAD
:1024AB00A3E0900194CFF0A3EFF01231397BFF7AC8
:1024BB0001791012313990016DE0FEA3E0FF90011C
:1024CB0070E02FFF90016FE03EFE90017DE0FCA3DA
:1024DB00E0FD123A54900167E0F8A3E0F9A3E0FAAB
:1024EB00A3E0FB90017DE0FEA3E0FFE4FCFDEB2FFE
:1024FB00FFEA3EFEED39FDEC38FC900167122F37F9
:10250B00900162E004F07006900161E004F090012C
:10251B0063E0FCA3E0FDA3E0FEA3E02402FFE43EA6
:10252B00FEE43DFDE43CFC900163122F3790016EFD
:10253B00E004F0700690016DE004F0C390016EE0D2
:10254B00940C90016DE06480948050030223C17B56
:10255B00FF7A0179AE123139900167E0FCA3E0FDFF
:10256B00A3E0FEA3E0FF7810122F10900140EEF0D5
:10257B00A3EFF0900167E0FCA3E0FDA3E0FEA3E076
:10258B00FF900142EEF0A3EFF07BFF7A0179099007
:10259B000140E0FFA3E0900194CFF0A3EFF01231E4
:1025AB00397BFF7A017909900142E0FFA3E09001AA
:1025BB0094CFF0A3EFF01231397BFF7A017910122F
:1025CB003139900170E0240EFF90016FE03400FE72
:1025DB00C006C007900167E0FCA3E0FDA3E0FEA3EB
:1025EB00E0FF122EDEAD07AC06D007D006123A5430
:1025FB00900170E0240E1239A2900170E0240FFFBD
:10260B0090016FE03400FE7D0C7C80123A549001F7
:10261B0075122F43000000000226E4900179E0645C
:10262B00807004A3E0640C60030226F2900175E055
:10263B00FCA3E0FDA3E0FEA3E02401FFE43EFEE4E7
:10264B003DFDE43CFC900175122F37E47FE87E03DF
:10265B00FDFC900175E0F8A3E0F9A3E0FAA3E0FB21
:10266B00D3122EEC40097BFF7A0179B912313990E4
:10267B000175E0FCA3E0FDA3E0FEA3E0FF781012E0
:10268B002EFD900140EEF0A3EFF0900175E0FCA35E
:10269B00E0FDA3E0FEA3E0FF900142EEF0A3EFF01C
:1026AB007BFF7A017909900140E0FFA3E090019450
:1026BB00CFF0A3EFF01231397BFF7A01790990014A
:1026CB0042E0FFA3E0900194CFF0A3EFF012313979
:1026DB007BFF7A01791012313912399C900179EE16
:1026EB00F0A3EFF0022626900179E07002A3E060E0
:1026FB0074900180E004F0700690017FE004F07BA1
:10270B00FF7A0179C512313990017FE0FCA3E0FD1E
:10271B00AE047810CEC313CE13D8F9FF900140EE60
:10272B00F0A3EFF0AF05A3ECF0A3EFF07BFF7A0182
:10273B007909900140E0FFA3E0900194CFF0A3EF63
:10274B00F01231397BFF7A017909900142E0FFA346
:10275B00E0900194CFF0A3EFF01231397BFF7A01B7
:10276B00791012313990016CE004F0700690016B16
:10277B00E004F00222CF900170E0240CFF90016F77
:10278B00E03400FEC006C007900151E0FCA3E0FD61
:10279B00A3E0FEA3E0FF7810122EFDAD07AC06D030
:1027AB0007D006123A54900170E0240DFF90016F90
:1027BB00E03400FEC006C007900151A3A3E0FEA3C6
:1027CB00E0FFAD07AC06D007D006123A549001518A
:1027DB00A3A3E0FEA3E0FFE4FDFCAB07AA06F9C050
:1027EB0004C005C006C007900151E0FCA3E0FDA3A7
:1027FB00A3E07810122EFDD003D002D001D000EF51
:10280B002BFFEE3AFEED39FDEC38FCE42FFFEE34F6
:10281B0040FEE43DFDE43CFC900167122F37900134
:10282B0070E0240EFF90016FE03400FEC006C0077D
:10283B00900167E0FCA3E0FDA3E0FEA3E0FF122EF6
:10284B00DEAD07AC06D007D006123A54900170E00B
:10285B00240FFF90016FE03400FE7D007C40123AA4
:10286B005490017BE07002A3E070030229509001A9
:10287B0075122F4300000000022942900179E06499
:10288B00407002A3E06003022950900175E0FCA3A5
:10289B00E0FDA3E0FEA3E02401FFE43EFEE43DFDEA
:1028AB00E43CFC900175122F37E47FE87E03FDFCBE
:1028BB00900175E0F8A3E0F9A3E0FAA3E0FBD312D3
:1028CB002EEC40097BFF7A0179B9123139900175F1
:1028DB00E0FCA3E0FDA3E0FEA3E0FF7810122EFDC9
:1028EB00900140EEF0A3EFF0900175E0FCA3E0FD4A
:1028FB00A3E0FEA3E0FF900142EEF0A3EFF07BFF1D
:10290B007A017909900140E0FFA3E0900194CFF0A8
:10291B00A3EFF01231397BFF7A017909900142E084
:10292B00FFA3E0900194CFF0A3EFF01231397BFFBE
:10293B007A01791012313912399C900179EEF0A39A
:10294B00EFF0022886E490016DF0A3F0E490016BA8
:10295B00F0A3F090016CE004F0700690016BE004C2
:10296B00F090016BE0B404EBA3E0B400E690016ED1
:10297B00E004F0700690016DE004F090016DE0B49E
:10298B0004CAA3E0B400C57BFF7A0179E5123139A3
:10299B007F147E981239AA900179EEF0A3EFF07BA9
:1029AB00FF7A0179F9123139900179E0FCA3E0FD4E
:1029BB00AE047810CEC313CE13D8F9FF900140EEBE
:1029CB00F0A3EFF0AF05A3ECF0A3EFF07BFF7A01E0
:1029DB007909900140E0FFA3E0900194CFF0A3EFC1
:1029EB00F01231397BFF7A017909900142E0FFA3A4
:1029FB00E0900194CFF0A3EFF01231397BFF7A0115
:102A0B0079101231397BFF7A02790A123139900130
:102A1B007FE0FCA3E0FDAE047810CEC313CE13D839
:102A2B00F9FF900140EEF0A3EFF0AF05A3ECF0A39C
:102A3B00EFF07BFF7A017909900140E0FFA3E09072
:102A4B000194CFF0A3EFF01231397BFF7A017909B2
:102A5B00900142E0FFA3E0900194CFF0A3EFF012BE
:102A6B0031397BFF7A0179101231397BFF7A027988
:102A7B00361231397BFF7A0179101231397D007CA6
:102A8B00507F187E98123A548077900179E0640554
:102A9B007002A3E0607D7BFF7A0279451231399099
:102AAB000179E0FCA3E0FDAE047810CEC313CE1386
:102ABB00D8F9FF900140EEF0A3EFF0AF05A3ECF0D7
:102ACB00A3EFF07BFF7A017909900140E0FFA3E0CF
:102ADB00900194CFF0A3EFF01231397BFF7A01799B
:102AEB0009900142E0FFA3E0900194CFF0A3EFF037
:102AFB001231397BFF7A0179101231397F9612002E
:102B0B003E7F187E981239AA900179EEF0A3EFF070
:102B1B00022A957BFF7A0279631231397BFF7A01A6
:102B2B0079101231397D207C507F187E98123A54DF
:102B3B008077900179E064057002A3E0607D7BFFF4
:102B4B007A027945123139900179E0FCA3E0FDAEB0
:102B5B00047810CEC313CE13D8F9FF900140EEF0DA
:102B6B00A3EFF0AF05A3ECF0A3EFF07BFF7A0179B5
:102B7B0009900140E0FFA3E0900194CFF0A3EFF0A8
:102B8B001231397BFF7A017909900142E0FFA3E012
:102B9B00900194CFF0A3EFF01231397BFF7A0179DA
:102BAB00101231397F2C12003E7F187E981239AAF1
:102BBB00900179EEF0A3EFF0022B3D900183E4F04E
:102BCB00A37428F0E490016DF0A3F0900183E0FE74
:102BDB00A3E0FF90016DE0FCA3E0FDC39FEE6480DA
:102BEB00F8EC6480985074EDAE047802C333CE33A6
:102BFB00CED8F9FDAC0624F1F582741C3CF583E4C8
:102C0B0093FE74F22DF582741C3CF583E493FDED79
:102C1B00FFC006C00790016DE0FEA3E07802C3334E
:102C2B00CE33CED8F9FDAC0624F3F582741C3CF5FB
:102C3B0083E493FE74F42DF582741C3CF583E493CA
:102C4B00FDEEFCD007D006123A5490016EE004F072
:102C5B00700690016DE004F0022BD67FF412003E5B
:102C6B007D777C07123A50123A4D7FF412003E12D8
:102C7B003E9C7BFF7A02796E12313980FEE709F6B2
:102C8B0008DFFA8046E709F208DFFA803E88828C7B
:102C9B0083E709F0A3DFFA8032E309F608DFFA8055
:102CAB0078E309F208DFFA807088828C83E309F0FD
:102CBB00A3DFFA806489828A83E0A3F608DFFA80B7
:102CCB005889828A83E0A3F208DFFA804C80D28095
:102CDB00FA80C680D4806980F28033801080A68011
:102CEB00EA809A80A880DA80E280CA803389828A5F
:102CFB0083ECFAE493A3C8C582C8CCC583CCF0A3FC
:102D0B00C8C582C8CCC583CCDFE9DEE7800D8982DC
:102D1B008A83E493A3F608DFF9ECFAA9F0EDFB2222
:102D2B0089828A83ECFAE0A3C8C582C8CCC583CC60
:102D3B00F0A3C8C582C8CCC583CCDFEADEE880DB54
:102D4B0089828A83E493A3F208DFF980CC88F0EFC1
:102D5B0060010E4E60C388F0ED2402B4040050B93C
:102D6B00F582EB2402B4040050AF23234582239059
:102D7B002CD873BB010CE58229F582E5833AF583E8
:102D8B00E0225006E92582F8E622BBFE06E9258201
:102D9B00F8E222E58229F582E5833AF583E4932272
:102DAB00A3F8E0C5F025F0F0E582158270021583DB
:102DBB00E0C838F0E822E88FF0A4CC8BF0A42CFC10
:102DCB00E98EF0A42CFC8AF0EDA42CFCEA8EF0A486
:102DDB00CDA8F08BF0A42DCC3825F0FDE98FF0A415
:102DEB002CCD35F0FCEB8EF0A4FEA9F0EB8FF0A40C
:102DFB00CFC5F02ECD39FEE43CFCEAA42DCE35F048
:102E0B00FDE43CFC2275F008758200EF2FFFEE33DA
:102E1B00FECD33CDCC33CCC58233C5829BED9AEC42
:102E2B0099E58298400CF582EE9BFEED9AFDEC99AC
:102E3B00FC0FD5F0D6E4CEFBE4CDFAE4CCF9A882B6
:102E4B0022B800C1B90059BA002DEC8BF084CFCE5B
:102E5B00CDFCE5F0CBF97818EF2FFFEE33FEED3319
:102E6B00FDEC33FCEB33FB10D703994004EB99FBE0
:102E7B000FD8E5E4F9FA227818EF2FFFEE33FEEDC9
:102E8B0033FDEC33FCC933C910D7059BE99A4007D6
:102E9B00EC9BFCE99AF90FD8E0E4C9FAE4CCFB22ED
:102EAB0075F010EF2FFFEE33FEED33FDCC33CCC8B6
:102EBB0033C810D7079BEC9AE899400AED9BFDECC1
:102ECB009AFCE899F80FD5F0DAE4CDFBE4CCFAE400
:102EDB00C8F922C3E49FFFE49EFEE49DFDE49CFC45
:102EEB0022EB9FF5F0EA9E42F0E99D42F0E89C450B
:102EFB00F022E8600FECC313FCED13FDEE13FEEFB5
:102F0B0013FFD8F122E86010ECA2E713FCED13FDE0
:102F1B00EE13FEEF13FFD8F022E8600FEFC333FF81
:102F2B00EE33FEED33FDEC33FCD8F122ECF0A3EDE8
:102F3B00F0A3EEF0A3EFF022A8828583F0D083D02C
:102F4B0082122F5A122F5A122F5A122F5AE473E44D
:102F5B0093A3C583C5F0C583C8C582C8F0A3C58339
:102F6B00C5F0C583C8C582C822E709F60870FA8088
:102F7B0046E709F20870FA803E88828C83E709F0F5
:102F8B00A370FA807EE309F60870FA8076E309F203
:102F9B000870FA806E88828C83E309F0A370FA8044
:102FAB006289828A83E0A3F60870FA805689828A46
:102FBB0083E0A3F20870FA804A80D280FA80C68040
:102FCB00D4806580F28031801080A680EA809A8060
:102FDB00A880DA80E280CA803189828A83ECFAE4A5
:102FEB0093A3C8C582C8CCC583CCF0A3C8C582C87F
:102FFB00CCC583CC70E9800D89828A83E493A3F6D8
:10300B000870F9ECFAA9F0EDFB2289828A83ECFABD
:10301B00E0A3C8C582C8CCC583CCF0A3C8C582C801
:10302B00CCC583CC70EA80DD89828A83E493A3F2DA
:10303B000870F980CE88F0ED2402B4040050C4F57A
:10304B0082EB2402B4040050BA2323458223902F31
:10305B00C473BB010689828A83E0225002E722BB3C
:10306B00FE02E32289828A83E49322BB01068982D2
:10307B008A83F0225002F722BBFE01F322F8E0FB19
:10308B00A3A3E0F925F0F0E582158270021583E029
:10309B00FA38F022EBF0A3EAF0A3E9F022D083D0C8
:1030AB0082F8E4937012740193700DA3A393F874D8
:1030BB000193F5828883E4737402936860EFA3A392
:1030CB00A380DFE5082494F582E43401F583E00561
:1030DB000822900191300803900194E475F00112DD
:1030EB00308802305D2001E97F2ED2018018EF5429
:1030FB000F2490D43440D4FF30050BEF24BFB41A07
:10310B000050032461FFE50960021509050CE50C6D
:10311B007002050B30080E900191E475F00112302E
:10312B0088EF023076023EFB7403D2088003E4C2C0
:10313B0008F50890019112309FE4F509F50BF50C99
:10314B00E50960077F2012311180F5750AFFC20275
:10315B00C201C203C204C206C207C2091230DDFF9C
:10316B00700D3008057F00123122AF0CAE0B22B46C
:10317B00255FC2D5C2051230DDFF24D0B40A005042
:10318B001A75F00A780930D50508B6FF0106C6A4F2
:10319B0026F620D5047002D20480D924CFB41A00AD
:1031AB00EF5004C2E5D205023323D20280C6D2010E
:1031BB0080C0D20380BCD2D580BAD20680B47F2027
:1031CB001231112003077401B5090040F11230CE02
:1031DB00FF12311102314BD209D20780951230CE3A
:1031EB00FB1230CEFA1230CEF94A4B700679F47AD4
:1031FB00337BFF20032EE509602A7E008E827583C8
:10320B0000122D7E60060EEE650A70F0C2D5EBC083
:10321B00E0EAC0E0E9C0E0EE12336AD0E0F9D0E0BA
:10322B00FAD0E0FB12305DFF60AAEBC0E0EAC0E031
:10323B00E9C0E0123111D0E02401F9D0E03400FAFA
:10324B00D0E0FBE50A0460DCD50AD980877BFF7AE6
:10325B00337966D203809C791080027908C207C249
:10326B00098008D2D5790A8004790AC2D5E50A0407
:10327B007002F50AE4FAFDFEFF1230CEFC7B08204B
:10328B0002131230CEFD7B1030010A1230CEFE122B
:10329B0030CEFF7B20EC3382D592D55013C3E43074
:1032AB0001069FFFE49EFEE42002039DFDE49CFCCF
:1032BB00E4CBF8C202EC700CCFCECDCCE824F8F8FE
:1032CB0070F38017C3EF33FFEE33FEED33FDEC33BA
:1032DB00FCEB33FB994002FB0FD8E9EB300205F80E
:1032EB00D0E0C448B202C0E00AEC4D4E4F78207BD0
:1032FB000070C2EAB50A0040BCC0E012336CD0F0DB
:10330B00D0E0200204C4C0E0C4B202C0F01230FA14
:10331B00D0F0D5F0EB02314B1230A831E8533262CA
:10332B005831B94C31B54232664F326E44326E4928
:10333B0031CE4332745532584632584532584734A1
:10334B00145031BD2D31C12E31E42B31C52331E267
:10335B002033FD2A317D48000031DC3F3F3F0079AF
:10336B000AA2D5200414300609B910020404B908C6
:10337B000104A2D52007025001042003689203B573
:10338B0009005034C0E07F203004197F30A2037253
:10339B00077206500F1233C3C203C207C206C2091B
:1033AB007F30800F300603E9C0E012311130060385
:1033BB00D0E0F9D0E0B509CC3006177F30B9100C4E
:1033CB001231117F583005077F788003B90803123B
:1033DB0031113003057F2D0231117F202009F87F39
:1033EB002B2007F322920380CF286E756C6C29007B
:1033FB00D2021230CE3002F8C202780930D5010861
:10340B00F602317D2D504349581230CE2403B405BA
:10341B00004001E490340F93123102743A123102DE
:10342B00D204750904023262C10BC18C4101CB007D
:10343B004101D300603201070000000000000000D2
:10344B000000000000000000000000000000000071
:10345B000000000000000000000000000000000061
:10346B000000000000000000000041010600C10E3A
:10347B00410139166100000611050600000000002D
:10348B000000000000000000000000000000000031
:10349B000000000000000000000000000000000021
:1034AB000000000000000000000000000000000011
:1034BB000000000000000000000000000000000001
:1034CB0000000000000000000000000000000000F1
:1034DB0000000000000000000000000000000000E1
:1034EB000000000000003800000000000000000099
:1034FB00000000000000000011002380007000009D
:10350B0000000000000000000000010846495420A4
:10351B000000000000000000000000001F00093A3E
:10352B0031303032393731313031202020202020DA
:10353B003120426807D00063020000003532383674
:10354B0032303735302020202020202031353130CB
:10355B003133202000000029000000000000000093
:10356B000000000000000000000000000000000050
:10357B0000000000000000004200000000410002BB
:10358B00004801B90104080C101820304801C10390
:10359B000104000506070200C0E0C0F0C083C08232
:1035AB00C0D075D000C000C004C006C007E5B95438
:1035BB000F14605114700302364524FE700302365B
:1035CB005024FA603324FE60761460732404707800
:1035DB0053B9F6900000E475F001122DABFE7406A2
:1035EB0025F0F58274003EF583E0F5BBC390000037
:1035FB00E094014053E4800853B9F5900002740144
:10360B00F0A3F08043E5B930E40553B9EF80269081
:10361B000000E475F001122DABFE740625F0F58267
:10362B0074003EF583E0F5BBC3900000E0940140CD
:10363B0004E4F0A3F053B9FE800E53B9FD80095397
:10364B00B9FB0236E153B9FBE5AB30E2030236DEE0
:10365B00900139E5BCF0900003E0B401EB90013927
:10366B00E0645060E3900002E0147035900139E0A3
:10367B00C39480401D900085E075F080A4FF9001FD
:10368B0039E07C002FFEEC35F0900000F0A3CEF07B
:10369B008039900139E0FF900000E4F0A3EFF08057
:1036AB002A900139E0FF900000E475F001122DAB78
:1036BB00FC740625F0F58274003CF583EFF0C390A3
:1036CB000000E094014004E4F0A3F0900002E4F069
:1036DB0002365353B9DFD007D006D004D000D0D078
:1036EB00D082D083D0F0D0E032C0E0C083C082C0A3
:1036FB00D075D000C006C007C20030C2030237B875
:10370B00E5C054F02480606D24C0602624E0600383
:10371B000237B49001D2E025E0F5C253C2FEA20DF0
:10372B00E43342C2C2C59000057401F0900004F06E
:10373B00807D30C123200D779001C9E0FF900004FC
:10374B00E0FED39F501574CD2EF582E43401F58342
:10375B00E0F5C29000048039300E06D2C4C20A8054
:10376B004ED2C4D2C59001CDE004F070429001CC92
:10377B00E004F0803A900005E0FFC3940274D3504C
:10378B00152FF582E43401F583E5C2F0D2C1900028
:10379B0005E004F080192FF582E43401F583E5C2CE
:1037AB00F0C20AC2C1D2C48006D2008002D200305D
:1037BB00001E53C17F43C180C2C5C2C4C2C1C20A6D
:1037CB00C2009001CDE004F070069001CCE004F053
:1037DB00C2C0D007D006D0D0D082D083D0E03290F8
:1037EB000147122F37900151E5A7F075A7209001E3
:1037FB0047E0C313FEA3E013FFE4FCFD90014BE095
:10380B00F8A3E0F9A3E0FAA3E02FFFEA3EFEED39BF
:10381B00FDEC38FC90014BA3A3A3E0FB122E4C90C4
:10382B000150EFF0E490014FF090014FE0FFC39493
:10383B000840030238D274B92FF582E43401F583C2
:10384B00E0FF900150E0FEEFC39E4072E47F02FE6A
:10385B00FDFC90014BE0F8A3E0F9A3E0FAA3E0FB39
:10386B00122DC1A804A905AA06AB0790014FE024AD
:10387B00B9F582E43401F583E0FFE4FCFDFE122D83
:10388B00C1A804A905AA06AB07900147E0FCA3E079
:10389B00FDA3E0FEA3E0FF122E4CC3E49FFFE49ECA
:1038AB00F596EFF59590014FE024C1F582E43401D4
:1038BB00F583E044404294900151E0F5A72290013A
:1038CB004FE004F002383480FE1200629001421285
:1038DB002F430001C2007F207ED77D757C01123EF5
:1038EB0040C2B420922A75E340C293E4FFFE0FBF9F
:1038FB0000010EEFF44E70F6D2933093FDE4FEFF11
:10390B000FBF00010EEF640A4E70F5E4F5E380D3B0
:10391B00120003D296E490013AF09001CCF0A3F0A0
:10392B00C2AF75A72053BAFE43AD44D2AF121F3BB3
:10393B009001CE7498F0A37411F0A374ABF0A37440
:10394B00CDF0A37410F0123CEF9001D27410F0E4A0
:10395B0090013BF090013BE024CEF582E43401F57D
:10396B0083E0FF90013BE024D4F582E43401F5833E
:10397B00E06F600E9001CDE004F070069001CCE09A
:10398B0004F090013BE004F0E0B402C87FF40200C5
:10399B003E900170E0240FFF90016FE03400FE9029
:1039AB00018DEEF0A3EFF09001C97402F09001D2FB
:1039BB007410F090018DE0FCA3E0FDEC9001CEF0D3
:1039CB00EDA3F0123CEF9001D27410F0123D4F407A
:1039DB000B7BFF7A01793512313980CB9001D4E022
:1039EB00FEA3E0FDEDFF90018FEEF0A3EFF07BFF68
:1039FB007A0179561231397BFF7A01790990018D61
:103A0B00E0FFA3E0900194CFF0A3EFF01231397BEC
:103A1B00FF7A01795A1231397BFF7A0179099001CA
:103A2B008FE0FFA3E0900194CFF0A3EFF0123139B8
:103A3B007BFF7A01791012313990018FE0FEA3E000
:103A4B00FF22E4FDFC7F0D7E9890018DEEF0A3EF3D
:103A5B00F0A3ECF0A3EDF09001C97404F09001D247
:103A6B007410F090018DE0FCA3E0FDEC9001CEF022
:103A7B00EDA3F090018FE0FCA3E0FDEC9001D0F002
:103A8B00EDA3F07BFF7A0179051231397BFF7A01C7
:103A9B00790990018DE0FFA3E0900194CFF0A3EFA3
:103AAB00F01231397BFF7A01790E1231397BFF7AB3
:103ABB0001790990018FE0FFA3E0900194CFF0A36F
:103ACB00EFF01231397BFF7A017910800B123CEF4A
:103ADB00400B7BFF7A01791312313980F0D322F935
:103AEB00E43AFA900185EBF0A3EAF0A3E9F0A31214
:103AFB002F4300000000E490018CF0900188E0FC63
:103B0B00A3E0FDA3E0FEA3E0FF7808122F249001B1
:103B1B0088122F37900188E0F8A3E0F9A3E0FAA30D
:103B2B00E0FBC000C001C002C003900185E0FBA315
:103B3B00E0FAA3E0F990018CE0F582758300122D79
:103B4B007EFFD003D002D001D000EB4FFFEAFEE99D
:103B5B00FDE8FC900188122F3790018CE004F0E017
:103B6B00B40498900188E0FCA3E0FDA3E0FEA3E081
:103B7B00FF22120072787FE4F6D8FD758121023B9B
:103B8B00C70238D4E493A3F8E493A34003F680016F
:103B9B00F208DFF48029E493A3F85407240CC8C37C
:103BAB0033C4540F4420C8834004F456800146F6B6
:103BBB00DFE4800B0102040810204080903433E4D2
:103BCB007E019360BCA3FF543F30E509541FFEE414
:103BDB0093A360010ECF54C025E060A840B8E493D6
:103BEB00A3FAE493A3F8E493A3C8C582C8CAC58318
:103BFB00CAF0A3C8C582C8CAC583CADFE9DEE7809D
:103C0B00BE90018DEEF0A3EFF0A3ECF0A3EDF0A3CB
:103C1B00EAF0A3EBF0A3A3E0FF74017E00A8070872
:103C2B008005C333CE33CED8F924FFFFEE34FFAD7E
:103C3B0007FC900191A3E0F9EDAE04A80108800503
:103C4B00C333CE33CED8F9F4FFEEF4FE90018DE002
:103C5B005EF0A3E05FF0A3E05CFEA3E05DA80108CB
:103C6B008005C333CE33CED8F9FF90018DE04EFEE5
:103C7B00A3E04FFF90018DEEF0A3EFF022900185B2
:103C8B00EBF0A3EAF0A3E9F0E4A3F0A3F0A3F0A315
:103C9B00F090018AE0FCA3E0FDC39402EC648094F5
:103CAB00805038900189E0F8E4F0E8900188F090BA
:103CBB000185E0FBA3E0FAA3E0F98D828C83122D42
:103CCB007EFF900188E0F0A3E04FF090018BE004C1
:103CDB00F070BE90018AE004F080B6900188E0FE9F
:103CEB00A3E0FF22900191122F4300000000200A55
:103CFB00FDD20AC20DD2C5300A48900191E0FCA357
:103D0B00E0FDA3E0FEA3E02401FFE43EFEE43DFD65
:103D1B00E43CFC900191122F37E47FFFFEFDFC90F9
:103D2B000191E0F8A3E0F9A3E0FAA3E0FBD3122E94
:103D3B00EC40C4900191122F4300000000123DF99A
:103D4B00C322D322900191122F4300000000200ABE
:103D5B00FDD20AD20DD2C5300A48900191E0FCA3E6
:103D6B00E0FDA3E0FEA3E02401FFE43EFEE43DFD05
:103D7B00E43CFC900191122F37E47FFFFEFDFC9099
:103D8B000191E0F8A3E0F9A3E0FAA3E0FBD3122E34
:103D9B00EC40C4900191122F4300000000123DF93A
:103DAB00C322D322900187ECF0A3EDF0A3EAF0A39A
:103DBB00EBF0900185EEF0A3EFF01239AAC007905B
:103DCB000187E0FCA3E0FDA3E0FAA3E0FBA3E0FF87
:103DDB00A3E0900193CFF0A3EFF0D007123C0CAC13
:103DEB0006AD07900185E0FEA3E0FF023A547F0980
:103DFB0043D50C75F2FF75A55FE59030E210AE0769
:103E0B001FEE600A5390F7004390080080EB75A5F6
:103E1B005F5390F75390FB004390080043900400CE
:103E2B0053D5F375A55053C17F43C180C2C5C2C4DE
:103E3B00C2C1C20A22900146E5A7F075A72043C86C
:103E4B0012E4F5DA43930CC004C005C006C007901A
:103E5B000142E0FCA3E0FDA3E0FEA3E0FF90014BD9
:103E6B00122F37D007D006D005D0041237EA9001B5
:103E7B0046E0F5A722AF885388AF758C38758A1347
:103E8B00758DFA758B34EF5440FEEF54104E42880B
:103E9B002290018BE4F0A304F07B0E7A00FD7C00F2
:103EAB007F617E84023DAF75A710E598540453984B
:103EBB00FB75A33875A29E439804429822E5915452
:103ECB00045391FB75933875929E43910442912252
:103EDB0075A7207594437596FF75959643C8102268
:103EEB0075A72053BAFD43BA0275A71053987F32BA
:103EFB00AEA775A72030C9FD8F92C2C98EA72253DA
:103F0B00C17F43C18053917FC2C5C20A32E4F5A77A
:103F1B0075E68175F30675A8802275BD5053BAFB03
:103F2B0043BA1843BA0222E4F5A7F5A9E5A930E78D
:103F3B00FB22E4F5A77597DE7597AD2275E3417506
:0A3F4B00E1042253C1FC43C1DD2252
:00000001FF
