:020000040000FA
:10000000020B89AF885388AF758C38758A13758D4C
:10001000E9EF5440FEEF54104E42882275E34175DB
:10002000E10422020072E59154045391FB75933868
:1000300075929E43910442912222220209AA9001C4
:100040000CE5A7F0120DDE120DF1120DF812001CD6
:10005000120DE8120003120026120D31120DAF121C
:100060000DFF120D57120D47120DBC90010CE0F55B
:10007000A72232020D94200AFDD20AD20BD2C5204B
:060080000AFD2202060148
:10008B00020D67E508240FF582E43401F583E005E2
:10009B00082290010C30080390010FE475F0011257
:1000AB0005BB0205632001E97F2ED2018018EF54B6
:1000BB000F2490D43440D4FF30050BEF24BFB41A77
:1000CB000050032461FFE50960021509050CE50CDE
:1000DB007002050B30080E90010CE475F00112054F
:1000EB00BBEF0205A9020D777403D2088003E4C2AB
:1000FB0008F50890010C1205D2E4F509F50BF50C87
:10010B00E50960077F201200D180F5750AFFC20256
:10011B00C201C203C204C206C207C20912009DFF7C
:10012B00700D3008057F001200E2AF0CAE0B22B44D
:10013B00255FC2D5C20512009DFF24D0B40A005022
:10014B001A75F00A780930D50508B6FF0106C6A462
:10015B0026F620D5047002D20480D924CFB41A001D
:10016B00EF5004C2E5D2050202E3D20280C6D201EF
:10017B0080C0D20380BCD2D580BAD20680B47F2097
:10018B001200D12003077401B5090040F112008E53
:10019B00FF1200D102010BD209D207809512008EFB
:1001AB00FB12008EFA12008EF94A4B700679B47A64
:1001BB00037BFF20032EE509602A7E008E82758368
:1001CB000012057C60060EEE650A70F0C2D5EBC01E
:1001DB00E0EAC0E0E9C0E0EE12032AD0E0F9D0E09B
:1001EB00FAD0E0FB120563FF60AAEBC0E0EAC0E0C7
:1001FB00E9C0E01200D1D0E02401F9D0E03400FADC
:10020B00D0E0FBE50A0460DCD50AD980877BFF7A56
:10021B00037926D203809C791080027908C207C229
:10022B00098008D2D5790A8004790AC2D5E50A0477
:10023B007002F50AE4FAFDFEFF12008EFC7B08202B
:10024B00021312008EFD7B1030010A12008EFE127B
:10025B00008EFF7B20EC3382D592D55013C3E43054
:10026B0001069FFFE49EFEE42002039DFDE49CFC3F
:10027B00E4CBF8C202EC700CCFCECDCCE824F8F86E
:10028B0070F38017C3EF33FFEE33FEED33FDEC332A
:10029B00FCEB33FB994002FB0FD8E9EB300205F87E
:1002AB00D0E0C448B202C0E00AEC4D4E4F78207B40
:1002BB000070C2EAB50A0040BCC0E012032CD0F0BB
:1002CB00D0E0200204C4C0E0C4B202C0F01200BAF5
:1002DB00D0F0D5F0EB02010B1205DB01A853022283
:1002EB005801794C01754202264F022E44022E49C9
:1002FB00018E430234550218460218450218470373
:10030B00D450017D2D01812E01A42B01852301A247
:10031B002003BD2A013D480000019C3F3F3F00796F
:10032B000AA2D5200414300609B910020404B90836
:10033B000104A2D52007025001042003689203B5E3
:10034B0009005034C0E07F203004197F30A20372C3
:10035B00077206500F120383C203C207C206C209FB
:10036B007F30800F300603E9C0E01200D130060366
:10037B00D0E0F9D0E0B509CC3006177F30B9100CBE
:10038B001200D17F583005077F788003B90803121C
:10039B0000D13003057F2D0200D17F202009F87F8B
:1003AB002B2007F322920380CF286E756C6C2900EB
:1003BB00D20212008E3002F8C202780930D5010841
:1003CB00F602013D2D5043495812008E2403B4050B
:1003DB00004001E49003CF931200C2743A1200C2A2
:1003EB00D204750904020222A3F8E0C5F025F0F04F
:1003FB00E582158270021583E0C838F0E822E88F99
:10040B00F0A4CC8BF0A42CFCE98EF0A42CFC8AF08D
:10041B00EDA42CFCEA8EF0A4CDA8F08BF0A42DCC8F
:10042B003825F0FDE98FF0A42CCD35F0FCEB8EF0E8
:10043B00A4FEA9F0EB8FF0A4CFC5F02ECD39FEE4CE
:10044B003CFCEAA42DCE35F0FDE43CFC2275F00813
:10045B00758200EF2FFFEE33FECD33CDCC33CCC501
:10046B008233C5829BED9AEC99E58298400CF5821C
:10047B00EE9BFEED9AFDEC99FC0FD5F0D6E4CEFB8E
:10048B00E4CDFAE4CCF9A88222B800C1B90059BA7C
:10049B00002DEC8BF084CFCECDFCE5F0CBF97818AA
:1004AB00EF2FFFEE33FEED33FDEC33FCEB33FB10A4
:1004BB00D703994004EB99FB0FD8E5E4F9FA2278BE
:1004CB0018EF2FFFEE33FEED33FDEC33FCC933C9D0
:1004DB0010D7059BE99A4007EC9BFCE99AF90FD8DA
:1004EB00E0E4C9FAE4CCFB2275F010EF2FFFEE33FA
:1004FB00FEED33FDCC33CCC833C810D7079BEC9A39
:10050B00E899400AED9BFDEC9AFCE899F80FD5F0C1
:10051B00DAE4CDFBE4CCFAE4C8F922ECF0A3EDF07D
:10052B00A3EEF0A3EFF022A8828583F0D083D082D4
:10053B00120549120549120549120549E473E49362
:10054B00A3C583C5F0C583C8C582C8F0A3C583C541
:10055B00F0C583C8C582C822BB010689828A83E0A5
:10056B00225002E722BBFE02E32289828A83E493B4
:10057B0022BB010CE58229F582E5833AF583E02263
:10058B005006E92582F8E622BBFE06E92582F8E251
:10059B0022E58229F582E5833AF583E49322BB01B8
:1005AB000689828A83F0225002F722BBFE01F322D6
:1005BB00F8E0FBA3A3E0F925F0F0E58215827002C9
:1005CB001583E0FA38F022EBF0A3EAF0A3E9F0226E
:1005DB00D083D082F8E4937012740193700DA3A3AF
:1005EB0093F8740193F5828883E4737402936860C3
:1005FB00EFA3A3A380DFC0E0C0F0C083C082C0D054
:10060B0075D000C000C004C006C007E5B9540F1474
:10061B0060511470030206A324FE70030206AE247D
:10062B00FA603324FE60761460732404707853B937
:10063B00F6900000E475F0011203F3FE740625F04A
:10064B00F58274003EF583E0F5BBC3900000E094A7
:10065B00014053E4800853B9F59000027401F0A3F4
:10066B00F08043E5B930E40553B9EF8026900000E4
:10067B00E475F0011203F3FE740625F0F5827400A5
:10068B003EF583E0F5BBC3900000E094014004E429
:10069B00F0A3F053B9FE800E53B9FD800953B9FB9B
:1006AB0002073F53B9FBE5AB30E20302073C900175
:1006BB0006E5BCF0900003E0B401EB900106E064AA
:1006CB005060E3900002E0147035900106E0C39493
:1006DB0080401D900085E075F080A4FF900106E03E
:1006EB007C002FFEEC35F0900000F0A3CEF08039AB
:1006FB00900106E0FF900000E4F0A3EFF0802A9059
:10070B000106E0FF900000E475F0011203F3FC74A6
:10071B000625F0F58274003CF583EFF0C3900000E2
:10072B00E094014004E4F0A3F0900002E4F0020630
:10073B00B153B9DFD007D006D004D000D0D0D082CF
:10074B00D083D0F0D0E032120D86C2A390013B745F
:10075B00FDF020922D75E340C293E4900109F090D7
:10076B000109E004F0E0B4FFF6D2933093FDE4907E
:10077B000109F0900109E004F0E0B40AF6E4F5E3B6
:10078B0080D012003EC2A3C2AF75A72053BAFE435E
:10079B00BA44D2AF9001101205320001C2007F2083
:1007AB007ED77D757C01120C7BC2B4D2A2C294C2DF
:1007BB000AE4900107F0900135F0A3F0900109F0E5
:1007CB00E490010AF0A3F07BFF7A0C79181200F980
:1007DB00E4FFFE120CBB90010AEEF0A3EFF09001C8
:1007EB000AE0FFA3E090010ACFF0A3EFF07BFF7AC2
:1007FB000C792890010AE0FFA3E090010FCFF0A342
:10080B00EFF01200F97DCD7CAB7F117E98120D0EAF
:10081B00503D7F117E98120CBB90010AEEF0A3EFB6
:10082B00F090010AE064AB7004A3E064CD60097B37
:10083B00FF7A0C79481200F97BFF7A0C792890012A
:10084B000AE0FFA3E090010FCFF0A3EFF080067B4F
:10085B00FF7A0C79611200F9D3900136E094009085
:10086B000135E094004004D2948002B2947FE812E8
:10087B000CEA0207CBC10C41010616610000061100
:10088B000506000000000000000000000000000052
:10089B00000000000000000000000000000000004D
:1008AB00000000000000000000000000000000003D
:1008BB00000000000000000000000000000000002D
:1008CB00000000000000000000000000000000001D
:1008DB00000000000000000000000000000000000D
:1008EB0000000000000000000000000000380000C5
:1008FB0000000000000000000000000000000011DC
:10090B0000238000700000000000000000000000C9
:10091B0000010846495420000000000000000000C0
:10092B000000001F00093A31303032393731313095
:10093B00312020202020203120426807D000630284
:10094B000000003532383632303735302020202049
:10095B002020203135313031332020000000290098
:10096B00000000000000000000000000000000007C
:10097B00000000000000000000000000000000422A
:10098B00000000004100020048014E0104080C1059
:10099B00182030480156030104000506070200C069
:1009AB00E0C083C082C0D075D000C006C007C200B3
:1009BB0030C203020A6BE5C054F02480606A24C085
:1009CB00602624E06003020A6790014BE025E0F506
:1009DB00C253C2FEA20BE43342C2C2C590000574DF
:1009EB0001F0900004F0807A30C129200B74900143
:1009FB0034E0FF900004E0FED39F501274362EF5C6
:100A0B0082E43401F583E0F5C29000048036D2C451
:100A1B00C20A804ED2C4D2C5900136E004F07042B7
:100A2B00900135E004F0803A900005E0FFC394029A
:100A3B00744B50152FF582E43401F583E5C2F0D2E7
:100A4B00C1900005E004F080192FF582E43401F524
:100A5B0083E5C2F0C20AC2C1D2C48006D2008002B2
:100A6B00D20030002053C17F43C180C2C5C2C4C273
:100A7B00C1C20AC200C294900136E004F070069025
:100A8B000135E004F0C2C0D007D006D0D0D082D060
:100A9B0083D0E03290011512052690011FE5A7F0D7
:100AAB0075A720900115E0C313FEA3E013FFE4FC30
:100ABB00FD900119E0F8A3E0F9A3E0FAA3E02FFF02
:100ACB00EA3EFEED39FDEC38FC900119A3A3A3E03F
:100ADB00FB12049490011EEFF0E490011DF09001C5
:100AEB001DE0FFC394084003020B87744E2FF58261
:100AFB00E43401F583E0FF90011EE0FEEFC39E405E
:100B0B0072E47F02FEFDFC900119E0F8A3E0F9A36B
:100B1B00E0FAA3E0FB120409A804A905AA06AB0797
:100B2B0090011DE0244EF582E43401F583E0FFE4EF
:100B3B00FCFDFE120409A804A905AA06AB07900147
:100B4B0015E0FCA3E0FDA3E0FEA3E0FF120494C3B9
:100B5B00E49FFFE49EF596EFF59590011DE024567A
:100B6B00F582E43401F583E04440429490011FE0A8
:100B7B00F5A72290011DE004F0020AE980FE1200A5
:100B8B003978FFE4F6D8FD758121020BD3020752A9
:100B9B00E493A3F8E493A34003F68001F208DFF497
:100BAB008029E493A3F85407240CC8C333C4540F0F
:100BBB004420C8834004F456800146F6DFE4800BE2
:100BCB000102040810204080900880E47E019360AD
:100BDB00BCA3FF543F30E509541FFEE493A360010F
:100BEB000ECF54C025E060A840B8E493A3FAE49379
:100BFB00A3F8E493A3C8C582C8CAC583CAF0A3C827
:100C0B00C582C8CAC583CADFE9DEE780BE0D0A20EC
:100C1B00537461727420546573742120000D0A2083
:100C2B00534D425F444154415F494E3A205B305D26
:100C3B005B315D2D3E3078253032582000534D42CC
:100C4B00305F493243205772697465204572726F69
:100C5B00722021212100534D42305F4932432057EE
:100C6B0072697465204661696C65642021212100DD
:100C7B00900114E5A7F075A72043C812E4F5DA43F9
:100C8B00930CC004C005C006C007900110E0FCA384
:100C9B00E0FDA3E0FEA3E0FF900119120526D007AB
:100CAB00D006D005D004120A9F900114E0F5A722BC
:100CBB00AD07AC069001347402F090014B7410F048
:100CCB00EC900137F0EFA3F0120DD490014B7410A0
:100CDB00F012007690014CE0FEA3E0FDEDFF2253F5
:100CEB0088CF5389F0438901438E04EF6012C28C85
:100CFB00758CA0758A4CC28DD28C308DFD1F80EB0C
:100D0B00C28C22AB07AA069001347404F090014BFD
:100D1B007410F0EA900137F0EFA3F0ECA3F0EDA321
:100D2B00F0120DD4D32275A710E59854045398FBF9
:100D3B0075A33875A29E43980442982275AD8875A9
:100D4B00BD5053BAFB43BA1843BA022275A720759C
:100D5B0094437596FF75959643C8102275A720533B
:100D6B00BAFD43BA0275A71053987F32AEA775A789
:100D7B002030C9FD8F92C2C98EA722AFA7120DA238
:100D8B0012003A120DC98FA72253C17F43C1805362
:100D9B00917FC2C5C20A32E4F5A775A60875A720D4
:100DAB0075CC0822E4F5A7758E0975892043884018
:100DBB0022E4F5A775E68175F30675A89022E4F594
:100DCB00A7F5A9E5A930E7FB22200AFDD20AC20B41
:100DDB00D2C522E4F5A77597DE7597AD22E4F5A988
:100DEB00E5A930E7FB2275A41075D4FF2275A51079
:0B0DFB0075D5032253C1FC43C1DD226B
:00000001FF
